:020000040800F2
:10000000601C0020E1010008292500082F240008B9
:10001000252500085D0500083F5A00080000000083
:10002000000000000000000000000000452A000859
:100030005107000800000000192A0008472A00089C
:10004000FB010008FB010008FB010008FB010008A0
:10005000FB010008FB010008FB010008FB01000890
:10006000FB010008FB010008FB010008FB01000880
:10007000FB010008FB010008FB010008FB01000870
:10008000FB010008FB010008FB010008FB01000860
:1000900089590008FB010008FB010008FB0100086A
:1000A000FB010008FB010008FB010008FB01000840
:1000B000FB010008FB010008FB010008FB01000830
:1000C000FB010008FB010008FB010008FB01000820
:1000D000FB010008FB010008FB010008FB01000810
:1000E000FB010008FB010008FB01000800F002F81A
:1000F00000F066F80AA090E8000C82448344AAF15C
:100100000107DA4501D100F05BF8AFF2090EBAE859
:100110000F0013F0010F18BFFB1A43F0010318473B
:100120006C5A00008C5A000010F8013B0A4413F08E
:10013000030408BF10F8014B1D1108BF10F8015B44
:10014000641E05D010F8016B641E01F8016BF9D133
:10015000002D15D010F8014B03F00C030C2BA1EB74
:1001600004040ABF10F8013BA4EB8314A4EB03249E
:1001700005F1010314F8016B5B1E01F8016BF9D561
:10018000914238BF10F8013BD1D3704700230024BF
:1001900000250026103A28BF78C1FBD8520728BF97
:1001A00030C148BF0B607047642900F0A5807329F7
:1001B00000F07381002070471FB51FBD10B510BD42
:1001C00000F09AF91146FFF7F7FF05F065FC00F023
:1001D000B8F903B4FFF7F2FF03BC05F04FFC0000D1
:1001E0000948804709480047FEE7FEE7FEE7FEE7CB
:1001F000FEE7FEE7FEE7FEE7FEE7FEE70448054907
:10020000054A064B70470000D12A0008ED0000089F
:1002100060160020601C002060180020601800207C
:10022000704700000FB4044910B503AA029800F00B
:1002300039F910BC5DF814FB000000202DE9F041F5
:100240000E460446002020622046E168884730B30D
:10025000252805D0D4E901219047206A401CF2E707
:10026000E168204600278847050018D0A5F1410025
:10027000192802D820354FF4006732462946204617
:100280002760FFF791FF40B1012804D0F61D26F04A
:1002900007060836D8E7361DD6E72846DAE7206A8B
:1002A000BDE8F08170B50C460546012A05D02878D6
:1002B000800600D5EA69002302E0012305E05B1C0B
:1002C000934202D2E05C0028F9D1A869E618C01A6E
:1002D000A861286A184428622846AFF3008004E029
:1002E000D5E9012114F8010B9047B442F8D3284610
:1002F000AFF3008070BD00002DE9F04106460024F8
:1003000010687529314616A510D0AFF3008000287B
:1003100002DA404213A507E031688A0701D512A529
:1003200002E0490704D511A5012401E0AFF30080E4
:1003300000210A2206F1240709E0B0FBF2FCB0FB21
:10034000F2F302FB1C00303078541846491C002898
:10035000F3D123462A463046BDE8F04100F032B8DA
:10036000000000002D0000002B0000002000000015
:100370004FF0000200B5134694469646203922BF3E
:10038000A0E80C50A0E80C50B1F12001BFF4F7AF89
:10039000090728BFA0E80C5048BF0CC05DF804EB6B
:1003A000890028BF40F8042B08BF704748BF20F8D9
:1003B000022B11F0804F18BF00F8012B70477047D7
:1003C000704770472DE9F0470D469946924604461E
:1003D00000F124080168880604D5E06921F01001C5
:1003E000216000E00120A84201DD471B00E000275A
:1003F000A1697A1902EB0900081AA0612078C006E9
:1004000002D42046AFF30080002608E0D4E90121A1
:100410001AF806009047206A401C761C20624E4560
:10042000F4DB2078C0060AD52046AFF3008006E052
:10043000D4E9012130209047206A401C2062381EF8
:10044000A7F10107F4DC07E0D4E9012118F8050061
:100450009047206A401C2062281EA5F10105F3DCAC
:100460002046AFF300802078000602D50220BDE8C8
:10047000F0870120FBE710B5436913B1AFF30080AB
:1004800001E0FFF70FFF012010BD127800F12401F9
:100490000A7000224A700122EDE711684FF0FF3226
:1004A000E9E70000074B70B50D467B4400F011F8FA
:1004B0000446284605F0E4FA10B14FF0FF3070BD55
:1004C000204670BDDB55000001694A1C02610878B6
:1004D000704700B58FB0CDE9013100210591054984
:1004E0007944CDE9031011466846FFF7A7FE0FB027
:1004F00000BD0000E5FFFFFF754600F02BF8AE469B
:1005000005006946534620F00700854618B020B51F
:10051000FFF774FEBDE820404FF000064FF00007E3
:100520004FF000084FF0000B21F00701AC46ACE89B
:10053000C009ACE8C009ACE8C009ACE8C0098D4608
:10054000704710B50446AFF300802046BDE8104068
:10055000FFF73FBE004870470016002000BFFEE7CF
:100560002DE9F04105460E4617463446042D29D0A4
:1005700007DC7DB1012D13D0022D17D0032D52D1F0
:100580001AE0202D24D0212D3BD0222D3FD0232D29
:1005900049D142E0C122264926A0FFF743FE43E0AD
:1005A000C522234923A0FFF73DFE3DE0C922204993
:1005B00020A0FFF737FE37E0CD221D491DA0FFF731
:1005C00031FE31E0D1221A491AA0FFF72BFE2BE0B1
:1005D000E62217491AA02368FFF724FE2379E722B1
:1005E00013491DA0FFF71EFE6379E822104920A0E1
:1005F000FFF718FEA379E9220D4924A0FFF712FEA8
:1006000012E0ED220A490BA0FFF70CFE0CE0F122EC
:10061000074908A0FFF706FE06E0F522044905A0F9
:10062000FFF700FE00E000BF00BF0020BDE8F08142
:10063000245B00085B25735D2025643A0D0A0000E9
:100640005B25735D2025643A62697472617465206C
:100650003D2025640D0A00005B25735D2025643A6A
:10066000666F726D6174203D2025640D0A000000E4
:100670005B25735D2025643A7061726974797479C1
:100680007065203D2025640D0A0000005B25735D28
:100690002025643A6461746162697473203D202589
:1006A000640D0A000020704710B500220449054877
:1006B00002F042FC0449034802F037FC002010BD60
:1006C000580C0020940300205808002070B5044600
:1006D0000D462146064802F028FC054802F008FCB9
:1006E000288881B2204600F005F8002070BD000087
:1006F000940300202DE9F04104460D4600260A48E7
:10070000D0F8B872D7F8140210B10120BDE8F0811A
:100710002A462146044802F00FFC034802F090FCF0
:1007200006463046F2E700009403002000207047A0
:100730000020704770B505460E460448D0F8B84210
:100740004021204602F056FD002070BD9403002099
:10075000704772B600BFFEE770B50A480468001D16
:100760000568001D0668344454B108220649204635
:1007700001F05FFE042204491031284601F059FEC1
:1007800070BD0000E8F7FF1F3E00002070B5044672
:1007900000F0A0F906462546681C10B10448007810
:1007A000054400BF00F096F9801BA842FAD370BD43
:1007B0005C0100202DE9F8470346002294466EE1D3
:1007C0004FF0010808FA02F4D1F8008008EA0400AA
:1007D000A0427DD1DFF8DCA2D1F80480A8EB0A09A1
:1007E000D0453AD014DCB8F1030F50D009DCB8F191
:1007F000000F31D0B8F1010F1CD0B8F1020F49D170
:1008000020E0B8F1110F18D0B8F1120F42D11EE05C
:10081000B9F5881F25D006DCB9F5803F20D0B9F5A1
:10082000801F37D11AE0B9F5001F18D0B9F5041FA1
:1008300030D117E0D1F80CC02DE0D1F80C8008F1D0
:10084000040C28E0D1F80C8008F1080C23E0D1F862
:100850000C8008F10C0C1EE000BF00BF00BF00BF01
:1008600000BF00BFD1F80880B8F1000F02D14FF0EF
:10087000040C0BE0D1F80880B8F1010F03D14FF060
:10088000080C1C6102E04FF0080C5C6103E04FF0C3
:10089000000C00E000BF00BFFF2801D8984601E02F
:1008A00003F104084646FF2802D84FEA820803E015
:1008B000A2F108084FEA88084746D6F800804FF0B2
:1008C0000F0909FA07F928EA09080CFA07F900E004
:1008D00088E048EA0908C6F80080D1F8048008F0EA
:1008E0008058B8F1805F7DD100BFDFF8CC81D8F8A7
:1008F000188048F00108DFF8C091C9F81880C84690
:10090000D8F8188008F00108CDF8008000BF00BFBB
:100910004FEAB9384FEA920958F829504FEA8278DD
:100920004FEA18794FF00F0808FA09F825EA080588
:10093000DFF88881434502D14FF0000816E0DFF868
:100940008081434502D14FF001080FE0DFF8748148
:10095000434502D14FF0020808E0DFF86C814345BF
:1009600002D14FF0030801E04FF004084FEA82790A
:100970004FEA197908FA09F848EA0505DFF84C81C9
:100980004FEA920948F82950D1F8048008F48018F9
:10099000B8F5801F0AD1DFF83881D8F8008048EA1E
:1009A0000008DFF82C91C9F8008009E0DFF8208109
:1009B000D8F8008028EA0008DFF81491C9F8008010
:1009C000D1F8048008F40018B8F5001F10D1DFF842
:1009D000008108F10408D8F8008048EA0008DFF830
:1009E000F09000E05AE009F10409C9F800800DE038
:1009F000DFF8DC8008F10408D8F8008028EA000855
:100A0000DFF8CC9009F10409C9F80080D1F804801E
:100A100008F40038B8F5003F0ED1DFF8B480A8F133
:100A20000408D8F8008048EA0008DFF8A490A9F18B
:100A30000409C9F800800DE0DFF89480A8F10408EB
:100A4000D8F8008028EA0008DFF88490A9F10409AA
:100A5000C9F80080D1F8048008F48038B8F5803FE8
:100A60000ED1DFF86C80A8F10808D8F8008048EAB9
:100A70000008DFF85C90A9F10809C9F800800DE0D2
:100A8000DFF84C80A8F10808D8F8008028EA0008B0
:100A9000DFF83C90A9F10809C9F80080521CD1F890
:100AA000008028FA02F8B8F1000F7FF489AEBDE8A3
:100AB000F8870000000011100010024000080140FB
:100AC000000C0140001001400014014008000140EA
:100AD00008040140014800687047000054010020EC
:100AE00003480068034909780844014908607047D1
:100AF000540100205C01002010B50848006840F057
:100B0000100006490860032000F0A8F80F2000F04C
:100B100007F800F02BF8002010BD00000020024074
:100B200070B504460E4800784FF47A71B1FBF0F0CE
:100B30000C490968B1FBF0F5284601F07FFB08B1CC
:100B4000012070BD102C07D200222146501E00F05B
:100B500047F80548046001E00120F2E70020F0E7D3
:100B60005C010020600100205801002008B500BF92
:100B70001148806940F001000F498861084680698A
:100B800000F00100009000BF00BF00BF0846C06930
:100B900040F08050C8610846C06900F08050009065
:100BA00000BF00BF00BF0549486820F0E06040F08A
:100BB0000070486000BF08BD001002400000014006
:100BC00001460846002809DB00F01F0301229A4075
:100BD00043099B0003F1E023C3F8002100BF7047E5
:100BE0002DE9F05F80460D461646002704F02AFFE7
:100BF000074639462A46334601F00700C0F1070A86
:100C0000BAF1040F02D94FF0040A01E0C0F1070A5B
:100C1000D14600F1040ABAF1070F02D24FF0000AE0
:100C200001E0A0F1030AD4464FF0010A0AFA09FADA
:100C3000AAF1010A0AEA020A0AFA0CFA4FF0010BB9
:100C40000BFA0CFBABF1010B0BEA030B4AEA0B04AA
:100C50002146404604F0FEFEBDE8F09F00BF00F0D4
:100C60000702064B19684FF6FF031940044B0B436C
:100C700043EA0221014B196000BF70470CED00E010
:100C80000000FA0570B505460C4604F08000802887
:100C900008D104F0070000EB800605F1100000EB1E
:100CA000C60105E004EB840605F5A87000EBC6015B
:100CB0001AB900200873CB8004E0012008730B816F
:100CC000180C4881002070BD704770B504460D4671
:100CD00005EB850304F1100101EBC3014A692946C4
:100CE000D4F8D40202F048FE70BD70B504460D463B
:100CF00005EB850304F5A87101EBC3014A69294698
:100D0000D4F8D40202F0B8FE70BD70B504460E46A9
:100D100006F0800080280AD106F0070000EB800171
:100D200004F1100000EBC1050120687009E006F035
:100D3000070000EB800104F5A87000EBC10500205E
:100D4000687006F00700287000BF94F89002012830
:100D500001D1022070BD012084F8900200BF294615
:100D6000206803F0E8FE00BF002084F8900200BF76
:100D700000BFEFE770B504460E4606F00F0021797C
:100D8000884201D9012070BD06F0800080280AD178
:100D900006F0070000EB800104F1100000EBC10534
:100DA0000120687009E006F0070000EB800104F5FF
:100DB000A87000EBC105002068700020A87006F044
:100DC0000700287000BF94F89002012801D102208A
:100DD000D9E7012084F8900200BF2946206804F07A
:100DE00006F800BF002084F8900200BF00BFCAE7E9
:100DF0002DE9F04105460C46174607F480400028CF
:100E000050D02868B0F85010207801EBC000801C4A
:100E1000296801F5806131F81000C0F30906A06966
:100E2000B04203D3A069801BA06101E00020A06153
:100E3000A069A8B900BF22785200296831F81210C1
:100E40004BF68F7201EA020080F4005040F400413A
:100E500041F0800123785B002A6822F8131000BF5C
:100E600007F04000A8B100BF00BF227852002968F7
:100E700031F8121048F68F7201EA020040F4004186
:100E800041F0C00123785B002A6822F8131000BFEC
:100E900000BF002E55D0228961693346286804F0CE
:100EA0007FFD4EE02868B0F85010207801EBC000BC
:100EB000801D296801F5806131F81000C0F3090632
:100EC000A069B04203D3A069801BA06101E00020AB
:100ED000A061A069A8B900BF22785200296831F842
:100EE00012104BF68F7201EA020080F4005040F4B9
:100EF000004141F0800123785B002A6822F813103A
:100F000000BF07F04000A8B900BF00BF2278520020
:100F1000296831F8121048F68F7201EA020040F495
:100F2000004141F0C00123785B002A6822F81310C9
:100F300000BF00BF2EB1628961693346286804F0A2
:100F40002FFD3046BDE8F0812DE9F04705460C46FF
:100F5000904608F0400000287ED02868B0F8501075
:100F6000207801EBC000801C296801F5806131F810
:100F70001000C0F30907A069B84203D9A069C01BDB
:100F8000A06101E00020A061A06900287ED100BF1F
:100F90006078C0B900BF29682A68B2F850201144AF
:100FA0002278022303EBC20201F5806303EB4200C7
:100FB00000BF0288C2F309020280028842F40042A4
:100FC000028000BF13E06078012810D100BF2868BC
:100FD0002A68B2F8502010442278022303EBC202A0
:100FE00000F5806303EB420100220A8000BF00BFCE
:100FF00000BF29686078F8B900BF2B68D5F800C039
:10100000BCF850C0634494F800C04FF0060909EBE7
:10101000CC0C03F5806909EB4C0000BFB0F800C0B0
:10102000CCF3090CA0F800C0B0F800C04CF4004CA0
:10103000A0F800C000BF12E0607801280FD1286836
:10104000B0F8500001442078062303EBC00001F5FE
:10105000806303EB400200E0B7E00020108000BF97
:1010600021782846FFF731FE08F48040002816D08A
:1010700000BF00BF22785200296831F8121048F6EC
:101080008F7201EA020040F4004100E008E041F400
:10109000814123785B002A6822F8131000BFD7E152
:1010A00008F48040A8B100BF00BF22785200296830
:1010B00031F8121048F68F7201EA020040F4004144
:1010C00041F4814123785B002A6822F8131000BFA5
:1010D00000BF94F824000128E1D1606938446061C0
:1010E000E0693844E0612169206A884204D32669B6
:1010F000206A801B20620BE0206A20B93E46002057
:1011000084F8240004E0002084F82400266A206289
:1011100000BF6078E8BB00BF2A682968B1F85010AA
:101120000A442178022303EBC10102F5806303EB3B
:101130004101084600BF0388C3F3090303803E2E24
:1011400010D900BF710906F01F0303B9491E0388B7
:101150004FF4004C4CEA812C1FFA8CFC43EA0C0340
:10116000038014E026B9038843F4004303800EE0B3
:1011700000BF710806F0010303B1491C03884FF654
:10118000FF7C0CEA812C43EA0C03038000BF00BF04
:1011900013E0FFE7607801280FD100BF28682A68B4
:1011A000B2F8502010442278022303EBC20200F56B
:1011B000806303EB42010E8000BF00BFB3B22289FF
:1011C0006169286804F01BFC42E12868B0F85010FF
:1011D000207801EBC000801D296801F5806131F89D
:1011E0001000C0F30907A069B84203D3A069C01B6F
:1011F000A06101E00020A061A06900287ED100BFAD
:101200006078C0B900BF29682A68B2F8502011443C
:101210002278022303EBC20201F5806303EB420054
:1012200000BF0288C2F309020280028842F4004231
:10123000028000BF13E06078012810D100BF286849
:101240002A68B2F8502010442278022303EBC2022D
:1012500000F5806303EB420100220A8000BF00BF5B
:1012600000BF29686078F8B900BF2B68D5F800C0C6
:10127000BCF850C0634494F800C04FF0060909EB75
:10128000CC0C03F5806909EB4C0000BFB0F800C03E
:10129000CCF3090CA0F800C0B0F800C04CF4004C2E
:1012A000A0F800C000BF10E0607801280DD12868C8
:1012B000B0F8500001442078062303EBC00001F58C
:1012C000806303EB40020020108000BF2178284695
:1012D000FFF7FBFC08F48040002816D100BF00BFD8
:1012E00022785200296831F8121048F68F7201EA0C
:1012F000020040F4004141F4814100E006E023781F
:101300005B002A6822F8131000BFA1E008F48040B7
:10131000A8B900BF00BF22785200296831F8121026
:1013200048F68F7201EA020040F4004141F4814125
:1013300023785B002A6822F8131000BF00BF94F8DE
:10134000240001287ED1606938446061E069384436
:10135000E0612169206A884204D32669206A801BE3
:1013600020620BE0206A20B93E46002084F8240069
:1013700004E0266A0020206284F8240000BF2A6866
:10138000607870BB00BFD5F800C02968B1F8501074
:101390008C4421784FF0060909EBC1010CF58069F6
:1013A00009EB4101084600BFB0F80090C9F30909F4
:1013B000A0F800903E2E15D900BF710906F01F0954
:1013C000B9F1000F00D1491EB0F800904FF4004A67
:1013D0004AEA812A1FFA8AFA49EA0A09A0F8009023
:1013E0001BE01CE036B9B0F8009049F40049A0F8C1
:1013F000009012E000BF710806F00109B9F1000F7A
:1014000000D0491CB0F800904FF6FF7A0AEA812A12
:1014100049EA0A09A0F8009000BF00BF0FE0607819
:1014200001280CD12868B0F8500002442078062129
:1014300001EBC00002F5806101EB40031E8000BF9C
:10144000B3B200E004E062896169286804F0D7FA69
:1014500000BF22785200296831F8121048F6BF7296
:1014600001EA020080F0100080F0200040F400410A
:1014700041F0800223785B00296821F8132000BF27
:101480000020BDE8F087024601F0070000EB800372
:1014900002F5A87000EBC300C06970472DE9F04762
:1014A00005460E4690461F464FF0000906F08000A4
:1014B00080280AD106F0070000EB800105F110003A
:1014C00000EBC1040120607009E006F0070000EBAA
:1014D000800105F5A87000EBC1040020607006F0E3
:1014E00007002070C4F81080E770022F01D100209F
:1014F000207100BF95F89002012802D10220BDE8BA
:10150000F087012085F8900200BF2146286803F08B
:10151000B6F800BF002085F8900200BF4846EEE70D
:101520002DE9F04105460E461746984606F007009D
:1015300000EB800105F5A87000EBC1046761C4F8F9
:1015400018800020E061607006F0070020702146DE
:10155000286803F0E7FC0020BDE8F08170B5044680
:101560000D4605F007002179884201D9012070BDA0
:1015700005F0800080280AD105F0070000EB80010B
:1015800004F1100000EBC1060120707007E005EBCC
:10159000850104F5A87000EBC106002070700120E1
:1015A000B07005F00700307000BF94F89002012879
:1015B00001D10220DBE7012084F8900200BF314610
:1015C000206803F081FC05F0070020B904F52671BE
:1015D000206803F009FC00BF002084F8900200BFDF
:1015E00000BFC4E72DE9F04105460E4690461F4670
:1015F00006F0070000EB800105F1100000EBC104CC
:10160000C4F81480A761012084F824002762002018
:10161000E0610120607006F0070020702146286814
:1016200003F080FC0020BDE8F0817FB5044620680F
:1016300004F0B2F9064606F40040B0F5004F03D1BD
:10164000204600F073FF7FBD06F48060B0F5806F28
:1016500010D12068B0F844004FF6FF3108402168EF
:10166000A1F84400204600F087F90021204600F050
:10167000A3F9E8E706F48040B0F5804F09D120686F
:10168000B0F844004BF6FF7108402168A1F844000F
:10169000D9E706F40050B0F5005F09D12068B0F832
:1016A00044004DF6FF7108402168A1F84400CAE7E4
:1016B00006F48050B0F5805F1ED12068B0F840007D
:1016C0004FF6FB7108402168A1F840002068B0F88F
:1016D00040004FF6F77108402168A1F8400020460D
:1016E00000F05CF92068B0F844004EF6FF71084045
:1016F0002168A1F84400A6E706F40060B0F5006F89
:1017000056D1002507E06900206830F811002DF857
:101710001500681CC5B2082DF5D32068B0F840004C
:1017200040F001002168A1F840002068B0F84000B6
:101730004FF6FE7108402168A1F8400000BF206804
:10174000B0F8440000F480600028F8D02068B0F8B9
:1017500044004FF6FF3108402168A1F844000025FD
:1017600007E03DF815006A00216821F81200681CA6
:10177000C5B2082DF5D32068B0F8400040F008004D
:101780002168A1F840002068B0F844004FF2FF71D2
:1017900008402168A1F844002068B0F8400040F0FB
:1017A00004002168A1F84000204600F047F94AE70C
:1017B00006F40070B0F5007F0CD12068B0F844004A
:1017C0004FF6FF5108402168A1F84400204600F080
:1017D000ECF838E706F48070B0F5807F09D1206816
:1017E000B0F844004FF6FF6108402168A1F84400BA
:1017F00029E700BF27E770B504460CB9012070BD8A
:1018000094F8910228B9002084F89002204600F054
:1018100091F8032084F8910200216171206803F09F
:10182000D9FA94E80F0003F082F920B1022084F87D
:1018300091020120E3E70021206804F0D6F820B1EE
:10184000022084F891020120D9E700252AE0012135
:1018500005EB850204F1100000EBC200417005EBBE
:10186000850104F1100000F83150002105EB8502DC
:1018700000EBC200C17005EB850204F1100000EB23
:10188000C200016105EB850204F1100000EBC2000B
:10189000416105EB850204F1100000EBC20081619B
:1018A000681CC5B22079A842D1DC00252AE00021BD
:1018B00005EB850204F5A87000EBC200417005EB52
:1018C000850104F5A87000F83150002105EB850270
:1018D00000EBC200C17005EB850204F5A87000EBB7
:1018E000C200016105EB850204F5A87000EBC2009F
:1018F000416105EB850204F5A87000EBC20081612F
:10190000681CC5B22079A842D1DC94E80F0003F02E
:1019100056FA20B1022084F8910201206FE70020DE
:101920006073012084F89102206803F045FA0020DA
:1019300065E7000038B504460D492068884215D196
:1019400000BF0C48C06940F400000A49C86108465D
:10195000C06900F40000009000BF00BF00221146E3
:101960001420FFF73DF91420FFF72AF938BD0000D5
:10197000005C00400010024070B504460125A079CB
:10198000022801D0FEF7E5FE2946D4F8D40202F081
:10199000B5F9D4F8D40202F067F970BD10B5044669
:1019A000D4F8D40202F08EF910BD10B50446D4F874
:1019B000D40202F092F910BD70B504460D4600BF86
:1019C00094F89002012801D1022070BD012084F812
:1019D000900200BF65732946206804F009F800BF33
:1019E000002084F8900200BF00BFEEE710B5044667
:1019F00004F52671D4F8D40202F097F910BD10B5A1
:101A0000044600BF94F89002012801D1022010BDC5
:101A1000012084F8900200BF206803F0ABFF012191
:101A20002046FFF751F9206803F0C3F900BF0020FA
:101A300084F8900200BF00BFE9E7000010B504463B
:101A4000D4F8D40202F0CAF9A07A28B10348006899
:101A500040F006000149086010BD000010ED00E0F4
:101A6000F8B5044600260025207800F00100002883
:101A70006BD000274348C06900F0805070B900BFA8
:101A80004048C06940F080503E49C8610846C0697E
:101A900000F08050009000BF00BF01273A48006866
:101AA00000F48070B0B93848006840F4807036495E
:101AB0000860FFF70FF8064606E0FFF70BF8801BFB
:101AC000642801D90320F8BD2F48006800F4807015
:101AD0000028F2D02B48006A00F440752DB3A0888E
:101AE00000F44070A84220D02648006A20F44075D7
:101AF000012026490860002008602248056205F0A0
:101B0000010090B1FEF7E6FF064608E0FEF7E2FFAF
:101B1000801B41F28831884201D90320D3E719485C
:101B2000006A00F002000028F0D01648006A20F495
:101B300040706168084313490862012F04D10846C8
:101B4000C06920F08050C86100BF207800F002001A
:101B5000022807D10B48406820F44040A1680843A0
:101B600008494860207800F01000102807D1054887
:101B7000406820F48000E168084302494860002082
:101B8000A1E7000000100240007000404004424203
:101B900070B504460D460CB9012070BD5A48006866
:101BA00000F00700A8420ED25748006820F0070056
:101BB0002843554908600846006800F00700A8421D
:101BC00001D00120E9E7207800F0020002281DD1B1
:101BD000207800F00400042805D14C48406840F407
:101BE000E0604A494860207800F00800082805D1E4
:101BF0004648406840F46050444948604348406863
:101C000020F0F000A168084340494860207800F0C7
:101C1000010078B36068012806D13C48006800F4F0
:101C2000003090B90120B8E76068022806D1374833
:101C3000006800F0007040B90120AEE7334800684A
:101C400000F0020008B90120A7E73048406820F002
:101C50000300616808432D494860FEF73BFF0646D4
:101C600009E0FEF737FF801B41F28831884202D934
:101C7000032092E707E02548406800F00C00616807
:101C8000B0EB810FEDD12048006800F00700A842BA
:101C90000ED91D48006820F0070028431A49086043
:101CA0000846006800F00700A84201D0012074E750
:101CB000207800F00400042807D11448406820F47C
:101CC000E060E168084311494860207800F00800AE
:101CD000082808D10D48406820F46050216940EA86
:101CE000C1000A49486000F03FF808494968C1F35B
:101CF0000311074A515CC84006490860064800685D
:101D0000FEF70EFF002048E70020024000100240CE
:101D1000715B000860010020580100200148006844
:101D2000704700006001002000B5FFF7F7FF04498D
:101D30004968C1F30221034A515CC84000BD00005C
:101D400000100240815B000800B5FFF7E7FF04497F
:101D50004968C1F3C221034A515CC84000BD00007C
:101D600000100240815B000870B5002100220024B1
:101D700000230020134D696801F00C05F5B1042D16
:101D800002D0082D19D101E00F4819E00F4DC1F321
:101D90008346AB5D01F4803555B10A4D6D68C5F3DE
:101DA00040450B4E725D084D5D43B5FBF2F402E019
:101DB000084D03FB05F4204602E000BF024800BFC7
:101DC00000BF70BD0010024000127A005F5B000887
:101DD0006F5B000800093D00F8B504460CB901200E
:101DE000F8BD207800F00100002878D0F84840685D
:101DF00000F00C0004280CD0F548406800F00C00FE
:101E0000082811D1F248406800F48030B0F5803FD6
:101E10000AD1EF48006800F4003000285FD0606805
:101E200000285CD10120DBE700BF6068B0F5803F8F
:101E300006D1E748006840F48030E549086028E0B2
:101E4000606858B9E248006820F48030E0490860D2
:101E50000846006820F4802008601AE06068B0F549
:101E6000A02F0BD1DA48006840F48020D8490860E0
:101E70000846006840F4803008600AE0D4480068F2
:101E800020F48030D24908600846006820F48020A1
:101E9000086000BF606888B1FEF71CFE054606E0DA
:101EA000FEF718FE401B642801D9032098E7C848B4
:101EB000006800F400300028F2D010E0FEF70AFEBF
:101EC000054606E0FEF706FE401B642801D9032004
:101ED00086E7BF48006800F400300028F2D120787F
:101EE00000F00200022857D1B948406800F00C0009
:101EF00050B1B748406800F00C00082818D1B44829
:101F0000406800F4803098B9B148006800F00200E1
:101F100020B12069012801D0012061E7AC480068A8
:101F200020F0F800616940EAC100A949086033E087
:101F30002069E8B10120A7490860FEF7CBFD0546FE
:101F400006E0FEF7C7FD401B022801D9032047E742
:101F50009F48006800F002000028F2D09C4800680A
:101F600020F0F800616940EAC1009949086013E077
:101F7000002098490860FEF7ADFD054606E0FEF733
:101F8000A9FD401B022801D9032029E790480068D9
:101F900000F002000028F2D1207800F008000828A4
:101FA0002DD1A069B8B101208B490860FEF792FDE0
:101FB000054606E0FEF78EFD401B022801D90320EE
:101FC0000EE78348406A00F002000028F2D00120AA
:101FD00000F024FD13E000207F490860FEF77AFD41
:101FE000054606E0FEF776FD401B022801D90320D6
:101FF000F6E67748406A00F002000028F2D1207827
:1020000000F00400042873D100277148C06900F073
:10201000805070B900BF6E48C06940F080506C4974
:10202000C8610846C06900F08050009000BF00BF42
:1020300001276A48006800F48070B0B967480068FA
:1020400040F4807065490860FEF744FD054606E0EF
:10205000FEF740FD401B642801D90320C0E65F481D
:10206000006800F480700028F2D000BFE06801280A
:1020700006D15748006A40F001005549086227E040
:10208000E06858B95248006A20F0010050490862DF
:102090000846006A20F00400086219E0E06805289C
:1020A0000BD14B48006A40F00400494908620846D9
:1020B000006A40F0010008620AE04548006A20F02A
:1020C0000100434908620846006A20F004000862E3
:1020D00000BFE068A0B1FEF7FDFC054609E0FEF791
:1020E000F9FC401B41F28831884202D9032077E68F
:1020F00022E03748006A00F002000028EFD012E02A
:10210000FEF7E8FC054608E0FEF7E4FC401B41F260
:102110008831884201D9032062E62D48006A00F028
:1021200002000028F0D1012F05D12948C06920F014
:1021300080502749C86100BFE069C8B3244840689F
:1021400000F00C00082860D0E069022848D1002087
:1021500020490866FEF7BEFC054606E0FEF7BAFC1D
:10216000401B022801D903203AE61948006800F014
:1021700000700028F2D1206AB0F5803F07D11448E2
:10218000406820F40030A168084311494860D4E950
:10219000080108430E49496821F4741108430C49A9
:1021A000486001200B490866FEF794FC054607E0ED
:1021B0003DE0FEF78FFC401B022801D903200FE60B
:1021C0000348006800F000700028F2D02FE0000003
:1021D0000010024000004242800442420070004071
:1021E000002014490866FEF775FC054606E0FEF778
:1021F00071FC401B022801D90320F1E50E4800685C
:1022000000F000700028F2D111E0E069012800D14F
:10221000E6E50948466806F48031206A814204D127
:1022200006F47011606A814201D00120D8E50020D7
:10223000D6E50000000042420010024070B504469E
:102240002546681EB0F1807F01D301200FE0681E93
:102250004FF0E02148610F214FF0FF3003F0FAFB0F
:1022600000204FF0E021886107200861002070BD48
:1022700010B504460CB9012010BDA06900B100E002
:1022800000BF94F8410028B9002084F8400020469F
:1022900000F02AF8242084F841002068C06820F467
:1022A00000502168C860204600F04AFC20680069A0
:1022B00020F49040216808612068406920F02A00DD
:1022C000216848612068C06840F400502168C860F7
:1022D00000206064202084F8410084F8420000203F
:1022E000606300BFC8E7000010B586B00446002058
:1022F00002900390049005901A49206888422ED1DC
:1023000000BF1948806940F4804017498861084639
:10231000806900F48040019000BF00BF00BF084604
:10232000806940F0040088610846806900F004007C
:10233000019000BF00BF48150290022003900320C7
:10234000059002A90948FEF735FA4FF48060029023
:1023500000200390049002A90448FEF72BFA06B06F
:1023600010BD00000038014000100240000801408C
:102370002DE9F84F04460E46174699464FF0000ADD
:1023800094F84100202850D106B117B90120BDE8CA
:10239000F88F00206064212084F84100FEF79AFB4A
:1023A0008246A784E784A068B0F5805F04D12069E5
:1023B00010B90025B04602E035464FF000081EE097
:1023C0005346002280212046CDF8009000F036FCD4
:1023D00020B1202084F841000320D8E745B9B8F89F
:1023E0000000C0F308002168486008F1020803E01B
:1023F0002878216848606D1CE08C401EE084E08CE9
:102400000028DDD15346002240212046CDF800901F
:1024100000F014FC20B1202084F841000320B6E72E
:10242000202084F841000020B1E70220AFE700BF80
:10243000FEE730B50B46002100BF16E00A24B4EBDE
:10244000107F05D9302404EB107403F8114005E027
:10245000412404EB10740A3C03F8114000010025EC
:102460004C00641C1D554C1CE1B29142E6DB30BDB2
:1024700008B500BF0D48806940F020000B49886115
:102480000846806900F02000009000BF00BF00BF38
:102490000846806940F0040088610846806900F0C1
:1024A0000400009000BF00BF08BD00000010024003
:1024B00010B50B480B4908604FF4612048600021BB
:1024C00008488160C16001610C2141610021816186
:1024D000C161FFF7CDFE08B1FEF73BF910BD00006A
:1024E000003801404C03002010B500220A490B4877
:1024F00001F003FA08B1FEF72CF90949074801F089
:10250000A3FC08B1FEF725F9044801F067FD08B106
:10251000FEF71FF910BD0000080000209403002002
:10252000A400002000BFFEE700BFFEE72DE9F05F3A
:10253000054667E22868B0F844A00AF00F07002FAC
:102540007ED10AF0100098BB00BF2968098848F6C0
:102550000F7201EA020040F400412A68118000BFB6
:1025600005F110042868B0F85010207801EBC00085
:10257000801C296801F5806131F81000C0F3090062
:10258000E061E16960690844606100212846FEF766
:102590009CFB687B0028CCD0A0690028C9D1687B4F
:1025A00040F080002968A1F84C000020687329E2FF
:1025B000FFE705F5A8742868068806F4006030B3C4
:1025C0002868B0F85010207801EBC000801D296801
:1025D00001F5806131F81000C0F30900E061A18BC2
:1025E0008BB2E28805F52671286803F0D9F900BF9F
:1025F0002968098840F68F7201EA020040F08001E4
:102600002A68118000BF2846FFF7F0F9FAE106F4C6
:10261000004000288DD000BF2968098840F68F72DD
:1026200001EA020040F080012A68118000BF28689A
:10263000B0F85010207801EBC000801D296800E040
:1026400076E001F5806131F81000C0F30900E06127
:10265000E06990B1606980B1B4F81CC01FFA8CF3D6
:10266000E2886169286803F09BF9E16960690844C0
:10267000606100212846FEF738FB2868068806F4CA
:102680000060002893D106F44050B0F5405F8ED032
:1026900000BF2A682968B1F850100A4402F20C41C0
:1026A000084600BF0388C3F30903038023693E2B58
:1026B00012D900BF23695909237C03F01F0303B912
:1026C000491E03884FF4004C4CEA812C1FFA8CFC05
:1026D00043EA0C03038017E0236923B9038843F41A
:1026E0000043038010E000BF23695908237C03F0F6
:1026F000010303B1491C03884FF6FF7C0CEA812CCF
:1027000043EA0C03038000BF00BF00BF00BF29687D
:1027100009884BF68F7201EA020080F4805080F441
:10272000005040F4004141F080012A68118069E1C5
:102730007900286830F8116006F4004000286FD056
:1027400000BF7A00296831F8121040F68F7201EA52
:10275000020040F080017B002A6822F8131000BFBD
:1027600007EB870105F5A87000EBC104207BB8B921
:102770002868B0F85010207801EBC000801D29684F
:1027800001F5806131F81000C0F30908B8F1000FBD
:102790005ED0E28861694346286803F001F957E09A
:1027A000E078022806D1324621462846FEF720FB73
:1027B00080464DE000BF00BF22785200296831F802
:1027C000121048F68F7201EA020040F4004141F015
:1027D000C00123785B002A6822F8131000BF00BFF5
:1027E00021784900286830F8110000F48040C0B119
:1027F0002868B0F85010207801EBC000801C2968D0
:1028000001F5806131F81000C0F30908B8F1000F3C
:102810001ED0228961694346286803F0C1F817E099
:102820002AE02868B0F85010207801EBC000801D25
:10283000296801F5806131F81000C0F30908B8F18A
:10284000000F05D0628961694346286803F0A8F843
:10285000E0694044E061606940446061A06910B192
:102860002069404504D921782846FEF73EFA03E066
:102870002146286802F056FB06F08000002876D03A
:1028800007EB870105F1100000EBC10400BF7A00DF
:10289000296831F8121048F60F7201EA020040F47C
:1028A00000417B002A6822F8131000BFE07801285D
:1028B00076D10020A061207B00286BD006F040007C
:1028C00080B300BF6078C0B900BF29682A68B2F839
:1028D000502011442278022303EBC20201F58063E9
:1028E00003EB420000BF0288C2F3090202800288A3
:1028F00042F40042028000BF13E06078012810D14A
:1029000000BF28682A68B2F85020104422780223B9
:1029100003EBC20200F5806303EB420100220A8050
:1029200000BF37E0FFE700BF2968607800BB00BF49
:102930002B68D5F800C0BCF850C0634494F800C0C0
:102940004FF0060B0BEBCC0C03F5806B0BEB4C0044
:1029500000BFB0F800C0CCF3090CA0F800C0B0F87C
:1029600000C04CF4004CA0F800C000BF11E049E0EA
:10297000607801280DD12868B0F850000144207813
:10298000062303EBC00001F5806303EB4002002047
:10299000108000BF21782846FEF797F932E0FFE764
:1029A00006F4807048BB2868B0F85010207801EB1E
:1029B000C000801C296801F5806131F81000C0F367
:1029C0000909A069484504D9A069A0EB0900A061E4
:1029D00001E00020A061A06920B921782846FEF717
:1029E00074F90FE0606948446061E0694844E0615F
:1029F0002146286802F096FA04E03246214628462D
:102A0000FEF7A2FA2868B0F8440000F4004000285D
:102A10007FF490ADBDE8F09F7047000008B508490D
:102A20000968C9084FF47A72B1FBF2F14143009191
:102A300000BF00BF00994A1E00920029F9D108BDCD
:102A400060010020704710B5FEF74AF810BD00B5D0
:102A500093B0282109A8FDF78BFC142104A8FDF7E9
:102A600087FC0020009001900290039001200990C3
:102A700000040A9000200B9001200D90022010907D
:102A8000C1031191C104129109A8FFF7A5F908B17A
:102A9000FDF75FFE0F2004900220059000200690B5
:102AA0004FF48060079000200890012104A8FFF7F0
:102AB0006FF808B1FDF74DFE1020009080040390E0
:102AC0006846FEF7CDFF08B1FDF743FE13B000BD29
:102AD000704700BF00BF02680C3252E8002F22F49A
:102AE000907102680C3242E80013002BF3D100BF52
:102AF00000BF00BF0268143252E8002F22F001012B
:102B00000268143242E80013002BF3D100BF016BBE
:102B100001290ED100BF00BF02680C3252E8002F1D
:102B200022F0100102680C3242E80013002BF3D1AE
:102B300000BF202180F8421000210163704700008F
:102B400070B504462168096921F44051E2681143D7
:102B5000226811612269A1681143626941EA020594
:102B60002168C96841F20C62914329432268D1600F
:102B70002168496921F44071A269114322685161B9
:102B80002D4A2168914202D1FFF7DEF801E0FFF7FC
:102B9000CBF800EBC00101EB001162689200B1FBC1
:102BA000F2F100EBC00202EB001263689B00B2FB83
:102BB000F3F26423B2FBF3F202EBC20303EB021263
:102BC000A1EB8201322202EB01116422B1FBF2F18E
:102BD00001F0F00100EBC00202EB001263689B0001
:102BE000B2FBF3F26423B2FBF3F201EB021200EB4F
:102BF000C00101EB001163689B00B1FBF3F100EB36
:102C0000C00303EB00136668B600B3FBF6F364265B
:102C1000B3FBF6F303EBC30606EB0313A1EB83014F
:102C2000322303EB01116423B1FBF3F101F00F0137
:102C300011442268916070BD003801402DE9F843CD
:102C400004460D4617469846089E31E0701C70B346
:102C5000FDF740FFA0EB0800B04200D816B90320F2
:102C6000BDE8F8832068C06800F00400F8B1802D4A
:102C70001ED0402D1CD020680068C0F3C000B0B149
:102C800000BF002000902068006800902068406825
:102C9000009000BF00BF2046FFF71BFF08206064C4
:102CA00000BF002084F8400000BF0120D8E7FFE704
:102CB000206800682840A84201D1012000E00020DF
:102CC000B842C3D00020CBE72DE9F04104460D46C1
:102CD000D4F8B862D4F8C072D4F8B80278B305EB6F
:102CE000850104F1140000EB8100806808B305EB56
:102CF000850104F1140000EB810005EB8502816879
:102D000007F1100000EBC2000069B1FBF0F200FB1C
:102D1000121070B9002105EB850204F1140000EBDC
:102D20008200816000231A462946204601F060F89F
:102D300002E00020C6F814020020BDE8F081FFE7A1
:102D40000220FAE770B504460E46D4F8B852314670
:102D5000204600F0E4FEC5F80C02D4F8B80248B1F1
:102D6000D5F80402D4F8BC12CA6805F5037190477F
:102D7000002070BD0220FCE770B504460E46002519
:102D80008121204600F0E5FD0021E162012120467D
:102D900000F0DFFD0021C4F86C118221204600F014
:102DA000D8FD00212164D4F8B80250B1D4F8BC1287
:102DB00048688047D4F8B80201F060FC0020C4F8ED
:102DC000B802284670BD70B50546D5F8B842D5F8AA
:102DD000BC0278B194F80002FF280BD094F80122CD
:102DE00094F80002D5F8BC128B6821469847FF2062
:102DF00084F80002002070BD01460A2008800148C6
:102E0000704700003C020020014643200880014832
:102E100070470000C402002001464320088001489A
:102E200070470000800200200146432008800148CE
:102E300070470000080300202DE9F04104460F46CA
:102E40000026207C88B94FF400730222812120469D
:102E500000F0DAFE0121E1624B020222204600F07E
:102E6000D3FE0121C4F86C110FE04023022281211E
:102E7000204600F0C9FE0121E162402302222046E3
:102E800000F0C2FE0121C4F86C1108230322822144
:102E9000204600F0B9FE012121644FF4077001F0D3
:102EA000E1FBC4F8B802D4F8B80208B901261CE066
:102EB000D4F8B852D4F8BC12086880470020C5F88E
:102EC0001402C5F81802207C40B94FF400730121A8
:102ED0002046D5F8042200F0AFFE06E04023012191
:102EE0002046D5F8042200F0A7FE3046BDE8F08168
:102EF00070B50446D4F8B852D4F8B80298B1207C22
:102F000040B94FF4007301212046D5F8042200F0A7
:102F100093FE06E0402301212046D5F8042200F06C
:102F20008BFE002070BD0220FCE70246D2F8B832CA
:102F3000C3F804120020704710B50346D3F8B84216
:102F4000C4F80812C4F81022002010BD2DE9FC417D
:102F500005460C46D5F8B862002001900090002785
:102F6000207800F0600040B320285FD1E088E0B115
:102F7000207800F0800060B1E2886078D5F8BC125B
:102F80008B6831469847E2883146284600F067FA58
:102F900012E0607886F80002A07986F80102E288E3
:102FA0003146284600F03AFA06E06078D5F8BC12BF
:102FB00000228B68214698473EE0607820B10A28BD
:102FC00012D00B282AD11FE095F89C02032805D1C6
:102FD00002226946284600F042FA04E021462846CB
:102FE00000F010FA02271FE095F89C02032805D193
:102FF000012201A9284600F032FA04E021462846C1
:1030000000F000FA02270FE095F89C02032804D094
:103010002146284600F0F6F9022705E02146284619
:1030200000F0F0F9022700BF00BF05E02146284666
:1030300000F0E8F9022700BF00BF3846BDE8FC8178
:1030400070B50546D5F8B842D5F8B802A8B1D4F89D
:10305000140280B90120C4F81402D4F810122963B4
:10306000B4F8100283B281212846D4F8082200F077
:10307000BFFE002070BD0120FCE70220FAE70246F7
:103080000020D2F8B83283F85000704770B504467B
:103090000E46D4F8B85269782878D4F8BC32DA6889
:1030A000904740232A460421204600F0C5FD002019
:1030B00070BD70B504460D468321204600F049FCE2
:1030C000002161650421204600F043FC0021C4F882
:1030D000A811D4F8B80250B1D4F8BC12886880475F
:1030E000D4F8B80201F0CAFA0020C4F8B8020020EF
:1030F00070BD70B50546D5F8B842E06C012807D11F
:1031000061782078D5F8BC32DA6890470020E06416
:10311000002070BD01460A20088001487047000069
:103120003002002001462920088001487047000035
:10313000A0010020014629200880014870470000B6
:10314000CC0100200146292008800148704700007A
:10315000F80100202DE9F04104460F4600264023E7
:1031600003228321204600F04FFD012161654023A9
:1031700003220421204600F047FD0121C4F8A811D4
:10318000542001F075FAC4F8B802D4F8B80208B9AE
:1031900001260EE0D4F8B852002085F85000D4F88B
:1031A000BC124868804740232A460421204600F08C
:1031B00043FD3046BDE8F0812DE9F04104460D465F
:1031C0001646D4F8B87294F89C0203280FD197F8E9
:1031D000500048B9012087F8500033462A46832121
:1031E000204600F005FE02E00120BDE8F08100204D
:1031F000FBE7000070B504460D462A46214602480A
:10320000FFF7DAFF40B270BD940300202DE9F843C8
:1032100006460C46D6F8B8520027B8460020009063
:103220008146207800F0600090B3202870D160784B
:10323000801E0A2823D2DFE800F01308222222226F
:10324000221A0F05A078286420E0012205F1400130
:10325000304600F004F919E060880012686415E057
:10326000012205F14401304600F0F9F80EE001209A
:10327000E864E2882946304600F0D0F806E02146AE
:10328000304600F0BFF84FF0020900BF00BF70E009
:10329000FFE7607830B1062815D00A2839D00B280E
:1032A00057D148E096F89C02032805D102226946CE
:1032B000304600F0D4F805E02146304600F0A2F890
:1032C0004FF002094CE060882221B1EB202F0BD196
:1032D000E088232801D9232000E0E0880746D6F8BB
:1032E000BC02D0F800800DE060882121B1EB202FD6
:1032F00008D1DFF88880E088092801D9092000E09A
:10330000E08807463A464146304600F0A8F827E0F4
:1033100028E096F89C02032806D1012205F1480115
:10332000304600F09CF805E02146304600F06AF88F
:103330004FF0020914E096F89C02032802D1A0780D
:10334000A86405E02146304600F05CF84FF0020921
:1033500006E02146304600F055F84FF0020900BF64
:1033600000BF06E02146304600F04CF84FF002095D
:1033700000BF00BF4846BDE8F883000024020020DB
:1033800070B504460D46D4F8B4022946426820467A
:103390009047002070BD70B504460D4694F89C021D
:1033A000012804D0022803D003280CD101E000BF7B
:1033B00000BF6888012805D10020C4F8A402204677
:1033C00000F05EF804E02946204600F01BF800BF3C
:1033D00000BF70BD70B506460C4615462B4622460A
:1033E0000021304600F028FC002070BD70B5064674
:1033F0000C4615462B4622460021304600F0F8FCCC
:10340000002070BD70B504460D468021204600F0B6
:10341000C3FC0021204600F0BFFC70BD70B504461F
:103420000E4615460320C4F894024FF4AE700551C1
:10343000001D05512B4632460021204600F0FCFBC2
:10344000002070BD10B504460520C4F89402002386
:103450001A461946204600F0EFFB002010BD70B55B
:1034600004460E4615460220C4F89402E561256222
:103470002B4632460021204600F0BAFC002070BDE9
:1034800010B504460420C4F8940200231A461946D5
:10349000204600F0ADFC002010BD000070B50546D0
:1034A0000C462DB92246064906A000F0E7F904E0D3
:1034B0002246034903A000F0E1F9014870BD000075
:1034C00058060020437573746F6D204849442043AB
:1034D0006F6E66696700000002461220088001488E
:1034E000704700002400002070B505460C462DB939
:1034F0002246064906A000F0C1F904E0224603492D
:1035000003A000F0BBF9014870BD00005806002080
:10351000437573746F6D2048494420496E74657219
:1035200066616365000000000246042008800148CF
:10353000704700003800002070B505460C46224652
:10354000024903A000F09AF9004870BD5806002017
:1035500053544D6963726F656C656374726F6E6905
:103560006373000070B505460C462DB92246064926
:1035700006A000F083F904E02246034903A000F00E
:103580007DF9014870BD00005806002053544D33AA
:103590003220437573746F6D2048756D616E2069BC
:1035A0006E746572666163650000000070B5054663
:1035B0000C461A202080FDF7CFF8014870BD0000AE
:1035C0003C00002070B504460D46E888012804D070
:1035D00029462046FFF716FF1EE094F89C020128BA
:1035E00004D0022803D0032810D109E000BF002036
:1035F000A060012204F108012046FFF730FF0AE035
:103600000122211D2046FFF72AFF04E0294620461B
:10361000FFF7F8FE00BF00BF70BDF8B504460E46C8
:10362000002000900027002570880012082875D21D
:10363000DFE800F0C7040C20C7C7A5B5207CD4F88C
:10364000B0120A68694690470746C1E0207C40B93D
:10365000D4F8B402816A6846884707460220787029
:1036600007E0D4F8B402C16A6846884707460220DA
:103670007870ADE0B078062878D2DFE800F0031665
:10368000293C5063D4F8B002406838B1207CD4F8AB
:10369000B0124A6869469047074605E03146204621
:1036A000FFF7B0FE681CC5B267E0D4F8B0028068CE
:1036B00038B1207CD4F8B0128A6869469047074632
:1036C00005E031462046FFF79DFE681CC5B254E078
:1036D000D4F8B002C06838B1207CD4F8B012CA68FF
:1036E00069469047074605E031462046FFF78AFEC7
:1036F000681CC5B241E0D4F8B002006938B1207C42
:10370000D4F8B0120A6969469047074605E0314689
:103710002046FFF777FE681CC5B22EE051E0D4F8D2
:10372000B002406938B1207CD4F8B0124A696946C9
:103730009047074605E031462046FFF763FE681CC8
:10374000C5B21AE0D4F8B002806940B1207CD4F848
:10375000B0128A6969469047074606E006E031469E
:103760002046FFF74FFE681CC5B206E031462046F2
:10377000FFF748FE681CC5B200BF00BF28E0207CF0
:1037800030B9D4F8B402416B68468847074605E073
:1037900031462046FFF736FE681CC5B218E0207C93
:1037A00040B9D4F8B402016B684688470746072041
:1037B000787005E031462046FFF724FE681CC5B24C
:1037C00006E031462046FFF71DFE681CC5B200BF6B
:1037D00000BF05B1F8BDBDF8000088B1F08878B130
:1037E000F088BDF80010884202DDBDF8000000E05E
:1037F000F0880090BDF8002039462046FFF72FFEE4
:10380000F08810B92046FFF73BFE00BFE2E7014613
:10381000002002E0421CD0B2491C0A78002AF9D1EB
:10382000704770B504460D4694F89C02012804D0F8
:10383000022803D003281AD101E000BF00BFE888A6
:10384000022804D029462046FFF7DCFD14E00120C1
:10385000E060D4F8A40218B1E06840F00200E06033
:10386000022204F10C012046FFF7F9FD04E029468D
:103870002046FFF7C7FD00BF00BF70BD2DE9F04136
:1038800004460D4617460026FCB12046FFF7BFFF51
:10389000022101EB400038803A783046711CCEB2EC
:1038A0002A5403223046711CCEB22A540AE014F87E
:1038B000012B3046711CCEB22A5400223046711CB6
:1038C000CEB22A5420780028F1D1BDE8F08101461B
:1038D000002031B1012906D0022906D0032908D1E0
:1038E00005E0002007E0022005E0012003E00220BF
:1038F00001E0022000BF00BF704770B504460D46CE
:1039000016460CB9022070BDD4F8B40210B10020E4
:10391000C4F8B4020DB1C4F8B052012084F89C027E
:103920002670204600F004F90020ECE72DE9F04174
:1039300004460D46002600272946D4F8C002FDF7AC
:1039400019FA06463046FFF7C2FF07463846BDE87B
:10395000F0812DE9F04104460D4600260027294656
:10396000D4F8C002FDF7D1F906463046FFF7AFFFA5
:1039700007463846BDE8F0812DE9F04104460E4681
:103980001746002E64D104F11405D4F894020228DD
:1039900048D1D5E90301884210D9D5E90301401A7D
:1039A000E860A88982B239462046FFF71FFD002350
:1039B0001A461946204600F03FF93EE02969A868FA
:1039C000B0FBF1F201FB1200B8B92969A86888427E
:1039D00013D3A868D4F8981288420ED20022114658
:1039E0002046FFF703FD0020C4F8980200231A4682
:1039F0001946204600F020F91FE0D4F8B402C06850
:103A000040B194F89C02032804D1D4F8B402C168F0
:103A1000204688478021204600F0BEF92046FFF767
:103A200011FD0AE0D4F89402042802D0D4F89402DC
:103A300018B98021204600F0AFF994F8A0020128BF
:103A400018D1204600F008FA002084F8A00211E006
:103A5000D4F8B402406950B194F89C02032806D10E
:103A6000D4F8B402314642692046904702E0022071
:103A7000BDE8F0810020FBE72DE9F04104460E4649
:103A80001746BEBB04F5AA75D4F89402032825D1C5
:103A9000D5E90301884210D9D5E90301401AE8604D
:103AA000D5E90301884201D2E86800E0286982B2C2
:103AB00039462046FFF78EFC2FE0D4F8B4020069A7
:103AC00040B194F89C02032804D1D4F8B4020169EF
:103AD000204688472046FFF7D3FC1EE0D4F8940226
:103AE00005281AD10020C4F894020021204600F0D5
:103AF00053F912E0FFE7D4F8B402806950B194F8AA
:103B00009C02032806D1D4F8B402314682692046CB
:103B1000904702E00220BDE8F0810020FBE770B58D
:103B200004460D462946D4F8C002FDF7ACFC70BD32
:103B300010B504462448C0F8D442C4F8C002234853
:103B4000214908600820087102211F488171002165
:103B50008172C1720173FDF74EFE08B1FCF7F9FDE9
:103B600004F530741A23002211462068FDF78AF804
:103B70005A23002280212068FDF784F89A2300222E
:103B800083212068FDF77EF8DA23002204212068D3
:103B9000FDF778F84FF48D73002281212068FDF73E
:103BA00071F84FF4AD73002201212068FDF76AF827
:103BB0002068A4F530744FF4CD7300228221FDF704
:103BC00061F8002010BD000058100020005C00408B
:103BD00010B50246D2F8C03201F08000802809D129
:103BE00001F07F0000EB800403F1100000EBC40043
:103BF000807810BD01F07F0000EB800403F5A87011
:103C000000EBC4008078F4E72DE9F04704460F4646
:103C100015461E464FF00008C1462B46324639462F
:103C2000D4F8C002FDF73AFC80464046FFF74FFE4D
:103C300081464846BDE8F0872DE9F04704460D4629
:103C400016461F464FF00008C1463B4632462946FD
:103C5000D4F8C002FDF764FC80464046FFF737FE0B
:103C600081464846BDE8F08710B50446402300224F
:103C700011462046FFF7C8FF01214FF4AC700151F7
:103C800040214FF4B2700151402300228021204690
:103C9000FFF7BAFF0121A16140216162012084F890
:103CA0009C020020C4F894026060C4F8A402D4F816
:103CB000B80228B12179D4F8B4024268204690476E
:103CC000002010BD014691F89C02042803D191F810
:103CD0009D0281F89C020020704710B5044694F8BC
:103CE0009C02032808D1D4F8B402C06920B1D4F8EA
:103CF000B402C16920468847002010BD02461174F5
:103D0000002070472DE9F04104460D4600260027AB
:103D10002946D4F8C002FDF74FFE06463046FFF7AD
:103D2000D6FD07463846BDE8F08170B504460D461D
:103D3000294604F52A7000F073F80120C4F89402B3
:103D400040F2AE20005BC4F8980294F8A80200F09C
:103D50001F0020B1012808D0022812D10BE004F581
:103D60002A71204600F041F913E004F52A7120463B
:103D700000F0A8FA0DE004F52A71204600F086F95B
:103D800007E094F8A80200F08001204600F004F853
:103D900000BF00BF002070BD2DE9F04104460D4674
:103DA000002600272946D4F8C002FDF7D7FB0646B7
:103DB0003046FFF78CFD07463846BDE8F08170B508
:103DC000044600250026D4F8C002FDF718FE05467B
:103DD0002846FFF77CFD0646304670BD014691F847
:103DE0009C0281F89D02042081F89C02002070470B
:103DF0002DE9F04704460D4616461F464FF00008D1
:103E0000C1463B4632462946D4F8C002FDF7EAFBDC
:103E100080464046FFF75BFD81464846BDE8F08797
:103E20000A7802704A7842708B78CA7803EB0222D3
:103E300042800B794A7903EB022282808B79CA791E
:103E400003EB0222C28070470246002011B1C2F883
:103E5000B41200E00220704701460020704770B5A0
:103E600004460D46A88810BBE88800BB68888028F7
:103E70001DD2A87800F07F0694F89C02032804D194
:103E800029462046FFF7BEFA15E084F89E623146C7
:103E90002046FFF737FF2046FFF7F2FA1EB1022057
:103EA00084F89C0207E0012084F89C0203E0294684
:103EB0002046FFF7A7FA70BD70B504460D460226EE
:103EC000D4F8B40238B1D4F8B402294602682046C6
:103ED000904700B90026304670BD000070B504461A
:103EE0000D46A8783649087008460078012804DD98
:103EF00029462046FFF786FA60E094F89C020228E3
:103F000002D003284FD11CE02D480078A8B12C48DE
:103F100000786060032084F89C02294801782046DC
:103F2000FFF7CAFF022804D129462046FFF76AFAA4
:103F300070BD2046FFF7A4FA02E02046FFF7A0FA82
:103F40003BE01F48007870B9022084F89C021C48AE
:103F5000007860601A4801782046FFF711FA204681
:103F6000FFF78EFA1EE0164909786068884216D07D
:103F700021792046FFF704FA114800786060104864
:103F800001782046FFF798FF022804D129462046F1
:103F9000FFF738FACCE72046FFF772FA02E0204636
:103FA000FFF76EFA09E029462046FFF72BFA04488E
:103FB00001782046FFF7E4F900BF00BF00BFB7E774
:103FC0006401002070B505460C466088012804D1C4
:103FD000C5F8A4022846FFF753FA70BD10B5044691
:103FE0002046FFF7ECFE002010BD70B505460C46DC
:103FF0000026207800F0600060B1202802D0402820
:104000003CD100E000BFD5F8B402214682682846C2
:10401000904738E060780A2829D2DFE800F01923B9
:10402000281E280A0528140F21462846FFF7F5FA0E
:1040300022E021462846FFF712FF1DE021462846D0
:10404000FFF74CFF18E021462846FFF7BBFA13E0C4
:1040500021462846FFF7E5FB0EE021462846FFF7FC
:10406000B1FF09E021462846FFF795F904E0214613
:104070002846FFF7C7F900BF00BF04E021462846E5
:10408000FFF7C0F900BF00BF304670BD2DE9F04119
:1040900005460E464FF000083479307800F0600095
:1040A00060B1202802D0402871D100E000BFD5F8CF
:1040B000B402314682682846904700E1307800F02B
:1040C0006000202809D1D5F8B4023146826828461C
:1040D000904780464046BDE8F081707800285ED069
:1040E00001282FD0032876D195F89C02022802D00F
:1040F000032820D110E054B1802C08D02146284656
:10410000FFF74AFE80212846FFF746FE03E03146CE
:104110002846FFF777F913E0708840B93CB1802C4E
:1041200005D0F08818B921462846FFF735FE284605
:10413000FFF7A6F904E031462846FFF763F900BF10
:1041400000BFB5E095F89C02022802D003281FD1D9
:1041500010E054B1802C08D021462846FFF71CFE01
:1041600080212846FFF718FE03E031462846FFF776
:1041700049F912E0708848B904F07F0018B121466F
:104180002846FFF7D3FB2846FFF77AF905E091E0D0
:1041900031462846FFF736F900BF00BF88E095F8A2
:1041A0009C02022802D0032876D126E034B1802C6C
:1041B00004D031462846FFF725F972E004F080006C
:1041C000802809D104F07F0000EB800105F1140084
:1041D00000EB810008E066E004F07F0000EB800166
:1041E00005F5AA7000EB8100074600203860022226
:1041F00039462846FFF733F953E004F08000802861
:104200000ED104F00F0000EB800105F1140000EB6B
:104210008100406898B931462846FFF7F3F840E03E
:1042200004F00F0000EB800105F5AA7000EB81009F
:10423000406820B931462846FFF7E4F831E004F041
:104240008000802808D104F07F0000EB800105F198
:10425000140000EB810007E004F07F0000EB800118
:1042600005F5AA7000EB810007460CB1802C02D145
:104270000020386009E021462846FFF7A9FC10B16C
:104280000120386001E000203860022239462846CB
:10429000FFF7E5F805E0FFE731462846FFF7B2F8FB
:1042A00000BF00BF04E031462846FFF7ABF800BF6F
:1042B00000BF04E031462846FFF7A4F800BF00BF66
:1042C000404608E770B505460C460026207800F009
:1042D000600030B1202802D040282AD100E000BF81
:1042E00000BF95F89C02012804D0022803D00328BF
:1042F00018D101E000BF00BF207904280DDCD5F8FB
:10430000B40221468268284690470646E08840B9B4
:104310003EB92846FFF7B4F803E021462846FFF7E8
:1043200071F804E021462846FFF76CF800BF00BF93
:1043300004E021462846FFF765F800BF00BF0020D3
:1043400070BD000070B504460D46012D02D0032D4E
:104350001AD10CE00E480068C4F8B8020D48C4F841
:10436000BC020D48294642692046904770BD0B4863
:104370000068C4F8B8020A48C4F8BC0209482946D3
:10438000426920469047F1E700BF00BF0020EDE7FB
:104390009C0000208C00002048020020A00000208B
:1043A0007C0000206801002070B504460D46012DF8
:1043B00004D0042D10D0822D1BD100E000BF124884
:1043C0000068C4F8B8021148C4F8BC021048294675
:1043D00082692046904770BD0E480068C4F8B80254
:1043E0000D48C4F8BC020D48294682692046904712
:1043F000F1E740F257220A490AA0FBF713FF00BF7A
:1044000000BF0020E7E700009C0000208C00002097
:1044100048020020A00000207C000020680100204D
:10442000485B00084552524F525B25735D2025645E
:104430003A00000070B504460E4600250E4800689C
:10444000C4F8B8020D48C4F8BC020D4831464268B1
:10445000204690472844C5B20A480068C4F8B8020C
:104460000948C4F8BC0209483146426820469047D2
:104470002844C5B2284670BD9C0000208C00002056
:1044800048020020A00000207C00002068010020DD
:1044900010B5044605480068C4F8B8020448C4F8DA
:1044A000BC02044801692046884710BD9C000020DA
:1044B0008C000020480200200146002070470000C8
:1044C00001466B200880014870470000DC00002096
:1044D00001460A200880014870470000470100207B
:1044E00070B504460E4600250E48C4F8BC020E48BE
:1044F00031460268204690472844C5B20B49D4F89B
:10450000B80208600A48C4F8BC020A48314602688A
:10451000204690472844C5B20749D4F8B80208603D
:10452000284670BD8C000020480200209C0000201E
:104530007C00002068010020A0000020024600202E
:104540007047024600207047014600207047000077
:1045500070B504460D460026287800F003000128B7
:1045600002D002285FD12AE0A88828B1012802D011
:1045700002281BD10DE000BF30480068C4F8B80223
:104580002F48C4F8BC022F4829468268204690472D
:1045900070BD2D480068C4F8B8022C48C4F8BC02AD
:1045A0002B482946826820469047F1E740F2B31233
:1045B000284929A0FBF736FE00BF00BF3AE0A888D3
:1045C00081280AD004DC012808D0042822D114E074
:1045D000822804D083281DD10EE000BF00BF1748F9
:1045E0000068C4F8B8021648C4F8BC021548294649
:1045F000826820469047CBE700BF13480068C4F8A4
:10460000B8021248C4F8BC02114829468268204604
:104610009047BDE74FF4E3720E490FA0FBF702FE8F
:1046200000BF00BF06E04FF4E6720A490AA0FBF79C
:10463000F9FD00BF00BF3046AAE700009C00002043
:104640008C00002048020020A00000207C000020F8
:1046500068010020335B00085B25735D2025643A08
:104660000000000001460148704700008813002048
:104670000146014870470000A81500207047F0B5BA
:10468000024600260878400032F8100048F68F14E1
:1046900000EA0403C87830B101280CD0022805D004
:1046A00003280BD104E043F4007309E000BF07E0E6
:1046B00043F4C06304E043F4806301E0012600BFDB
:1046C00000BF43F4004040F080000C78640022F802
:1046D000140000BF0C78640032F8144048F68F755F
:1046E0002C400D7844EA050040F4004444F0800476
:1046F0000D786D0022F8154000BF087B00287ED1A0
:104700004878002852D000BF1046B2F850502844D4
:104710000D7800F5806707EB0514CD886D106D00EE
:10472000258000BF00BF0C78640032F8140000F050
:1047300040048CB100BF0D786D0032F8155048F67A
:104740008F7705EA070444F4004545F0C0050F786B
:104750007F0022F8175000BF00BFC878012813D08F
:1047600000BF0C78640032F8144048F6BF7504EAC4
:10477000050080F0200040F4004444F080040D78EF
:104780006D0022F81540D0E100BF0C78640032F8CB
:10479000144048F6BF7504EA050040F4004444F0B4
:1047A00080040D786D0022F81540BEE100BF104670
:1047B000B2F8505028440D78042707EBC50500F5E2
:1047C000806707EB4504CD886D106D00258000BF24
:1047D00000BF1546B2F8504025440C78062707EB79
:1047E000C40405F5806707EB4404204600BF078832
:1047F000C7F3090707800F693E2F14D900E073E063
:1048000000BF0F697C090F7C07F01F0707B9641E02
:1048100007884FF4004C4CEA842C1FFA8CFC47EAC2
:104820000C07078017E00F6927B9078847F400478E
:10483000078010E000BF0F697C080F7C07F00107BC
:1048400007B1641C07884FF6FF7C0CEA842C47EA0A
:104850000C07078000BF00BF00BF00BF0C786400DA
:1048600032F8140000F480448CB100BF0D786D0064
:1048700032F8155048F68F7705EA070444F40045EE
:1048800045F481450F787F0022F8175000BF00BF24
:104890000878A8B900BF0C78640032F814404BF6D1
:1048A0008F7504EA050080F4805080F4005040F4D5
:1048B000004444F080040D786D0022F8154034E186
:1048C00000BF0C78640032F814404BF68F7504EA90
:1048D000050080F4005040F4004444F080040D785A
:1048E0006D0022F8154020E1C878022811D100BFE0
:1048F0000C78640032F8144048F68F7504EA05001D
:1049000040F4004444F4C0740D786D0022F8154062
:1049100011E000BF0C78640032F8144048F68F654F
:1049200004EA050040F4004444F080040D786D0072
:1049300022F8154000BF00BF00BF00BF1046B2F80C
:10494000505028440D7800F5806707EB05140D8959
:104950006D106D00258000BF00BF00BF00BF104676
:10496000B2F8505028440D78042707EBC50500F530
:10497000806707EB45044D896D106D00258000BFF1
:1049800000BF00BF4878E8BB00BF0C78640032F875
:10499000140000F480448CB100BF0D786D0032F833
:1049A000155048F68F7705EA070444F4004545F4AE
:1049B00081450F787F0022F8175000BF00BF00BF6D
:1049C0000C78640032F8140000F040048CB100BF91
:1049D0000D786D0032F8155048F68F7705EA070418
:1049E00044F4004545F0C0050F787F0022F81750C9
:1049F00000BF00BF00BF0C78640032F814404BF6D3
:104A00008F7500E020E004EA050080F4805080F417
:104A1000005040F4004444F080040D786D0022F80A
:104A2000154000BF00BF0C78640032F8144048F60F
:104A3000BF7504EA050040F4004444F080040D789A
:104A40006D0022F8154070E000BF0C78640032F869
:104A5000140000F480448CB100BF0D786D0032F872
:104A6000155048F68F7705EA070444F4004545F4ED
:104A700081450F787F0022F8175000BF00BF00BFAC
:104A80000C78640032F8140000F040048CB100BFD0
:104A90000D786D0032F8155048F68F7705EA070457
:104AA00044F4004545F0C0050F787F0022F8175008
:104AB00000BF00BFC878012813D000BF0C78640085
:104AC00032F8144048F6BF7504EA050080F0200073
:104AD00040F4004444F080040D786D0022F8154045
:104AE00011E000BF0C78640032F8144048F6BF753E
:104AF00004EA050040F4004444F080040D786D00A1
:104B000022F8154000BF00BF0C78640032F8144052
:104B10004BF68F7504EA050040F4004444F080042D
:104B20000D786D0022F8154000BF3046F0BD10B57D
:104B30000446002010BD30B50246087B00285BD13A
:104B4000487860B300BF0B785B0032F8130000F0C8
:104B500040038BB100BF0C78640032F8144048F673
:104B60008F7504EA050343F4004444F0C0040D7853
:104B70006D0022F8154000BF00BF00BF0B785B003E
:104B800032F8133048F6BF7403EA040040F40043DF
:104B900043F080030C78640022F8143007E100BF72
:104BA0000B785B0032F8130000F480438BB100BF38
:104BB0000C78640032F8144048F68F7504EA050357
:104BC00043F4004444F481440D786D0022F815400C
:104BD00000BF00BF00BF0B785B0032F813304BF60C
:104BE0008F7403EA040040F4004343F080030C7820
:104BF000640022F81430DAE0487800286BD100BF56
:104C00000B785B0032F8130000F480438BB100BFD7
:104C10000C78640032F8144048F68F7504EA0503F6
:104C200043F4004444F481440D786D0022F81540AB
:104C300000BF00BF00BF0B785B0032F8130000F02C
:104C400040038BB100BF0C78640032F8144048F682
:104C50008F7504EA050343F4004444F0C0040D7862
:104C60006D0022F8154000BF00BF00BF0B785B004D
:104C700032F8133048F68F7403EA040040F400431E
:104C800043F0C0030C78640022F8143000BF00BF6A
:104C90000B785B0032F813304BF68F7403EA040094
:104CA00040F4004343F080030C78640022F8143091
:104CB00000BF00BF0B785B0032F8133048F6BF74BA
:104CC00003EA040040F4004343F080030C786400DE
:104CD00022F814306BE000BF0B785B0032F8130051
:104CE00000F480438BB100BF0C78640032F81440AC
:104CF00048F68F7504EA050343F4004444F4814404
:104D00000D786D0022F8154000BF00BF00BF0B7882
:104D10005B0032F8130000F040038BB100BF0C7849
:104D2000640032F8144048F68F7504EA050343F432
:104D3000004444F0C0040D786D0022F8154000BF17
:104D400000BF00BF0B785B0032F8133048F68F7459
:104D500003EA040040F4004343F481430C78640008
:104D600022F8143000BF00BF0B785B0032F813301C
:104D700048F6BF7403EA040040F4004343F08003A4
:104D80000C78640022F8143000BF00BF0B785B0081
:104D900032F813304BF68F7403EA040040F40043FA
:104DA00043F080030C78640022F8143000BF002028
:104DB00030BD01460020704701460020704710B505
:104DC0000446012024F8400F00202080A08020828B
:104DD000403C10BD01464FF43F42B1F840009043C3
:104DE000A1F840000020704702460020704730B50F
:104DF0000246087B002865D1487888B300BF0B784D
:104E00005B0032F8130000F040038BB100BF0C7858
:104E1000640032F8144048F68F7504EA050343F441
:104E2000004444F0C0040D786D0022F8154000BF26
:104E300000BFC878012845D000BF0B785B0032F86E
:104E4000133048F6BF7403EA040080F0200040F4F9
:104E5000004343F080030C78640022F8143031E002
:104E6000FFE700BF0B785B0032F8130000F48043CB
:104E70008BB100BF0C78640032F8144048F68F758F
:104E800004EA050343F4004444F481440D786D00C2
:104E900022F8154000BF00BF00BF0B785B0032F85E
:104EA00013304BF68F7403EA040080F4805080F4D2
:104EB000005040F4004343F080030C78640022F873
:104EC000143000BF002030BD10B50246487898B1BC
:104ED00000BF0B785B0032F8133048F6BF7403EA6A
:104EE000040080F0100040F4004343F080030C788D
:104EF000640022F8143013E000BF0B785B0032F836
:104F000013304BF68F7403EA040080F4805040F4B1
:104F1000004343F080030C78640022F8143000BF93
:104F2000002010BD2DE9F04706460C4660780128A8
:104F300072D12169A069884201D9256900E0A5697B
:104F4000207BA0B9ABB2E2883046616900F057FD22
:104F500000BF3046B6F8502010442278022303EBFD
:104F6000C20200F5806303EB42010D80C1E2E078EC
:104F7000022870D12169206A88426DD900BF21784A
:104F8000490036F8111048F68F7201EA020040F429
:104F9000004141F4C0712278520026F8121000BF7F
:104FA000206A401B20622078400036F8100000F094
:104FB0004000002874D000BF3346607868BB00BF53
:104FC0003246B6F850100A4421784FF0060909EB32
:104FD000C10102F5806909EB4101084600BFB0F844
:104FE0000090C9F30909A0F800903E2D16D900BF22
:104FF000690905F01F09B9F1000F00D1491EB0F889
:1050000000904FF4004A4AEA812A1FFA8AFA49EAD4
:105010000A09A0F800901CE081E21EE035B9B0F862
:10502000009049F40049A0F8009012E000BF690820
:1050300005F00109B9F1000F00D0491CB0F800904B
:105040004FF6FF7A0AEA812A49EA0A09A0F8009095
:1050500000BF00BF11E07EE153E1607801280CD170
:10506000B6F8500003442078062101EBC00003F598
:10507000806101EB400CACF8005000BF6789ABB217
:105080003A463046616900F0BAFC606928446061C4
:105090002169206A884204D9206A401B206203E00B
:1050A0005EE0256A0020206200BF6078E0BB00BFA0
:1050B0003246B6F850100A442178022303EBC101AE
:1050C00002F5806303EB4101084600BF0388C3F388
:1050D000090303803E2D10D900BF690905F01F03A5
:1050E00003B9491E03884FF4004C4CEA812C1FFA87
:1050F0008CFC43EA0C03038014E025B9038843F4D5
:10510000004303800EE000BF690805F0010303B10E
:10511000491C03884FF6FF7C0CEA812C43EA0C0300
:10512000038000BF00BF12E0FFE7607801280ED1C6
:1051300000BF3046B6F8502010442278022303EB1B
:10514000C20200F5806303EB42010D8000BF00BF87
:105150002789ABB23A463046616900F050FCC8E19D
:1051600000BF6078E0BB00BF3246B6F850100A447A
:105170002178022303EBC10102F5806303EB4101B7
:10518000084600BF0388C3F3090303803E2D10D9EE
:1051900000BF690905F01F0303B9491E03884FF4D6
:1051A000004C4CEA812C1FFA8CFC43EA0C03038070
:1051B00014E025B9038843F4004303800EE000BFE8
:1051C000690805F0010303B1491C03884FF6FF7C11
:1051D0000CEA812C43EA0C03038000BF00BF12E0FD
:1051E000FFE7607801280ED100BF3046B6F85020A6
:1051F00010442278022303EBC20200F5806303EB24
:1052000042010D8000BF00BF2789ABB23A4630464D
:10521000616900F0F4FB6069284460612169206ADB
:10522000884203D9206A401B206202E0256A0020E0
:10523000206200BF33466078A0BB00BF3246B6F89C
:1052400050100A4421784FF0060909EBC10102F51C
:10525000806909EB4101084600BFB0F80090C9F32E
:105260000909A0F800903E2D14D900BF690905F086
:105270001F09B9F1000F00D1491EB0F800904FF49A
:10528000004A4AEA812A1FFA8AFA49EA0A09A0F87A
:1052900000901BE03DB9B0F8009049F40049A0F837
:1052A000009013E014E000BF690805F00109B9F1AE
:1052B000000F00D0491CB0F800904FF6FF7A0AEAC0
:1052C000812A49EA0A09A0F8009000BF00BF0FE058
:1052D000607801280CD1B6F85000034420780621EC
:1052E00001EBC00003F5806101EB400CACF800500D
:1052F00000BF6789ABB23A463046616900F07FFB78
:10530000F7E0256A00BF2178490036F8111048F609
:105310008F6201EA020040F4004141F080012278EE
:10532000520026F8121000BF00BF3046B6F85020D9
:1053300010442278022303EBC20200F5806303EBE2
:1053400042010D8000BF2789ABB23A463046616901
:1053500000F055FBCDE0206A401B20622078400021
:1053600036F8100000F0400080B300BF334660788C
:1053700068BB00BF3246B6F850100A4421784FF09F
:10538000060909EBC10102F5806909EB41010846F4
:1053900000BFB0F80090C9F30909A0F800903E2DB5
:1053A00016D900BF690905F01F09B9F1000F00D136
:1053B000491EB0F800904FF4004A4AEA812A1FFAC9
:1053C0008AFA49EA0A09A0F800901CE036E01CE0DD
:1053D00035B9B0F8009049F40049A0F8009012E007
:1053E00000BF690805F00109B9F1000F00D0491CA0
:1053F000B0F800904FF6FF7A0AEA812A49EA0A09D2
:10540000A0F8009000BF00BF0FE0607801280CD129
:10541000B6F8500003442078062101EBC00003F5E4
:10542000806101EB400CACF8005000BF6789ABB263
:105430003A463046616900F0E2FA5AE000BF60780F
:10544000E0BB00BF3246B6F850100A442178022370
:1054500003EBC10102F5806303EB4101084600BF85
:105460000388C3F3090303803E2D10D900BF6909E7
:1054700005F01F0303B9491E03884FF4004C4CEAA2
:10548000812C1FFA8CFC43EA0C03038014E025B93D
:10549000038843F4004303800EE000BF690805F071
:1054A000010303B1491C03884FF6FF7C0CEA812CF1
:1054B00043EA0C03038000BF00BF12E0FFE76078FF
:1054C00001280ED100BF3046B6F850201044227893
:1054D000022303EBC20200F5806303EB42010D805F
:1054E00000BF00BF2789ABB23A463046616900F081
:1054F00086FA00BF2178490036F8111048F6BF72CD
:1055000001EA020080F0100080F0200040F4004129
:1055100041F080012278520026F8121028E2207B08
:1055200088BB2169A069884204D92569A069401B0C
:10553000A06102E0A5690020A06100BF3246B6F874
:1055400050100A442178062303EBC10102F5806361
:1055500003EB4101084600BF0388C3F3090303803E
:105560003E2D11D900BF690905F01F0303B9491E7B
:1055700003884FF4004C4CEA812C1FFA8CFC43EA60
:105580000C03038015E016E025B9038843F40043BB
:1055900003800EE000BF690805F0010303B1491C58
:1055A00003884FF6FF7C0CEA812C43EA0C0303804E
:1055B00000BF00BFC6E1E07802287CD100BF00BF79
:1055C000607878BB00BF3246B6F850100A442178A4
:1055D000022303EBC10102F5806303EB410108469E
:1055E00000BF0388C3F30903038023693E2B12D94C
:1055F00000BF23695909237C03F01F0303B9491E27
:1056000003884FF4004C4CEA812C1FFA8CFC43EACF
:105610000C03038018E023692BB9038843F400438B
:10562000038011E012E000BF23695908237C03F0D6
:10563000010303B1491C03884FF6FF7C0CEA812C5F
:1056400043EA0C03038000BF00BF12E0607801282A
:105650000FD100BF3046B6F8502010442278022304
:1056600003EBC20200F5806303EB4201228A0A8049
:1056700000BF00BF00BF33466078B0BB00BF3246FA
:10568000B6F850100A4421784FF0060909EBC10121
:1056900002F5806909EB4101084600BFB0F80090AF
:1056A000C9F30909A0F80090D4F81090B9F13E0FA1
:1056B0001CD900BF00E07BE0D4F810904FEA5911EC
:1056C00094F8109009F01F09B9F1000F00D1491E9C
:1056D000B0F800904FF4004A4AEA812A1FFA8AFA89
:1056E00049EA0A09A0F8009024E025E0D4F81090D7
:1056F000B9F1000F06D1B0F8009049F40049A0F8C4
:10570000009017E000BFD4F810904FEA590194F8C8
:10571000109009F00109B9F1000F00D0491CB0F850
:1057200000904FF6FF7A0AEA812A49EA0A09A0F8AE
:10573000009000BF00BF10E0607801280DD1B6F8DE
:10574000500003442078062101EBC00003F580617E
:1057500001EB400C208AACF8000000BF00BFE069FC
:10576000002824D02078400036F8108008F48040CB
:1057700010B108F0400038B908F48040002816D174
:1057800008F04000002812D100BF00BF2178490076
:1057900036F8111048F68F7201EA020040F4004119
:1057A00041F0C0012278520026F8121000BFC9E073
:1057B000E07801287ED12169A069884204D9256951
:1057C000A069401BA06102E0A5690020A06100BFA4
:1057D00000BF6078E0BB00BF3246B6F850100A4404
:1057E0002178022303EBC10102F5806303EB410141
:1057F000084600BF0388C3F3090303803E2D10D978
:1058000000BF690905F01F0303B9491E03884FF45F
:10581000004C4CEA812C1FFA8CFC43EA0C030380F9
:1058200014E025B9038843F4004303800EE000BF71
:10583000690805F0010303B1491C03884FF6FF7C9A
:105840000CEA812C43EA0C03038000BF00BF12E086
:10585000FFE7607801280ED100BF3046B6F850202F
:1058600010442278022303EBC20200F5806303EBAD
:1058700042010D8000BF00BF00BF3346607870BB9F
:1058800000BF3246B6F850100A4421784FF006099E
:1058900009EBC10102F5806909EB4101084600BF2F
:1058A000B0F80090C9F30909A0F800903E2D17D96F
:1058B00000BF00E043E0690905F01F09B9F1000FDE
:1058C00000D1491EB0F800904FF4004A4AEA812AFC
:1058D0001FFA8AFA49EA0A09A0F800901BE01CE0C6
:1058E00035B9B0F8009049F40049A0F8009012E0F2
:1058F00000BF690805F00109B9F1000F00D0491C8B
:10590000B0F800904FF6FF7A0AEA812A49EA0A09BC
:10591000A0F8009000BF00BF0FE0607801280CD114
:10592000B6F8500003442078062101EBC00003F5CF
:10593000806101EB400CACF8005000BF02E0012098
:10594000BDE8F08700BF2178490036F811104BF60A
:105950008F7201EA020080F4805080F4005040F41D
:10596000004141F080012278520026F8121000BF59
:105970000020E5E701460020A1F844004FF43F4233
:10598000A1F840207047000010B50248FBF74DFE1B
:1059900010BD0000581000200146B1F844007047C7
:1059A0002DE9F04304460E4615464FEA530CA04637
:1059B000304608F5806909EB450267460AE0118820
:1059C000921C0170401C4FEA112980F80090401C85
:1059D000921C7F1E002FF2D103F00109B9F1000FD4
:1059E00001D011880170BDE8F083024600207047A5
:1059F000024611B98020A2F84C00002070472DE922
:105A0000F04304460D461E4606F101094FEA590CC3
:105A1000A046284608F5806909EB420367460AE07C
:105A2000017890F8019041EA092119809B1C9B1C88
:105A3000401C401C7F1E002FF2D1BDE8F08300BF48
:105A4000FEE7000002480068C0F302207047000033
:105A50000CED00E010B5002804DB0A07130E054A20
:105A6000135406E00A07140E034A00F00F031B1F2D
:105A7000D45410BD00E400E018ED00E000BFFEE7E4
:105A800001464FF0FF30704770B504460D46204682
:105A900000F036F870BD000090B0FBF72DF8FCF771
:105AA000D6FFFCF7E5FCFCF703FDFCF71DFD3C21F0
:105AB00001A8FAF75DFC0B480068009011E04FF474
:105AC000FA60FAF763FE032107A0FAF713FE4022FB
:105AD00069460648FDF770FB7322054905A0FAF7F1
