:020000040800F2
:1000000010100020D9010008371A0008451900080F
:10001000351A000855050008DB350008000000000F
:10002000000000000000000000000000E31D0008C8
:100030007905000800000000E11D0008E51D00082A
:10004000F3010008F3010008F3010008F3010008C0
:10005000F3010008F3010008F3010008F3010008B0
:10006000F3010008F3010008F3010008F3010008A0
:10007000F3010008F3010008F3010008F301000890
:10008000F3010008F3010008F3010008F301000880
:1000900069350008F3010008F3010008F3010008C6
:1000A000F3010008F3010008F3010008F301000860
:1000B000F3010008F3010008F3010008F301000850
:1000C000F3010008F3010008F3010008F301000840
:1000D000F3010008F3010008F3010008F301000830
:1000E000F3010008F3010008F301000800F002F832
:1000F00000F062F80AA090E8000C82448344AAF160
:100100000107DA4501D100F057F8AFF2090EBAE85D
:100110000F0013F0010F18BFFB1A43F0010318473B
:100120006C3500008C3500000A444FF0000C10F8CC
:10013000013B13F0070408BF10F8014B1D1108BF65
:1001400010F8015B641E05D010F8016B641E01F805
:10015000016BF9D113F0080F1EBF10F8014BAD1C55
:100160000C1B09D16D1E58BF01F801CBFAD505E073
:1001700014F8016B01F8016B6D1EF9D59142D6D3CD
:10018000704700000023002400250026103A28BFF5
:1001900078C1FBD8520728BF30C148BF0B607047F9
:1001A000642900F0A580732900F073810020704756
:1001B0001FB51FBD10B510BD00F09AF91146FFF72D
:1001C000F7FF03F021FA00F0B8F903B4FFF7F2FFEC
:1001D00003BC03F013FA00000948804709480047B0
:1001E000FEE7FEE7FEE7FEE7FEE7FEE7FEE7FEE7E7
:1001F000FEE7FEE704480549054A064B7047000044
:100200005F1E0008ED000008100A002010100020FA
:10021000100C0020100C0020704700000FB404499F
:1002200010B503AA029800F039F910BC5DF814FB70
:10023000000000202DE9F0410E4604460020206217
:100240002046E168884730B3252805D0D4E901214C
:100250009047206A401CF2E7E16820460027884763
:10026000050018D0A5F14100192802D820354FF417
:1002700000673246294620462760FFF791FF40B1CC
:10028000012804D0F61D26F007060836D8E7361DEB
:10029000D6E72846DAE7206ABDE8F08170B50C465B
:1002A0000546012A05D02878800600D5EA69002392
:1002B00002E0012305E05B1C934202D2E05C0028CF
:1002C000F9D1A869E618C01AA861286A18442862FA
:1002D0002846AFF3008004E0D5E9012114F8010BB2
:1002E0009047B442F8D32846AFF3008070BD0000B9
:1002F0002DE9F0410646002410687529314616A5FF
:1003000010D0AFF30080002802DA404213A507E0C6
:1003100031688A0701D512A502E0490704D511A565
:10032000012401E0AFF3008000210A2206F1240736
:1003300009E0B0FBF2FCB0FBF2F302FB1C00303032
:1003400078541846491C0028F3D123462A463046E3
:10035000BDE8F04100F032B8000000002D000000C0
:100360002B000000200000004FF0000200B51346F3
:1003700094469646203922BFA0E80C50A0E80C50C5
:10038000B1F12001BFF4F7AF090728BFA0E80C5076
:1003900048BF0CC05DF804EB890028BF40F8042B6F
:1003A00008BF704748BF20F8022B11F0804F18BFDC
:1003B00000F8012B70477047704770472DE9F047F0
:1003C0000D4699469246044600F1240801688806C5
:1003D00004D5E06921F01001216000E00120A8426D
:1003E00001DD471B00E00027A1697A1902EB090033
:1003F000081AA0612078C00602D42046AFF300801E
:10040000002608E0D4E901211AF806009047206A86
:10041000401C761C20624E45F4DB2078C0060AD5CD
:100420002046AFF3008006E0D4E901213020904758
:10043000206A401C2062381EA7F10107F4DC07E0A7
:10044000D4E9012118F805009047206A401C206279
:10045000281EA5F10105F3DC2046AFF300802078CB
:10046000000602D50220BDE8F0870120FBE710B5A9
:10047000436913B1AFF3008001E0FFF70FFF0120E4
:1004800010BD127800F124010A7000224A70012286
:10049000EDE711684FF0FF32E9E70000074B70B558
:1004A0000D467B4400F011F80446284603F0A7F8F7
:1004B00010B14FF0FF3070BD204670BD5F310000BD
:1004C00001694A1C02610878704700B58FB0CDE918
:1004D00001310021059105497944CDE90310114608
:1004E0006846FFF7A7FE0FB000BD0000E5FFFFFF65
:1004F000754600F02BF8AE4605006946534620F0DD
:100500000700854618B020B5FFF774FEBDE820400F
:100510004FF000064FF000074FF000084FF0000BBF
:1005200021F00701AC46ACE8C009ACE8C009ACE872
:10053000C009ACE8C0098D46704710B50446AFF35A
:1005400000802046BDE81040FFF73FBE00487047DE
:10055000AC090020FEE70020704700207047000033
:10056000044810B54022D0F8B81201F0C5FD0020B3
:1005700010BD0000B8010020704772B6FEE7000011
:1005800070B5044600F0F4F80546601C02D004483B
:100590000078044400F0ECF8401BA042FAD370BD90
:1005A000880000202DE9F84FDFF8A4910024A9F17C
:1005B000040B23464FF00F0809F1040AABF1040EB7
:1005C000BEE00127A7403A40BA4272D1DFF884C1A9
:1005D0004D68A5EB0C0665452BD00DDC032D34D002
:1005E00005DC35B3012D19D0022D2FD11BE0112DC3
:1005F00016D0122D2AD119E0B6F5881F19D006DCC5
:10060000B6F5803F15D0B6F5801F1FD111E0B6F5C5
:10061000001F0ED0B6F5041F18D10AE0CB6815E014
:10062000CB681B1D12E0CB6808330FE0CB680C339E
:100630000CE08B682BB1012B4FF0080303D047610E
:1006400004E0042302E0076100E00023FF2A01D850
:10065000064601E000F104064FEA840501D9A5F140
:100660002005376808FA05FC27EA0C0703FA05F5A8
:1006700047EA050737604D68ED0060D5364DAE6935
:1006800046F00106AE61AD6924F0030605F00105F0
:100690000095324D7719BE68A5072D0F08FA05FCA5
:1006A00026EA0C06DFF8B8C0604503D14FF0000C15
:1006B00017E044E0DFF8ACC0604502D14FF0010C18
:1006C0000FE0DFF8A4C0604502D14FF0020C08E053
:1006D000DFF898C0604502D14FF0030C01E04FF005
:1006E000040C0CFA05FC4CEA060CC7F808C04D686F
:1006F000D9F80060ED024D4601D5164300E096435F
:100700002E604D68DAF80060AD02554601D51643FB
:1007100000E096432E604D68DBF80060AD035D4657
:1007200001D5164300E096432E604D68DEF8006068
:10073000ED03754601D5164300E096432E60641C18
:100740000A6832FA04F57FF43CAFBDE8F88F000088
:100750000804014000001110001002400000014098
:1007600000080140000C014000100140001401404D
:1007700001488068704700008800002002488168B6
:10078000027811448160704788000020074810B546
:10079000016841F010010160032000F075F80F209E
:1007A00000F006F800F024F8002010BD0020024000
:1007B00070B50D4D04464FF47A712878B1FBF0F016
:1007C0000A490968B1FBF0F000F0EEFF48B9102CBF
:1007D00007D200222146501E00F036F800206C603F
:1007E00070BD012070BD0000880000209400002032
:1007F0000C4808B5816941F001018161816901F00E
:1008000001010091C16941F08051C161C06906498F
:1008100000F080500090486820F0E06040F00070E8
:10082000486008BD0010024000000140002809DBBC
:1008300000F01F02012191404009800000F1E020FA
:10084000C0F8001170470000F0B40E4B1B68C3F3F2
:100850000223C3F10704042C00D904241D1D072D15
:1008600001D2002300E0DB1E012606FA04F56D1E0E
:100870000D409D409E40761E164045EA0601F0BCA4
:1008800002F0ACBE0CED00E0064A00F00701106873
:100890004FF6FF03184040EA012003490843106067
:1008A000704700000CED00E00000FA0510B50C06E2
:1008B00007D501F0070101EB810100EBC100103009
:1008C00005E001EB810100EBC10000F5A87099B2D1
:1008D00032B1012202730181190C4181002010BD47
:1008E00000220273C180F9E7704701EB810200EB3F
:1008F000C202D0F8D402526A01F023BE01EB810299
:1009000000EBC202D0F8D402D2F8642101F07CBE20
:1009100070B504460B0601F0070000EB800104EB04
:10092000C1014FF001024FF0000502D54A741031A9
:1009300003E081F8515101F5A871087094F8900214
:10094000012808D084F89022206802F0A2FA84F8E6
:100950009052002070BD022070BD70B5044601F0B9
:100960000F002279904201D9012070BD0B0601F0E1
:10097000070000EB800104EBC1014FF001024FF0D2
:10098000000502D54A74103103E081F8515101F598
:10099000A8718D70087094F89002012808D084F82E
:1009A0009022206802F013FB84F89052002070BD62
:1009B000022070BD2DE9F05F046857040B788D6943
:1009C000B4F850704FF000064BF68F7948F2800A69
:1009D00048F68F7B48F2C00E4FF480682AD54FF05E
:1009E000020C0CEBC30C674408EB4707E45BC4F351
:1009F0000904A54203D32D1B8D6101D00BE08E614C
:100A0000056835F8236006EA090686F4005646EACA
:100A10000A0625F82360520609D50A78036833F8D8
:100A2000225005EA0B0545EA0E0523F8225084B34F
:100A30000A8929E04FF0060C0CEBC30C674408EB65
:100A40004707E45BC4F30904A54203D32D1B8D6162
:100A500001D00BE08E61056835F8236006EA0906CF
:100A600086F4005646EA0A0625F82360520609D4A1
:100A70000B78026832F8235005EA0B0545EA0E05AB
:100A800022F823502CB14A8949690068234602F0B4
:100A900074FD2046BDE8F09F2DE9F05F0546006833
:100AA0000C465FEA426C8B6916460978B0F850C074
:100AB00048F68F774CF280094FF4004B4FF6FF7EDB
:100AC0004FF4806A4FF0000275D54FF0020808EB32
:100AD000C108E0440AEB480C30F80C00C0F30900F0
:100AE000834211D91B1AA3610FD0730407D52B6859
:100AF00033F821603E4046EA090623F8216094F865
:100B00002410012949D057E1A261607810B1012871
:100B100013D01AE02868B0F85030184400EB0110E8
:100B2000B0F80414C1F30901A0F80414B0F80414D7
:100B300041F40041A0F8041407E02868B0F85030F0
:100B4000184400EB0110A0F804246178286811B162
:100B5000012913D01AE0B0F850100844217800EBB6
:100B60000110B0F80C14C1F30901A0F80C14B0F88E
:100B70000C1441F40041A0F80C1407E0B0F8501038
:100B80000844217800EB0110A0F80C2421782846B5
:100B9000FFF7ABFE700473D40EE16169014461613B
:100BA000E1690144E1612369216A994204D318464D
:100BB000091A216205E03EE084F8242009B10846C4
:100BC0002262617811B1012929D031E02968B1F898
:100BD00050201144227801EB0211B1F80424C2F331
:100BE0000902A1F8042401F204413E2807D9420970
:100BF000C30600D1521E0B884BEA822207E048B19F
:100C00004208C30700D0521C0B880EEA822213430D
:100C10000B800DE00A8842F400420A8008E029684F
:100C2000B1F850201144227801EB0211A1F804041C
:100C300083B22289BCE04FF0060808EBC108E0440B
:100C40000AEB480C30F80C00C0F30900834211D3C2
:100C50001B1AA3610FD0730407D42B6833F82160EB
:100C60003E4046EA090623F8216094F82410012941
:100C700053D0A1E0A261607818B1012814D01BE024
:100C800041E02868B0F85030184400EB0110B0F88B
:100C90000414C1F30901A0F80414B0F8041441F4D9
:100CA0000041A0F8041407E02868B0F85030184458
:100CB00000EB0110A0F804246178286811B1012923
:100CC00013D01AE0B0F850100844217800EB01105E
:100CD000B0F80C14C1F30901A0F80C14B0F80C140E
:100CE00041F40041A0F80C1407E0B0F8501008449B
:100CF000217800EB0110A0F80C2421782846FFF79A
:100D0000F4FD700458D42178286830F821203A4046
:100D100042EA090220F821204EE061690144616144
:100D2000E1690144E1612369216A994203D31846CC
:100D3000091A216204E009B10846226284F82420DD
:100D40006278296812B1012A28D02FE0B1F850202A
:100D50001144227801EB0211B1F80C24C2F309020C
:100D6000A1F80C2401F20C413E2807D94209C30620
:100D700000D1521E0B884BEA822207E048B142089C
:100D8000C30700D0521C0B880EEA822213430B804B
:100D90000CE00A8842F400420A8007E0B1F85020D3
:100DA0001144227801EB0211A1F80C04628983B28C
:100DB0006169286802F0FEFB2178286830F821205C
:100DC00048F6BF731A4082F0300248F280031A439B
:100DD00020F821200020BDE8F09F2DE9F0410446D5
:100DE0000E0601F0070000EB800104EBC1014FF09B
:100DF00001074FF0000502D54F74103103E081F870
:100E0000515101F5A871022B08700A61CB7000D115
:100E10000D7194F89002012809D084F8907220682E
:100E200001F0F6FE284684F89052BDE8F0810220D9
:100E3000FBE710B501F0070404EB840100EBC101EE
:100E4000C1E959230022C1F86C2181F8512181F8B0
:100E50005041006801F5A87102F00CF9002010BDA6
:100E600070B504460D4601F007002179884201D98A
:100E7000012070BD29064FF000064FF0010206D593
:100E800000EB800104EBC1014A74103107E005EB6F
:100E9000850104EBC10181F8516101F5A8718A70E7
:100EA000087094F89002012807D084F890222068F6
:100EB00002F0C7F8680702D006E0022070BD04F512
:100EC0002671206802F081F884F89062002070BDDD
:100ED00010B501F0070404EB840100EBC101C1E986
:100EE0000923012281F834200B630023CB624A746A
:100EF00001F8104F006802F0BDF8002010BD1FB5CA
:100F00000446006802F036FB010403D5204600F0D9
:100F100093FD1FBD41050DD5206830F8441F21F415
:100F200080610180204600F0FDF80021204600F09D
:100F300014F91FBD410405D5206830F8441F21F481
:100F4000804173E0810405D5206830F8441F21F406
:100F500000516BE0C10414D5206830F8401F21F027
:100F600004010180206830F8401F21F00801018051
:100F7000204600F0EAF8206830F8441F21F4805140
:100F800054E001053FD5216800206A4631F8203041
:100F900022F81030401CC0B20828F7D331F8400FB7
:100FA00040F001000880206830F8401F21F0010166
:100FB00001802068B0F844104905FBD530F8441F83
:100FC00021F4806101800020236832F8101023F89A
:100FD0002010401CC0B20828F6D3206830F8401F0B
:100FE00041F008010180206830F8441F21F40061BD
:100FF0000180206830F8401F41F004010180204644
:1010000000F0DEF81FBD810509D5206830F8441FC7
:1010100021F400710180204600F09BF81FBDC0053F
:10102000FCD5206830F8441F21F4807101801FBD79
:101030002DE9F041040004D094F89102002518B184
:1010400007E00120BDE8F08184F89052204600F0CE
:101050004BF8032084F891026571206801F0AEFF1F
:1010600094E80F0001F013FF022690BB00212068D6
:1010700002F098FA68BB002101270BE001EB810028
:1010800004EBC00047740174C57405624562491CD5
:10109000C9B2856220798842F0D8002111E001EBC5
:1010A000810004EBC00080F8515180F8501180F8A5
:1010B0005351C0F86051C0F86451491CC9B2C0F81E
:1010C000685120798842EAD894E80F0001F06DFF5A
:1010D00010B184F89162B4E7657384F89172206866
:1010E00001F061FF0020ADE708B500680B498842B8
:1010F00012D10B48C16941F40001C161C0690022ED
:1011000000F40000009011461420FFF79DFBBDE89D
:1011100008401420FFF78ABB08BD0000005C0040B7
:101120000010024070B5044680790125022801D0E4
:10113000FFF723FA2946D4F8D40201F041FBD4F892
:10114000D402BDE8704001F0FDBAD0F8D40201F03D
:1011500021BBD0F8D40201F027BB10B5044690F8AB
:10116000900201280AD0012084F89002617320685F
:1011700002F01AFA002084F8900210BD022010BD7F
:10118000D0F8D42200F52671104601F025BB10B529
:10119000044690F89002012810D0012084F89002B3
:1011A000206802F0D7F901212046FFF79DFB206857
:1011B00001F0F7FE002084F8900210BD022010BD5F
:1011C00010B50446D0F8D40201F045FBA07A0028FF
:1011D00004D00348016841F00601016010BD000021
:1011E00010ED00E02DE9F84304460078344FC007C5
:1011F00052D0F8690025C00008D4F86940F080504A
:10120000F861F869012500F0805000902D480168D0
:10121000C90511D40168804641F480710160FFF76F
:10122000A7FA064604E0FFF7A3FA801B642822D839
:10123000D8F80000C005F6D5386A10F4407020D008
:10124000A18801F4407181421BD0386A1E490122F5
:1012500020F440700A6000220A603862C00710D093
:10126000FFF786FA064641F2883807E0FFF780FA72
:10127000811B414502D90320BDE8F883386A800705
:10128000F4D5386A616820F44070084338621DB1B3
:10129000F86920F08050F8612078800705D57868DB
:1012A000A16820F44040084378602078C00605D546
:1012B0007868E16820F48000084378600020DBE76C
:1012C0000010024000700040400442422DE9F04707
:1012D0000D46040067D0DFF81881D8F8000000F050
:1012E0000700A8420CD2D8F8001021F007012943CA
:1012F000C8F80010D8F8000000F00700A84252D14A
:1013000020683C4E810712D5400703D5706840F431
:10131000E06070602078000703D5706840F460508A
:1013200070607068A16820F0F00008437060207859
:10133000C00727D06068012810D03168022810D07B
:10134000890700292FDA716821F0030101437160D8
:10135000FFF70EFA074641F288390CE0316889033D
:10136000EFE78901EDE7FFF703FAC11B494502D911
:101370000320BDE8F0877068616800F00C00B0EBF6
:10138000810FF0D1D8F80010404601F00701A942C2
:101390000BD9016821F0070129430160006800F0C2
:1013A0000700A84201D00120E3E72078400705D5D7
:1013B0007068E16820F4E0600843706020780007FE
:1013C00006D57068216920F4605040EAC100706061
:1013D00000F038F87168084AC1F30311515CC84045
:1013E0000649086006480068FFF7E2F90020C0E7F8
:1013F00000200240001002407336000894000020D4
:101400008C0000200448054900684968044AC1F37B
:101410000221515CC8407047940000200010024037
:10142000833600080448054900684968044AC1F346
:10143000C221515CC8407047940000200010024057
:10144000833600080E4B59680E4801F00C02042A3E
:1014500011D0082A0FD10C48C1F38342C903805C24
:101460000AD55968084AC1F34041921E515C054AA9
:101470005043B0FBF1F07047044948437047000007
:101480000010024000127A006336000800093D0097
:101490002DE9F84F04006FD02078BE4DC00747D02B
:1014A0006868C0F38100012807D06868C0F3810034
:1014B000022809D16868C00306D52868800337D59B
:1014C00060680028E7D033E06068B0F5803F0BD05B
:1014D00010B1B0F5A02F11D0286820F4803028601A
:1014E000286820F4802002E0286840F480302860DA
:1014F000606888B1FFF73CF9064609E0286840F4C7
:1015000080202860F0E7FFF733F9801B642873D848
:1015100028688003F7D50BE0FFF72AF9064604E0B8
:10152000FFF726F9801B6428F1D828688003F7D4D8
:101530002078DFF8648280074FF0010A4FF000093D
:1015400039D5686810F00C0F07D06868C0F38100C7
:10155000022809D16868C00306D42868800714D51A
:101560002069012808D110E02069B0B1C8F800A0B6
:10157000FFF7FEF8064605E007E1FFF7F9F8801BE4
:101580000228C4D828688007F7D52868616920F048
:10159000F80040EAC10028600DE0C8F80090FFF7AD
:1015A000E7F8064604E0FFF7E3F8801B022823D89B
:1015B00028688007F7D4207800072CD57748A169E0
:1015C000D9B1C0F800A0FFF7D3F8064604E0FFF752
:1015D000CFF8801B02280FD8686A8007F7D57048BB
:1015E0004FF4FA510068B0FBF1F0009000BF009892
:1015F000411E0091FAD20EE07CE0C0F80090FFF7A7
:10160000B7F8064604E0FFF7B3F8801B022871D84C
:10161000686A8007F7D4207840075BD5E86900271F
:10162000C00008D4E86940F08050E861E86901270B
:1016300000F0805000905B480168C90511D4016832
:10164000834641F480710160FFF792F8064604E09A
:10165000FFF78EF8801B64284CD8DBF80000C0052B
:10166000F6D5E06801280AD008B1052813D0286A09
:1016700020F001002862286A20F0040002E0286AB5
:1016800040F001002862E06841F2883B88B1FFF732
:101690006FF8064609E0286A40F004002862EEE789
:1016A000FFF766F8811B59455BD8286A8007F7D594
:1016B0000BE0FFF75DF8064604E0FFF759F8811BE1
:1016C00059454ED8286A8007F7D41FB1E86920F041
:1016D0008050E861E069A8B36968C1F3810102291B
:1016E00046D00228484606D0C8F86000FFF740F808
:1016F000044639E035E04746C8F86000FFF738F89F
:10170000064604E0FFF734F8801B022829D8286831
:101710008001F7D4206AB0F5803F05D16868A168E0
:1017200020F4003008436860D4E908010843696880
:1017300021F4741108436860C7F860A0FFF718F837
:10174000044605E023E0FFF713F8001B022808D841
:1017500028688001F7D51AE0FFF70AF8001B022875
:1017600002D90320BDE8F88F28688001F4D40EE088
:101770000128F7D06868226A00F48031914204D1D0
:10178000616A00F47010884201D00120EAE700206D
:10179000E8E700000010024000004242800442429C
:1017A000940000200070004010B5401EB0F1807F12
:1017B00001D3012010BD4FF0E02460610F216017BC
:1017C00001F00CFF0020A06107202061002010BD67
:1017D00070B5040004D094F84100002510B106E073
:1017E000012070BD84F84050204600F023F82420EA
:1017F00084F841002068C16821F40051C16020468E
:1018000000F056FB2068016921F4904101612068D5
:10181000416921F02A0141612068C16841F4005109
:10182000C1606564202084F8410084F8420065634B
:10183000002070BD30B585B000240094019402945E
:10184000039400681449884224D11448816941F402
:1018500080418161816901F480410491816941F095
:101860000401816180690E4D00F0040004904FF482
:1018700000700090022001900320039069462846E2
:10188000FEF790FE2815CDE900046946284602942B
:10189000FEF788FE05B030BD003801400010024060
:1018A000000801402DE9F843044690F841001F4626
:1018B00015460E46202802D00220BDE8F8838EB1DE
:1018C00085B100206064212084F84100FEF750FFBC
:1018D000A5848146E584A0684FF02008B0F5805FBC
:1018E00002D003E00120E8E7206910B13546002668
:1018F0000EE000250CE08021204600F035FBA0B969
:10190000BDB115F8010B21684860E08C401EE084F1
:10191000E08C4B464FF0000200970028EBD14FF0CF
:101920004001204600F020FB40B184F841800320B4
:10193000C3E736F8020BC0F30800E4E784F84180FF
:101940000020BAE7FEE7F0B500230A243025372649
:101950001F4610E0B4EB107F02D905EB107C01E0CC
:1019600006EB107C01F813C001EB430C00015B1C7B
:101970008CF80170DBB29342ECD3F0BD094808B596
:10198000816941F020018161816901F020010091AC
:10199000816941F004018161806900F004000090D8
:1019A00008BD0000001002400C4810B50A49016053
:1019B0004FF461214160002181600C22C160C0E9C7
:1019C00004128161C161FFF703FF002803D0BDE865
:1019D0001040FEF7D2BD10BD00380140700100205C
:1019E00010B500220F49104800F084FD08B1FEF741
:1019F000C4FD0E490C4800F054FF08B1FEF7BDFDD0
:101A00000B49094800F070FB08B1FEF7B6FD064827
:101A100000F09CFF002803D0BDE81040FEF7ADBDEC
:101A200010BD000004000020B80100209C00002030
:101A300078000020FEE7FEE72DE9F05F04464FF056
:101A4000060A4FF480694FF0000BC0E1B0F8441073
:101A500011F00F063AD030F826805FEA08417DD5B4
:101A600030F8261040F68F72114041F0800120F8C6
:101A7000261006EB860004EBC00595F85C0105F521
:101A8000A87500286BD0E878022869D029782068EA
:101A900030F8212048F68F731A4048F2C0031A43E9
:101AA00020F821202978206830F82120B0F8503023
:101AB00052047DD5022202EBC1015A1809EB420102
:101AC000415A8F05BF0D74D02A89D9E0C9062CD49C
:101AD000018848F60F72114041F4004101802068EE
:101AE00004F11005B0F85020237C022101EBC30162
:101AF0000A4409EB4201405AC0F30900E062616AFE
:101B00000844606200212046FEF7EFFE607B00285B
:101B10009BD0A869002898D1607B216840F08000A4
:101B2000A1F84C0084F80DB051E1018804F5A875C6
:101B30000A0521D5B0F850202B780AEBC3010A44DE
:101B400009EB4201405A04F52671C0F30903EB6129
:101B5000EA88206801F011FD206802E0A8E06FE04B
:101B60007DE0018840F68F72114041F080010180D4
:101B70002046FFF705FB2AE10904D5D5018840F688
:101B80008F72114041F0800101802068B0F8502030
:101B90002B780AEBC3010A4409EB4201405A830542
:101BA0009B0DEB6110D0696971B1EA88206801E092
:101BB0005CE05AE001F0E1FCE969686908446861A9
:101BC00000212046FEF79AFE206801880A05ABD462
:101BD000C1F301310329A7D0B0F850100844B0F880
:101BE0000C14C1F30901A0F80C14296900F20C408F
:101BF0003E2909D94A09C90600D1521E01884FF46D
:101C0000004343EA822209E0B1B14A08C90700D083
:101C1000521C01884FF6FF7303EA822211430180B0
:101C2000206801884BF68F72114081F4405148F2D0
:101C3000800211430180CAE0018841F40041EEE7CF
:101C40002068B0F850202B780AEBC3010A4409EB56
:101C50004201415A8F05BF0D16D0EA8810E0424676
:101C600029462046FEF7A6FE07460DE00AEBC10115
:101C70005A1809EB4201415A8F05BF0D04D06A89F9
:101C80003B46696901F079FCE8693844E8616869B4
:101C900038446861A86910B12869B84204D9297824
:101CA0002046FEF72BFE03E02946206801F0E2F90A
:101CB0005FEA086030D506EB860004EBC0012068BF
:101CC00030F8262048F60F731A4042F4004220F8FC
:101CD0002620C87C103101281FD05FEAC85072D47A
:101CE0002068B0F850300D78022202EBC502134490
:101CF00009EB4302805A8A69C0F3090082425AD92B
:101D0000121A8A6159D04A6902444A61CA69104468
:101D1000C861206801F0AEF959E0C1F818B0087B3D
:101D20005B4620B35FEA486022D5487810B10128AD
:101D300014D03EE02068B0F8502010440A7800EB40
:101D40000210B0F80424C2F30902A0F80424B0F889
:101D5000042442F40042A0F804242AE02068B0F8E9
:101D6000502010440A7800EB0210A0F8043420E060
:101D70004A78206812B1012A13D01AE0B0F8502036
:101D800010440A7800EB0210B0F80C24C2F30902E8
:101D9000A0F80C24B0F80C2442F40042A0F80C2463
:101DA00007E0B0F8502010440A7800EB0210A0F8C9
:101DB0000C34097802E0C1F818B0E9B22046FEF709
:101DC00094FD04E0FFE742462046FEF765FE2068EA
:101DD000B0F8441009043FF539AE0020BDE8F09F8B
:101DE00070477047FEF7CABC30B593B028216846EB
:101DF000FEF7BAFA14210AA8FEF7B6FA0024012069
:101E00000F9410941194010412948DE8130004901F
:101E10000005CDE90810022507956846FFF738FB55
:101E200008B172B6FEE70F20CDE90A054FF48060D5
:101E3000CDE90C4001210AA80E94FFF747FA08B13A
:101E400072B6FEE710200F90800412900FA8FFF7E3
:101E5000C9F9002801D072B6FEE713B030BD704753
:101E600001680C3151E8002F22F4907241E8002300
:101E7000002BF5D10168143151E8002F22F0010246
:101E800041E80023002BF5D1016B012909D101683C
:101E90000C3151E8002F22F0100241E80023002B02
:101EA000F5D1202180F84210002101637047000025
:101EB00070B5044600680169E26821F4405111439D
:101EC0000161A16820690143606901432068C2681B
:101ED00041F20C639A430A43C26020684169A269D7
:101EE00021F44071114341611E492068884202D1AA
:101EF000FFF798FA01E0FFF785FA00EBC00101EB6C
:101F00000011606864228000B1FBF0F3B3FBF2F3D0
:101F10006FF018067343B1FBF0F5B1FBF0F605EB7B
:101F20008305322303EB0515B5FBF2F5B6FBF2F69C
:101F300005F0F00505EB0615B1FBF0F6B1FBF0F08E
:101F4000B0FBF2F06FF01801484306EB800003EBA2
:101F50000010B0FBF2F0216800F00F002844886008
:101F600070BD0000003801402DE9F8431F4690463F
:101F70000D460446089E23E0701C21D0FEF7F8FBB6
:101F8000C01BB0421AD8CEB12068C168490717D526
:101F9000802D15D0402D13D00168C94309070FD4F7
:101FA00001680025406800902046FFF759FF08208F
:101FB000606484F840500120BDE8F8830320FBE70B
:101FC0002068006835EA000004D000204045D3D0E6
:101FD0000020F1E70120F9E7D0F8B802002180F8ED
:101FE00050100846704770B50546D0F8B842D5F88D
:101FF000BC226178D2682078904740232246012194
:10200000284600F096FB002070BD70B50446812183
:1020100000F08EFA002501212046E56200F088FAE2
:10202000C4F86C51D4F8B80248B1D4F8BC0204F535
:102030002E7480688047206800F0E5FD2560002050
:1020400070BD10B5D0F8B842E16C012908D1D0F8C4
:10205000BC0223786178C268184690470020E0648B
:10206000002010BD0A210180004870476401002053
:102070002921018000487047D400002029210180D7
:102080000048704700010020292101800048704766
:102090002C01002070B50446002640230322812134
:1020A00000F03BFB01254023032229462046E56240
:1020B00000F033FB5420C4F86C5100F0A5FDC4F8C7
:1020C000B80278B10546002085F85000D4F8BC026B
:1020D0004068804740232A460121204600F029FB22
:1020E000304670BD0126FBE702460220002902D0DF
:1020F0000020C2F8BC12704710B5134690F89C42FD
:10210000D0F8B822032C0BD192F850400CB101202A
:1021100010BD012482F850400A46812100F0A4FB42
:10212000002010BDF8B50022D0F8B832ADF800207C
:102130000D781646144615F0600522D0202D56D194
:102140004A78921E0A2A52D2DFE802F01008515152
:10215000515151140C05887818644BE0012203F1A9
:10216000400135E04888000A586443E0012203F149
:1021700044012DE00122DA64CA88194600F064F8AF
:1021800038E04D7835B1062D0BD00A2D23D00B2D1C
:102190002DD128E090F89C22032A28D102226946FA
:1021A00016E04B882225B5EB132F07D1CA88232AC6
:1021B00000D92322D0F8BC120E6808E02125B5EB27
:1021C000132F04D1CA880E4E092A00D9092231469C
:1021D00000F054F80EE090F89C22032A07D1012267
:1021E00003F14801F4E790F89C22032A04D000F0A0
:1021F00020F802242046F8BD88789864FAE70000A9
:102200005801002010B5D0F8B42252689047002041
:1022100010BD134610B50A46002100F08AFA0020CE
:1022200010BD134610B50A46002100F01DFB00202A
:1022300010BD10B50446802100F0FBFA2046BDE831
:102240001040002100F0F5BA10B50323C0F85C215E
:10225000C0F89432C0F8602113460A46002100F00D
:1022600068FA002010BD10B505210023C0F89412B3
:102270001A46194600F05DFA002010BD10B5022381
:10228000C261C0F89432026213460A46002100F08F
:10229000EBFA002010BD10B504210023C0F8941201
:1022A0001A46194600F0E0FA002010BD10B50A46A3
:1022B000024903A000F0EEF8004810BD7C040020A5
:1022C000437573746F6D2048494420436F6E66698F
:1022D000670000001220088000487047240000209A
:1022E00010B50A46024903A000F0D4F8004810BD1A
:1022F0007C040020437573746F6D20484944204965
:102300006E746572666163650000000004200880D9
:10231000004870472000002010B50A46024903A07B
:1023200000F0B8F8004810BD7C04002053544D69FB
:1023300063726F656C656374726F6E6963730000BE
:1023400010B50A46024903A000F0A4F8004810BDE9
:102350007C04002053544D333220437573746F6DE9
:102360002048756D616E20696E7465726661636583
:102370000000000010B51A2008800A480168001DFE
:102380000468001D0068081809D008220649FFF7F4
:10239000DAFA0549042210312046FFF7D4FA024840
:1023A000801E10BDE8F7FF1F3A000020F8B5044674
:1023B0000020ADF8000048880D46010A082948D2DF
:1023C000DFE801F04704091747473D45D4F8B0124C
:1023D000207C0A6819E0207C02260028D4F8B40288
:1023E00005D0C16A68468847014646703EE0816A6A
:1023F000F8E7C0B206282CD2DFE800F0030B111575
:10240000191DD4F8B002426806E0694690470146BB
:102410002CE0D4F8B0028268DAB1207CF5E7D4F879
:10242000B002C268F8E7D4F8B0020269F4E7D4F861
:10243000B0024269F0E7D4F8B0028269ECE7207C90
:1024400038B9D4F8B402416B68468847DFE7207C8E
:1024500020B129462046FFF7ECFEF8BDD4F8B402BF
:10246000016B68468847014607204870BDF80000A8
:1024700048B1EA8852B1824200D90246ADF8002044
:102480002046FFF7FBFEE8880028E6D12046FFF74C
:1024900002FFF8BD70B5002300281ED004460025B9
:1024A00002E06D1CEDB2641C2678002EF9D10224E6
:1024B00004EB450414801278CA545B1C0322CA54EE
:1024C00000245B1C06E0CA545B1CDAB28C54521C1C
:1024D000D3B2401C0278002AF5D170BD01004FF044
:1024E000000004D0012901D0022901D00220704748
:1024F0000120704710B580B1D0F8B43213B1002379
:10250000C0F8B43209B1C0F8B012012180F89C12B1
:10251000027000F0BBF8002010BD022010BD10B505
:10252000D0F8C002FEF719FABDE81040FFF7D6BF99
:1025300010B5D0F8C002FEF7EBF9BDE81040FFF788
:10254000CDBF2DE9F0411746044651B1D4F8B4028D
:1025500042691AB194F89C02032851D00220BDE8C8
:10256000F081D4F89432002504F11400022B03D03A
:10257000042B3AD0C3B33CE0D0E903639E4207D9B1
:10258000F11AC1608AB239462046FFF74AFE12E0CE
:102590008068B0FBF3F103FB110199B9984211D3A4
:1025A000D4F8981288420DD2002211462046FFF737
:1025B00038FEC4F8985200231A461946204600F007
:1025C000B8F816E0D4F8B402C16829B194F89C02B6
:1025D000032801D1204688478021204600F029F9B0
:1025E0002046FFF740FE04E0FFE78021204600F090
:1025F00020F994F8A002012804D184F8A05201E047
:10260000204690470020AAE770B51546044649B118
:10261000D4F8B40282691AB194F89C02032830D02D
:10262000022070BDD4F8941204F5AA70032902D0D8
:1026300005291ED027E0D0E903318B420BD95B1A64
:10264000C3600846834200D303469AB22946204617
:10265000FFF7DFFD17E0D4F8B402016929B194F85F
:102660009C02032801D1204688472046FFF713FE2D
:1026700009E000200146C4F89402204600F0D9F891
:1026800001E020469047002070BD000010B50446D0
:1026900018481949C0F8D442C4F8C00201600821A2
:1026A00001710221817100218172C1720173FEF7F3
:1026B000BFFC08B1FDF761FF0022D4F8C002182367
:1026C000114604F53074FEF7F1F8582300228021FA
:1026D0002068FEF7EBF89823002281212068FEF79E
:1026E000E5F8D823002201212068FEF7DFF800205A
:1026F00010BD0000D4060020005C00400A0601F076
:102700007F01D0F8C00201EB810100EBC10001D5CF
:10271000807C704790F85201704710B51C461346F4
:10272000D0F8C0022246FEF758FBBDE81040FFF784
:10273000D5BE10B5D0F8C002FEF77BFBBDE8104057
:10274000FFF7CCBE70B50022044640231146FFF7C8
:10275000E4FF40260125C4F864613346002280214D
:102760002046C4F85851FFF7D8FF6662A56184F887
:102770009C520020C4F894026060C4F8A402D4F80B
:10278000B80228B1D4F8B40200214268204690472C
:10279000002070BD90F89C12042903D190F89D127E
:1027A00080F89C120020704710B590F89C12032905
:1027B00004D1D0F8B412C96901B18847002010BD16
:1027C00001740020704710B5D0F8C002FEF7C5FCB8
:1027D000BDE81040FFF782BE70B5044600F52A70D0
:1027E000054600F04AF80120C4F89402B4F8AE029D
:1027F000C4F8980294F8A82212F01F000AD0012809
:102800000DD0022810D002F08001204600F011F80F
:10281000002070BD2946204600F09DF8F8E72946C3
:10282000204600F0C9F9F3E72946204600F01CF9DC
:10283000EEE710B5D0F8C002FEF712FBBDE810407D
:10284000FFF74CBE10B5D0F8C002FEF7A0FCBDE803
:102850001040FFF743BE90F89C1280F89D120421AF
:1028600080F89C120020704710B5D0F8C002FEF727
:102870002FFBBDE81040FFF731BE0A7802704A789E
:1028800042708A78CB7802EB032242800A794B7936
:1028900002EB032282808A79C97902EB0121C1808F
:1028A00070470246002011B1C2F8B41270470220EE
:1028B000704710B5D0F8B42202241AB112689047BC
:1028C00000B90024204610BD70B50E461E4D897813
:1028D00004462970012931D894F89C0202280BD0B3
:1028E00003280FD031462046FFF7A3FC2978204665
:1028F000BDE87040FFF786BCD9B10320616084F861
:102900009C0209E071B16068884212D0C1B22046D1
:10291000FFF778FC297861602046FFF7CAFF02289C
:102920000CD006E0022084F89C0220466160FFF78C
:1029300069FC2046BDE87040FFF7ADBC314620463B
:10294000BDE87040FFF775BC9800002010B5FFF798
:1029500079FF002010BD2DE9F0410A78002712F020
:10296000600208D0202A01D0402A70D1D0F8B422C9
:10297000926890476DE04A78002301260A2A66D2C1
:10298000DFE802F0405D6557650805652C29FFF713
:102990000DFD5EE004468888D8B9C888C8B9488863
:1029A000802816D200F07F0594F89C02032810D0EE
:1029B00084F89E5229462046FFF705FF2046FFF780
:1029C0006AFC1DB1022084F89C0242E084F89C62FB
:1029D0003FE020463BE0FFF777FF3AE0CA88012A54
:1029E00035D190F89C22012A04D0022A02D0032A71
:1029F0002DD104E0012200F10801836016E00122DC
:102A0000011D13E090F89C22012A03D0022A01D074
:102A1000032A1CD1CA88022A19D1C660D0F8A41290
:102A200009B10321C160022200F10C01FFF726FC6D
:102A30000FE0498801290CD1C0F8A46211E090F898
:102A40009C22012A08D0022A06D0032A04D0FFF7CC
:102A5000F0FB3846BDE8F08149880129F9D1C0F87A
:102A6000A432FFF718FCF4E72DE9F0410A460446CA
:102A700013780027097913F060000AD0202801D0CC
:102A8000402850D1D4F8B4021146836820469847B4
:102A90008FE0C3F34110012806D05078D0B301284D
:102AA0002AD003283FD107E0D4F8B4021146836846
:102AB0002046BDE8F041184794F89C02022802D055
:102AC000032872D10AE071B380296ED02046FFF747
:102AD000B0FE80212046FFF7ACFE6AE0508838B98E
:102AE00031B1802904D0D08810B92046FFF7A1FE6B
:102AF0002046FFF7D0FB5CE094F89C020228E2D06D
:102B0000032852D1508898BB4806F1D02046FFF7E1
:102B100006FDEDE7FFE794F89C020026022803D0AB
:102B2000032842D112E040E009B180293DD10806D6
:102B300001F07F0000EB800004EB800101D514312F
:102B400001E001F5AA7102220E602AE0080601F0F8
:102B50000F0000EB800004EB80000AD5806920B3F1
:102B600001F07F0000EB800004EB800514350BE0E2
:102B70001FE0D0F85801C0B101F07F0000EB8000E9
:102B800004EB800505F5AA7541B1802906D02046E1
:102B9000FFF7B4FD10B10120286000E02E60022292
:102BA00029462046FFF76AFB03E011462046FFF75F
:102BB00040FB3846BDE8F08170B5054608780C4604
:102BC00010F0600203D0202A01D0402A16D195F8D7
:102BD0009C22012A03D0022A01D0032A0ED1207997
:102BE00001280BD8D5F8B402826828469047E188BE
:102BF000014306D12846FFF74EFB02E02846FFF7C7
:102C000018FB002070BD7047004870477C0600200C
:102C10002DE9F0470D78002730F8252048F68F136E
:102C20001A40CB78002B72D0012B76D0022B02D029
:102C3000032B6FD0012748F28004224320F825207F
:102C40000A7830F8223048F68F752B40134323431F
:102C500020F822300B7B48F2C00948F6BF724CF2D4
:102C6000800A4BF68F7CE3B3CB78022B0B7830F8DD
:102C7000236078D048F68F6806EA0806264320F8D5
:102C80002360B0F850300E78034403EB06130E892E
:102C900026F00106A3F80064B0F850300E78034423
:102CA00003EB06134E8926F00106A3F808644B785F
:102CB000002B0B7830F823604FEA46467ED0002E7A
:102CC00006DA30F823602E4046EA0A0620F8236030
:102CD0000B7830F82360760608D530F823602E4054
:102CE00000E01DE046EA090620F82360CB78012BBE
:102CF0000B7830F8235005EA02057CD085F02002DD
:102D0000224320F82320B7E001E006E002E042F48D
:102D1000007290E742F4C0628DE742F480628AE775
:102D20004B784BB3B0F850300E78034403EB0613E6
:102D3000CE8826F00106A3F800640B7830F82360F3
:102D4000760606D530F823602E4046EA090620F8BC
:102D50002360CB78012B07D0097830F8213013405D
:102D600083F020028DE05EE0097830F821301340D6
:102D7000234320F8213087E0B0F850200B7802443C
:102D800002EB0312CB8823F00103A2F80834B0F859
:102D900050200B78024402EB0312B2F80C34C3F358
:102DA0000903A2F80C340B6902F20C423E2B0BD93A
:102DB0005E09DB0600D1761E138800E039E04FF48F
:102DC000004848EA862609E00BB35E08DB0700D01E
:102DD000761C13884FF6FF7808EA86263343138063
:102DE0000A7830F822305B0408D530F822302B40C6
:102DF00043EA0A0300E03CE020F82230097851B1B0
:102E000030F8212002EA0C0282F4005239E01388E3
:102E100043F40043E3E7018801EA0C0181F44051E7
:102E20002143018030E02E4048F2801846EA08062F
:102E300025E7002E06DA30F823602E4046EA0A061F
:102E400020F823600B7830F82360760606D530F83A
:102E500023602E4046EA090620F823600B7830F8FC
:102E6000235005EA0C0585F44055254320F82350EE
:102E70007AE7254320F82350097830F8212002EA28
:102E80000C02224320F821203846BDE8F0870020BC
:102E900070472DE9F04391F80C804C780A7848F699
:102EA000BF774BF68F7948F2800548F2C0064CF2A6
:102EB000800C48F68F73B8F1000F29D0002C30F841
:102EC00022404FEA444448D0002C06DA30F8224031
:102ED0001C4044EA0C0420F822400A7830F82240D2
:102EE000640605D530F822401C40344320F82240C7
:102EF0000A7830F822401C4044EA0C0420F82240B2
:102F00000A7830F822303B402B4320F8223019E079
:102F1000002C30F822400CD0640605D530F8224051
:102F20001C40344320F82240097830F821203A40F0
:102F30000DE0640406D530F822401C4044EA0C043D
:102F400020F82240097830F8212002EA09022A43B9
:102F500020F821200020BDE8F083002C06DA30F8AC
:102F600022401C4044EA0C0420F822400A7830F841
:102F70002240640605D530F822401C40344320F836
:102F800022400A7830F822401C40344320F8224086
:102F90000A7830F8223003EA09032B4320F8223064
:102FA000C2E70020704700207047012120F8401F31
:102FB00000210180818001820846704730F8401F5F
:102FC00021F43F410180002070470020704730B558
:102FD0000A7BA2BB4A7848F68F75002A0A7848F225
:102FE000800430F8223015D05B0607D530F8223047
:102FF0002B4048F2C0052B4320F82230CA78012A22
:103000001DD0097830F8212048F6BF731A4082F0AD
:10301000200211E05B0407D530F822302B404CF23F
:1030200080052B4320F82230097830F821204BF618
:103030008F731A4082F44052224320F8212000204E
:1030400030BD10B54A780978002A48F2800330F87C
:10305000212005D048F6BF74224082F0100204E01F
:103060004BF68F74224082F480521A4320F82120BC
:10307000002010BD2DE9F0470C464B78097B054632
:103080004FF0000948F68F7248F2800A4FF400476B
:103090004FF6FF78012B09D000296FD0E078022885
:1030A0006DD001286CD00120BDE8F087A6692069A9
:1030B000864200D9064691B1E17802291ED0206AE5
:1030C000801B2062207835F820104906B5F8501092
:1030D000294401EB001073D5A0F80C6416E1B3B2DB
:1030E000E2882846616900F065FAB5F85000217859
:1030F000284400EB0110A0F804640DE1216A81422C
:10310000207876D935F82010114048F2801211430A
:1031100025F82010206A801B2062207835F82010C6
:103120004906617871D511B101292AD030E0B5F88E
:103130005010294401EB0010B0F80C14C1F3090140
:10314000A0F80C1400F20C403E2E07D97109F206CB
:1031500000D1491E028847EA812107E04EB171087B
:10316000F20700D0491C028808EA81210A43028044
:103170000EE0018841F40041018009E0F0E01FE128
:1031800094E1B5F85020511901EB0010A0F80C643F
:103190006289B3B22846616900F00CFA6069304474
:1031A00060612169206A884202D9801B206202E0A6
:1031B0000646C4F82090607818B101282BD032E080
:1031C0002FE0B5F850002178284400EB0110B0F84A
:1031D0000414C1F30901A0F8041400F204403E2EC7
:1031E00008D97109F20600D1491E028847EA8121F7
:1031F00008E0A1E056B17108F20700D0491C02882E
:1032000008EA81210A4302800DE00EE0018841F4C2
:103210000041018007E0B5F850002178284400EB18
:103220000110A0F80464228971E011B1012927D0AE
:103230002DE0B5F85010294401EB0010B0F804144B
:10324000C1F30901A0F8041400F204403E2E07D98E
:103250007109F20600D1491E028847EA812107E080
:103260004EB17108F20700D0491C028808EA81219A
:103270000A4302800BE0018841F40041018006E02E
:10328000B5F85010294401EB0010A0F8046422891D
:10329000B3B22846616900F08DF96069304460611D
:1032A0002169206A884202D9801B206202E006461A
:1032B000C4F82090607810B1012836D026E0B5F827
:1032C00050002178284400EB0110B0F80C14C1F331
:1032D0000901A0F80C1400F20C403E2E07D9710928
:1032E000F20600D1491E028847EA812107E04EB16B
:1032F0007108F20700D0491C028808EA81210A43BC
:10330000028003E0018841F4004101806289B3B288
:103310002846616900F04EF9207835F8201048F60B
:10332000BF72114081F030010EE1B5F8501048191C
:10333000217800EB0110CFE635F8202048F68F63A6
:103340001A4042EA0A0225F82020B5F850002278F7
:10335000284400EB02108BB2A0F804342289D7E78E
:10336000A1692069814202D9091AA16102E00846D7
:10337000C4F81890B5F850102278294401EB0211D6
:10338000B1F80C24C2F30902A1F80C2401F20C419B
:103390003E287DD94209C00600D1521E088847EA5E
:1033A00082220AE0088840F4004007E04208C00793
:1033B00000D0521C088808EA822210430880BBE033
:1033C00033BBB5F850002178284400EB0110B0F869
:1033D0000414C1F30901A0F80414216900F20440A7
:1033E0003E2907D94B09C90600D15B1E018847EA6F
:1033F000832307E041B14B08C90700D05B1C01885B
:1034000008EA8323194302E0018841F40041018066
:10341000607810B1012828D030E0B5F8500021784C
:10342000284400EB0110B0F80C14C1F30901A0F816
:103430000C14216900F20C403E2907D94B09C9063A
:1034400000D15B1E018847EA832307E041B14B08A6
:10345000C90700D05B1C018808EA8323194302E0F6
:10346000018841F40041018008E0B5F85010481986
:10347000217800EB0110218AA0F80C14E069C0B398
:10348000217835F82100430401D5430605D400E036
:1034900046E044F2400318424ED135F82100104076
:1034A00048F2C002104325F8210045E0A1692069D7
:1034B000814202D9091AA16102E00846C4F81890B5
:1034C00013BBB5F850102278294401EB0211B1F872
:1034D0000424C2F30902A1F8042401F204413E28A5
:1034E00008D94209C30600D1521E0B8847EA82223E
:1034F00008E021E078B14208C30700D0521C0B88D5
:1035000008EA822213430B80617800293FF42EAF32
:10351000012909D010E00A8842F400420A80F3E74A
:1035200000287FF443AF3DE7B5F8502051192278C9
:1035300001EB0211A1F80C04207835F820104BF6AD
:103540008F72114081F4405141EA0A0125F82010A0
:103550000020A9E50021A0F844104FF43F41A0F855
:1035600040100020704700000148FDF7C8BC000073
:10357000D4060020B0F84400704710B500EB4200BC
:103580005C0800F5806008D030F8042B01F8012BAE
:10359000120A01F8012B641EF6D1DA0701D0008867
:1035A000087010BD0020704711B98021A0F84C10A0
:1035B0000020704710B55B1C00EB42005B0800F573
:1035C000806009D011F8012B11F8014B42EA042266
:1035D00020F8042B5B1EF5D110BDFEE70907090E8C
:1035E000002804DB00F1E02080F80014704700F0B0
:1035F0000F0000F1E02080F8141D7047FEE74FF047
:10360000FF30704700F01EB8FDF7C0F8FEF7ECFB86
:10361000FEF7B4F9FEF7C8F9FEF7E2F94FF4FA74D1
:103620002046FCF7ADFF6F22024903A0FCF7F6FD30
:10363000F6E700005C3600085B25735D2025640D0D
:103640000A00000001B54FF0FF330122694602482D
:10365000FEF728F9009808BD700100206D61696EC1
:1036600000010202030405060708090A0B0C0D0EEF
:103670000F1010000000000000000001020304060B
:10368000070809000000000102030400AC3600082E
:1036900000000020700100002801000868370008C1
:1036A00070010020A00E0000840100084113D52203
:1036B00014080D231B0819041A41041A75041AADC5
:1036C000141AE1041704030904120132021640839C
:1036D000045057260201020301031A1A03140501BC
:1036E000091BA10106133015180925FF750895401F
:1036F00081020E6A310E149102C0225414205B051F
:103700001B0857041A6104195311821053127A13BB
:1037100095201B080B0413252142081A430C13D9CA
:103720001F1B08E704C11A7D181A71041A89041AAC
:1037300065041409022913010125C03209042A0273
:10374000A91509211101140122231607058103403F
:103750002D0507050107291A09562C691A31130A84
:083760000632022A40E40000D9
:04000005080000ED02
:00000001FF
