:020000040801F1
:10000000200E002039020108FB190108911901088E
:10001000F919010871070108852D01080000000089
:10002000000000000000000000000000791B010833
:100030007307010800000000771B0108851B0108F9
:100040005302010853020108530201085302010838
:100050005302010853020108530201085302010828
:100060005302010853020108530201085302010818
:100070005302010853020108530201085302010808
:1000800053020108530201085302010853020108F8
:1000900053020108530201085302010853020108E8
:1000A00053020108530201085302010853020108D8
:1000B00053020108530201085302010853020108C8
:1000C00053020108530201085302010853020108B8
:1000D00053020108530201085302010853020108A8
:1000E0005302010853020108530201085302010898
:1000F0005302010853020108530201085302010888
:100100005302010853020108530201085302010877
:100110005302010853020108530201085302010867
:100120005302010853020108530201085302010857
:100130005302010853020108530201085302010847
:10014000530201085302010853020108FD19010876
:100150005302010853020108530201085302010827
:100160005302010853020108530201085302010817
:100170005302010853020108530201080000000065
:10018000530201085302010800F002F800F044F89D
:100190000AA090E8000C82448344AAF10107DA45E2
:1001A00001D100F039F8AFF2090EBAE80F0013F0F0
:1001B000010F18BFFB1A43F001031847AC2C0000D5
:1001C000CC2C0000103A24BF78C878C1FAD8520766
:1001D00024BF30C830C144BF04680C6070470000C1
:1001E0000023002400250026103A28BF78C1FBD840
:1001F000520728BF30C148BF0B607047642900F028
:10020000E980732900F05382002070471FB502F087
:100210000FFE1FBD10B510BD00F078FA1146FFF7B4
:10022000F5FF02F0CDFD00F096FA03B4FFF7F2FF00
:1002300003BC02F0BFFD00000948804709480047A1
:10024000FEE7FEE7FEE7FEE7FEE7FEE7FEE7FEE786
:10025000FEE7FEE704480549054A064B70470000E3
:100260001D1C01088901010820080020200E002023
:10027000200A0020200A0020704753EA020C00F0F8
:1002800069802DE9F04B4FF00006002B1FBFB3FA39
:1002900083F503FA05F424FA05F65E4012BF16430F
:1002A000B2FA82F502FA05F4C5F120051EBF22FA62
:1002B00005FC44EA0C04203556EA044C4FEA144489
:1002C00018BF641C4FF000084FF00009904271EB1A
:1002D000030C39D3002919BFB1FA81F701FA07F6E7
:1002E000B0FA80F700FA07F6C7F120071EBF20FA20
:1002F00007FC46EA0C062037B6FBF4FCA7EB050723
:10030000103F07F01F0BCBF120060CFA0BFB2CFA69
:1003100006F644BFB3460026202FA4BF5E464FF02A
:10032000000B5BEA060C08BF4FF0010B19EB0B0941
:10033000ABFB027C48EB0608C01B06FB02CC0BFBA8
:1003400003CC71EB0C01C1E70B460246414648461F
:10035000BDE8F08B13B54FF000004FF00001AFF394
:100360000080BDE81C4070470FB4044910B503AAD3
:10037000029800F0A1F910BC5DF814FB0000002009
:1003800070B50C460546012A05D02878800600D5B0
:10039000EA69002302E0012305E05B1C934202D2DC
:1003A000E05C0028F9D1A869E618C01AA861286A9B
:1003B000184428622846AFF3008004E0D5E9012103
:1003C00014F8010B9047B442F8D32846AFF30080ED
:1003D00070BD00002DE9F041064600241068752923
:1003E000314616A510D0AFF30080002802DA404253
:1003F00013A507E031688A0701D512A502E0490775
:1004000004D511A5012401E0AFF3008000210A22E8
:1004100006F1240709E0B0FBF2FCB0FBF2F302FBAB
:100420001C00303078541846491C0028F3D123466C
:100430002A463046BDE8F04100F0CEB8000000008A
:100440002D0000002B000000200000002DE9F05FCF
:10045000894604464FF0000ADFF824B1FB44C0F897
:1004600020A02046E168884700287DD0252806D0B6
:10047000D4E901219047206A401C2062F1E7002561
:100480005F462046E16888472028064607DB312E74
:1004900005D2B81910F8200C08B10543F1E7A807F8
:1004A00001D525F00405C4F81CA00027C4F818A045
:1004B0002A2E09D0304602F076FC38B304EB8708C8
:1004C000303EC8F8186019E059F8041B204604EBC8
:1004D00087029161E1688847012F064618D1E069DB
:1004E000002820DA25F020051DE0D8F8180000EBE0
:1004F000800006EB40003038C8F818002046E1685C
:100500008847064602F04FFC0028EED1012F0AD0A2
:100510002E2E08D12046E16888477F1C0646022F10
:1005200045F02005C4DBA069002803DA404245F00D
:100530000105A061E80701D025F01005A6B1A6F1DC
:100540004100192802D8203645F400654A46314654
:10055000204625604D46FFF751FE60B1012807D0C7
:10056000ED1D25F0070000E007E000F1080978E73D
:1005700005F1040975E730467AE7206ABDE8F09F87
:10058000F72900004FF0000200B513469446964646
:10059000203922BFA0E80C50A0E80C50B1F1200196
:1005A000BFF4F7AF090728BFA0E80C5048BF0CC044
:1005B0005DF804EB890028BF40F8042B08BF7047A2
:1005C00048BF20F8022B11F0804F18BF00F8012B14
:1005D00070477047704770472DE9F0470D469946C0
:1005E0009246044600F124080168880604D5E069B3
:1005F00021F01001216000E00120A84201DD471B2D
:1006000000E00027A1697A1902EB0900081AA0612D
:100610002078C00602D42046AFF30080002608E010
:10062000D4E901211AF806009047206A401C761C84
:1006300020624E45F4DB2078C0060AD52046AFF391
:10064000008006E0D4E9012130209047206A401C58
:100650002062381EA7F10107F4DC07E0D4E901218C
:1006600018F805009047206A401C2062281EA5F15A
:100670000105F3DC2046AFF300802078000602D5A8
:100680000220BDE8F0870120FBE710B5436913B1F4
:10069000AFF3008001E0FFF773FE012010BD127878
:1006A00000F124010A7000224A700122EDE711686E
:1006B0004FF0FF32E9E70000074B70B50D467B4471
:1006C00000F011F80446284602F075FB10B14FF017
:1006D000FF3070BD204670BDFB26000001694A1C3A
:1006E00002610878704700B58FB0CDE90131002173
:1006F000059105497944CDE9031011466846FFF795
:10070000A5FE0FB000BD0000E5FFFFFF754600F03D
:100710002BF8AE4605006946534620F00700854693
:1007200018B020B5FFF796FDBDE820404FF0000659
:100730004FF000074FF000084FF0000B21F00701C9
:10074000AC46ACE8C009ACE8C009ACE8C009ACE80C
:10075000C0098D46704710B50446AFF300802046AF
:10076000BDE81040FFF761BD00487047BC0700209E
:10077000FEE7704772B6FEE770B5044600F006F972
:100780000546601C02D004480078044400F0FEF8DE
:10079000401BA042FAD370BD040000202DE9F84FA1
:1007A000DFF8BCA10022012503264FF00F090AF152
:1007B000040BAAF1040E00BF0B6805FA02F42340F3
:1007C000A34270D10F7907F00307012F01D0022F48
:1007D00016D187684FEA420806FA08FC27EA0C0798
:1007E000D1F80CC00CFA08FC4CEA070CC0F808C0A1
:1007F0004768A7430C79C4F3001494403C43446019
:100800000C79E443A4070AD0C4684FEA420C06FA04
:100810000CF7BC438F6807FA0CF72743C7600C79C5
:1008200004F00304022C12D1D40800EB840CDCF891
:1008300020405707FF0E09FA07F824EA0804D1F808
:10084000108008FA07F848EA0408CCF82080046809
:100850004FEA420C06FA0CF7BC430F7907F0030786
:1008600007FA0CF7274307604C6814F4403F70D038
:100870003C4C276847F480472760246822F0030730
:1008800004F480440094384C07EB040CDCF808486E
:1008900097074FEA177809FA08F7BC43334FB84275
:1008A00002D1002724E054E0314FB84201D10127A2
:1008B0001EE0304FB84201D1022719E02E4FB84256
:1008C00001D1032714E02D4FB84201D104270FE0D6
:1008D0002B4FB84201D105270AE02A4FB84201D177
:1008E000062705E0284FB84201D1072700E0082776
:1008F00007FA08F72743CCF80878DAF8004057469B
:10090000D1F804C09C435FEACC2C00D51C433C606A
:10091000DBF800405F46D1F804C09C435FEA8C2CB2
:1009200000D51C433C60DEF800407746D1F804C097
:100930009C435FEA8C3C00D51C433C60084F083F59
:100940003C68D1F804C09C435FEACC3C00D51C4312
:100950003C60521C102AFFF42FAFBDE8F88F000056
:10096000083C014044380240003001400000024091
:100970000004024000080240000C02400010024047
:100980000014024000180240001C02400148806828
:10099000704700000400002002488168027811447A
:1009A00081607047040000200B4810B5016841F4D5
:1009B00000710160016841F480610160016841F4E7
:1009C00080710160032000F061F80F2000F006F84C
:1009D00000F024F8002010BD003C024070B50D4D21
:1009E00004464FF47A712878B1FBF0F00A4909689F
:1009F000B1FBF0F000F000FF48B9102C07D2002244
:100A00002146501E00F022F800206C6070BD0120CD
:100A100070BD000004000020100000200A4808B546
:100A2000016841F480410160006800F4804000905A
:100A30000548001F016841F080510160006800F026
:100A40008050009008BD000044380240F0B40E4BC6
:100A50001B680C46C3F30223C3F10705042D00D91C
:100A60000425191D072901D2002300E0DB1E012601
:100A700006FA05F1491E214099409E40761E164017
:100A80003143F0BC02F07FB90CED00E0064900F004
:100A9000070208684FF6FF03184040EA0220034AA5
:100AA00010430860704700000CED00E00000FA05FC
:100AB0007047D0F8E00401F01CBB01EBC10200EB71
:100AC0008202D0F8E004126A01F071BA01EBC102AF
:100AD00000EB8202D0F8E004D2F8602201F0C2BA42
:100AE000D0F8E00401F007BB0A0601F00F0101EBAA
:100AF000C10100EB810101D5143101E001F515714F
:100B0000006801F0DDBF70B5044601F00F002279E6
:100B1000904201D9012070BD0B0601F00F0101EBDD
:100B2000C10104EB81014FF001024FF0000502D535
:100B30004A75143103E081F8555201F515718D7035
:100B4000087094F89404012808D084F8942420684C
:100B500001F042FE84F89454002070BD022070BD64
:100B60002DE9F04104460F0601F00F0000EBC00133
:100B700004EB81014FF001064FF0000502D54E75E0
:100B8000143103E081F8555201F51571C2F30A02E0
:100B900008708A600B714A7802B14883022B00D139
:100BA0004D7194F89404012809D084F89464206865
:100BB00001F098FD284684F89454BDE8F0810220A5
:100BC000FBE710B501F00F0404EBC40100EB810159
:100BD000C1E998230023C1F8683281F8553281F8C1
:100BE0005442837901F51571012B00D1CA618279D4
:100BF000006801F049FE002010BD70B504460D46A6
:100C000001F00F002179884201D9012070BD290629
:100C10004FF000064FF0010206D500EBC00104EBD7
:100C200081014A75143107E005EBC50104EB810130
:100C300081F8556201F515718A70087094F8940472
:100C4000012807D084F89424206801F0F1FD2807DA
:100C500002D007E0022070BDA17904F29C42206816
:100C600001F08EFD84F89464002070BD10B501F091
:100C70000F0404EBC40100EB8101C1E90823002348
:100C80008B6201234B7501F8144F8379012B00D13E
:100C9000CA618279006801F0F7FD002010BD0000F4
:100CA0002DE9FC5F05680446284601F083FF002813
:100CB0007DD1206801F0AAFF002878D0D5F8080877
:100CC000C0F30D20C4F8D404206801F09FFF800712
:100CD00004D52068416901F002014161206801F0FA
:100CE00095FFC10604F29C40009034D520688169CC
:100CF00021F0100181612F6A07F00F0000EBC000A6
:100D000004EB8006C7F3434006F51576022802D0AF
:100D1000062811D01AE047F6F070074216D0C7F344
:100D20000A1217462846F16801F074FFF06838444B
:100D3000F0607069384408E008222846009901F004
:100D400069FF7069C7F30A110844706120688169FE
:100D500041F010018161206801F058FF00034FF05D
:100D6000080B4FF0000A4FF001097CD500262068DF
:100D700001F02BFF074674E0F80770D0F1B220684D
:100D800001F03CFF8046C00707D005EB4611C1F8D3
:100D9000089B3146204600F037FE5FEA087024D5F4
:100DA00005EB4611C1F808BB2068016C00E023E2A6
:100DB00000EB46100191D0F8082BFB4B994205D966
:100DC000110403D54FF40041C0F8081B204600F081
:100DD0004EFAF5490198884207D9A079012804D133
:100DE00020680121009A01F0CBFC5FEAC86004D5BD
:100DF00005EB46111020C1F8080B5FEA88701DD57D
:100E00006869000605D5D5F8040840F48061C5F886
:100E1000041806EBC60004EB800090F8571200F5AA
:100E20001570012905D180F803A0F1B2204600F029
:100E3000E9F905EB46110220C1F8080B5FEA88606A
:100E400004D505EB46102021C0F8081B5FEA884056
:100E500005D505EB46104FF40051C0F8081B7F087C
:100E6000761C002F88D1206801F0D0FE40036ED59B
:100E7000206801F0A3FE0746002666E0F80762D06E
:100E8000F1B2206801F0A8FE8046C00723D006F02A
:100E90000F01D5F8342809FA01F18A43C5F834283E
:100EA00005EB4611C1F80899A07901280FD106EB8E
:100EB000C60004EB8000D0E907211144016236B975
:100EC000606A20B920680121009A01F059FCF1B252
:100ED0002046FFF7F2FD5FEA087003D505EB4611E7
:100EE000C1F808B95FEAC86004D505EB46111020C7
:100EF000C1F808095FEA486004D505EB46104021B7
:100F0000C0F808195FEA887016D53146284601F006
:100F100026FE06EBC60004EB8000C17D14300129DB
:100F200005D180F803A0F1B2204600F067F905EB87
:100F300046110220C1F808095FEA086003D531466E
:100F4000204600F0C7FD7F08761C002F96D1206850
:100F500001F05CFE002811DAD5F8040820F0010148
:100F6000C5F8041894F8CC0401282BD0204600F0D2
:100F700063F92068416901F000414161206801F096
:100F800045FE00050BD5D5F80808C00702D020465D
:100F900000F074F92068416901F400614161206842
:100FA00001F034FEC00467D5D5F8040820F0010034
:100FB000C5F804081021206801F0D1FD00214FF68A
:100FC0007F3220E084F8CCA400212046FFF770FD9A
:100FD000CFE700BF05EB4110C0F80829D0F8003971
:100FE00023F40013C0F80039C0F8082BD0F8003BF8
:100FF00023F40013C0F8003BD0F8003B43F000633B
:10100000C0F8003B491C20798842E3D8D5F81C0879
:1010100040F00111C5F81C18E07B002828460DD0CF
:10102000D0F8840840F00B01C5F88418D5F84408BE
:1010300040F00B012846C5F844180DE0D0F814081C
:1010400042F22B010843C5F81408D5F8100840F007
:101050000B012846C5F81018D0F8000820F4FE61EE
:10106000C5F80018A1792068009A01F089FB206872
:10107000416901F480514161206801F0C7FD80049D
:1010800015D5206801F06EFB206801F086FDE07147
:1010900000F0A6F90146E279206801F0EBFD204658
:1010A00000F0B4F82068416901F400514161206802
:1010B00001F0ACFD000707D5204600F0C1F820681C
:1010C000416901F008014161206801F09FFD0006BF
:1010D00016D5A86920F08001A96101260DE000BFA6
:1010E00006EBC60004EB800090F85702012803D1FC
:1010F000F1B22046FFF7F8FC761C2079B042EFD819
:10110000206801F083FDC0021FD501264F4614E080
:1011100005EB4610D0F8001906EBC60004EB800280
:10112000107E012808D1002906DAF0B240F08001D3
:10113000D7752046FFF7D8FC761C2079B042E7D857
:101140002068416901F480114161206801F05EFD71
:10115000800234D501204A4629E000BF05EB40114A
:10116000D1F8001B00EBC00304EB830393F8586233
:10117000012E1BD1002919DA94F8D46401F48031CE
:1011800006F00106B14211D183F85722A96941F056
:101190008003AB616969090608D4D5F8040840F4F6
:1011A0000070C5F8040805E00A30544F401C21794E
:1011B0008142D3D82068416901F40011416120685F
:1011C00001F024FD400007D52046FFF772FC20689F
:1011D000416901F080414161206801F017FD40073D
:1011E0000AD520684568680702D52046FFF778FCD5
:1011F0002068416829434160BDE8FC9FD0F8E004C5
:1012000000F097BFD0F8E00400F0A7BF70B5044627
:10121000C079012570B1022801D0FFF7ABFA294649
:10122000D4F8E00401F007F8D4F8E004BDE8704019
:1012300000F0BCBF0025F2E7D0F8E00400F0E4BF06
:10124000D0F8E00400F0EABF10B5044690F894042A
:1012500001280AD0012084F894046174206801F008
:10126000F8FC002084F8940410BD022010BDD0F8D2
:10127000E02400F29C41104600F0E9BF10B504469E
:10128000D0F8E00401F01CF82068D0F8001E41F00E
:101290000101C0F8001EE07A002804D0024801686D
:1012A00041F00601016010BD10ED00E02DE9F047AE
:1012B0000E46050065D0DFF81481D8F80000F7B2BB
:1012C00000F00700B04207D288F80070D8F800009C
:1012D00000F00700B04254D128683D4C810712D578
:1012E000400703D5206840F4E050206028780007CC
:1012F00003D5206840F4604020602068A96820F091
:10130000F000084320602878C0072DD03049686875
:101310000839012812D0022813D0032811D00968F7
:10132000890700292DDA216821F00301014321609A
:10133000FFF72CFB814641F2883A0EE009688903E9
:10134000EFE709688901ECE7FFF720FBA0EB090153
:10135000514502D90320BDE8F0872068696800F094
:101360000C00B0EB810FEFD1D8F80010404601F02F
:101370000701B14207D90770006800F00700B042CA
:1013800001D00120E7E72878400705D52068E96803
:1013900020F4E050084320602878000706D5206834
:1013A000296920F4604040EAC100206000F03EF866
:1013B0002168084AC1F30311515CC840064908601E
:1013C00006480068FFF70AFB0020C4E7003C024023
:1013D000083802403F2E01081000002008000020BD
:1013E00001480068704700001000002004480549CB
:1013F00000680968044AC1F38221515CC840704703
:1014000010000020083802404F2E0108044805490A
:1014100000680968044AC1F34231515CC840704712
:1014200010000020083802404F2E0108154810B562
:10143000006810F00C02144813D04110042A0FD099
:10144000082A0ED10F4C241F2268236802F03F02A5
:101450005B0207D52068C0F38810A0FB010106E0FD
:10146000084610BD2168C1F38811A1FB00010023CB
:10147000FEF703FF2168C1F30141491C4900B0FB9D
:10148000F1F010BD083802400024F4002DE9F84FB7
:1014900004006ED02078DFF84C93C007A9F1040552
:1014A0004AD009F104000168C1F38101012908D083
:1014B0000068C0F3810002280AD1D9F80000400278
:1014C00006D52868800337D560680028E1D033E06E
:1014D0006068B0F5803F10D0B0F5A02F286810D01C
:1014E00020F480302860286820F48020286060681C
:1014F000A8B1FFF74BFA06460DE0286840F48030AB
:10150000F4E740F480202860F7E700BFFFF73EFAD9
:10151000801B642873D828688003F7D50CE0FFF798
:1015200035FA064605E000BFFFF730FA801B642855
:10153000F0D828688003F7D42078DFF8AC828007E1
:101540004FF0000A3ED5A748001D016811F00C0FAE
:1015500008D00068C0F3810002280BD1D9F8000040
:10156000400207D42868800716D5E068012800D11A
:1015700012E033E1E068B8B10120C8F80000FFF7DD
:1015800005FA064605E000BFFFF700FA801B0228B7
:10159000C0D828688007F7D52868216920F0F800AE
:1015A00040EAC10028600DE0C8F800A0FFF7EEF99E
:1015B000064604E0FFF7EAF9801B02281FD82868D6
:1015C0008007F7D42078000722D5864F87486169C5
:1015D000703771B101210160FFF7D8F9064604E0C8
:1015E000FFF7D4F9801B022809D838688007F7D59F
:1015F0000EE0C0F800A0FFF7C9F9064605E082E05A
:10160000FFF7C4F9801B02287DD838688007F7D41B
:101610002078400768D5DFF8CCB100270BF13C0BF0
:10162000DBF80000C0000BD4DBF8001041F0805163
:10163000CBF80010DBF80000012700F0805000908C
:101640006B4E3068C00510D4306840F48070306054
:10165000FFF79CF9009005E0FFF798F90099401A10
:10166000022850D83068C005F6D55E4EA0686C36AA
:1016700001280FD00528306810D020F0010030601C
:10168000306820F004003060A068B8B1FFF77EF940
:1016900000900FE0306840F00100F4E740F00400F3
:1016A0003060F7E7FFF772F90099411A41F288308C
:1016B000814266D830688007F4D50EE0FFF766F9FE
:1016C000009007E0FFF762F90099411A41F2883073
:1016D000814256D830688007F4D42FB1DBF800106F
:1016E00021F08051CBF80010A069C8B33D49091D15
:1016F0000968C1F3810102294AD00228504607D067
:10170000C8F8600000E03CE0FFF740F904463BE029
:101710004746C8F86000FFF739F9064605E000BF04
:10172000FFF734F9801B02282BD828688001F7D4F2
:10173000D4E907010843A16A2E4A490802EB014196
:10174000626A41EA8211084394F82C1040EA016170
:10175000C9F8001001203866FFF718F9044606E0C2
:101760003EE000BFFFF712F9001B022809D82868E5
:101770008001F7D534E000BFFFF708F9001B02280D
:1017800002D90320BDE8F88F28688001F4D427E04F
:101790000128F7D0D9F80000E26900F480019142F5
:1017A0001CD1226A00F03F01914217D147F6C07167
:1017B000626A0140B1EB821F10D1A26A4FF0FF3381
:1017C00000F4403103EB5202B1EB024F06D194F822
:1017D0002C1000F07060B0EB016F01D00120D1E758
:1017E0000020CFE70438024000004742800E474205
:1017F000007000400000FFFF10B5401EB0F1807F78
:1018000001D3012010BD4FF0E02460610F2160176B
:1018100001F0B9FA0020A06107202061002010BD6E
:1018200070B5040004D094F84100002510B106E022
:10183000012070BD84F84050204600F023F8242099
:1018400084F841002068C16821F40051C16020463D
:1018500000F01AFA2068016921F4904101612068C2
:10186000416921F02A0141612068C16841F40051B9
:10187000C1606564202084F8410084F842006563FB
:10188000002070BD10B586B0044614216846FEF7EE
:1018900079FE14492068884221D11348002102684A
:1018A00042F010020260006800F0100005900E483F
:1018B0001438026842F001020260006800F0010082
:1018C00005904FF4C06000900220CDE90101032093
:1018D00003900720049069460448FEF75FFF06B0B6
:1018E00010BD0000001001404438024000000240DA
:1018F0002DE9F843044690F84100984616460D46F7
:10190000202802D00220BDE8F88385B17EB10020F6
:101910006064212084F84100FFF738F8A6848146EE
:10192000E684A0682027B0F5805F02D003E00120A4
:10193000E9E7206910B12E4600250EE000260CE0F4
:101940008021204600F026FAA8B9C6B116F8010B8E
:1019500021684860E08C401EE084E08C4B464FF0EC
:101960000002CDF800800028EAD14FF04001204667
:1019700000F010FA40B184F841700320C3E735F855
:10198000020BC0F30800E3E784F841700020BAE7D7
:10199000FEE70000094808B5016841F080010160D8
:1019A000016801F080010091016841F001010160CE
:1019B000006800F00100009008BD000030380240CF
:1019C0000C4810B50A4901604FF4E1314160002133
:1019D00081600C22C160C0E904128161C161FFF71E
:1019E0001FFF002803D0BDE81040FEF7C3BE10BDA6
:1019F0000010014018000020FEE7FEE70148FFF755
:101A00004FB90000D80200202DE9F04103680D46CF
:101A100004461E6C03EB4511D1F8080B94F806E060
:101A20004FF400474FF0200C04F29C42BEF1010F2E
:101A300009D0DFF898E0764539D1020432D500BFED
:101A4000C1F8087B3FE0224B5FEA007E04D59E424E
:101A500039D90004F4D436E05FEA806E02D5C1F8CB
:101A600008CB30E010F0280F2DD19E4201D90004A0
:101A7000E6D405EBC50004EB8000D1F8101BD0F8CC
:101A80007432C1F31201591AC0F8681200F51570CA
:101A9000ADB903691BB1C2681144C1600FE00121F7
:101AA00020680AE080060AD5C1F808CB07E035B9FE
:101AB000D4F8640218B90021184600F061FEE9B2BA
:101AC0002046FFF703F80020BDE8F0810A31544FAB
:101AD0000A30544F2DE9F84F0E4601EBC60100EBDA
:101AE000810481460568D4E909101434884202D97A
:101AF0000120BDE8F88F081AA168814200D208468B
:101B0000C01C870805EB46181BE000BFA0EB010ACC
:101B1000A068504500D282460AF10300870899F870
:101B2000060000901FFA8AF3F2B22846E16801F03D
:101B300015F9E16801EB0A00E060616901EB0A0058
:101B40006061D8F8180980B2B84205D3D4E904011D
:101B5000814201D20028D9D1D4E90401884208D8B1
:101B600006F00F0101208840D5F834188143C5F8EC
:101B700034180020BDE7704770470178407841EA8B
:101B800000207047FEF708BF30B593B0302168469B
:101B9000FEF7F8FC14210CA8FEF7F4FC1D48002504
:101BA000016841F080510160006800F080501190A0
:101BB0001948016841F4804101600068022400F482
:101BC0008040119001200090000401908001CDE937
:101BD000064004200890A820CDE9090407200B90B6
:101BE0006846FFF753FC08B172B6FEE70CA90F2058
:101BF00081E831004FF4A0500F904FF480501090C6
:101C000005210CA8FFF752FB002801D072B6FEE7B1
:101C100013B030BD403802400070004004480168F5
:101C200041F4700101600249024880390860704740
:101C300088ED00E00000010801680C3151E8002F38
:101C400022F4907241E80023002BF5D10168143191
:101C500051E8002F22F0010241E80023002BF5D1CA
:101C6000016B012909D101680C3151E8002F22F0E4
:101C7000100241E80023002BF5D1202180F842100A
:101C8000002101637047000070B5044600680169D7
:101C9000E26821F44051114301612169A068E269C1
:101CA00008436169114308432168CA6849F20C631B
:101CB0009A430243CA6020684169A26921F44071D5
:101CC0001143416131492068884202D0304988423D
:101CD00002D1FFF79BFB01E0FFF788FBE2690023DD
:101CE000192164253226B2F5004F626828D0A0FB86
:101CF0000101930F9200FEF7C0FA0146B0FBF5F028
:101D00006FF01802504301EB800006EB0010B0FBAF
:101D1000F5F000F0F002B1FBF5F002EB0012B1FBC0
:101D2000F5F06FF01803584301EB800006EB00104C
:101D3000B0FBF5F000F00F0021681044886070BD22
:101D4000A0FB010192185B41FEF797FA0146B0FB38
:101D5000F5F00201B1FBF5F06FF01803584301EB09
:101D6000800006EBC000B0FBF5F000F0F80002EBDD
:101D70004002B1FBF5F0584301EB800006EBC000D8
:101D8000B0FBF5F000F00700D6E7000000100140BE
:101D9000001401402DE9F843984617460D460446C5
:101DA000089E24E0701C22D0FEF7F0FDA0EB080096
:101DB000B0421AD8CEB12068C168490717D5802D26
:101DC00015D0402D13D00168C94309070FD401680D
:101DD0000025406800902046FFF72EFF0820606431
:101DE00084F840500120BDE8F8830320FBE7206819
:101DF000006835EA000004D00020B842D2D00020AC
:101E0000F1E70120F9E710B5D0F8B82200245268B4
:101E1000904700B10324204610BD002070470020E9
:101E20007047134610B50A46002100F0B6F90020AD
:101E300010BD134610B50A46002100F04EFA0020EE
:101E400010BD10B50446802100F031FA2046BDE8EF
:101E50001040002100F02BBA10B50521C0F89412F3
:101E600000231A46194600F098F9002010BD10B55D
:101E70000223C0F8943282611346C2610A460021EF
:101E800000F02BFA002010BD10B50421C0F8941208
:101E900000231A46194600F020FA002010BDF8B5BC
:101EA00004460020ADF8000048880D46010A0829C4
:101EB0005FD2DFE801F05E0409175E5E3C45D4F8AE
:101EC000B412207C0A6819E0207C02260028D4F88D
:101ED000B80205D0C16A684688470146467039E0B5
:101EE000816AF8E7C0B2062843D2DFE800F0030AAF
:101EF0001014181CD4F8B402426805E069469047F3
:101F00001CE0D4F8B402826892B3207CF6E7D4F8DF
:101F1000B402C268F8E7D4F8B4020269F4E7D4F86E
:101F2000B4024269F0E7D4F8B4028269ECE7207C9D
:101F3000F0B9D4F8B802416B68468847014609E019
:101F4000207CA8B9D4F8B802016B684688470146DE
:101F500007204870EA888AB1BDF8000040B182428B
:101F600000D90246ADF800202046FFF780FFF8BDFB
:101F7000FFE729462046FFF764FFF8E72046FFF712
:101F800083FFF4E701004FF0000004D0012901D0E5
:101F9000022901D0032070470120704710B5D0F806
:101FA000C802FEF7B0FDBDE81040FFF7EBBF2DE91A
:101FB000F04117460446002521B194F89C020328FD
:101FC00042D04CE0D4F8941204F11400022935D127
:101FD000D0E902639E4206D9F21A82603946204651
:101FE000FFF727FF0FE0B34214D14068984211D3A6
:101FF000D4F8981288420DD2002211462046FFF7ED
:1020000018FFC4F8985200231A461946204600F0DB
:10201000C4F813E094F89C02032808D1D4F8B8025D
:10202000C16821B1C4F8D452C168204688478021D4
:10203000204600F03CF92046FFF70EFF94F8A0027E
:1020400068B184F8A0520AE0D4F8B802426932B10B
:10205000C4F8D452426920469047002800D100209D
:10206000BDE8F08170B513460446002221B194F812
:102070009C02032830D03AE0D4F8941204F5AA70F8
:10208000032934D1D0E902518D420AD96A1A8260FB
:102090000846824200D3024619462046FFF7C1FE99
:1020A00025E094F8AA0210F01F0003D0012802D006
:1020B000022800D0002294F89C02032808D1D4F80A
:1020C000B802016921B1C4F8D422016920468847C9
:1020D0002046FFF7D9FE0AE0D4F8B802836933B18D
:1020E000C4F8D422826920469047002800D10020FD
:1020F00070BD0020704710B50024012180F89C12AB
:10210000D0F8B82222B152680179904700B1032477
:10211000204610BD0A0601F07F01D0F8C80201EB8D
:10212000C10100EB810001D5807D704790F8560217
:10213000704710B5D0F8D42200EB8202D2F8B82252
:1021400022B190F89C32032B02D004E0032010BD92
:10215000126A02B19047002010BD10B5D0F8D42209
:1021600000EB8202D2F8B82222B190F89C32032B05
:1021700002D004E0032010BD526A02B19047002053
:1021800010BD10B51C461346D0F8C8022246FEF713
:10219000E7FCBDE81040FFF7F5BE10B5D0F8C80267
:1021A000FEF70FFDBDE81040FFF7ECBE2DE9F04152
:1021B00000260125044680F89C52C4F894626660AB
:1021C000C4F8A46280F8A062D0F8B80230B14268C6
:1021D00022B100212046904700B10326002240236F
:1021E00011462046FFF7CDFF4027A4F864513B4637
:1021F000002280212046C4F86071FFF7C2FFA58449
:1022000030462762BDE8F08190F89C12042903D182
:1022100090F89D1280F89C120020704710B590F83D
:102220009C12032905D1D0F8B81211B1C96901B1C6
:102230008847002010BD01740020704710B5D0F809
:10224000C802FFF701F8BDE81040FFF79BBE70B56C
:10225000044600F2AA20054600F048F80120C4F820
:102260009402B4F8B002C4F8980294F8AA0210F0EC
:102270001F010AD001290ED0022912D000F08001DE
:102280002046BDE8704000F012B829462046BDE85F
:10229000704000F0A7B829462046BDE8704000F025
:1022A000E7B929462046BDE8704000F031B910B5C5
:1022B000D0F8C802FEF7A1FCBDE81040FFF762BEEF
:1022C00090F89C12042903D090F89C1280F89D127B
:1022D000042180F89C120020704710B5D0F8C80285
:1022E000FEF7C4FCBDE81040FFF74CBE70B50546D4
:1022F00011F8010B2870087868704C1C2046FFF715
:102300003CFC6880A41C2046FFF737FCA880A01C7A
:10231000FFF733FCE88070BD02460020D2F8B832E7
:10232000002B02D01B681046184770472DE9F0417A
:1023300088462B4E8978002504463170012906D93C
:1023400041462046FFF77DFD0320BDE8F08194F86B
:102350009C02022702280CD003281DD041462046AB
:10236000FFF76FFD31782046FFF74DFD0325284626
:10237000EBE789B320466160FFF7CEFF050004D08C
:1023800041462046FFF75DFD1DE02046FFF77CFD3E
:10239000032084F89C02EAE7C1B1606888421BD040
:1023A000C1B22046FFF72FFD317820466160FFF76C
:1023B000B3FF050010D041462046FFF742FD2179CA
:1023C0002046FFF720FD84F89C72D0E784F89C72C9
:1023D00020466160FFF717FD2046FFF755FDC6E771
:1023E000140000202DE9F0410A78002512F0600267
:1023F0000CD0202A01D0402A7DD1D0F8D42200EB85
:102400008202D2F8B8229268904731E04B780022DD
:1024100001260A2B6FD2DFE803F041666E586E0882
:10242000056E2D29FFF73BFD67E004468888D8B983
:10243000C888C8B94888802816D200F07F0794F869
:102440009C02032810D084F89E7239462046FFF77C
:10245000F5FE2046FFF718FD1FB1022084F89C020C
:102460004BE084F89C6248E0204644E0FFF75EFFC2
:10247000054642E0CB88012B3DD190F89C32012BE0
:1024800004D0022B02D0032B35D104E0826001225C
:1024900000F1080116E00122011D13E090F89C22D2
:1024A000012A03D0022A01D0032A24D1CA88022A91
:1024B00021D1C660D0F8A41209B10321C160022263
:1024C00000F10C01FFF7D3FC17E04A88012A02D083
:1024D000022A03D00FE0C0F8A46216E08988090A36
:1024E00080F8A01211E090F89C32012B08D0022B4A
:1024F00006D0032B04D0FFF7A4FC2846BDE8F081EA
:1025000049880129F9D1C0F8A422FFF7BDFCF4E7FE
:102510002DE9F041054608780C790E464FF0000889
:1025200010F060000BD0202801D040286AD121464D
:102530002846FFF772FCFF2800D0D8B395E07078EA
:10254000C8B3012824D003285CD195F89C02022846
:1025500002D0032856D10CE0002C53D0802C51D04F
:1025600021462846FFF7A3FE80212846FFF79FFE5D
:102570007BE0708840B93CB1802C05D0C88818B980
:1025800021462846FFF793FE2846FFF77DFC6CE0C6
:1025900095F89C020228DFD0032863D1708880BBA5
:1025A000600603D021462846FFF7F8FC2846FFF7CF
:1025B0006BFCBCE700E00AE0C5F8D402D5F8B8022D
:1025C0008268F2B131462846904780464DE095F842
:1025D0009C020027022802D0032843D113E00CB14B
:1025E000802C3FD1200604F07F0000EB800005EB3B
:1025F000800101D5143101E001F5AA7102220F60BA
:102600002CE032E02EE0200604F00F0000EB80000A
:1026100005EB800009D5808C20B304F07F0000EB2F
:10262000800005EB800614360AE0B0F86401C8B1FA
:1026300004F07F0000EB800005EB800606F5AA762B
:102640004CB1802C07D021462846FFF763FD10B11E
:102650000120306000E03760022231462846FFF753
:1026600006FC02E02846FFF7ECFB4046BDE8F0819F
:1026700070B50546087800240E4610F0600003D0BF
:10268000202801D0402827D195F89C02012803D0AA
:10269000022801D003281FD1B088C1B201291AD85D
:1026A000C1B22846FFF7BBFBFF280CD058B9D5F8BC
:1026B000B8128A683AB1C5F8D4028A683146284609
:1026C0009047044600E00324F088204307D12846C1
:1026D000FFF7DAFB03E031462846FFF7B2FB20465E
:1026E00070BD000070B50A78012302F00F054E7826
:1026F000AB401B4CD0F81C58012E17D045EA0343C1
:10270000C0F81C3800EB4210D0F8002B12040BD498
:10271000D0F8002B0B890979C3F30A031A4344EA62
:1027200081410A43C0F8002B002070BD9BB21D43BD
:10273000C0F81C5800EB4210D0F800391B04F3D449
:10274000D0F800390D890979C5F30A0589042B43AE
:1027500041EA82510B432343C0F80039E4E700000B
:1027600000800010D0F800196FF30A01C0F80019BA
:10277000D0F8041841F48071C0F8041800207047A4
:1027800010B5036C134CA34203D9D0F8003B002BC7
:102790001EDB0023C0F8103BD0F8103B43F40023AD
:1027A000C0F8103BD0F8103B43F01803C0F8103BC2
:1027B000D0F8103B43F0C043C0F8103B012907D1CB
:1027C000C0F8142BD0F8001B41F08021C0F8001B8A
:1027D000002010BD0A30544F4A780B78012A00EBD4
:1027E00043100BD0D0F8002B22F40012C0F8002BBD
:1027F0000979032914D0022912D017E0D0F8002952
:1028000022F40012C0F800290979032901D0022915
:102810000CD1D0F8001941F08051C0F8001905E042
:10282000D0F8001B41F08051C0F8001B0020704719
:102830000A784B78D1B200EB4110012B12D0D0F8BE
:10284000001B002906DB2AB1D0F8001B21F08041D3
:10285000C0F8001BD0F8001B41F40011C0F8001BA9
:1028600000207047D0F80019002906DB2AB1D0F803
:10287000001921F08041C0F80019D0F8001941F486
:102880000011C0F80019EBE7F8B50C784F788B4DC4
:10289000E3B26FF0604600EB4313012F29D0D3F869
:1028A000107B6FF31207C3F8107BD3F8107B2F4017
:1028B000C3F8107B002C7DD00D69002D7BD08C6877
:1028C00025446D1EB5FBF4F5ADB26C430C62D3F834
:1028D000104B06EAC5452C43C3F8104BD3F8104BF8
:1028E0000D6AC5F312052C43C3F8104B012A70D0B2
:1028F000CBE00F69EFB1D3F810796FF31207C3F88B
:102900001079D3F810792F40C3F810790CB30F6900
:102910008D682F447F1EB7FBF5F5D3F81079ADB263
:1029200006EAC5463743C3F810790E79012E1CD04C
:102930002AE0D3F810692E40C3F81069D3F8105973
:1029400045F40025C3F81059D3F810596FF3120558
:1029500020E00E698D68AE4200D90D61D0F81059A3
:1029600045F40026C0F810690EE0D3F8106926F08F
:10297000C046C3F81069D3F810694FF0C04707EAA2
:1029800045752E43C3F81069D3F810590E69C6F384
:1029900012063543C3F81059012A1BD000EB44132B
:1029A000D3F8004944F00444C3F800490C79012CE1
:1029B00031D001E044E057E00A695AB3D0F8342836
:1029C000097801F00F03012199400A43C0F8342827
:1029D00071E056E0CA691AB100EB4413C3F8142938
:1029E000097901290ED1D0F80818C90500EB441166
:1029F000D1F8002902D442F0005201E042F08052A6
:102A0000C1F8002900EB4410D0F8001941F004414E
:102A1000C0F800194FE0D0F80848E405D3F80049A1
:102A200002D444F0005401E044F08054C3F800495B
:102A300000920A8A93B20A78C96800F08FF93AE0E6
:102A40000C690CB18C680C618C680C62D0F8105B5E
:102A5000C4F312042543C0F8105BD0F8104B44F4C3
:102A60000024C0F8104B41E7D3F8104B8D68C5F334
:102A700012052C43C3F8104BD3F8104B44F4002438
:102A800032E7CA680AB1C3F8142B097901290CD1BD
:102A9000D0F80808C005D3F8000B02D440F000506D
:102AA00001E040F08050C3F8000BD3F8000B40F079
:102AB0000440C3F8000B0020F8BD0000FFFF07E052
:102AC00038B50022009213464D780A7842F210740D
:102AD00000EB4212012D19D0D2F8005B002D3CDA38
:102AE000D2F8005B45F00065C2F8005B0A7800EBA5
:102AF0004212D2F8005B45F08045C2F8005B009AB4
:102B0000521C0092A24221D9012326E0D2F800599A
:102B1000002D22DAD2F8005945F00065C2F80059BC
:102B20000A7800EB4212D2F8005945F08045C2F80D
:102B30000059009A521C0092A242E5D80A7800EB94
:102B40004212D2F80029002AF3DB06E00A7800EBF3
:102B50004212D2F8002B002AD1DB184638BD18B536
:102B600000224FF070630092009C641C00949C4211
:102B70000CD80469002CF7DA0092202242EA811175
:102B800001610099491C0091994201D9032018BDA7
:102B900001698906F5D4002018BDD0F8080810F0A6
:102BA000060004D0022803D0062801D00F20704769
:102BB00002207047406900F001007047D0F81818F3
:102BC000D0F81C08084080B27047D0F81818D0F828
:102BD0001C080840000C704710B5D0F81038D0F829
:102BE000342801F00F0400EB4110E24002F0010232
:102BF000D0F8080943EAC212104010BD00EB4111A1
:102C0000D1F8081BD0F81408084070474169806962
:102C10000840704730B503460846940802F00301A7
:102C2000002203F5805303E01D6840F8045B521C4A
:102C3000A242F9D300290BD01C680022D50024FA47
:102C400005F3491E521C090400F8013B090CF5D19B
:102C500030BDD0F8002822F4FE62C0F80028D0F879
:102C600000284FF4FE6303EA01110A43C0F800286C
:102C700000207047022A3ED1264A274B0A449A4236
:102C800001D20F2138E0254A254B0A449A4201D24D
:102C90000E2131E0234A244B0A449A4201D20D21ED
:102CA0002AE0224A224B0A449A4201D20C2123E014
:102CB000204A214B0A449A4201D20B211CE01F4AB0
:102CC0001F4B0A449A4201D20A2115E01D4A1E4BAD
:102CD0000A449A420FD31D4A1D4B0A449A4201D21C
:102CE000082109E01B4A11441B4A914201D20721E5
:102CF00002E0062100E00921C26822F47052C2609D
:102D0000C2684FF4705303EA81210A43C260002075
:102D100070470000405327FF00350C00401E1BFF8A
:102D200040420F0000DC0BFF804F1200808CF9FE48
:102D300020D6130060B6E5FE60E3160000D3CEFE99
:102D400040771B00C05BB3FEC091210000CA91FE1A
:102D500020753800E05459FEE09C410010B5029CFB
:102D600074B9DB1C9C0800EB0230002300F5805096
:102D700004E000BF51F8042B02605B1CA342F9D3AE
:102D8000002010BDFEE70907090E002804DB00F152
:102D9000E02080F80014704700F00F0000F1E02000
:102DA00080F8141D704730380A2801D2012070477E
:102DB00000207047FEE74FF0FF30704700F02CB85E
:102DC000FDF7F2FDFEF7E0FEFEF7E4FDFEF7F8FD8D
:102DD0007D22074907A0FDF7C7FA4FF47A74204611
:102DE000FDF7CAFC8522024906A0FDF7BDFAF6E709
:102DF0003A2E01085B25735D2025643A20617070CE
:102E00000D0A00005B25735D2025643A2061707017
:102E10003132330D0A00000001B54FF0FF330122BB
:102E200069460248FEF764FD009808BD18000020BE
:102E30004FF04070E1EE100A70476D61696E00005E
:102E4000000000000000000102030406070809005A
:102E5000000000010203040400000800000000005C
:102E60000000020001000010882E01080000002070
:102E700018000000C4010108A02E0108180000205D
:102E8000080E0000E0010108000000000100000041
:102E900010000000000000000024F400000000000A
:040000050801018964
:00000001FF
