:020000040801F1
:10000000E8130120390201084B210108091D0108EC
:10001000492101085D080108B148010800000000FD
:100020000000000000000000000000006D2D01082D
:100030005F08010800000000C7220108792D0108AF
:100040005302010853020108530201085302010838
:100050005302010853020108530201085302010828
:100060005302010853020108530201085302010818
:100070005302010853020108530201085302010808
:1000800053020108530201085302010853020108F8
:1000900053020108530201085302010853020108E8
:1000A00053020108530201085302010853020108D8
:1000B00053020108530201085302010853020108C8
:1000C00053020108530201085302010853020108B8
:1000D00053020108530201085302010853020108A8
:1000E0005302010853020108530201085302010898
:1000F0005302010853020108530201085302010888
:100100005302010853020108530201085302010877
:100110005302010853020108530201085302010867
:100120005302010853020108530201085302010857
:100130005302010853020108530201085302010847
:100140005302010853020108530201084D2101081E
:100150005302010853020108530201085302010827
:100160005302010853020108530201085302010817
:100170005302010853020108530201080000000065
:10018000530201085302010800F002F800F044F89D
:100190000AA090E8000C82448344AAF10107DA45E2
:1001A00001D100F039F8AFF2090EBAE80F0013F0F0
:1001B000010F18BFFB1A43F001031847FC4700006A
:1001C0001C480000103A24BF78C878C1FAD85207FA
:1001D00024BF30C830C144BF04680C6070470000C1
:1001E0000023002400250026103A28BF78C1FBD840
:1001F000520728BF30C148BF0B607047642900F028
:10020000E980732900F09882002070471FB504F040
:1002100093FB1FBD10B510BD00F0EEFA1146FFF7BD
:10022000F5FF04F063FB00F00CFB03B4FFF7F2FFF3
:1002300003BC04F055FB000009488047094800470B
:10024000FEE7FEE7FEE7FEE7FEE7FEE7FEE7FEE786
:10025000FEE7FEE704480549054A064B70470000E3
:10026000112E010889010108E80D0120E813012081
:10027000E80F0120E80F0120704753EA020C00F05C
:1002800069802DE9F04B4FF00006002B1FBFB3FA39
:1002900083F503FA05F424FA05F65E4012BF16430F
:1002A000B2FA82F502FA05F4C5F120051EBF22FA62
:1002B00005FC44EA0C04203556EA044C4FEA144489
:1002C00018BF641C4FF000084FF00009904271EB1A
:1002D000030C39D3002919BFB1FA81F701FA07F6E7
:1002E000B0FA80F700FA07F6C7F120071EBF20FA20
:1002F00007FC46EA0C062037B6FBF4FCA7EB050723
:10030000103F07F01F0BCBF120060CFA0BFB2CFA69
:1003100006F644BFB3460026202FA4BF5E464FF02A
:10032000000B5BEA060C08BF4FF0010B19EB0B0941
:10033000ABFB027C48EB0608C01B06FB02CC0BFBA8
:1003400003CC71EB0C01C1E70B460246414648461F
:10035000BDE8F08B13B54FF000004FF00001AFF394
:100360000080BDE81C4070470FB4044910B503AAD3
:10037000029800F0E5F910BC5DF814FB00000020C5
:1003800070B50C460546012A05D02878800600D5B0
:10039000EA69002302E0012305E05B1C934202D2DC
:1003A000E05C0028F9D1A869E618C01AA861286A9B
:1003B000184428622846AFF3008004E0D5E9012103
:1003C00014F8010B9047B442F8D32846AFF30080ED
:1003D00070BD00002DE9F041064600241068752923
:1003E000314616A510D0AFF30080002802DA404253
:1003F00013A507E031688A0701D512A502E0490775
:1004000004D511A5012401E0AFF3008000210A22E8
:1004100006F1240709E0B0FBF2FCB0FBF2F302FBAB
:100420001C00303078541846491C0028F3D123466C
:100430002A463046BDE8F04100F013B90000000044
:100440002D0000002B000000200000002DE9F05FCF
:10045000894604464FF0000ADFF824B1FB44C0F897
:1004600020A02046E168884700287DD0252806D0B6
:10047000D4E901219047206A401C2062F1E7002561
:100480005F462046E16888472028064607DB312E74
:1004900005D2B81910F8200C08B10543F1E7A807F8
:1004A00001D525F00405C4F81CA00027C4F818A045
:1004B0002A2E09D0304604F00CFA38B304EB870832
:1004C000303EC8F8186019E059F8041B204604EBC8
:1004D00087029161E1688847012F064618D1E069DB
:1004E000002820DA25F020051DE0D8F8180000EBE0
:1004F000800006EB40003038C8F818002046E1685C
:100500008847064604F0E5F90028EED1012F0AD00D
:100510002E2E08D12046E16888477F1C0646022F10
:1005200045F02005C4DBA069002803DA404245F00D
:100530000105A061E80701D025F01005A6B1A6F1DC
:100540004100192802D8203645F400654A46314654
:10055000204625604D46FFF751FE60B1012807D0C7
:10056000ED1D25F0070000E007E000F1080978E73D
:1005700005F1040975E730467AE7206ABDE8F09F87
:1005800044450000032A40F2308010F0030C00F0D4
:10059000158011F8013BBCF1020F624498BF11F8BD
:1005A00001CB00F8013B38BF11F8013BA2F1040276
:1005B00098BF00F801CB38BF00F8013B11F00303EE
:1005C00000F0D080083AC0F0088051F8043B083AA7
:1005D00051F804CBA0E80810F5E7121D5CBF51F8F4
:1005E000043B40F8043BAFF30080D20724BF11F86E
:1005F000013B11F801CB48BF11F8012B24BF00F8D3
:10060000013B00F801CB48BF00F8012B70474FF0C9
:10061000000200B5134694469646203922BFA0E852
:100620000C50A0E80C50B1F12001BFF4F7AF09075E
:1006300028BFA0E80C5048BF0CC05DF804EB89004F
:1006400028BF40F8042B08BF704748BF20F8022B92
:1006500011F0804F18BF00F8012B704770477047AA
:1006600070472DE9F0470D4699469246044600F141
:1006700024080168880604D5E06921F01001216092
:1006800000E00120A84201DD471B00E00027A1692E
:100690007A1902EB0900081AA0612078C00602D47A
:1006A0002046AFF30080002608E0D4E901211AF8C3
:1006B00006009047206A401C761C20624E45F4DB01
:1006C0002078C0060AD52046AFF3008006E0D4E9C2
:1006D000012130209047206A401C2062381EA7F17B
:1006E0000107F4DC07E0D4E9012118F80500904780
:1006F000206A401C2062281EA5F10105F3DC20467B
:10070000AFF300802078000602D50220BDE8F08714
:100710000120FBE710B5436913B1AFF3008001E09E
:10072000FFF72EFE012010BD127800F124010A709F
:1007300000224A700122EDE711684FF0FF32E9E72D
:10074000074B70B50D467B4400F043F8044628463D
:1007500004F0C7F810B14FF0FF3070BD204670BDF7
:100760009F41000010B5203AC0F00B80B1E818504E
:10077000203AA0E81850B1E81850A0E81850BFF48B
:10078000F5AF5FEA027C24BFB1E81850A0E818502A
:1007900044BF18C918C0BDE810405FEA827C24BF7E
:1007A00051F8043B40F8043B08BF7047D20728BF0C
:1007B00031F8023B48BF11F8012B28BF20F8023B5B
:1007C00048BF00F8012B704701694A1C0261087894
:1007D000704700B58FB0CDE9013100210591054981
:1007E0007944CDE9031011466846FFF72FFE0FB09C
:1007F00000BD0000E5FFFFFF754600F02BF8AE4698
:1008000005006946534620F00700854618B020B51C
:10081000FFF720FDBDE820404FF000064FF0000735
:100820004FF000084FF0000B21F00701AC46ACE898
:10083000C009ACE8C009ACE8C009ACE8C0098D4605
:10084000704710B50446AFF300802046BDE8104065
:10085000FFF7EBBC00487047880D0120FEE77047AA
:1008600072B6FEE770B5044600F006F90546601C56
:1008700002D004480078044400F0FEF8401BA04277
:10088000FAD370BD740000202DE9F84FDFF8BCA149
:100890000022012503264FF00F090AF1040BAAF1EB
:1008A000040E00BF0B6805FA02F42340A34270D186
:1008B0000F7907F00307012F01D0022F16D18768A7
:1008C0004FEA420806FA08FC27EA0C07D1F80CC0E8
:1008D0000CFA08FC4CEA070CC0F808C04768A743AC
:1008E0000C79C4F3001494403C4344600C79E44315
:1008F000A4070AD0C4684FEA420C06FA0CF7BC43BE
:100900008F6807FA0CF72743C7600C7904F00304DB
:10091000022C12D1D40800EB840CDCF820405707DD
:10092000FF0E09FA07F824EA0804D1F8108008FA43
:1009300007F848EA0408CCF8208004684FEA420C23
:1009400006FA0CF7BC430F7907F0030707FA0CF718
:10095000274307604C6814F4403F70D03C4C276834
:1009600047F480472760246822F0030704F480449A
:100970000094384C07EB040CDCF8084897074FEA62
:10098000177809FA08F7BC43334FB84202D1002761
:1009900024E054E0314FB84201D101271EE0304F2E
:1009A000B84201D1022719E02E4FB84201D10327E6
:1009B00014E02D4FB84201D104270FE02B4FB8426D
:1009C00001D105270AE02A4FB84201D1062705E0E8
:1009D000284FB84201D1072700E0082707FA08F797
:1009E0002743CCF80878DAF800405746D1F804C01D
:1009F0009C435FEACC2C00D51C433C60DBF80040F4
:100A00005F46D1F804C09C435FEA8C2C00D51C43A0
:100A10003C60DEF800407746D1F804C09C435FEAB2
:100A20008C3C00D51C433C60084F083F3C68D1F823
:100A300004C09C435FEACC3C00D51C433C60521C84
:100A4000102AFFF42FAFBDE8F88F0000083C0140EA
:100A500044380240003001400000024000040240DF
:100A600000080240000C0240001002400014024046
:100A700000180240001C02400148806870470000D6
:100A80007400002002488168027811448160704738
:100A9000740000200B4810B5016841F4007101603A
:100AA000016841F480610160016841F48071016076
:100AB000032000F06FF80F2000F006F800F024F893
:100AC000002010BD003C024070B50D4D04464FF4AF
:100AD0007A712878B1FBF0F00A490968B1FBF0F0AF
:100AE00001F046F848B9102C07D200222146501ECA
:100AF00000F030F800206C6070BD012070BD000077
:100B000074000020800000200A4808B5016841F404
:100B100080410160006800F4804000900548001F9B
:100B2000016841F080510160006800F08050009041
:100B300008BD000044380240002809DB00F01F0215
:100B4000012191404009800000F1E020C0F800112F
:100B500070470000F0B40E4B1B680C46C3F3022331
:100B6000C3F10705042D00D90425191D072901D259
:100B7000002300E0DB1E012606FA05F1491E214094
:100B800099409E40761E16403143F0BC03F091BE62
:100B90000CED00E0064900F0070208684FF6FF037D
:100BA000184040EA0220034A1043086070470000E2
:100BB0000CED00E00000FA0570470068416200207B
:100BC0007047F0B50368586A39B19C6A4FF4827671
:100BD00000EB144400204D1E0AE040EA02409862F7
:100BE0000FE006EB8007DF59401C04EB1744C0B24E
:100BF000A842F6D344EA02404FF4807202EB81012E
:100C000058500020F0BDD0F8E00402F04ABC01EBDF
:100C1000C10200EB8202D0F8E004126A02F09FBB2E
:100C200001EBC10200EB8202D0F8E004D2F86022AE
:100C300002F0F0BBD0F8E00402F035BC0A0601F087
:100C40000F0101EBC10100EB810101D5143101E07D
:100C500001F51571006803F079BC70B504460B0608
:100C600001F00F0000EBC00104EB81014FF0010225
:100C70004FF0000502D54A75143103E081F8555252
:100C800001F51571087094F89404012808D084F8CF
:100C90009424206803F074F984F89454002070BD03
:100CA000022070BD70B5044601F00F002279904219
:100CB00001D9012070BD0B0601F00F0101EBC1014C
:100CC00004EB81014FF001024FF0000502D54A7597
:100CD000143103E081F8555201F515718D700870DB
:100CE00094F89404012808D084F89424206803F030
:100CF000B9FA84F89454002070BD022070BD10B57C
:100D0000044690F8940401280AD0012084F8940441
:100D1000080607D501F00F01206803F088FC04E005
:100D2000022010BD206803F066FC002084F89404C3
:100D300010BD01F00F0101EBC10100EB8100D0F803
:100D4000680270472DE9F04104460F0601F00F00DC
:100D500000EBC00104EB81014FF001064FF00005EC
:100D600002D54E75143103E081F8555201F5157125
:100D7000C2F30A0208708A600B714A7802B1488394
:100D8000022B00D14D7194F89404012809D084F805
:100D90009464206803F046F8284684F89454BDE82B
:100DA000F0810220FBE710B501F00F0404EBC40151
:100DB00000EB8101C1E998230023C1F8683281F872
:100DC000553281F85442837901F51571012B00D118
:100DD000CA618279006803F09DFA002010BD70B5E9
:100DE00004460D4601F00F002179884201D9012007
:100DF00070BD29064FF000064FF0010206D500EB4A
:100E0000C00104EB81014A75143107E005EBC5010F
:100E100004EB810181F8556201F515718A70087043
:100E200094F89404012807D084F89424206803F0EF
:100E300045FA280702D007E0022070BDA17904F22C
:100E40009C42206803F0E2F984F89464002070BDAD
:100E500010B501F00F0404EBC40100EB8101C1E9FE
:100E6000082300238B6201234B7501F8144F83790B
:100E7000012B00D1CA618279006803F04BFA00208F
:100E800010BD00002DE9FC5F05680446284603F00C
:100E9000F9FB00287DD1206803F020FC002878D0E1
:100EA000D5F80808C0F30D20C4F8D404206803F076
:100EB00015FC800704D52068416901F002014161F9
:100EC000206803F00BFCC10604F29C40009034D56E
:100ED0002068816921F0100181612F6A07F00F00FD
:100EE00000EBC00004EB8006C7F3434006F515761F
:100EF000022802D0062811D01AE047F6F070074207
:100F000016D0C7F30A1217462846F16803F0EAFB29
:100F1000F0683844F0607069384408E008222846D8
:100F2000009903F0DFFB7069C7F30A110844706190
:100F30002068816941F010018161206803F0CEFBD7
:100F400000034FF0080B4FF0000A4FF001097CD569
:100F50000026206803F0A1FB074674E0F80770D074
:100F6000F1B2206803F0B2FB8046C00707D005EB62
:100F70004611C1F8089B3146204601F0EDF85FEAC2
:100F8000087024D505EB4611C1F808BB2068016C38
:100F900000E023E200EB46100191D0F8082BFB4B58
:100FA000994205D9110403D54FF40041C0F8081B3C
:100FB000204600F0F6FAF5490198884207D9A07951
:100FC000012804D120680121009A03F01FF95FEA8B
:100FD000C86004D505EB46111020C1F8080B5FEA84
:100FE00088701DD56869000605D5D5F8040840F459
:100FF0008061C5F8041806EBC60004EB800090F889
:10100000571200F51570012905D180F803A0F1B23F
:10101000204600F0E9F905EB46110220C1F8080B63
:101020005FEA886004D505EB46102021C0F8081B54
:101030005FEA884005D505EB46104FF40051C0F833
:10104000081B7F08761C002F88D1206803F046FB20
:1010500040036ED5206803F019FB0746002666E0C2
:10106000F80762D0F1B2206803F01EFB8046C0078B
:1010700023D006F00F01D5F8342809FA01F18A438C
:10108000C5F8342805EB4611C1F80899A079012864
:101090000FD106EBC60004EB8000D0E90721114414
:1010A000016236B9606A20B920680121009A03F014
:1010B000ADF8F1B22046FFF7AAFD5FEA087003D54C
:1010C00005EB4611C1F808B95FEAC86004D505EB25
:1010D00046111020C1F808095FEA486004D505EB05
:1010E00046104021C0F808195FEA887016D53146CD
:1010F000284603F09CFA06EBC60004EB8000C17D95
:101100001430012905D180F803A0F1B2204600F087
:1011100067F905EB46110220C1F808095FEA08608B
:1011200003D53146204601F07DF87F08761C002F5C
:1011300096D1206803F0D2FA002811DAD5F8040815
:1011400020F00101C5F8041894F8CC0401282BD034
:10115000204600F00BFA2068416901F0004141612E
:10116000206803F0BBFA00050BD5D5F80808C007C6
:1011700002D0204600F03EFA2068416901F4006187
:101180004161206803F0AAFAC00467D5D5F80408C5
:1011900020F00100C5F804081021206803F047FA88
:1011A00000214FF67F3220E084F8CCA400212046B5
:1011B000FFF702FDCFE700BF05EB4110C0F808299B
:1011C000D0F8003923F40013C0F80039C0F8082B18
:1011D000D0F8003B23F40013C0F8003BD0F8003BEC
:1011E00043F00063C0F8003B491C20798842E3D8F3
:1011F000D5F81C0840F00111C5F81C18E07B002848
:1012000028460DD0D0F8840840F00B01C5F88418AA
:10121000D5F8440840F00B012846C5F844180DE005
:10122000D0F8140842F22B010843C5F81408D5F889
:10123000100840F00B012846C5F81018D0F8000837
:1012400020F4FE61C5F80018A1792068009A02F028
:10125000DDFF2068416901F480514161206803F09D
:101260003DFA800415D5206802F01CFE206803F0CA
:10127000FCF9E07100F070FA0146E279206803F0B1
:101280008FFA204600F05CF92068416901F40051B2
:101290004161206803F022FA000707D5204600F0DC
:1012A00069F92068416901F008014161206803F093
:1012B00015FA000616D5A86920F08001A96101265B
:1012C0000DE000BF06EBC60004EB800090F857026B
:1012D000012803D1F1B22046FFF7B0FC761C20793B
:1012E000B042EFD8206803F0F9F9C0021FD50126FB
:1012F0004F4614E005EB4610D0F8001906EBC60087
:1013000004EB8002107E012808D1002906DAF0B231
:1013100040F08001D7752046FFF790FC761C2079BD
:10132000B042E7D82068416901F48011416120682A
:1013300003F0D4F9800234D501204A4629E000BFE9
:1013400005EB4011D1F8001B00EBC00304EB830355
:1013500093F85862012E1BD1002919DA94F8D4644D
:1013600001F4803106F00106B14211D183F8572211
:10137000A96941F08003AB616969090608D4D5F811
:10138000040840F40070C5F8040805E00A30544F22
:10139000401C21798142D3D82068416901F40011B1
:1013A0004161206803F09AF9400007D52046FFF715
:1013B0002AFC2068416901F080414161206803F006
:1013C0008DF940070AD520684568680702D5204690
:1013D000FFF730FC2068416829434160BDE8FC9F6D
:1013E000D0F8E00402F0BBB8D0F8E00402F0CBB8CB
:1013F000F8B5040005D094F895042668002510B1CE
:1014000006E00120F8BD84F89454204600F056F818
:10141000032084F89504B6F1A04F00D1A57120688F
:1014200002F0EEFE207C8DF8000094E80F0002F040
:1014300047FD0226B8BB0021206803F072F990BB7B
:10144000002001270DE000BF00EBC00104EB81018B
:101450004F750875C8850D76CD610D62401CC0B210
:101460004D6221798142EFD8002011E000EBC001EC
:1014700004EB810181F8555281F8540281F85852E9
:10148000C1F85C52C1F86052401CC0B2C1F864524D
:1014900021798142EAD8207C8DF8000094E80F0081
:1014A00002F0F0FD10B184F89564AAE7657484F841
:1014B0009574206802F0D8FD0020F8BD10B586B004
:1014C000044614216846FFF7A2F82068B0F1A04F47
:1014D0002FD119480021026842F001020260006821
:1014E00000F0010005904FF4C05000900220CDE9BB
:1014F0000101032003900A20049069460F48FFF77A
:10150000C3F90D48001D016841F0800101600A48DF
:101510001430016841F4804101600068002200F449
:101520008040059011464320FFF714FB4320FFF74E
:1015300003FB06B010BD000030380240000002403E
:1015400070B50446C079012570B1022801D0FFF7BB
:1015500087F92946D4F8E00402F083F8D4F8E004CF
:10156000BDE8704002F038B80025F2E7D0F8E0049A
:1015700002F060B8D0F8E00402F066B810B5044696
:1015800090F8940401280AD0012084F8940461742E
:10159000206803F0F4F8002084F8940410BD0220C1
:1015A00010BDD0F8E02400F29C41104602F065B86E
:1015B00010B50446006894F89414012909D001215B
:1015C00084F89414C168490609D5617B012902D0C9
:1015D00005E0022010BD816B41F4803181632068F9
:1015E00003F003F8206802F031FD002084F8940431
:1015F00010BD000010B50446D0F8E00402F07FF8FA
:101600002068D0F8001E41F00101C0F8001EE07A09
:10161000002804D00248016841F00601016010BDB5
:1016200010ED00E02DE9F0470E46050065D0DFF82B
:101630001481D8F80000F7B200F00700B04207D2DA
:1016400088F80070D8F8000000F00700B04254D1CC
:1016500028683D4C810712D5400703D5206840F427
:10166000E05020602878000703D5206840F46040EF
:1016700020602068A96820F0F000084320602878E6
:10168000C0072DD0304968680839012812D00228D7
:1016900013D0032811D00968890700292DDA2168A1
:1016A00021F0030101432160FFF7E6F9814641F291
:1016B000883A0EE009688903EFE709688901ECE7D9
:1016C000FFF7DAF9A0EB0901514502D90320BDE883
:1016D000F0872068696800F00C00B0EB810FEFD153
:1016E000D8F80010404601F00701B14207D9077051
:1016F000006800F00700B04201D00120E7E7287839
:10170000400705D52068E96820F4E05008432060D0
:101710002878000706D52068296920F4604040EA4F
:10172000C100206000F03EF82168084AC1F30311AF
:10173000515CC8400649086006480068FFF7C4F9D4
:101740000020C4E7003C0240083802408C490108F0
:1017500080000020780000200148006870470000E9
:10176000800000200448054900680968044AC1F364
:101770008221515CC8407047800000200838024038
:101780009C4901080448054900680968044AC1F3F6
:101790004231515CC8407047800000200838024048
:1017A0009C490108154810B5006810F00C02144857
:1017B00013D04110042A0FD0082A0ED10F4C241F39
:1017C0002268236802F03F025B0207D52068C0F35D
:1017D0008810A0FB010106E0084610BD2168C1F396
:1017E0008811A1FB00010023FEF747FD2168C1F32A
:1017F0000141491C4900B0FBF1F010BD083802401E
:101800000024F4002DE9F84F04006ED02078DFF8B2
:101810004C93C007A9F104054AD009F104000168FE
:10182000C1F38101012908D00068C0F381000228BA
:101830000AD1D9F80000400206D52868800337D5C0
:1018400060680028E1D033E06068B0F5803F10D0D8
:10185000B0F5A02F286810D020F4803028602868C8
:1018600020F4802028606068A8B1FFF705F90646DB
:101870000DE0286840F48030F4E740F480202860D0
:10188000F7E700BFFFF7F8F8801B642873D82868D3
:101890008003F7D50CE0FFF7EFF8064605E000BF40
:1018A000FFF7EAF8801B6428F0D828688003F7D493
:1018B0002078DFF8AC8280074FF0000A3ED5A748B9
:1018C000001D016811F00C0F08D00068C0F3810002
:1018D00002280BD1D9F80000400207D428688007FD
:1018E00016D5E068012800D112E033E1E068B8B114
:1018F0000120C8F80000FFF7BFF8064605E000BF6A
:10190000FFF7BAF8801B0228C0D828688007F7D5EF
:101910002868216920F0F80040EAC10028600DE045
:10192000C8F800A0FFF7A8F8064604E0FFF7A4F8FF
:10193000801B02281FD828688007F7D4207800076A
:1019400022D5864F87486169703771B101210160E6
:10195000FFF792F8064604E0FFF78EF8801B022896
:1019600009D838688007F7D50EE0C0F800A0FFF767
:1019700083F8064605E082E0FFF77EF8801B022828
:101980007DD838688007F7D42078400768D5DFF81D
:10199000CCB100270BF13C0BDBF80000C0000BD4EE
:1019A000DBF8001041F08051CBF80010DBF80000AC
:1019B000012700F0805000906B4E3068C00510D4B5
:1019C000306840F480703060FFF756F8009005E012
:1019D000FFF752F80099401A022850D83068C00525
:1019E000F6D55E4EA0686C3601280FD00528306809
:1019F00010D020F001003060306820F0040030602A
:101A0000A068B8B1FFF738F800900FE0306840F0F8
:101A10000100F4E740F004003060F7E7FFF72CF82E
:101A20000099411A41F28830814266D830688007B7
:101A3000F4D50EE0FFF720F8009007E0FFF71CF860
:101A40000099411A41F28830814256D830688007A7
:101A5000F4D42FB1DBF8001021F08051CBF8001046
:101A6000A069C8B33D49091D0968C1F38101022974
:101A70004AD00228504607D0C8F8600000E03CE099
:101A8000FEF7FAFF04463BE04746C8F86000FEF761
:101A9000F3FF064605E000BFFEF7EEFF801B0228BD
:101AA0002BD828688001F7D4D4E907010843A16A3C
:101AB0002E4A490802EB0141626A41EA8211084359
:101AC00094F82C1040EA0161C9F800100120386632
:101AD000FEF7D2FF044606E03EE000BFFEF7CCFF73
:101AE000001B022809D828688001F7D534E000BF20
:101AF000FEF7C2FF001B022802D90320BDE8F88FC1
:101B000028688001F4D427E00128F7D0D9F8000034
:101B1000E26900F4800191421CD1226A00F03F0189
:101B2000914217D147F6C071626A0140B1EB821F42
:101B300010D1A26A4FF0FF3300F4403103EB5202A0
:101B4000B1EB024F06D194F82C1000F07060B0EBAE
:101B5000016F01D00120D1E70020CFE70438024017
:101B600000004742800E4742007000400000FFFF27
:101B700010B5401EB0F1807F01D3012010BD4FF0A1
:101B8000E02460610F21601702F093FE0020A06145
:101B900007202061002010BD70B5040004D094F827
:101BA0004100002510B106E0012070BD84F84050CE
:101BB000204600F023F8242084F841002068C16802
:101BC00021F40051C160204601F052F920680169FA
:101BD00021F4904101612068416921F02A014161AD
:101BE0002068C16841F40051C1606564202084F818
:101BF000410084F842006563002070BD10B586B0D6
:101C0000044614216846FEF702FD14492068884204
:101C100021D113480021026842F0100202600068DE
:101C200000F0100005900E481438026842F00102DE
:101C30000260006800F0010005904FF4C060009061
:101C40000220CDE90101032003900720049069469A
:101C50000448FEF719FE06B010BD00000010014058
:101C600044380240000002402DE9F843044690F851
:101C70004100984616460D46202802D00220BDE8B5
:101C8000F88385B17EB100206064212084F8410092
:101C9000FEF7F2FEA6848146E684A0682027B0F510
:101CA000805F02D003E00120E9E7206910B12E46F1
:101CB00000250EE000260CE08021204601F05EF9B0
:101CC000A8B9C6B116F8010B21684860E08C401E27
:101CD000E084E08C4B464FF00002CDF800800028F5
:101CE000EAD14FF04001204601F048F940B184F8B4
:101CF00041700320C3E735F8020BC0F30800E3E7A7
:101D000084F841700020BAE7FEE70000F0B5002338
:101D10000A24302537261F4611E000BFB4EB107FA0
:101D200002D905EB107C01E006EB107C01F813C032
:101D300001EB430C00015B1C8CF80170DBB2934299
:101D4000ECD3F0BD2DE9F0410546D0F8D40205EB07
:101D50008000D0F8C042002C1ED094F81C020F4E18
:101D600040B9D4F8180228B1607A18B931782846F9
:101D700001F0B3FC0A4F2846397801F0AEFC607AD6
:101D8000022809D13978284601F0A7FC3178284685
:101D9000BDE8F04101F0A1BCBDE8F081C100002028
:101DA000C000002070B50546D0F8D40205EB8000D5
:101DB000D0F8C042002C65D0D4F81402C4F8340224
:101DC000D4F81802C4F838022F480178284601F0E8
:101DD00082FB1F280DD12D49D4F81002884208D16A
:101DE00094F81D12012904D894F81E0208B1102895
:101DF00009D994F81D1220230522284600F007FE79
:101E00000220607209E004F21F22284600F0B2FAB4
:101E10000028207A08DA052804D02846BDE870405A
:101E2000FFF790BF012128E002282BD0012829D0FC
:101E3000032827D0E668FEB1D5F8D412284605EB72
:101E4000810104F11002D1F8C01200291AD0D1F892
:101E50001832B34200D33346D1F83842A41BC1F83C
:101E60003842002481F83C4204240C720849097865
:101E7000BDE8704001F050BC00212846BDE870402C
:101E800000F0DCB870BD0000C10000205553424393
:101E9000C000002010B50446D0F8D40204EB800046
:101EA000D0F8C002002818D0407A022809D00906CC
:101EB00013D5012811D02046BDE81040012100F0C3
:101EC000BDB806480178204601F007FC04480178B7
:101ED0002046BDE8104001F000BC10BDC00000204D
:101EE000C100002010B50446D0F8D40204EB8000F5
:101EF000D0F8C022002A17D0107A022805D0032873
:101F000001D0042810D1002109E092F81D122046CA
:101F100002F21F2200F02EFA002805DA01212046E5
:101F2000BDE8104000F08AB810BD10B50446D0F8E6
:101F3000D40204EB8000D0F8C022002A17D0107A17
:101F400080B1012813D192F81D12204602F21F22FF
:101F500000F010FA00280ADA2046BDE810400121FE
:101F600000F06CB82046BDE81040FFF71BBF10BD65
:101F7000D0F8D41200EB8100D0F8C002002801D0C4
:101F8000002101727047000070B50546D0F8D402F8
:101F900005EB8000D0F8C042002C24D00020207235
:101FA000607284F8610284F8600284F86202D5F8F5
:101FB000D40205EB8000D0F8C402016800208847F5
:101FC000094E2846317801F07DFA08480178284604
:101FD00001F078FA04F5047231782846BDE87040C3
:101FE0001F2301F0F0BA70BDC1000020C000002026
:101FF00070B50546D0F8D40205EB8000D0F8C04299
:10200000002C16D00020207201206072094801784F
:10201000284601F092F9084E2846317801F08DF9F2
:1020200004F5047231782846BDE870401F2301F0A2
:10203000CABA70BDC0000020C100002070B50546BE
:10204000D0F8D40205EB8000D0F8C042002C18D0A4
:102050000C48C4F8300284F83C12002020720A4870
:102060000D2304F50C720178284601F055FB074852
:1020700004F504721F2301782846BDE8704001F082
:10208000A2BA70BD55534253C0000020C1000020C9
:10209000094808B5016841F080010160016801F05C
:1020A00080010091016841F001010160006800F0C9
:1020B0000100009008BD0000303802400C4810B507
:1020C0000A4901604FF4E1314160002181600C2236
:1020D000C160C0E904128161C161FFF75DFD0028A4
:1020E00003D0BDE81040FEF7BBBB10BD001001409F
:1020F0000801002010B500220F49104801F00AF92C
:1021000008B1FEF7ADFB0E490C4801F082FC08B1A6
:10211000FEF7A6FB0B49094801F0ECFB08B1FEF7FE
:102120009FFB064801F0F8FC002803D0BDE81040F2
:10213000FEF796BB10BD00000400002050010020F7
:102140008800002054000020FEE7FEE70148FEF76B
:1021500099BE0000A40801202DE9F04103680D4656
:1021600004461E6C03EB4511D1F8080B94F806E009
:102170004FF400474FF0200C04F29C42BEF1010FD7
:1021800009D0DFF898E0764539D1020432D500BF96
:10219000C1F8087B3FE0224B5FEA007E04D59E42F7
:1021A00039D90004F4D436E05FEA806E02D5C1F874
:1021B00008CB30E010F0280F2DD19E4201D9000449
:1021C000E6D405EBC50004EB8000D1F8101BD0F875
:1021D0007432C1F31201591AC0F8681200F5157073
:1021E000ADB903691BB1C2681144C1600FE00121A0
:1021F00020680AE080060AD5C1F808CB07E035B9A7
:10220000D4F8640218B90021184601F0FFFFE9B2C2
:102210002046FEF705FD0020BDE8F0810A31544F4D
:102220000A30544F2DE9F84F0E4601EBC60100EB82
:10223000810481460568D4E909101434884202D922
:102240000120BDE8F88F081AA168814200D2084633
:10225000C01C870805EB46181BE000BFA0EB010A75
:10226000A068504500D282460AF10300870899F819
:10227000060000901FFA8AF3F2B22846E16802F0E5
:1022800003FBE16801EB0A00E060616901EB0A0011
:102290006061D8F8180980B2B84205D3D4E90401C6
:1022A000814201D20028D9D1D4E90401884208D85A
:1022B00006F00F0101208840D5F834188143C5F895
:1022C00034180020BDE7704730B5D0F8D4424FF045
:1022D000FF3500EB8404D4F8C04244B11A44D4F86A
:1022E00068329A4205D92123052200F090FB284646
:1022F00030BD002030BD000070B50446D0F8D402D7
:10230000134604EB80024FF0FF35D2F8C00280B1D3
:10231000D0F818627EB15E78F60716D0997871B160
:1023200080290FD090F81D1224230522204600F0AA
:102330006EFB284670BD90F81D122023F5E706229B
:102340000A490FE008220A490CE0D2F8C42201EB46
:10235000C1011B79D26902EB81010A79521D9342B6
:1023600000D81A4600F0A9FB002070BDEE00002046
:10237000F40000202DE9F0411746D0F8D4224FF0A8
:10238000FF3600EB8202D2F8C05265B33B780024DE
:102390004FF00208252B6FD00FDC1A2B57D005DC2D
:1023A00013B3032B25D0122B17D127E01B2B2AD0D8
:1023B0001E2B43D0232B10D17AE05A2B5DD006DCA4
:1023C000282B70D02A2B6FD02F2B06D193E09E2B79
:1023D00078D0A82B6AD0AA2B69D02023052200F040
:1023E00016FB85F8098023E03A46BDE8F04100F08D
:1023F00034BB3A46BDE8F04100F0C5BA3A46BDE804
:10240000F041FFF779BF95F86222012A04D13A79A9
:1024100002F00302022A71D0397901F00300012889
:1024200012D0022807D0C84380070DD0EC6021E00D
:102430003046BDE8F08185F86282F7E7387918B157
:10244000012085F86202F1E785F86242EEE708466E
:10245000D2F8C4120426C968884720B12E48817872
:1024600041F0800181703879042800D80646324650
:10247000294914E02046DCE71FE00846D2F8C412E0
:102480000826C968884720B12448C17841F08001F6
:10249000C170387A082800D80646204932462846B6
:1024A00000F00BFBE6E712E01BE00BE014E01DE0A0
:1024B0003A46BDE8F04100F023BA3A46BDE8F041A3
:1024C00000F08FB93A46BDE8F04100F0C5B93A4690
:1024D000BDE8F04100F0D2B83A46BDE8F04100F066
:1024E00024B93A46BDE8F04100F0F8BA3A46BDE8F2
:1024F000F04100F065BB7A78920704D524230522C9
:1025000000F085FA94E7D5E99B23FFF7DDFE00286C
:102510008EDB2046EC608CE7FC00002000010020F0
:102520002DE9F0470646D0F8D402884606EB800035
:102530004FF0FF37D0F8C042FCB1B4F86412D4F8C1
:1025400070524FF400724D43954200D31546B5FBCF
:10255000F1F1D0F8C4028BB204F11001D0F810C030
:10256000D4F86C2289464046E047002808DA112357
:1025700004224146304600F04AFA3846BDE8F0876A
:1025800010482B464A460178304601F0C5F8B4F8A9
:102590006402D4F86C22B5FBF0F1B5FBF0F0114405
:1025A000C4F86C12D4F87012081AC4F87002D4F887
:1025B0003812A1EB0501C4F8381201D103202072B2
:1025C0000020DBE7C00000202DE9F0470746D0F8E7
:1025D000D402894607EB80004FF0FF38D0F8C042A4
:1025E000FCB1B4F86412D4F870624FF400754E4335
:1025F000AE4200D32E46B6FBF1F1D0F8C4028BB246
:1026000004F11001D0F814C0D4F86C228A46484670
:10261000E047002808DA032304224946384600F040
:10262000F6F94046BDE8F087B4F86402D4F86C22AD
:10263000B6FBF0F11144C4F86C12B6FBF0F1D4F81B
:102640007022531AC4F87032D4F83812A1EB060184
:10265000C4F838120BD04343AB4200D32B46064894
:1026600052460178384600F0AEFF0020DAE700213C
:102670003846FFF7E3FCF8E7C10000202DE9F04100
:102680000646D0F8D402154606EB80008846D0F8FE
:10269000C0424FF0FF375CB3217AD1BB94F81C12D3
:1026A000090631D594F86212022905D0D0F8C40287
:1026B00081684046884730B13A230222414630467D
:1026C00000F0A5F914E06888297940BA000440EACE
:1026D0000122687941460243C4F86C22B5F807002C
:1026E00043BA3046C4F87032FFF7EEFD002802DA34
:1026F0003846BDE8F081B4F86412D4F8700248435B
:10270000D4F81812884205D0202394F81D1205220F
:10271000D5E701E0022020724FF40070E0604146EE
:102720003046BDE8F041FFF7FBBE2DE9F04106461B
:10273000D0F8D402154606EB80008846D0F8C04297
:102740004FF0FF3784B3217A89BB94F81C12090635
:1027500037D594F86212022905D0D0F8C4028168F6
:102760004046884730B13A2302224146304600F0C5
:102770004EF919E06888297940BA000440EA01223C
:1027800068790243C4F86C22E888297A40BA0004C8
:1027900040EA0123687A414603433046C4F8703268
:1027A000FFF792FD002803DA3846BDE8F0810FE01C
:1027B000B4F86412D4F870024843D4F8181288426E
:1027C00004D0202394F81D120522CFE702202072A6
:1027D0004FF40070E06041463046BDE8F041FFF73D
:1027E0009FBE2DE9F0410546D0F8D4020F4605EB17
:1027F00080004FF0FF36D0F8C0424CB1D0F8C40290
:1028000004F51972111D436838469847E8B902E08B
:102810003046BDE8F08194F86202022815D0D4F861
:102820006802401E010E2174010C6174010AA1743A
:10283000E074002020756075B4F86402010AA17587
:10284000E0750820E0600020E3E73A2302223946E1
:10285000284600F0DCF8DBE72DE9F0410646D0F829
:10286000D402154606EB80008846D0F8C0424FF0EF
:10287000FF374CB1D0F8C40204F51972111D43683A
:102880004046984798B902E03846BDE8F08194F890
:10289000620202280BD06889297B40BA000440EA12
:1028A0000120697B0843E0600020014609E03A23EB
:1028B00002224146304600F0AAF8E5E72218401C03
:1028C0001174E2688242F9D8D4F86802401E020E00
:1028D0002275020C6275020AA275E0752176617696
:1028E000B4F86402010AA176E0766889297B40BACF
:1028F000000440EA0120697B0843E0600020C4E74F
:102900002DE9FC410546D0F8D4020F4605EB8000C6
:102910004FF0FF36D0F8C04244B1D0F8C4026A4646
:1029200001A943683846984730BB02E03046BDE80D
:10293000FC8194F8620202281ED000200146221871
:10294000401C80B211740C28F9D30820E07401985F
:10295000401E020E2275020C6275020AA275E07515
:10296000022020766176BDF80000010AA176E076AB
:102970000C20E0600020DAE73A230222394628469C
:1029800000F045F8D2E730B5D0F8D4124FF0FF345C
:1029900000EB8101D1F8C01231B3D1F818322BB35A
:1029A000002004460B18401CC0B21C741228F9D336
:1029B000702008740C20C87591F8600291F861329B
:1029C00098421CD001EBC003401C93F840528D7418
:1029D00093F844520D7793F84532C0B24B7781F8A3
:1029E0006002042809D00AE0204630BD91F81D128B
:1029F0002023052200F00BF8F6E781F86042122050
:102A0000C8601079122800D8C860002030BDD0F806
:102A1000D41200EB8100D0F8C00200281CD090F83E
:102A2000611200EBC10181F8402290F8611200EBC5
:102A3000C10181F8443290F86122002100EBC2020A
:102A400082F8451290F86122521CD2B280F86122BD
:102A5000042A01D180F8611270472DE9F041054642
:102A6000D0F8D402884605EB80004FF0FF37D0F84D
:102A7000C042E4B1D4F8181239B194F81D122023E1
:102A800005222846FFF7C3FF11E094F862120526DD
:102A9000022905D0D0F8C40281684046884748B171
:102AA0003A23022241462846FFF7B1FF26723846F4
:102AB000BDE8F0810020E060FAE710B508B1C2601F
:102AC00007E04FF0FF3010BD521E92B284188B5CAD
:102AD0002374002AF8D1002010BD00002DE9F04138
:102AE0000546D0F8D402164605EB80008846D0F89B
:102AF000C0424FF0FF37ECB3217A29B14146284656
:102B0000BDE8F041FFF760BDD4F8181299B394F80E
:102B10001C1209063DD4D0F8C4028168404688479B
:102B200028B13A230EE02846FFF771FF25E0D5F8DB
:102B3000D40205EB8000D0F8C402C1684046884743
:102B400018B1272302224146EDE77088317940BA57
:102B5000000440EA0122707941460243C4F86C2225
:102B6000B6F8070043BA2846C4F87032FFF7ACFB4A
:102B7000002801E001E00CE002DA3846BDE8F0810F
:102B8000B4F86402D4F870324343D4F8180298427F
:102B900004D0202394F81D120522C4E74FF40070DE
:102BA000834200D3034601202072044804F110023E
:102BB0000178284600F007FD0020DFE7C100002073
:102BC0002DE9F0470646D0F8D402154606EB800002
:102BD0008946D0F8C0424FF0FF3884B3217A29B13A
:102BE00049463046BDE8F047FFF7EEBCD4F818126E
:102BF00019B194F81C12090607D594F81D12202368
:102C000005223046FFF703FF34E0D0F8C4028168A4
:102C100048468847052708B13A230AE0D6F8D40287
:102C200006EB8000D0F8C402C1684846884738B136
:102C30002723022249463046FFF7E9FE277219E0B2
:102C40006888297940BA000440EA01226879024381
:102C5000C4F86C22E888297A40BA000440EA0123CB
:102C6000687A494603433046C4F87032FFF72CFBBC
:102C7000002802DA4046BDE8F087B4F86402D4F8D0
:102C800070324343D4F818029842B6D14FF4007022
:102C9000834200D3034601202072044804F110024D
:102CA0000178304600F08FFC0020E4E7C1000020EE
:102CB000802008608000108000207047002070474E
:102CC000002070470020704700207047F8B55C0274
:102CD00055020E462B46FA22064907A00094FDF73E
:102CE00043FB0D48224641193046FDF74BFC0020BE
:102CF000F8BD00006B4901085B25735D2025643A2F
:102D00002061646472203D202564206C656E203D46
:102D1000202564200D0A00002C060020F8B55C0276
:102D200055020E462B464FF48972064906A00094C0
:102D3000FDF71AFB0C48224628443146FDF722FCD9
:102D40000020F8BD7B4901085B25735D2025643AAE
:102D50002061646472203D202564206C656E203DF6
:102D6000202564200D0A00002C0600207047017801
:102D7000407841EA00207047FDF784BE30B593B03B
:102D800030216846FDF743FC14210CA8FDF73FFCF9
:102D90001D480025016841F080510160006800F085
:102DA000805011901948016841F480410160006829
:102DB000022400F480401190012000900004019052
:102DC0008001CDE9064004200890A820CDE909043F
:102DD00007200B906846FEF715FD08B172B6FEE7B6
:102DE0000CA90F2081E831004FF4A0500F904FF450
:102DF0008050109005210CA8FEF714FC002801D08B
:102E000072B6FEE713B030BD40380240007000409B
:102E10000248016841F470010160704788ED00E0EC
:102E200001680C3151E8002F22F4907241E8002330
:102E3000002BF5D10168143151E8002F22F0010276
:102E400041E80023002BF5D1016B012909D101686C
:102E50000C3151E8002F22F0100241E80023002B32
:102E6000F5D1202180F84210002101637047000055
:102E700070B5044600680169E26821F440511143CD
:102E800001612169A068E26908436169114308434F
:102E90002168CA6849F20C639A430243CA602068F9
:102EA0004169A26921F440711143416131492068AF
:102EB000884202D03049884202D1FEF763FC01E02B
:102EC000FEF750FCE2690023192164253226B2F591
:102ED000004F626828D0A0FB0101930F9200FDF71C
:102EE000CCF90146B0FBF5F06FF01802504301EB4E
:102EF000800006EB0010B0FBF5F000F0F002B1FB33
:102F0000F5F002EB0012B1FBF5F06FF01803584337
:102F100001EB800006EB0010B0FBF5F000F00F00B5
:102F200021681044886070BDA0FB010192185B41CC
:102F3000FDF7A3F90146B0FBF5F00201B1FBF5F096
:102F40006FF01803584301EB800006EBC000B0FBA4
:102F5000F5F000F0F80002EB4002B1FBF5F0584349
:102F600001EB800006EBC000B0FBF5F000F00700BD
:102F7000D6E7000000100140001401402DE9F8439D
:102F8000984617460D460446089E24E0701C22D041
:102F9000FDF772FDA0EB0800B0421AD8CEB1206850
:102FA000C168490717D5802D15D0402D13D0016871
:102FB000C94309070FD401680025406800902046E6
:102FC000FFF72EFF0820606484F840500120BDE820
:102FD000F8830320FBE72068006835EA000004D08E
:102FE0000020B842D2D00020F1E70120F9E710B567
:102FF000D0F8B82200245268904700B1032420463C
:1030000010BD0020704700207047134610B50A46D7
:10301000002100F0D8FA002010BD134610B50A4672
:10302000002100F079FB002010BD10B5044680217E
:1030300000F053FB2046BDE81040002100F04DBBDE
:1030400010B50521C0F8941200231A46194600F065
:10305000BAFA002010BD10B50223C0F89432826184
:103060001346C2610A46002100F056FB002010BD45
:1030700010B50421C0F8941200231A46194600F036
:103080004BFB002010BD000010B50A46024903A00A
:1030900000F00DF9004810BD2C0400204D534320D2
:1030A000436F6E6669670000122008800048704711
:1030B0002400002010B50A46024903A000F0F7F8EA
:1030C000004810BD2C0400204D534320496E746508
:1030D0007266616365000000042008800048704744
:1030E0002000002010B50A46024903A000F0DFF8D6
:1030F000004810BD2C04002053544D6963726F6565
:103100006C656374726F6E696373000010B50A4674
:10311000024903A000F0CBF8004810BD2C040020A9
:1031200053544D3332204D6173732053746F726169
:103130006765000010B51A2008800A480168001D64
:103140000468001D0068081809D008220649FEF727
:10315000DDFD0549042210312046FEF7D7FD024867
:10316000801E10BD107AFF1F3A000020F8B50446FB
:103170000020ADF8000048880D46010A08295FD2FA
:10318000DFE801F05E0409175E5E3C45D4F8B41236
:10319000207C0A6819E0207C02260028D4F8B802B6
:1031A00005D0C16A684688470146467039E0816AA1
:1031B000F8E7C0B2062843D2DFE800F0030A101493
:1031C000181CD4F8B402426805E0694690471CE038
:1031D000D4F8B402826892B3207CF6E7D4F8B40243
:1031E000C268F8E7D4F8B4020269F4E7D4F8B4028C
:1031F0004269F0E7D4F8B4028269ECE7207CF0B9C8
:10320000D4F8B802416B68468847014609E0207C43
:10321000A8B9D4F8B802016B684688470146072070
:103220004870EA888AB1BDF8000040B1824200D9F6
:103230000246ADF800202046FFF70DFFF8BDFFE77E
:1032400029462046FFF7F1FEF8E72046FFF710FF7A
:10325000F4E778B50E4642880178002504468A4294
:1032600012D9ADF800100AE0694600F019F841786B
:10327000052904D181780546B14205D00025618831
:10328000BDF800209142EFD8284678BD01460020C5
:1032900002E0401CC0B2491C0A78002AF9D17047EC
:1032A0000A8803781A440A8001780844704770B588
:1032B00016460D46002820D00446FFF7E7FF0221FE
:1032C00001EB40014FF40070814204D82046FFF723
:1032D000DDFF4000801C308030782870032068704B
:1032E0000220002206E02954401CC0B22A54401C8F
:1032F000C0B2641C21780029F5D170BD01004FF0E7
:10330000000004D0012901D0022901D00320704718
:103310000120704778B10023C0F8B832C0F8C43239
:10332000C0F8D03209B1C0F8B412012180F89C1263
:10333000027000F0D5B80320704710B5D0F8C8026D
:10334000FDF7B0FCBDE81040FFF7D8BF10B5D0F8CE
:10335000C802FDF782FCBDE81040FFF7CFBF2DE9A2
:10336000F04117460446002521B194F89C02032839
:1033700042D04CE0D4F8941204F11400022935D163
:10338000D0E902639E4206D9F21A8260394620468D
:10339000FFF743FE0FE0B34214D14068984211D3C7
:1033A000D4F8981288420DD2002211462046FFF729
:1033B00034FEC4F8985200231A461946204600F0FD
:1033C00002F913E094F89C02032808D1D4F8B8025B
:1033D000C16821B1C4F8D452C16820468847802111
:1033E000204600F07AF92046FFF72AFE94F8A00262
:1033F00068B184F8A0520AE0D4F8B802426932B148
:10340000C4F8D452426920469047002800D10020D9
:10341000BDE8F08170B513460446002221B194F84E
:103420009C02032830D03AE0D4F8941204F5AA7034
:10343000032934D1D0E902518D420AD96A1A826037
:103440000846824200D3024619462046FFF7DDFDBA
:1034500025E094F8AA0210F01F0003D0012802D042
:10346000022800D0002294F89C02032808D1D4F846
:10347000B802016921B1C4F8D42201692046884705
:103480002046FFF7F5FD0AE0D4F8B802836933B1AE
:10349000C4F8D422826920469047002800D1002039
:1034A00070BD0020704710B50024012180F89C12E7
:1034B000D0F8B82222B152680179904700B10324B4
:1034C000204610BD10B5D0F8C802FDF718FCBDE8C5
:1034D0001040FFF713BFD0F8C802FDF72ABC000068
:1034E00010B5017839BB15490222C1F8E004C0F8D3
:1034F000C8124FF0A040086004200871CA71002073
:1035000088714A728872C87208738873C8730846D3
:10351000FDF76EFF08B1FDF7A3F980210748FDF71D
:103520004CFB402200210548FDF74BFB8022012186
:103530000248FDF746FB002010BD0000A408012052
:103540000A0601F07F01D0F8C80201EBC10100EBCF
:10355000810001D5807D704790F85602704710B504
:10356000D0F8D42200EB8202D2F8B82222B190F82F
:103570009C32032B02D004E0032010BD126A02B17A
:103580009047002010BD10B5D0F8D42200EB820285
:10359000D2F8B82222B190F89C32032B02D004E07A
:1035A000032010BD526A02B19047002010BD10B533
:1035B0001C461346D0F8C8022246FDF7C3FBBDE8FF
:1035C0001040FFF79BBE10B5D0F8C802FDF7EBFB2B
:1035D000BDE81040FFF792BE2DE9F041002601251D
:1035E000044680F89C52C4F894626660C4F8A462F1
:1035F00080F8A062D0F8B80230B1426822B1002150
:103600002046904700B10326002240231146204661
:10361000FFF7CDFF4027A4F864513B4600228021EC
:103620002046C4F86071FFF7C2FFA58430462762C8
:10363000BDE8F08190F89C12042903D190F89D1206
:1036400080F89C120020704710B590F89C12032956
:1036500005D1D0F8B81211B1C96901B1884700206D
:1036600010BD01740020704710B5D0F8C802FDF7F6
:1036700085FFBDE81040FFF741BE70B5044600F27B
:10368000AA20054600F0AFF90120C4F89402B4F86E
:10369000B002C4F8980294F8AA0210F01F010AD0F0
:1036A00001290ED0022912D000F080012046BDE889
:1036B000704000F012B829462046BDE8704000F086
:1036C0002DBA29462046BDE8704000F06DBB294662
:1036D0002046BDE8704000F0B7BA10B5D0F8C80277
:1036E000FDF77DFBBDE81040FFF708BE10B5D0F830
:1036F000C802FDF75DFFBDE81040FFF7FFBD90F881
:103700009C12042903D090F89C1280F89D12042189
:1037100080F89C120020704710B5D0F8C802FDF761
:1037200097FBBDE81040FFF7E9BD10B5FEF7DAFBE7
:10373000002010BD10B5FEF7F8FB002010BD000002
:1037400070B51B4D04466978FFF700FE68780026C7
:1037500000F00F0000EB800004EB8000A0F8646133
:1037600029782046FFF7F2FD287800F00F0000EBE3
:10377000800004EB80008684D4F8D40204EB80003F
:10378000D0F8C00290B12046FEF7F2FBD4F8D40284
:1037900004EB8000D0F8C00200F03FFBD4F8D40264
:1037A00004EB8000C0F8C062C4F8BC62002070BDA9
:1037B000C00000200A21018000487047E40000207A
:1037C00070B5054681210848FFF743FD04460121F5
:1037D0000548FFF73EFD402104B1A18000B1818082
:1037E00020202880004870BDC400002070B5054628
:1037F00081210948FFF72DFD044601210648FFF706
:1038000028FD4FF4007104B1A18000B18180202017
:103810002880014870BD0000C400002070B5054636
:1038200081210848FFF715FD044601210548FFF7EF
:1038300010FD402104B1A18000B1818020202880AA
:10384000004870BDC40000202DE9F04104464FF44B
:103850001D7000F0E3FA70B3D4F8D412244D04EBD9
:1038600081010126C1F8C002C4F8BC02207C60B30B
:103870004023022269782046FFF799FE68784023AA
:1038800000F00F0000EB800004EB8000A0F8646102
:10389000022229782046FFF78AFE287800F00F00E0
:1038A00000EB800004EB800086842046FEF76CFB72
:1038B0000020BDE8F081FFE7D4F8D412002004EB2B
:1038C0008101C1F8C0020220F3E74FF400773B46C4
:1038D000022269782046FFF76AFE68783B4600F0CE
:1038E0000F0000EB800004EB8000A0F86461CFE7DC
:1038F000C000002039B1D0F8D42200EB8200C0F81B
:10390000C4120020704703207047F8B50646D0F86F
:10391000D4020C4606EB80010025D1F8C072ADF848
:10392000005037B1207810F0600223D0202A40D117
:1039300001E00320F8BD6278FE2A02D0FF2A38D1C8
:103940000EE0628882BBE288012A32D1000630D5BF
:10395000D1F8C402806980470122394638601FE0EF
:10396000618809BBE188F9B9000622D43046FEF728
:103970003FFB23E0607830B1012824D00A2809D029
:103980000B2816D111E096F89C02032811D10222CF
:10399000694605E096F89C0203280AD10122391DE8
:1039A0003046FFF758FB09E003E096F89C02032835
:1039B00006D021463046FFF738FB03252846F8BDE0
:1039C000A0787860FAE796F89C020328F6D1608820
:1039D0000028F3D121793046FFF774FD2179304674
:1039E000FEF758FAEAE770B5054611F8010B2870A2
:1039F000087868704C1C2046FFF7B9F96880A41C51
:103A00002046FFF7B4F9A880A01CFFF7B0F9E880C2
:103A100070BD38B504460020ADF80000A1B1C4F86F
:103A2000B812D4F8D40204EB8000D0F8B802C16A0E
:103A300019B168468847C4F8D002D4F8D802401CAF
:103A4000C4F8D802002038BD032038BD024600204B
:103A5000D2F8B832002B02D01B68104618477047C6
:103A60002DE9F04188462B4E8978002504463170B7
:103A7000012906D941462046FFF7D7FA0320BDE8C1
:103A8000F08194F89C02022702280CD003281DD054
:103A900041462046FFF7C9FA31782046FFF7A7FADA
:103AA00003252846EBE789B320466160FFF7CEFF88
:103AB000050004D041462046FFF7B7FA1DE0204636
:103AC000FFF7D6FA032084F89C02EAE7C1B16068E8
:103AD00088421BD0C1B22046FFF789FA31782046D0
:103AE0006160FFF7B3FF050010D041462046FFF7A5
:103AF0009CFA21792046FFF77AFA84F89C72D0E785
:103B000084F89C7220466160FFF771FA2046FFF747
:103B1000AFFAC6E784000020FFF7E8BD2DE9F041C9
:103B20000A78002512F060020CD0202A01D0402A29
:103B30007DD1D0F8D42200EB8202D2F8B82292686C
:103B4000904731E04B78002201260A2B6FD2DFE844
:103B500003F041666E586E08056E2D29FFF706FBCF
:103B600067E004468888D8B9C888C8B948888028DA
:103B700016D200F07F0794F89C02032810D084F836
:103B80009E7239462046FFF76FFD2046FFF770FA18
:103B90001FB1022084F89C024BE084F89C6248E04C
:103BA000204644E0FFF75CFF054642E0CB88012B4E
:103BB0003DD190F89C32012B04D0022B02D0032B74
:103BC00035D104E08260012200F1080116E00122F3
:103BD000011D13E090F89C22012A03D0022A01D093
:103BE000032A24D1CA88022A21D1C660D0F8A4129F
:103BF00009B10321C160022200F10C01FFF72BFA89
:103C000017E04A88012A02D0022A03D00FE0C0F848
:103C1000A46216E08988090A80F8A01211E090F8E1
:103C20009C32012B08D0022B06D0032B04D0FFF7C7
:103C3000FCF92846BDE8F08149880129F9D1C0F88E
:103C4000A422FFF715FAF4E72DE9F04105460878BC
:103C50000C790E464FF0000810F060000BD02028C1
:103C600001D040286AD121462846FFF7CAF9FF282B
:103C700000D0D8B395E07078C8B3012824D00328C9
:103C80005CD195F89C02022802D0032856D10CE0A2
:103C9000002C53D0802C51D021462846FFF71DFD23
:103CA00080212846FFF719FD7BE0708840B93CB1C0
:103CB000802C05D0C88818B921462846FFF70DFD8D
:103CC0002846FFF7D5F96CE095F89C020228DFD072
:103CD000032863D1708880BB600603D02146284644
:103CE000FFF72BFB2846FFF7C3F9BCE700E00AE02B
:103CF000C5F8D402D5F8B8028268F2B13146284638
:103D0000904780464DE095F89C020027022802D09B
:103D1000032843D113E00CB1802C3FD1200604F0DE
:103D20007F0000EB800005EB800101D5143101E03C
:103D300001F5AA7102220F602CE032E02EE020068D
:103D400004F00F0000EB800005EB800009D5808CAB
:103D500020B304F07F0000EB800005EB80061436F2
:103D60000AE0B0F86401C8B104F07F0000EB800005
:103D700005EB800606F5AA764CB1802C07D02146CB
:103D80002846FFF7DDFB10B10120306000E037600E
:103D9000022231462846FFF75EF902E02846FFF787
:103DA00044F94046BDE8F08170B505460878002426
:103DB0000E4610F0600003D0202801D0402827D103
:103DC00095F89C02012803D0022801D003281FD1B6
:103DD000B088C1B201291AD8C1B22846FFF713F939
:103DE000FF280CD058B9D5F8B8128A683AB1C5F88E
:103DF000D4028A68314628469047044600E00324EE
:103E0000F088204307D12846FFF732F903E0314616
:103E10002846FFF70AF9204670BD704700487047F2
:103E20002C06012070B50A78012302F00F054E78A8
:103E3000AB401B4CD0F81C58012E17D045EA034369
:103E4000C0F81C3800EB4210D0F8002B12040BD441
:103E5000D0F8002B0B890979C3F30A031A4344EA0B
:103E600081410A43C0F8002B002070BD9BB21D4366
:103E7000C0F81C5800EB4210D0F800391B04F3D4F2
:103E8000D0F800390D890979C5F30A0589042B4357
:103E900041EA82510B432343C0F80039E4E70000B4
:103EA00000800010D0F800196FF30A01C0F8001963
:103EB000D0F8041841F48071C0F80418002070474D
:103EC00070B50D460446C2F3072104981E46012929
:103ED0001BD0E06840F04000E060204600F032F87F
:103EE000C6F307210029A16B26D021F48031A163FC
:103EF000C5F30741012907D1A16841F00601A1607E
:103F0000A16841F02001A16070BDA16B21F4803156
:103F1000A163E1680A4A1140E160E16821F44011BF
:103F2000E160C0B2012803D1E06840F48010E06095
:103F3000204600F007F8DBE741F48031D7E70000C6
:103F4000BFFFBDFF08B500214FF070620091009BDC
:103F50005B1C009393420CD80369002BF7DA0091A5
:103F6000016941F0010101610099491C00919142F0
:103F700001D9032008BD0169C907F5D1002008BD9A
:103F800030B54C780A78012300EB4212012C2CD07A
:103F9000D2F8004B002C0BDAD2F8004B44F000644E
:103FA000C2F8004BD2F8004B44F08044C2F8004BFA
:103FB000D0F83C580C7804F00F0403FA04F425EA16
:103FC0000444C0F83C48D0F81C48097801F00F01BF
:103FD0008B4024EA0341C0F81C18D2F8000B1949A1
:103FE0000840C2F8000B002030BDD2F80049002C78
:103FF0000BDAD2F8004944F00064C2F80049D2F864
:10400000004944F08044C2F80049D0F83C480D789B
:1040100005F00F0503FA05F5ADB2AC43C0F83C4816
:10402000D0F81C48097801F00F018B4099B28C43FD
:10403000C0F81C48D2F8000903490840C2F800093A
:10404000D1E700000078F3EF007833ECD0F8001EE1
:1040500021F00301C0F8001ED0F8041821F002017D
:10406000C0F8041800207047D0F8001E21F00301AA
:10407000C0F8001ED0F8041841F00201C0F804187E
:10408000002070472DE9F04F00250E4604461746E4
:104090002846294604EB8002C2F80411401C0F2870
:1040A000F8D3C3F307405FEA0009204616D0806BBF
:1040B00020F40012A263A06B40F40022A263084621
:1040C00088462146C4F8000EC7F30720012817D000
:1040D0000846D1F8001841F0030118E0D0F80408B0
:1040E00040F00202C4F80428A06B40F40012A2635E
:1040F000A06B20F40022A263A06B20F48022DDE7F5
:10410000300E0846D1F8001801D041F00101C0F886
:104110000018102100F08BFA00B10125204600F0B4
:104120006AFA00B101254046C4F81088C4F8148822
:10413000C4F81C8800214FF0006B4FF0904E4FF6F2
:104140007F3AF2B215E000BF04EB4113D3F800C987
:10415000BCF1000F06DA11B1C3F800E904E0C4F8BD
:1041600000B901E0C3F80009C3F81009C3F808A9B1
:10417000491C8A42E8D8002115E000BF04EB411336
:10418000D3F800CBBCF1000F06DA11B1C3F800EB95
:1041900004E0C4F800BB01E0C3F8000BC3F8100B47
:1041A000C3F808AB491C8A42E8D8D4F8101821F4A7
:1041B0008072C4F81028A0616FF080406061C6F37F
:1041C000074018B9A06940F01000A061A0690A4931
:1041D0000843A061C7F3074018B1A06940F0080088
:1041E000A061B9F1010F03D1A06904490843A0619E
:1041F0002846BDE8F08F000000383C8004000040F5
:10420000816821F0010181600020704710B5036CC6
:10421000134CA34203D9D0F8003B002B1EDB002334
:10422000C0F8103BD0F8103B43F40023C0F8103B1B
:10423000D0F8103B43F01803C0F8103BD0F8103B07
:1042400043F0C043C0F8103B012907D1C0F8142B3C
:10425000D0F8001B41F08021C0F8001B002010BDE9
:104260000A30544F4A780B78012A00EB43100BD0E8
:10427000D0F8002B22F40012C0F8002B0979032992
:1042800014D0022912D017E0D0F8002922F400122D
:10429000C0F800290979032901D002290CD1D0F8EE
:1042A000001941F08051C0F8001905E0D0F8001B5A
:1042B00041F08051C0F8001B002070470A784B780D
:1042C000D1B200EB4110012B12D0D0F8001B002915
:1042D00006DB2AB1D0F8001B21F08041C0F8001B9A
:1042E000D0F8001B41F40011C0F8001B00207047FB
:1042F000D0F80019002906DB2AB1D0F8001921F006
:104300008041C0F80019D0F8001941F40011C0F83C
:104310000019EBE7F8B50C784F788B4DE3B26FF0EE
:10432000604600EB4313012F29D0D3F8107B6FF3C5
:104330001207C3F8107BD3F8107B2F40C3F8107B13
:10434000002C7DD00D69002D7BD08C6825446D1E1E
:10435000B5FBF4F5ADB26C430C62D3F8104B06EA32
:10436000C5452C43C3F8104BD3F8104B0D6AC5F369
:1043700012052C43C3F8104B012A70D0CBE00F6913
:10438000EFB1D3F810796FF31207C3F81079D3F8AF
:1043900010792F40C3F810790CB30F698D682F4442
:1043A0007F1EB7FBF5F5D3F81079ADB206EAC54626
:1043B0003743C3F810790E79012E1CD02AE0D3F8C8
:1043C00010692E40C3F81069D3F8105945F4002540
:1043D000C3F81059D3F810596FF3120520E00E6995
:1043E0008D68AE4200D90D61D0F8105945F4002611
:1043F000C0F810690EE0D3F8106926F0C046C3F883
:104400001069D3F810694FF0C04707EA45752E438D
:10441000C3F81069D3F810590E69C6F31206354374
:10442000C3F81059012A1BD000EB4413D3F80049FC
:1044300044F00444C3F800490C79012C31D001E068
:1044400044E057E00A695AB3D0F83428097801F0FB
:104450000F03012199400A43C0F8342871E056E067
:10446000CA691AB100EB4413C3F814290979012968
:104470000ED1D0F80818C90500EB4411D1F8002975
:1044800002D442F0005201E042F08052C1F800290B
:1044900000EB4410D0F8001941F00441C0F80019B5
:1044A0004FE0D0F80848E405D3F8004902D444F0BE
:1044B000005401E044F08054C3F8004900920A8A95
:1044C00093B20A78C96800F0DFF93AE00C690CB1E0
:1044D0008C680C618C680C62D0F8105BC4F3120419
:1044E0002543C0F8105BD0F8104B44F40024C0F80A
:1044F000104B41E7D3F8104B8D68C5F312052C43E0
:10450000C3F8104BD3F8104B44F4002432E7CA68C8
:104510000AB1C3F8142B097901290CD1D0F8080885
:10452000C005D3F8000B02D440F0005001E040F089
:104530008050C3F8000BD3F8000B40F00440C3F8E0
:10454000000B0020F8BD0000FFFF07E038B5002297
:10455000009213464D780A7842F2107400EB421232
:10456000012D19D0D2F8005B002D3CDAD2F8005BA7
:1045700045F00065C2F8005B0A7800EB4212D2F801
:10458000005B45F08045C2F8005B009A521C009227
:10459000A24221D9012326E0D2F80059002D22DAC7
:1045A000D2F8005945F00065C2F800590A7800EBCE
:1045B0004212D2F8005945F08045C2F80059009ADD
:1045C000521C0092A242E5D80A7800EB4212D2F8BF
:1045D0000029002AF3DB06E00A7800EB4212D2F849
:1045E000002B002AD1DB184638BD816841F001015B
:1045F00081600020704708B500214FF07062009183
:10460000009B5B1C009393420AD80369002BF7DAE6
:104610000091102101610099491C0091914201D93A
:10462000032008BD0169C906F5D4002008BD18B5EE
:1046300000224FF070630092009C641C00949C4226
:104640000CD80469002CF7DA0092202242EA81118A
:1046500001610099491C0091994201D9032018BDBC
:1046600001698906F5D4002018BDD0F8080810F0BB
:10467000060004D0022803D0062801D00F2070477E
:1046800002207047406900F001007047D0F8181808
:10469000D0F81C08084080B27047D0F81818D0F83D
:1046A0001C080840000C704710B5D0F81038D0F83E
:1046B000342801F00F0400EB4110E24002F0010247
:1046C000D0F8080943EAC212104010BD00EB4111B6
:1046D000D1F8081BD0F81408084070474169806978
:1046E0000840704730B503460846940802F00301BD
:1046F000002203F5805303E01D6840F8045B521C60
:10470000A242F9D300290BD01C680022D50024FA5C
:1047100005F3491E521C090400F8013B090CF5D1B0
:1047200030BD70B50446C068002520F0C040E06090
:10473000012901D079B120E0E06840F00050E0604C
:104740000A20FCF78FF860690A3510F0010F10D1CC
:10475000C82DF5D30DE0E06840F08040E0600A200D
:10476000FCF780F860690A3510F0010F01D0C82D00
:10477000F5D3C82D01D0002070BD012070BDD0F848
:10478000002822F4FE62C0F80028D0F800284FF478
:10479000FE6303EA01110A43C0F8002800207047B5
:1047A000022A3ED1264A274B0A449A4201D20F21BF
:1047B00038E0254A254B0A449A4201D20E2131E0C5
:1047C000234A244B0A449A4201D20D212AE0224A6C
:1047D000224B0A449A4201D20C2123E0204A214B69
:1047E0000A449A4201D20B211CE01F4A1F4B0A4483
:1047F0009A4201D20A2115E01D4A1E4B0A449A42F0
:104800000FD31D4A1D4B0A449A4201D2082109E0E8
:104810001B4A11441B4A914201D2072102E00621A2
:1048200000E00921C26822F47052C260C2684FF4ED
:10483000705303EA81210A43C260002070470000E0
:10484000405327FF00350C00401E1BFF40420F0065
:1048500000DC0BFF804F1200808CF9FE20D6130085
:1048600060B6E5FE60E3160000D3CEFE40771B0085
:10487000C05BB3FEC091210000CA91FE20753800D4
:10488000E05459FEE09C410010B5029C74B9DB1C59
:104890009C0800EB0230002300F5805004E000BFCC
:1048A00051F8042B02605B1CA342F9D3002010BD19
:1048B000FEE70907090E002804DB00F1E02080F87C
:1048C0000014704700F00F0000F1E02080F8141D84
:1048D000704730380A2801D2012070470020704705
:1048E000FEE74FF0FF30704700F01AB8FCF7D2F83F
:1048F000FEF744FAFDF7CCFBFDF7FCFBFDF7DEFB12
:104900007822024902A0FBF72FFDFEE74249010889
:104910005B25735D2025643A206D61696E0D0A0088
:1049200001B54FF0FF33012269460248FDF79CF9BB
:10493000009808BD080100204FF04070E1EE100A19
:1049400070476D61696E00008002021F0000005315
:10495000544D202020202050726F647563742020F5
:1049600020202020202020302E303153544F52411F
:1049700047455F526561645F46530053544F52414F
:1049800047455F57726974655F4653000000000039
:1049900000000000010203040607080900000000EF
:1049A00001020304040000080000000000000002EF
:1049B0000001000010000000D8490108000000209C
:1049C00008010000C4010108E04A010808010020B4
:1049D000E0120100E001010800000000A930010818
:1049E000D9300108E53001080D31010835310108E1
:1049F00089300108B53001080403090412010002DE
:104A00000000004083042A57000201020301000055
:104A10001A03000000000000000000000000000079
:104A2000000000000000000000000000C12C010890
:104A3000B12C0108C52C0108C92C0108CD2C010896
:104A40001D2D0108BD2C0108474901080100000087
:104A500010000000000000000024F400000000002E
:104A600049380108413701080B39010800000000EE
:104A7000000000002B370108353701080000000056
:104A80000000000000000000ED370108C1370108F8
:104A90001D380108B5370108810100000902200016
:104AA000010104C032090400000208065005070590
:104AB0008102400000070501024000000A060002D2
:104AC000000000400100000000020080008000089B
:104AD000202020200300000000060000000000004D
:040000050801018964
:00000001FF
