:020000040801F1
:10000000200E002039020108B71901084D19010816
:10001000B5190108710701083F2D01080000000013
:100020000000000000000000000000002B1B010881
:100030007307010800000000291B0108371B010895
:100040005302010853020108530201085302010838
:100050005302010853020108530201085302010828
:100060005302010853020108530201085302010818
:100070005302010853020108530201085302010808
:1000800053020108530201085302010853020108F8
:1000900053020108530201085302010853020108E8
:1000A00053020108530201085302010853020108D8
:1000B00053020108530201085302010853020108C8
:1000C00053020108530201085302010853020108B8
:1000D00053020108530201085302010853020108A8
:1000E0005302010853020108530201085302010898
:1000F0005302010853020108530201085302010888
:100100005302010853020108530201085302010877
:100110005302010853020108530201085302010867
:100120005302010853020108530201085302010857
:100130005302010853020108530201085302010847
:10014000530201085302010853020108B9190108BA
:100150005302010853020108530201085302010827
:100160005302010853020108530201085302010817
:100170005302010853020108530201080000000065
:10018000530201085302010800F002F800F044F89D
:100190000AA090E8000C82448344AAF10107DA45E2
:1001A00001D100F039F8AFF2090EBAE80F0013F0F0
:1001B000010F18BFFB1A43F001031847682C000019
:1001C000882C0000103A24BF78C878C1FAD85207AA
:1001D00024BF30C830C144BF04680C6070470000C1
:1001E0000023002400250026103A28BF78C1FBD840
:1001F000520728BF30C148BF0B607047642900F028
:10020000E980732900F05382002070471FB502F087
:10021000EDFD1FBD10B510BD00F078FA1146FFF7D7
:10022000F5FF02F0ABFD00F096FA03B4FFF7F2FF22
:1002300003BC02F09CFD00000948804709480047C4
:10024000FEE7FEE7FEE7FEE7FEE7FEE7FEE7FEE786
:10025000FEE7FEE704480549054A064B70470000E3
:10026000D11B01088901010820080020200E002070
:10027000200A0020200A0020704753EA020C00F0F8
:1002800069802DE9F04B4FF00006002B1FBFB3FA39
:1002900083F503FA05F424FA05F65E4012BF16430F
:1002A000B2FA82F502FA05F4C5F120051EBF22FA62
:1002B00005FC44EA0C04203556EA044C4FEA144489
:1002C00018BF641C4FF000084FF00009904271EB1A
:1002D000030C39D3002919BFB1FA81F701FA07F6E7
:1002E000B0FA80F700FA07F6C7F120071EBF20FA20
:1002F00007FC46EA0C062037B6FBF4FCA7EB050723
:10030000103F07F01F0BCBF120060CFA0BFB2CFA69
:1003100006F644BFB3460026202FA4BF5E464FF02A
:10032000000B5BEA060C08BF4FF0010B19EB0B0941
:10033000ABFB027C48EB0608C01B06FB02CC0BFBA8
:1003400003CC71EB0C01C1E70B460246414648461F
:10035000BDE8F08B13B54FF000004FF00001AFF394
:100360000080BDE81C4070470FB4044910B503AAD3
:10037000029800F0A1F910BC5DF814FB0000002009
:1003800070B50C460546012A05D02878800600D5B0
:10039000EA69002302E0012305E05B1C934202D2DC
:1003A000E05C0028F9D1A869E618C01AA861286A9B
:1003B000184428622846AFF3008004E0D5E9012103
:1003C00014F8010B9047B442F8D32846AFF30080ED
:1003D00070BD00002DE9F041064600241068752923
:1003E000314616A510D0AFF30080002802DA404253
:1003F00013A507E031688A0701D512A502E0490775
:1004000004D511A5012401E0AFF3008000210A22E8
:1004100006F1240709E0B0FBF2FCB0FBF2F302FBAB
:100420001C00303078541846491C0028F3D123466C
:100430002A463046BDE8F04100F0CEB8000000008A
:100440002D0000002B000000200000002DE9F05FCF
:10045000894604464FF0000ADFF824B1FB44C0F897
:1004600020A02046E168884700287DD0252806D0B6
:10047000D4E901219047206A401C2062F1E7002561
:100480005F462046E16888472028064607DB312E74
:1004900005D2B81910F8200C08B10543F1E7A807F8
:1004A00001D525F00405C4F81CA00027C4F818A045
:1004B0002A2E09D0304602F053FC38B304EB8708EB
:1004C000303EC8F8186019E059F8041B204604EBC8
:1004D00087029161E1688847012F064618D1E069DB
:1004E000002820DA25F020051DE0D8F8180000EBE0
:1004F000800006EB40003038C8F818002046E1685C
:100500008847064602F02CFC0028EED1012F0AD0C5
:100510002E2E08D12046E16888477F1C0646022F10
:1005200045F02005C4DBA069002803DA404245F00D
:100530000105A061E80701D025F01005A6B1A6F1DC
:100540004100192802D8203645F400654A46314654
:10055000204625604D46FFF751FE60B1012807D0C7
:10056000ED1D25F0070000E007E000F1080978E73D
:1005700005F1040975E730467AE7206ABDE8F09F87
:10058000B32900004FF0000200B51346944696468A
:10059000203922BFA0E80C50A0E80C50B1F1200196
:1005A000BFF4F7AF090728BFA0E80C5048BF0CC044
:1005B0005DF804EB890028BF40F8042B08BF7047A2
:1005C00048BF20F8022B11F0804F18BF00F8012B14
:1005D00070477047704770472DE9F0470D469946C0
:1005E0009246044600F124080168880604D5E069B3
:1005F00021F01001216000E00120A84201DD471B2D
:1006000000E00027A1697A1902EB0900081AA0612D
:100610002078C00602D42046AFF30080002608E010
:10062000D4E901211AF806009047206A401C761C84
:1006300020624E45F4DB2078C0060AD52046AFF391
:10064000008006E0D4E9012130209047206A401C58
:100650002062381EA7F10107F4DC07E0D4E901218C
:1006600018F805009047206A401C2062281EA5F15A
:100670000105F3DC2046AFF300802078000602D5A8
:100680000220BDE8F0870120FBE710B5436913B1F4
:10069000AFF3008001E0FFF773FE012010BD127878
:1006A00000F124010A7000224A700122EDE711686E
:1006B0004FF0FF32E9E70000074B70B50D467B4471
:1006C00000F011F80446284602F052FB10B14FF03A
:1006D000FF3070BD204670BDB526000001694A1C80
:1006E00002610878704700B58FB0CDE90131002173
:1006F000059105497944CDE9031011466846FFF795
:10070000A5FE0FB000BD0000E5FFFFFF754600F03D
:100710002BF8AE4605006946534620F00700854693
:1007200018B020B5FFF796FDBDE820404FF0000659
:100730004FF000074FF000084FF0000B21F00701C9
:10074000AC46ACE8C009ACE8C009ACE8C009ACE80C
:10075000C0098D46704710B50446AFF300802046AF
:10076000BDE81040FFF761BD00487047BC0700209E
:10077000FEE7704772B6FEE770B5044600F0F6F883
:100780000546601C02D004480078044400F0EEF8EE
:10079000401BA042FAD370BD040000202DE9F84FA1
:1007A000DFF89C910022A9F1040B03274FF00F0CF6
:1007B00009F1040AABF1040E01250B6895402B40AA
:1007C000AB426ED10C7904F00304012C01D0022C51
:1007D00015D18668540007FA04F826EA0806D1F80D
:1007E0000C8008FA04F848EA0608C0F80880446853
:1007F000AC430D79C5F300159540254345600C7950
:10080000E443A40708D0C568540007FA04F6B543CA
:100810008E68A6402E43C6600C7904F00304022CB7
:1008200011D1D40800EB8406356A5407E40E0CFAA3
:1008300004F825EA0805D1F8108008FA04F848EA17
:100840000508C6F820800568540007FA04F6B54389
:100850000E7906F00306A6402E4306604C6814F499
:10086000403F66D0374C256845F4804525602468B4
:1008700022F0030504F480440094334C05EB040893
:10088000D8F808589407260F0CFA06F4A5432F4C05
:10089000A04201D1002424E02D4CA04202D1012429
:1008A0001FE046E02B4CA04201D1022419E02A4C63
:1008B000A04201D1032414E0284CA04201D1042419
:1008C0000FE0274CA04201D105240AE0254CA042AC
:1008D00001D1062405E0244CA04201D1072400E008
:1008E0000824B4402C43C8F80848D9F800404D46C5
:1008F0004E689C43F60200D51C432C60DAF8004099
:1009000055464E689C43B60200D51C432C60DBF86C
:1009100000405D464E689C43B60300D51C432C60E6
:10092000DEF8004075464E689C43F60300D51C4334
:100930002C60521C102AFFF43FAFBDE8F88F000076
:10094000083C0140443802400030014000000240B1
:100950000004024000080240000C02400010024067
:100960000014024000180240001C02400148806848
:10097000704700000400002002488168027811449A
:1009800081607047040000200B4810B5016841F4F5
:1009900000710160016841F480610160016841F407
:1009A00080710160032000F061F80F2000F006F86C
:1009B00000F024F8002010BD003C024070B50D4D41
:1009C00004464FF47A712878B1FBF0F00A490968BF
:1009D000B1FBF0F000F0EEFE48B9102C07D2002277
:1009E0002146501E00F022F800206C6070BD0120EE
:1009F00070BD000004000020100000200A4808B567
:100A0000016841F480410160006800F4804000907A
:100A10000548001F016841F080510160006800F046
:100A20008050009008BD000044380240F0B40E4BE6
:100A30001B68C3F30223C3F10704042C00D9042468
:100A40001D1D072D01D2002300E0DB1E012606FA42
:100A500004F56D1E0D409D409E40761E164045EAF1
:100A60000601F0BC02F06CB90CED00E0064A00F0A3
:100A7000070110684FF6FF03184040EA01200349C0
:100A800008431060704700000CED00E00000FA051C
:100A90007047D0F8E00401F007BB01EBC10200EBA6
:100AA0008202D0F8E004126A01F05ABA01EBC102E6
:100AB00000EB8202D0F8E004D2F8602201F0A9BA7B
:100AC000D0F8E00401F0F2BA0A0601F00F0101EBE0
:100AD000C10100EB810101D5143101E001F515716F
:100AE000006801F0CBBF70B5044601F00F00227919
:100AF000904201D9012070BD0B0601F00F0101EBFE
:100B0000C10104EB81014FF001024FF0000502D555
:100B10004A75143103E081F8555201F515718D7055
:100B2000087094F89404012808D084F8942420686C
:100B300001F030FE84F89454002070BD022070BD96
:100B40002DE9F04104460F0601F00F0000EBC00153
:100B500004EB81014FF001064FF0000502D54E7500
:100B6000143103E081F8555201F51571C2F30A0200
:100B700008708A600B714A7802B14883022B00D159
:100B80004D7194F89404012809D084F89464206885
:100B900001F086FD284684F89454BDE8F0810220D7
:100BA000FBE710B501F00F0404EBC40100EB810179
:100BB000C1E998230023C1F8683281F8553281F8E1
:100BC0005442837901F51571012B00D1CA618279F4
:100BD000006801F037FE002010BD70B504460D46D8
:100BE00001F00F002179884201D9012070BD29064A
:100BF0004FF000064FF0010206D500EBC00104EBF8
:100C000081014A75143107E005EBC50104EB810150
:100C100081F8556201F515718A70087094F8940492
:100C2000012807D084F89424206801F0DFFD28070C
:100C300002D007E0022070BDA17904F29C42206836
:100C400001F07CFD84F89464002070BD10B501F0C3
:100C50000F0404EBC40100EB8101C1E90823002368
:100C60008B6201234B7501F8144F8379012B00D15E
:100C7000CA618279006801F0E5FD002010BD000026
:100C80002DE9F84F05680446284601F070FF00285A
:100C90007DD1206801F097FF002878D0D5F80808AA
:100CA000C0F30D20C4F8D404206801F08CFF800745
:100CB00004D52068416901F002014161206801F01A
:100CC00082FFC10604F29C40009034D520688169FF
:100CD00021F0100181612F6A07F00F0000EBC000C6
:100CE00004EB8006C7F3434006F51576022802D0D0
:100CF000062811D01AE047F6F070074216D0C7F365
:100D00000A1217462846F16801F061FFF06838447E
:100D1000F0607069384408E008222846009901F024
:100D200056FF7069C7F30A11084470612068816931
:100D300041F010018161206801F045FF00034FF090
:100D4000010B7AD50026206801F01CFF8046DFF8F1
:100D500078A46FE05FEAC87069D0F1B2206801F052
:100D60002AFF0746C00707D005EB4611C1F808BBAC
:100D70003146204600F026FE380722D505EB461105
:100D80000820C1F8080B2068D0F8409000E018E275
:100D900000EB4610D0F8082BD14505D9110403D536
:100DA0004FF40041C0F8081B204600F048FAD14536
:100DB00007D9A079012804D120680121009A01F007
:100DC000BDFCF80604D505EB46111020C1F8080B50
:100DD000B8071DD56869000605D5D5F8040840F4A4
:100DE0008061C5F8041806EBC60004EB800090F89B
:100DF000571200F51570012905D10021C170F1B21B
:100E0000204600F0E7F905EB46110220C1F8080B77
:100E1000B80604D505EB46102021C0F8081BB8041D
:100E200005D505EB46104FF40051C0F8081B4FEAFA
:100E30005808761CB8F1000F8CD1206801F0C3FE71
:100E400040036DD5206801F096FE8046002664E0E0
:100E50005FEAC8705ED0F1B2206801F09AFE0746E2
:100E6000C00723D006F00F010BFA01F0D5F83418B3
:100E70008143C5F8341805EB4610C0F808B9A079CD
:100E800001280FD106EBC60004EB8000D0E9072152
:100E90001144016236B9606A20B920680121009AC4
:100EA00001F04CFCF1B22046FFF7F7FD380704D5FE
:100EB00005EB46110820C1F80809F80604D505EB32
:100EC00046111020C1F80809780604D505EB461034
:100ED0004021C0F80819B80716D53146284601F058
:100EE0001BFE06EBC60004EB8000C17D1430012917
:100EF00005D10021C170F1B2204600F067F905EB81
:100F000046110220C1F80809380603D531462046AB
:100F100000F0BEFD4FEA5808761CB8F1000F97D1DB
:100F2000206801F050FE002811DAD5F8040820F0FE
:100F30000101C5F8041894F8CC0401282BD02046F0
:100F400000F062F92068416901F0004141612068C8
:100F500001F039FE00050BD5D5F80808C00702D00E
:100F6000204600F073F92068416901F40061416195
:100F7000206801F028FEC00467D5D5F8040820F0E9
:100F80000101C5F804181021206801F0C5FD0021F9
:100F90004FF67F3220E0002084F8CC040146204642
:100FA000FFF776FDCEE705EB4110C0F80829D0F831
:100FB000003923F40013C0F80039C0F8082BD0F82A
:100FC000003B23F40013C0F8003BD0F8003B43F093
:100FD0000063C0F8003B491C20798842E3D8D5F86B
:100FE0001C0840F00111C5F81C18E07B00282846B9
:100FF0000DD0D0F8840840F00B01C5F88418D5F85E
:10100000440840F00B012846C5F844180DE0D0F81C
:10101000140842F22B010843C5F81408D5F810084B
:1010200040F00B012846C5F81018D0F8000820F44D
:10103000FE61C5F80018A1792068009A01F07EFBD6
:101040002068416901F480514161206801F0BBFDD5
:10105000800415D5206801F063FB206801F07AFD5B
:10106000E07100F0A5F90146E279206801F0E0FDA9
:10107000204600F0B3F82068416901F40051416155
:10108000206801F0A0FD000707D5204600F0C0F859
:101090002068416901F008014161206801F093FD79
:1010A000000615D5A86920F08001A96101260CE091
:1010B00006EBC60004EB800090F85702012803D12C
:1010C000F1B22046FFF700FD761C2079B042EFD840
:1010D000206801F078FDC0021FD501265F4614E0AC
:1010E00005EB4610D0F8001906EBC60004EB8000B3
:1010F000027E012A08D1002906DAC775F0B240F055
:1011000080012046FFF7E0FC761C2079B042E7D84A
:101110002068416901F480114161206801F053FDAC
:10112000800231D501205B4626E005EB4011D1F865
:10113000001B00EBC00204EB820292F85862012E01
:1011400019D1002917DA94F8D46401F4803106F03B
:101150000106B1420FD182F85732A96941F08002ED
:10116000AA616969090606D4D5F8040840F400703C
:10117000C5F8040803E0401C21798142D5D82068D5
:10118000416901F400114161206801F01CFD40003B
:1011900007D52046FFF77DFC2068416901F08041BA
:1011A0004161206801F00FFD40070AD520684568BD
:1011B000680702D52046FFF783FC20684168294371
:1011C0004160BDE8F88F00000A30544FD0F8E004C9
:1011D00000F08ABFD0F8E00400F09ABF70B5044672
:1011E000C079012570B1022801D0FFF7C3FA294662
:1011F000D4F8E00400F0FAFFD4F8E004BDE8704051
:1012000000F0AFBF0025F2E7D0F8E00400F0D7BF50
:10121000D0F8E00400F0DDBF10B5044690F8940467
:1012200001280AD0012084F894046174206801F038
:10123000EDFC002084F8940410BD022010BDD0F80D
:10124000E02400F29C41104600F0DCBF10B50446DB
:10125000D0F8E00401F00FF82068D0F8001E41F04B
:101260000101C0F8001EE07A002804D0024801689D
:1012700041F00601016010BD10ED00E02DE9F047DE
:101280000D46040065D0DFF81491D9F80000EFB2E4
:1012900000F00700A84207D289F80070D9F80000D2
:1012A00000F00700A84254D120683D4E810712D5B6
:1012B000400703D5306840F4E050306020780007E4
:1012C00003D5306840F4604030603068A16820F099
:1012D000F000084330602078C0072DD030496068A6
:1012E0000839012812D0022813D0032811D0096828
:1012F000890700292DDA316821F0030101433160AB
:10130000FFF734FB804641F2883A0EE00968890312
:10131000EFE709688901ECE7FFF728FBA0EB08017C
:10132000514502D90320BDE8F0873068616800F0BC
:101330000C00B0EB810FEFD1D9F80010484601F056
:101340000701A94207D90770006800F00700A8420A
:1013500001D00120E7E72078400705D53068E16833
:1013600020F4E050084330602078000706D530684C
:10137000216920F4604040EAC100306000F03EF88E
:101380003168084AC1F30311515CC840064908603E
:1013900006480068FFF712FB0020C4E7003C02404B
:1013A00008380240FB2D0108100000200800002032
:1013B00001480068704700001000002004480549FB
:1013C00000680968044AC1F38221515CC840704733
:1013D00010000020083802400B2E0108044805497F
:1013E00000680968044AC1F34231515CC840704743
:1013F00010000020083802400B2E0108154810B5D7
:10140000006810F00C01144813D0431004290FD0C9
:1014100008290ED10F4C241F216801F03F022168DA
:10142000490207D52068C0F38810A0FB030106E03D
:10143000184610BD2168C1F38811A1FB00010023EB
:10144000FEF71BFF2168C1F30141491C4900B0FBB5
:10145000F1F010BD083802400024F4002DE9F84FE7
:10146000040075D02078DFF838A3C007AAF104057E
:1014700048D00AF104000168C1F38101012908D0B4
:101480000068C0F3810002280AD1DAF800004002A7
:1014900006D52868800335D560680028E1D031E0A2
:1014A0006068B0F5803F10D0B0F5A02F286810D04C
:1014B00020F480302860286820F48020286060684C
:1014C000A0B1FFF753FA06460CE0286840F48030DC
:1014D000F4E740F480202860F7E7FFF747FA801B25
:1014E000642871D828688003F7D50BE0FFF73EFA2F
:1014F000064604E0FFF73AFA801B6428F1D8286812
:101500008003F7D42078DFF89C9280074FF0000B1F
:101510003DD5A348001D016811F00C0F08D00068EC
:10152000C0F3810002280AD1DAF80000400206D494
:101530002868800715D5E068012809D111E0E06826
:10154000B8B10120C9F80000FFF710FA064605E01F
:1015500022E1FFF70BFA801B0228C2D82868800717
:10156000F7D52868216920F0F80040EAC10028601A
:101570000DE0C9F800B0FFF7F9F9064604E0FFF7FF
:10158000F5F9801B02281FD828688007F7D4207837
:10159000000722D5824F84486169703771B10121FB
:1015A0000160FFF7E3F9064604E0FFF7DFF9801B6F
:1015B000022809D838688007F7D50EE0C0F800B0D7
:1015C000FFF7D4F9064605E082E0FFF7CFF9801B6C
:1015D00002287DD838688007F7D42078400765D581
:1015E0006F484FF000083C300068C0000BD46C48D6
:1015F0003C30016841F08051016000684FF0010803
:1016000000F080500090694F3868C0050FD43868EA
:1016100040F480703860FFF7A9F9064604E0FFF750
:10162000A5F9801B022853D83868C005F7D55C4F50
:10163000A0686C3701280FD00528386810D020F03A
:1016400001003860386820F004003860A068B0B14C
:10165000FFF78CF906460EE0386840F00100F4E729
:1016600040F004003860F7E7FFF780F9811B41F292
:101670008830814263D838688007F5D50DE0FFF7E0
:1016800075F9064606E0FFF771F9811B41F28830D3
:10169000814254D838688007F5D4B8F1000F05D0DE
:1016A0003F483C30016821F080510160A069B8B327
:1016B0003B49091D0968C1F38101022946D002286E
:1016C000584606D0C9F86000FFF750F9044639E0E3
:1016D00035E04F46C9F86000FFF748F9064604E0D8
:1016E000FFF744F9801B022829D828688001F7D425
:1016F000D4E907010843A16A2D4A490802EB0141D8
:10170000626A41EA8211084394F82C1040EA0161B0
:10171000CAF8001001203866FFF728F9044605E0F2
:101720003CE0FFF723F9001B022808D82868800155
:10173000F7D533E0FFF71AF9001B022802D903207E
:10174000BDE8F88F28688001F4D427E00128F7D09D
:10175000DAF80000E26900F4800191421CD1226AAB
:1017600000F03F01914217D147F6C071626A014013
:10177000B1EB821F10D1A26A4FF0FF3300F4403169
:1017800003EB5202B1EB024F06D194F82C1000F09B
:101790007060B0EB016F01D00120D1E70020CFE7EE
:1017A0000438024000004742800E4742007000406B
:1017B0000000FFFF10B5401EB0F1807F01D3012073
:1017C00010BD4FF0E02460610F21601701F0B8FAFE
:1017D0000020A06107202061002010BD70B504002A
:1017E00004D094F84100002510B106E0012070BD3E
:1017F00084F84050204600F023F8242084F841006B
:101800002068C16821F40051C160204600F016FA3A
:101810002068016921F4904101612068416921F04B
:101820002A0141612068C16841F40051C1606564CA
:10183000202084F8410084F842006563002070BDD8
:1018400010B586B0044614216846FEF79BFE144985
:101850002068884221D113480021026842F010021A
:101860000260006800F0100005900E48143802680D
:1018700042F001020260006800F0010005904FF4A0
:10188000C06000900220CDE90101032003900720F1
:10189000049069460448FEF781FF06B010BD0000C1
:1018A0000010014044380240000002402DE9F84396
:1018B000044690F841001F4615460E46202802D0E7
:1018C0000220BDE8F8838EB185B10020606421203C
:1018D00084F84100FFF74AF8A5848146E584A068B2
:1018E0004FF02008B0F5805F02D003E00120E8E768
:1018F000206910B1354600260EE000250CE080215D
:10190000204600F021FAA0B9BDB115F8010B2168FD
:101910004860E08C401EE084E08C4B464FF00002B3
:1019200000970028EBD14FF04001204600F00CFA60
:1019300040B184F841800320C3E736F8020BC0F3BE
:101940000800E4E784F841800020BAE7FEE70000E1
:10195000094808B5016841F080010160016801F0A3
:1019600080010091016841F001010160006800F010
:101970000100009008BD0000303802400C4810B54E
:101980000A4901604FF4E1314160002181600C227D
:10199000C160C0E904128161C161FFF71FFF002827
:1019A00003D0BDE81040FEF7E5BE10BD00100140B9
:1019B00018000020FEE7FEE70148FFF761B90000CC
:1019C000D80200202DE9F041066805460C46306C2F
:1019D00006EB4411D1F8083B95F806C04FF40047D8
:1019E0004FF0200E05F29C42BCF1010F08D0DFF849
:1019F00098C0604538D1180431D5C1F8087B3FE064
:101A0000224E5FEA037C04D5B04239D91804F4D4DD
:101A100036E05FEA836C02D5C1F808EB30E013F0E2
:101A2000280F2DD1B04201D91804E6D404EBC4002C
:101A300005EB8000D1F8101BD0F87432C1F312010D
:101A4000591AC0F8681200F51570ACB903691BB1DA
:101A5000C2681144C1600FE0012128680AE09806BD
:101A60000AD5C1F808EB07E034B9D5F8640218B913
:101A70000021304600F062FEE1B22846FFF716F87A
:101A80000020BDE8F08100000A31544F0A30544F65
:101A90002DE9F84F0E4601EBC60100EB81048146AB
:101AA000D0F80080D4E909101434884202D901200A
:101AB000BDE8F88F081AA168814200D20846C01C10
:101AC000870808EB461A15E0451AA068A84200D21C
:101AD0000546E81C870899F806000090ABB2F2B200
:101AE0004046E16801F018F9E0682844E060606968
:101AF00028446061DAF8180980B2B84205D3D4E905
:101B00000401814201D20028DED1D4E904018842D7
:101B100008D806F00F0101208840D8F83418814316
:101B2000C8F834180020C3E7704770470178407840
:101B300041EA00207047FEF71FBF000030B593B0A8
:101B400030216846FEF71EFD14210CA8FEF71AFD91
:101B50001D480025016841F080510160006800F0D7
:101B6000805011901948016841F48041016000687B
:101B7000022400F4804011900120009000040190A4
:101B80008001CDE9064004200890A820CDE9090491
:101B900007200B906846FFF761FC08B172B6FEE7BC
:101BA0000CA90F2081E831004FF4A0500F904FF4A2
:101BB0008050109005210CA8FFF760FB002801D091
:101BC00072B6FEE713B030BD4038024000700040EE
:101BD0000448016841F470010160024902488039FB
:101BE0000860704788ED00E00000010801680C31D2
:101BF00051E8002F22F4907241E80023002BF5D128
:101C00000168143151E8002F22F0010241E800235D
:101C1000002BF5D1016B012909D101680C3151E884
:101C2000002F22F0100241E80023002BF5D12021E3
:101C300080F84210002101637047000070B504462F
:101C400000680169E26821F4405111430161A16813
:101C50002069E26901436069104301432068C2685A
:101C600049F20C639A430A43C26020684169A26941
:101C700021F440711143416131492068884202D00A
:101C80003049884202D1FFF7A9FB01E0FFF796FB3C
:101C9000E2690023192164253226B2F5004F6268FB
:101CA00028D0A0FB0101930F9200FEF7E6FA01464F
:101CB000B0FBF5F06FF01802504301EB800006EB2B
:101CC0000010B0FBF5F000F0F002B1FBF5F002EB14
:101CD0000012B1FBF5F06FF01803584301EB8000E0
:101CE00006EB0010B0FBF5F000F00F002168104487
:101CF000886070BDA0FB010192185B41FEF7BDFA40
:101D00000146B0FBF5F00201B1FBF5F06FF01803EE
:101D1000584301EB800006EBC000B0FBF5F000F08B
:101D2000F80002EB4002B1FBF5F0584301EB8000F4
:101D300006EBC000B0FBF5F000F00700D6E70000AE
:101D400000100140001401402DE9F8431F46904661
:101D50000D460446089E23E0701C21D0FEF706FEC7
:101D6000C01BB0421AD8CEB12068C168490717D548
:101D7000802D15D0402D13D00168C94309070FD419
:101D800001680025406800902046FFF72FFF0820DB
:101D9000606484F840500120BDE8F8830320FBE72D
:101DA0002068006835EA000004D000204045D3D008
:101DB0000020F1E70120F9E710B5D0F8B82200249F
:101DC0005268904700B10324204610BD00207047A0
:101DD00000207047134610B50A46002100F0B8F9FC
:101DE000002010BD134610B50A46002100F050FA3D
:101DF000002010BD10B50446802100F033FA2046C3
:101E0000BDE81040002100F02DBA10B50521C0F842
:101E1000941200231A46194600F09AF9002010BDCA
:101E200010B50223C0F8943282611346C2610A469B
:101E3000002100F02DFA002010BD10B50421C0F8DB
:101E4000941200231A46194600F022FA002010BD11
:101E5000F8B504460020ADF8000048880D46010A98
:101E600008295FD2DFE801F05E0409175E5E3D4598
:101E7000D4F8B412207C0A6819E0207C02260028DD
:101E8000D4F8B80205D0C16A684688470146467052
:101E900039E0816AF8E7C0B2062843D2DFE800F0F3
:101EA000030B1115191DD4F8B402426806E0694607
:101EB0009047014627E0D4F8B40282688AB3207CB8
:101EC000F5E7D4F8B402C268F8E7D4F8B4020269BE
:101ED000F4E7D4F8B4024269F0E7D4F8B4028269B6
:101EE000ECE7207CE8B9D4F8B802416B6846884733
:101EF000DFE7207CA8B9D4F8B802016B68468847B0
:101F0000014607204870EA888AB1BDF8000040B158
:101F1000824200D90246ADF800202046FFF780FF3C
:101F2000F8BDFFE729462046FFF764FFF8E72046A3
:101F3000FFF783FFF4E701004FF0000004D0012910
:101F400001D0022901D0032070470120704710B54D
:101F5000D0F8C802FEF7C7FDBDE81040FFF7EBBFA1
:101F600070B516460446002521B194F89C0203285A
:101F700042D04CE0D4F8941204F11400022935D177
:101F8000D0E90232934206D99A1A8260314620463D
:101F9000FFF728FF0FE09A4214D14068904211D316
:101FA000D4F8981288420DD2002211462046FFF73D
:101FB00019FFC4F8985200231A461946204600F02B
:101FC000C7F813E094F89C02032808D1D4F8B802AB
:101FD000C16821B1C4F8D452C16820468847802125
:101FE000204600F03FF92046FFF70FFF94F8A002CB
:101FF00068B184F8A0520AE0D4F8B802426932B15C
:10200000C4F8D452426920469047002800D10020ED
:1020100070BD70B5134604460A004FF0000004D0AE
:1020200094F89C12032931D03CE0D4F8941204F5C2
:10203000AA72032936D1D2E90215A9420BD9481B4D
:1020400090602A46904200D3104602461946204628
:10205000FFF7C0FE26E094F8AA1211F01F0103D08A
:10206000012902D0022900D0002094F89C120329F3
:1020700008D1D4F8B8120A6922B1C4F8D4020969A7
:10208000204688472046FFF7D8FE0BE0D4F8B81268
:102090008B693BB1C4F8D4028B691146204698473E
:1020A000002800D1002070BD0020704710B500242A
:1020B000012180F89C12D0F8B82222B1526801792F
:1020C000904700B10324204610BD0A0601F07F01AD
:1020D000D0F8C80201EBC10100EB810001D5807D81
:1020E000704790F85602704710B5D0F8D42200EB34
:1020F0008202D2F8B82222B190F89C32032B02D08F
:1021000004E0032010BD126A02B19047002010BD08
:1021100010B5D0F8D42200EB8202D2F8B82222B156
:1021200090F89C32032B02D004E0032010BD526AC9
:1021300002B19047002010BD10B51C461346D0F8E0
:10214000C8022246FEF7FCFCBDE81040FFF7F3BED4
:1021500010B5D0F8C802FEF724FDBDE81040FFF727
:10216000EABE2DE9F04100250126044680F89C6274
:10217000C4F894526560C4F8A45280F8A052D0F814
:10218000B80230B1426822B100212046904700B128
:1021900003250022402311462046FFF7CDFF4027AC
:1021A000A4F864613B46002280212046C4F8607197
:1021B000FFF7C2FFA68428462762BDE8F08190F8A9
:1021C0009C12042903D190F89D1280F89C120020E3
:1021D000704710B590F89C12032905D1D0F8B812B9
:1021E00011B1C96901B18847002010BD01740020F8
:1021F000704710B5D0F8C802FFF70EF8BDE81040E0
:10220000FFF799BE70B5044600F2AA20054600F01B
:1022100048F80120C4F89402B4F8B002C4F8980257
:1022200094F8AA2212F01F000AD001280ED002282A
:1022300012D02046BDE8704002F0800100F012B8D4
:1022400029462046BDE8704000F0AAB8294620463D
:10225000BDE8704000F0EAB929462046BDE870406C
:1022600000F034B910B5D0F8C802FEF7B6FCBDE8EE
:102270001040FFF760BE90F89C12042903D090F83C
:102280009C1280F89D12042180F89C120020704757
:1022900010B5D0F8C802FEF7D9FCBDE81040FFF732
:1022A0004ABE70B5044611F8010B207011F8010BFD
:1022B00060700D460846FFF739FCA91C60800D468A
:1022C0000846FFF733FCA080A81CFFF72FFCE08036
:1022D00070BD03460020D3F8B822002A02D012684D
:1022E00018461047704700002DE9F04188462B4EF4
:1022F0008978002504463170012906D941462046D7
:10230000FFF778FD0320BDE8F08194F89C020227D6
:1023100002280CD003281DD041462046FFF76AFD55
:1023200031782046FFF748FD03252846EBE789B3BF
:1023300020466160FFF7CDFF050004D041462046EE
:10234000FFF758FD1DE02046FFF777FD032084F8D6
:102350009C02EAE7C1B1606888421BD0C1B2204646
:10236000FFF72AFD317820466160FFF7B2FF0500D4
:1023700010D041462046FFF73DFD21792046FFF76A
:102380001BFD84F89C72D0E784F89C722046616043
:10239000FFF712FD2046FFF750FDC6E714000020AE
:1023A0002DE9F0410A78002612F060020CD0202AB4
:1023B00001D0402A7DD1D0F8D42200EB8202D2F89D
:1023C000B8229268904731E04A78002301250A2A12
:1023D0006FD2DFE802F041666E586E08056E2D2957
:1023E000FFF736FD67E004468888D8B9C888C8B9C1
:1023F0004888802816D200F07F0794F89C020328B2
:1024000010D084F89E7239462046FFF7F2FE20462F
:10241000FFF713FD1FB1022084F89C024BE084F803
:102420009C5248E0204644E0FFF75EFF064642E04B
:10243000CA88012A3DD190F89C22012A04D0022AA0
:1024400002D0032A35D104E0012200F108018360A3
:1024500016E00122011D13E090F89C22012A03D00E
:10246000022A01D0032A24D1CA88022A21D1C560B8
:10247000D0F8A41209B10321C160022200F10C01BD
:10248000FFF7CEFC17E04A88012A02D0022A03D0C7
:102490000FE0C0F8A45216E08988090A80F8A0125B
:1024A00011E090F89C22012A08D0022A06D0032AC3
:1024B00004D0FFF79FFC3046BDE8F0814988012930
:1024C000F9D1C0F8A432FFF7B8FCF4E72DE9F041E8
:1024D000054608780C790E464FF0000810F06000B1
:1024E0000BD0202801D040286AD121462846FFF78A
:1024F0006DFCFF2800D0D8B395E07078C8B30128F0
:1025000024D003285CD195F89C02022802D003282D
:1025100056D10CE0002C53D0802C51D021462846B7
:10252000FFF7A0FE80212846FFF79CFE7BE0708825
:1025300040B93CB1802C05D0C88818B9214628463E
:10254000FFF790FE2846FFF778FC6CE095F89C02B8
:102550000228DFD0032863D1708880BB600603D0D7
:1025600021462846FFF7F3FC2846FFF766FCBCE748
:1025700000E00AE0C5F8D402D5F8B8028268F2B1EA
:1025800031462846904780464DE095F89C0200274A
:10259000022802D0032843D113E00CB1802C3FD194
:1025A000200604F07F0000EB800005EB800101D5E0
:1025B000143101E001F5AA7102220F602CE032E033
:1025C0002EE0200604F00F0000EB800005EB8000F9
:1025D00009D5808C20B304F07F0000EB800005EB70
:1025E000800614360AE0B0F86401C8B104F07F0038
:1025F00000EB800005EB800606F5AA764CB1802C36
:1026000007D021462846FFF760FD10B10120306059
:1026100000E03760022231462846FFF701FC02E065
:102620002846FFF7E7FB4046BDE8F08170B5054658
:10263000087800240E4610F0600003D0202801D056
:10264000402827D195F89C02012803D0022801D008
:1026500003281FD1B088C1B201291AD8C1B22846B7
:10266000FFF7B6FBFF280CD058B9D5F8B8128A6826
:102670003AB1C5F8D4028A683146284690470446E4
:1026800000E00324F088204307D12846FFF7D5FB5C
:1026900003E031462846FFF7ADFB204670BD000041
:1026A00070B50A78012302F00F054E78AB401B4C41
:1026B000D0F81C58012E17D045EA0343C0F81C3847
:1026C00000EB4210D0F8002B12040BD4D0F8002BF2
:1026D0000B890979C3F30A031A4344EA81410A4387
:1026E000C0F8002B002070BD9BB21D43C0F81C58E1
:1026F00000EB4210D0F800391B04F3D4D0F80039B5
:102700000D890979C5F30A0589042B4341EA8251F1
:102710000B432343C0F80039E4E7000000800010B9
:10272000D0F800196FF30A01C0F80019D0F80418A6
:1027300041F48071C0F804180020704710B5036C94
:10274000134CA34203D9D0F8003B002B1EDB00231F
:10275000C0F8103BD0F8103B43F40023C0F8103B06
:10276000D0F8103B43F01803C0F8103BD0F8103BF2
:1027700043F0C043C0F8103B012907D1C0F8142B27
:10278000D0F8001B41F08021C0F8001B002010BDD4
:102790000A30544F4A780B78012A00EB43100BD0D3
:1027A000D0F8002B22F40012C0F8002B097903297D
:1027B00014D0022912D017E0D0F8002922F4001218
:1027C000C0F800290979032901D002290CD1D0F8D9
:1027D000001941F08051C0F8001905E0D0F8001B45
:1027E00041F08051C0F8001B002070470A784B78F8
:1027F000D1B200EB4110012B12D0D0F8001B002900
:1028000006DB2AB1D0F8001B21F08041C0F8001B84
:10281000D0F8001B41F40011C0F8001B00207047E5
:10282000D0F80019002906DB2AB1D0F8001921F0F0
:102830008041C0F80019D0F8001941F40011C0F827
:102840000019EBE7F8B50C784F788B4DE3B26FF0D9
:10285000604600EB4313012F29D0D3F8107B6FF3B0
:102860001207C3F8107BD3F8107B2F40C3F8107BFE
:10287000002C7DD00D69002D7BD08C6825446D1E09
:10288000B5FBF4F5ADB26C430C62D3F8104B06EA1D
:10289000C5452C43C3F8104BD3F8104B0D6AC5F354
:1028A00012052C43C3F8104B012A70D0CBE00F69FE
:1028B000EFB1D3F810796FF31207C3F81079D3F89A
:1028C00010792F40C3F810790CB30F698D682F442D
:1028D0007F1EB7FBF5F5D3F81079ADB206EAC54611
:1028E0003743C3F810790E79012E1CD02AE0D3F8B3
:1028F00010692E40C3F81069D3F8105945F400252B
:10290000C3F81059D3F810596FF3120520E00E697F
:102910008D68AE4200D90D61D0F8105945F40026FB
:10292000C0F810690EE0D3F8106926F0C046C3F86D
:102930001069D3F810694FF0C04707EA45752E4378
:10294000C3F81069D3F810590E69C6F3120635435F
:10295000C3F81059012A1BD000EB4413D3F80049E7
:1029600044F00444C3F800490C79012C31D001E053
:1029700044E057E00A695AB3D0F83428097801F0E6
:102980000F03012199400A43C0F8342871E056E052
:10299000CA691AB100EB4413C3F814290979012953
:1029A0000ED1D0F80818C90500EB4411D1F8002960
:1029B00002D442F0005201E042F08052C1F80029F6
:1029C00000EB4410D0F8001941F00441C0F80019A0
:1029D0004FE0D0F80848E405D3F8004902D444F0A9
:1029E000005401E044F08054C3F8004900920A8A80
:1029F00093B20A78C96800F08FF93AE00C690CB11B
:102A00008C680C618C680C62D0F8105BC4F3120403
:102A10002543C0F8105BD0F8104B44F40024C0F8F4
:102A2000104B41E7D3F8104B8D68C5F312052C43CA
:102A3000C3F8104BD3F8104B44F4002432E7CA68B3
:102A40000AB1C3F8142B097901290CD1D0F8080870
:102A5000C005D3F8000B02D440F0005001E040F074
:102A60008050C3F8000BD3F8000B40F00440C3F8CB
:102A7000000B0020F8BD0000FFFF07E038B5002282
:102A800000920B784D7800EB431442F21073012D45
:102A900019D0D4F8005B002D3CDAD4F8005B45F087
:102AA0000065C4F8005B0C7800EB4414D4F8005BBC
:102AB00045F08045C4F8005B009C641C00949C4277
:102AC00021D9012226E0D4F80059002D22DAD4F8C9
:102AD000005945F00065C4F800590C7800EB441427
:102AE000D4F8005945F08045C4F80059009C641C96
:102AF00000949C42E5D80C7800EB4414D4F80049CB
:102B0000002CF3DB06E00C7800EB4414D4F8004B07
:102B1000002CD1DB104638BD18B500244FF070638F
:102B20000094009A521C00929A420CD80269002A22
:102B3000F7DA202242EA8111009401610099491CD0
:102B40000091994201D9032018BD01698906F5D485
:102B5000002018BDD0F8080810F0060004D00228A4
:102B600003D0062801D00F2070470220704740692B
:102B700000F001007047D0F81818D0F81C08084081
:102B800080B27047D0F81818D0F81C080840000C24
:102B9000704710B5D0F81038D0F8342801F00F0481
:102BA00000EB4110E24002F00102D0F8080943EACC
:102BB000C212104010BD00EB4111D1F8081BD0F833
:102BC000140808407047416980690840704730B573
:102BD00003460846940802F00301002203F58053DF
:102BE00003E01D6840F8045B521CA242F9D300299F
:102BF0000BD01C680022D50024FA05F3491E521C94
:102C0000090400F8013B090CF5D130BDD0F80028CB
:102C100022F4FE62C0F80028D0F800284FF4FE63CA
:102C200003EA01110A43C0F80028002070470000A1
:102C3000022A3ED1264A274B0A449A4201D20F214A
:102C400038E0254A254B0A449A4201D20E2131E050
:102C5000234A244B0A449A4201D20D212AE0224AF7
:102C6000224B0A449A4201D20C2123E0204A214BF4
:102C70000A449A4201D20B211CE01F4A1F4B0A440E
:102C80009A4201D20A2115E01D4A1E4B0A449A427B
:102C90000FD31D4A1D4B0A449A4201D2082109E074
:102CA0001B4A11441B4A914201D2072102E006212E
:102CB00000E00921C26822F47052C260C2684FF479
:102CC000705303EA81210A43C2600020704700006C
:102CD000405327FF00350C00401E1BFF40420F00F1
:102CE00000DC0BFF804F1200808CF9FE20D6130011
:102CF00060B6E5FE60E3160000D3CEFE40771B0011
:102D0000C05BB3FEC091210000CA91FE207538005F
:102D1000E05459FEE09C410010B5029C6CB9DB1CEC
:102D20009C0800EB0230002300F5805003E051F8CE
:102D3000042B02605B1CA342F9D3002010BDFEE708
:102D40000907090E002804DB00F1E02080F80014D8
:102D5000704700F00F0000F1E02080F8141D70476C
:102D600030380A2801D20120704700207047FEE762
:102D70004FF0FF30704700F02DB80000FDF704FE63
:102D8000FEF7DCFEFEF7E4FDFEF7F8FD7D220749C5
:102D900007A0FDF7E9FA4FF47A742046FDF7ECFC42
:102DA0008522024906A0FDF7DFFAF6E7F62D0108B5
:102DB0005B25735D2025643A206170700D0A000068
:102DC0005B25735D2025643A206170703435360DC3
:102DD0000A00000001B54FF0FF33012269460248A6
:102DE000FEF764FD009808BD180000204FF0407009
:102DF000E1EE100A70476D61696E0000000000008E
:102E00000000000102030406070809000000000199
:102E1000020304040000080000000000000002009B
:102E200001000010442E01080000002018000000DE
:102E3000C40101085C2E010818000020080E0000E3
:102E4000E001010800000000010000001000000087
:0C2E5000000000000024F400000000005E
:040000050801018964
:00000001FF
