:020000040800F2
:10000000D013002045020008DB210008D1200008A1
:10001000D9210008D50700084D3F00080000000066
:100020000000000000000000000000004F23000856
:10003000190B0008000000004D2300085B23000896
:100040005F0200085F0200085F0200085F0200080C
:100050005F0200085F0200085F0200085F020008FC
:100060005F0200085F0200085F0200085F020008EC
:100070005F0200085F0200085F0200085F020008DC
:100080005F0200085F0200085F0200085F020008CC
:100090005F0200085F0200085F0200085F020008BC
:1000A0005F0200085F0200085F0200085F020008AC
:1000B0005F0200085F0200085F0200085F0200089C
:1000C0005F0200085F0200085F0200085F0200088C
:1000D0005F0200085F0200085F0200085F0200087C
:1000E0005F0200085F0200085F0200085F0200086C
:1000F0005F0200085F0200085F0200085F0200085C
:100100005F0200085F0200085F0200085F0200084B
:100110005F0200085F0200085F0200085F0200083B
:100120005F0200085F0200085F0200085F0200082B
:100130005F0200085F0200085F0200085F0200081B
:100140005F0200085F0200085F020008DD2100086E
:100150005F0200085F0200085F0200085F020008FB
:100160005F0200085F0200085F0200085F020008EB
:100170005F0200085F0200085F0200080000000044
:100180005F0200085F02000800F002F800F047F884
:100190000AA090E8000C82448344AAF10107DA45E2
:1001A00001D100F03CF8AFF2090EBAE80F0013F0ED
:1001B000010F18BFFB1A43F0010318475441000018
:1001C00074410000103A24BF78C878C1FAD85207A9
:1001D00024BF30C830C144BF04680C6070470000C1
:1001E0000023002400250026103A28BF78C1FBD840
:1001F000520728BF30C148BF0B607047642900F028
:10020000EF80782900F02881732900F08282002095
:1002100070471FB504F00EF81FBD10B510BD00F0FB
:10022000A7FA1146FFF7F5FF03F0B4FF00F0C5FA97
:1002300003B4FFF7F2FF03BC03F0A0FE80F30888CD
:10024000704700000948804709480047FEE7FEE77D
:10025000FEE7FEE7FEE7FEE7FEE7FEE7FEE7FEE776
:1002600004480549054A064B70470000F52300087D
:1002700089010008D00D0020D0130020D00F0020ED
:10028000D00F0020704753EA020C00F069802DE97E
:10029000F04B4FF00006002B1FBFB3FA83F503FAB3
:1002A00005F424FA05F65E4012BF1643B2FA82F551
:1002B00002FA05F4C5F120051EBF22FA05FC44EA46
:1002C0000C04203556EA044C4FEA144418BF641C51
:1002D0004FF000084FF00009904271EB030C39D346
:1002E000002919BFB1FA81F701FA07F6B0FA80F7D1
:1002F00000FA07F6C7F120071EBF20FA07FC46EAFE
:100300000C062037B6FBF4FCA7EB0507103F07F0FF
:100310001F0BCBF120060CFA0BFB2CFA06F644BFA0
:10032000B3460026202FA4BF5E464FF0000B5BEAC9
:10033000060C08BF4FF0010B19EB0B09ABFB027C5D
:1003400048EB0608C01B06FB02CC0BFB03CC71EB91
:100350000C01C1E70B46024641464846BDE8F08B1A
:1003600013B54FF000004FF00001AFF30080BDE87F
:100370001C4070470FB4044910B503AA029800F05E
:10038000CDF910BC5DF814FB0000002070B50C46E0
:100390000546012A05D02878800600D5EA690023A1
:1003A00002E0012305E05B1C934202D2E05C0028DE
:1003B000F9D1A869E618C01AA861286A1844286209
:1003C0002846AFF3008004E0D5E9012114F8010BC1
:1003D0009047B442F8D32846AFF3008070BD0000C8
:1003E0002DE9F0410646002410687529314616A50E
:1003F00010D0AFF30080002802DA404213A507E0D6
:1004000031688A0701D512A502E0490704D511A574
:10041000012401E0AFF3008000210A2206F1240745
:1004200009E0B0FBF2FCB0FBF2F302FB1C00303041
:1004300078541846491C0028F3D123462A463046F2
:10044000BDE8F04100F0FAB8000000002D00000007
:100450002B0000002000000070B504460D46214628
:100460001068AFF300802188090502D50F4A7A444D
:1004700002E00E4A7A440E32002104F1240305E022
:1004800000F00F060009965D5E54491C0028F7D164
:1004900020780023000704D5702D02D009B1022373
:1004A00011322046BDE8704000F0C8B8023E00009E
:1004B0002DE9F05F894604464FF0000ADFF824B1C9
:1004C000FB44C0F820A02046E168884700287DD082
:1004D000252806D0D4E901219047206A401C2062DB
:1004E000F1E700255F462046E16888472028064658
:1004F00007DB312E05D2B81910F8200C08B10543DE
:10050000F1E7A80701D525F00405C4F81CA00027D1
:10051000C4F818A02A2E09D0304603F028FD38B3BD
:1005200004EB8708303EC8F8186019E059F8041B3E
:10053000204604EB87029161E1688847012F064657
:1005400018D1E069002820DA25F020051DE0D8F850
:10055000180000EB800006EB40003038C8F81800A7
:100560002046E1688847064603F001FD0028EED1E9
:10057000012F0AD02E2E08D12046E16888477F1C23
:100580000646022F45F02005C4DBA069002803DAE7
:10059000404245F00105A061E80701D025F01005B3
:1005A000A6B1A6F14100192802D8203645F400650D
:1005B0004A463146204625604D46FFF71FFE60B192
:1005C000012807D0ED1D25F0070000E007E000F14D
:1005D000080978E705F1040975E730467AE7206AEB
:1005E000BDE8F09FD83D00004FF0000200B5134673
:1005F00094469646203922BFA0E80C50A0E80C5043
:10060000B1F12001BFF4F7AF090728BFA0E80C50F3
:1006100048BF0CC05DF804EB890028BF40F8042BEC
:1006200008BF704748BF20F8022B11F0804F18BF59
:1006300000F8012B70477047704770472DE9F0476D
:100640000D4699469246044600F124080168880642
:1006500004D5E06921F01001216000E00120A842EA
:1006600001DD471B00E00027A1697A1902EB0900B0
:10067000081AA0612078C00602D42046AFF300809B
:10068000002608E0D4E901211AF806009047206A04
:10069000401C761C20624E45F4DB2078C0060AD54B
:1006A0002046AFF3008006E0D4E9012130209047D6
:1006B000206A401C2062381EA7F10107F4DC07E025
:1006C000D4E9012118F805009047206A401C2062F7
:1006D000281EA5F10105F3DC2046AFF30080207849
:1006E000000602D50220BDE8F0870120FBE710B527
:1006F000436913B1AFF3008001E0FFF747FE01202B
:1007000010BD127800F124010A7000224A70012203
:10071000EDE711684FF0FF32E9E70000074B70B5D5
:100720000D467B4400F011F80446284603F0BCFC5B
:1007300010B14FF0FF3070BD204670BD8939000008
:1007400001694A1C02610878704700B58FB0CDE995
:1007500001310021059105497944CDE90310114685
:100760006846FFF7A5FE0FB000BD0000E5FFFFFFE4
:10077000754600F02BF8AE4605006946534620F05A
:100780000700854618B020B5FFF76AFDBDE8204098
:100790004FF000064FF000074FF000084FF0000B3D
:1007A00021F00701AC46ACE8C009ACE8C009ACE8F0
:1007B000C009ACE8C0098D46704710B50446AFF3D8
:1007C00000802046BDE81040FFF732BD004870476A
:1007D0006C0D0020FEE770B50546D0F8D4020E4639
:1007E00005EB8000D0F8C042D5F8D00202F008F83E
:1007F0000146002C31D000292FD094F81C24022A65
:1008000007D0032A05D0052A03D0062A01D0092AD9
:1008100013D1022284F81C24002084F8140484F8E4
:10082000150484F8160484F8170484F8182484F84E
:100830001904C4F80004C4F804048878000707D534
:10084000284602F076FE2846BDE8704002F0F0BC73
:100850007088BDE8704000F063B970BD0A46D0F8FA
:10086000D41200EB8101D1F8C012002930D0D38816
:10087000002B91F81C3415D0022B01D0052B15D17B
:100880005388C1F80034D2884FF480639A4200D371
:100890001A460323C1F8042481F81C3481F8183463
:1008A00001F0C5BE052B04D0022B02D0114601F089
:1008B000B3BE012081F81D04062281F81C2400200B
:1008C00081F8150481F8160481F8170481F81824BA
:1008D000704770B50646D0F8D40206EB8000D0E928
:1008E000B045D6F8D00201F08BFF002C53D0002D7C
:1008F00051D000284FD094F81C140022032902D0B4
:10090000062940D124E0D4F80404F8B1042084F886
:100910001C0484F8152484F8162484F8172484F819
:100920001804D4F8000410B92078412807D0AB6926
:10093000D4F8080404F214420121984723E0D4F8C3
:10094000080404F214420021AB69F6E7052010E028
:1009500094F81D14012901D039B114E0072084F85E
:100960001C04012184F8151407E0807840070AD59B
:10097000022084F81C0484F8152484F8162484F8D2
:10098000172484F8180404F214413046BDE870407E
:10099000062201F066BE70BD70B50546D0F8D402DF
:1009A00005EB8000D0E9B046D5F8D00201F028FF71
:1009B000002C14D0002E12D0002810D0002184F872
:1009C0001D14807840070BD5062084F81C0484F899
:1009D000151484F8161484F8171484F8180470BDDC
:1009E000082084F81C0484F8151484F8161484F87C
:1009F000171484F81804284602F09BFDBFF34F8FAC
:100A000005480168054A01F4E06111430160BFF344
:100A10004F8F00BFFDE700000CED00E00400FA0579
:100A20002DE9F0410646D0F8D4020D4606EB8000D1
:100A3000D0E9B041002C6DD0E8880027D8B394F8F5
:100A40001C04022806D0092804D0C4F80474C4F891
:100A500000744EE06888C4F80004EA884FF48063AC
:100A60009A4200D31A46C4F8042400B34FF00F088A
:100A7000012834D9092384F81C3484F8157484F8C7
:100A8000167484F8177484F818348002D4F8083483
:100A9000A0F5006018444B692146984701001ED01C
:100AA000D4F804243046BDE8F04101F0DABD032A51
:100AB00002D9022001E022E0092084F81C0484F815
:100AC000157484F8167484F8177484F81804277061
:100AD000212060704120A07003222146E2E784F8C3
:100AE0001C8484F8157484F8167484F8177484F8D8
:100AF000188429463046BDE8F04101F08DBD022042
:100B000084F81C0484F8157484F8167484F8177437
:100B100084F81804BDE8F081704772B6FEE7000063
:100B200070B5044600F086F90546601C02D0044802
:100B30000078044400F07EF9401BA042FAD370BD57
:100B4000780000202DE9F04FDFF8F0A08946002260
:100B50004FF0010B4FF00F0C0BFA02F609EA0603F7
:100B6000B34265D122F003045444D4F80818950721
:100B70002F0F0CFA07F505EA01083149884201D127
:100B8000002123E02F49884201D101211EE02E4996
:100B9000884201D1022119E02C49884201D1032168
:100BA00014E02B49884201D104210FE029498842F1
:100BB00001D105210AE02849884201D1062105E03A
:100BC0002649884201D1072100E00821B94041456A
:100BD00015D1234F3968994339603F1D39689943CE
:100BE00039601F4F0C373968994339603F1F3968A6
:100BF00099433960D4F80818A943C4F80818036861
:100C000054000321A1408B430360D30800EB83030E
:100C10001D6A5407E70E0CFA07F4A5431D62C3686A
:100C20008B43C3604368B343436083688B438360F3
:100C3000521C102A90D3BDE8F08F00000030014014
:100C4000000002400004024000080240000C024084
:100C5000001002400014024000180240001C024034
:100C6000003C01402DE9F84FDFF89C910022A9F1EA
:100C7000040B03274FF00F0C09F1040AABF1040E2B
:100C800001250B6895402B40AB426ED10C7904F0E6
:100C90000304012C01D0022C15D18668540007FAF8
:100CA00004F826EA0806D1F80C8008FA04F848EAA5
:100CB0000608C0F808804468AC430D79C5F30015F8
:100CC0009540254345600C79E443A40708D0C568E6
:100CD000540007FA04F6B5438E68A6402E43C6605A
:100CE0000C7904F00304022C11D1D40800EB840623
:100CF000356A5407E40E0CFA04F825EA0805D1F821
:100D0000108008FA04F848EA0508C6F8208005684B
:100D1000540007FA04F6B5430E7906F00306A64020
:100D20002E4306604C6814F4403F66D0374C25686B
:100D300045F480452560246822F0030504F48044CE
:100D40000094334C05EB0408D8F808589407260F94
:100D50000CFA06F4A5432F4CA04201D1002424E054
:100D60002D4CA04202D101241FE046E02B4CA042B2
:100D700001D1022419E02A4CA04201D1032414E03D
:100D8000284CA04201D104240FE0274CA04201D1FD
:100D900005240AE0254CA04201D1062405E0244C9C
:100DA000A04201D1072400E00824B4402C43C8F835
:100DB0000848D9F800404D464E689C43F60200D5DD
:100DC0001C432C60DAF8004055464E689C43B6023E
:100DD00000D51C432C60DBF800405D464E689C4308
:100DE000B60300D51C432C60DEF8004075464E6803
:100DF0009C43F60300D51C432C60521C102AFFF4C0
:100E00003FAFBDE8F88F0000083C01404438024085
:100E1000003001400000024000040240000802408F
:100E2000000C024000100240001402400018024072
:100E3000001C0240014880687047000078000020D4
:100E40000248816802781144816070477800002070
:100E50000B4810B5016841F400710160016841F46C
:100E600080610160016841F480710160032000F03D
:100E70007FF80F2000F006F800F024F8002010BDE5
:100E8000003C024070B50D4D04464FF47A7128784D
:100E9000B1FBF0F00A490968B1FBF0F001F04CF841
:100EA00048B9102C07D200222146501E00F040F80D
:100EB00000206C6070BD012070BD00007800002033
:100EC000840000200A4808B5016841F480410160AF
:100ED000006800F4804000900548001F016841F060
:100EE00080510160006800F08050009008BD000053
:100EF0004438024000280DDB00F01F020121914020
:100F00004009800000F1E020C0F88011BFF34F8F4E
:100F1000BFF36F8F7047002809DB00F01F0201212B
:100F200091404009800000F1E020C0F800117047B6
:100F3000F0B40E4B1B68C3F30223C3F10704042C67
:100F400000D904241D1D072D01D2002300E0DB1E63
:100F5000012606FA04F56D1E0D409D409E40761E4A
:100F6000164045EA0601F0BC02F0F1BF0CED00E0CE
:100F7000064A00F0070110684FF6FF03184040EAE8
:100F80000120034908431060704700000CED00E0A9
:100F90000000FA0570470068416200207047F0B514
:100FA0000368586A39B19C6A4FF4827500EB1444A7
:100FB00000204E1E0AE040EA024098620FE005EB76
:100FC0008007DF59401C04EB1744C0B2B042F6D38F
:100FD00044EA02404FF4807202EB81015850002035
:100FE000F0BDD0F8E00401F047BF01EBC10200EB17
:100FF0008202D0F8E004126A01F091BE01EBC10256
:1010000000EB8202D0F8E004D2F8602201F0E0BEEA
:1010100010B5040006D0032084F89504206802F07F
:1010200061FF08B1012010BD204600F0F7FB002051
:1010300084F8950410BDD0F8E00401F01FBF0A0643
:1010400001F00F0101EBC10100EB810101D5143169
:1010500001E001F51571006802F0A6BD70B5044607
:1010600001F00F002279904201D9012070BD0B06DA
:1010700001F00F0101EBC10104EB81014FF001020E
:101080004FF0000502D54A75143103E081F855523E
:1010900001F515718D70087094F89404012808D03A
:1010A00084F89424206802F00BFC84F89454002007
:1010B00070BD022070BD2DE9F04104460F0601F01D
:1010C0000F0000EBC00104EB81014FF001064FF06F
:1010D000000502D54E75143103E081F8555201F533
:1010E0001571C2F30A0208708A600B714A7802B166
:1010F0004883022B00D14D7194F89404012809D043
:1011000084F89464206802F027FA284684F89454FE
:10111000BDE8F0810220FBE710B501F00F0404EBFD
:10112000C40100EB8101C1E998230023C1F86832B2
:1011300081F8553281F85442837901F51571012BFC
:1011400000D1CA618279006802F012FC002010BD53
:1011500070B504460D4601F00F002179884201D98F
:10116000012070BD29064FF000064FF0010206D5A0
:1011700000EBC00104EB81014A75143107E005EB77
:10118000C50104EB810181F8556201F515718A7082
:10119000087094F89404012807D084F894242068F7
:1011A00002F0BAFB280702D007E0022070BDA17947
:1011B00004F29C42206802F057FB84F894640020FB
:1011C00070BD10B501F00F0404EBC40100EB810108
:1011D000C1E9082300238B6201234B7501F8144FEA
:1011E0008379012B00D1CA618279006802F0C0FBCB
:1011F000002010BD2DE9F84F05680446284602F08E
:101200006EFD00287DD1206802F095FD002878D081
:10121000D5F80808C0F30D20C4F8D404206802F003
:101220008AFD800704D52068416901F0020141610F
:10123000206802F080FDC10604F29C40009034D585
:101240002068816921F0100181612F6A07F00F0089
:1012500000EBC00004EB8006C7F3434006F51576AB
:10126000022802D0062811D01AE047F6F070074293
:1012700016D0C7F30A1217462846F16802F05FFD40
:10128000F0683844F0607069384408E00822284665
:10129000009902F054FD7069C7F30A1108447061A7
:1012A0002068816941F010018161206802F043FDEE
:1012B00000034FF0010B7AD50026206802F01AFDDA
:1012C0008046DFF878A46FE05FEAC87069D0F1B2B9
:1012D000206802F028FD0746C00707D005EB46113D
:1012E000C1F808BB3146204600F07EFF380722D502
:1012F00005EB46110820C1F8080B2068D0F8409093
:1013000000E018E200EB4610D0F8082BD14505D9D3
:10131000110403D54FF40041C0F8081B204600F02B
:101320000AFBD14507D9A079012804D12068012101
:10133000009A02F099FAF80604D505EB4611102040
:10134000C1F8080BB8071DD56869000605D5D5F8A2
:10135000040840F48061C5F8041806EBC60004EBED
:10136000800090F8571200F51570012905D1002171
:10137000C170F1B2204600F0E7F905EB46110220FA
:10138000C1F8080BB80604D505EB46102021C0F8BB
:10139000081BB80405D505EB46104FF40051C0F802
:1013A000081B4FEA5808761CB8F1000F8CD1206852
:1013B00002F0C1FC40036DD5206802F094FC804629
:1013C000002664E05FEAC8705ED0F1B2206802F0E7
:1013D00098FC0746C00723D006F00F010BFA01F076
:1013E000D5F834188143C5F8341805EB4610C0F819
:1013F00008B9A07901280FD106EBC60004EB8000E4
:10140000D0E907211144016236B9606A20B9206829
:101410000121009A02F028FAF1B22046FFF7E5FD1B
:10142000380704D505EB46110820C1F80809F8066D
:1014300004D505EB46111020C1F80809780604D53B
:1014400005EB46104021C0F80819B80716D53146FB
:10145000284602F019FC06EBC60004EB8000C17DB3
:101460001430012905D10021C170F1B2204600F0ED
:1014700067F905EB46110220C1F80809380603D5C3
:101480003146204600F016FF4FEA5808761CB8F1A6
:10149000000F97D1206802F04EFC002811DAD5F831
:1014A000040820F00101C5F8041894F8CC040128C0
:1014B0002BD0204600F024FA2068416901F0004159
:1014C0004161206802F037FC00050BD5D5F808080B
:1014D000C00702D0204600F07BFA2068416901F481
:1014E00000614161206802F026FCC00467D5D5F890
:1014F000040820F00101C5F804181021206802F04A
:10150000C3FB00214FF67F3220E0002084F8CC049A
:1015100001462046FFF73EFDCEE705EB4110C0F83F
:101520000829D0F8003923F40013C0F80039C0F8B6
:10153000082BD0F8003B23F40013C0F8003BD0F890
:10154000003B43F00063C0F8003B491C207988420F
:10155000E3D8D5F81C0840F00111C5F81C18E07B51
:10156000002828460DD0D0F8840840F00B01C5F8BB
:101570008418D5F8440840F00B012846C5F84418F3
:101580000DE0D0F8140842F22B010843C5F8140806
:10159000D5F8100840F00B012846C5F81018D0F80F
:1015A000000820F4FE61C5F80018A1792068009AAF
:1015B00002F05AF92068416901F4805141612068C4
:1015C00002F0B9FB800415D5206802F005F8206808
:1015D00002F078FBE07100F0ADFA0146E279206894
:1015E00002F00CFC204600F075F92068416901F416
:1015F00000514161206802F09EFB000707D520469C
:1016000000F082F92068416901F008014161206819
:1016100002F091FB000615D5A86920F08001A961B0
:1016200001260CE006EBC60004EB800090F85702A0
:10163000012803D1F1B22046FFF701FD761C207985
:10164000B042EFD8206802F076FBC0021FD5012619
:101650005F4614E005EB4610D0F8001906EBC60013
:1016600004EB8000027E012A08D1002906DAC77542
:10167000F0B240F080012046FFF7E1FC761C2079B3
:10168000B042E7D82068416901F4801141612068C7
:1016900002F051FB800231D501205B4626E005EBCC
:1016A0004011D1F8001B00EBC00204EB820292F85B
:1016B0005862012E19D1002917DA94F8D46401F484
:1016C000803106F00106B1420FD182F85732A96984
:1016D00041F08002AA616969090606D4D5F80408B8
:1016E00040F40070C5F8040803E0401C21798142F1
:1016F000D5D82068416901F400114161206802F0E9
:101700001AFB400007D52046FFF76BFC20684169B3
:1017100001F080414161206802F00DFB40070AD5CD
:1017200020684568680702D52046FFF784FC2068DA
:10173000416829434160BDE8F88F00000A30544FEA
:10174000D0F8E00401F0E9BBD0F8E00401F0F9BB07
:10175000F8B5040005D094F895042668002510B16A
:1017600006E00120F8BD84F89454204600F070F89B
:10177000032084F89504B6F1A04F00D1A57120682C
:1017800002F06CF8207C8DF8000094E80F0001F066
:1017900031FF0226B0BB0021206802F0EFFA88BBBF
:1017A000002101270CE001EBC10004EB800047752C
:1017B0000175C1850576C5610562491CC9B24562DE
:1017C00020798842EFD8002111E001EBC10004EB41
:1017D000800080F8555280F8541280F85852C0F8B2
:1017E0005C52C0F86052491CC9B2C0F864522079FA
:1017F0008842EAD8207C8DF8000094E80F0001F0C0
:1018000075FF10B184F89564ABE7657484F895743E
:10181000206801F05DFF0020F8BD000010B50068F1
:10182000B0F1A04F0ED10848016821F0800101609D
:101830004FF4C0510548FFF785F9BDE8104043203B
:10184000FFF758BB10BD00003438024000000240D2
:1018500010B586B0044614216846FEF7C5FE206820
:10186000B0F1A04F2FD119480021026842F00102C7
:101870000260006800F0010005904FF4C050009035
:101880000220CDE90101032003900A20049069465B
:101890000F48FFF7E7F90D48001D016841F080018E
:1018A00001600A481430016841F480410160006819
:1018B000002200F48040059011464320FFF738FBDA
:1018C0004320FFF728FB06B010BD0000303802406F
:1018D0000000024070B50446C079012570B10228AD
:1018E00001D0FFF71AF92946D4F8E00401F097FB7C
:1018F000D4F8E004BDE8704001F04CBB0025F2E7ED
:10190000D0F8E00401F074BBD0F8E00401F07ABB39
:1019100010B5044690F8940401280AD0012084F8F8
:1019200094046174206802F057FA002084F894044B
:1019300010BD022010BDD0F8E02400F29C411046FA
:1019400001F079BB10B50446006894F8941401299D
:1019500009D0012184F89414C168490609D5617B36
:10196000012902D005E0022010BD816B41F48031D5
:101970008163206802F066F9206801F09BFE002078
:1019800084F8940410BD70B50446056890F894047A
:10199000012813D0012084F89404284601F05EFF4A
:1019A000206801F095FE1021206802F06DF9E868CA
:1019B000400609D5607B012802D005E0022070BDF9
:1019C000A86B20F48030A863002084F8940470BDD4
:1019D00010B50446D0F8E00401F078FB2068D0F898
:1019E000001E41F00101C0F8001EE07A002804D07A
:1019F0000248016841F00601016010BD10ED00E0F1
:101A00002DE9F0470D46040065D0DFF81491D9F8B0
:101A10000000EFB200F00700A84207D289F800707A
:101A2000D9F8000000F00700A84254D120683D4ECC
:101A3000810712D5400703D5306840F4E05030608C
:101A40002078000703D5306840F46040306030688B
:101A5000A16820F0F000084330602078C0072DD046
:101A6000304960680839012812D0022813D00328B1
:101A700011D00968890700292DDA316821F00301A6
:101A800001433160FFF7D6F9804641F2883A0EE013
:101A900009688903EFE709688901ECE7FFF7CAF9EC
:101AA000A0EB0801514502D90320BDE8F08730685A
:101AB000616800F00C00B0EB810FEFD1D9F8001095
:101AC000484601F00701A94207D90770006800F0F5
:101AD0000700A84201D00120E7E72078400705D59C
:101AE0003068E16820F4E050084330602078000757
:101AF00006D53068216920F4604040EAC1003060BA
:101B000000F03EF83168084AC1F30311515CC84047
:101B10000649086006480068FFF7B4F90020C4E7EA
:101B2000003C0240083802405C420008840000206B
:101B30007C000020014800687047000084000020FD
:101B40000448054900680968044AC1F38221515CD0
:101B5000C840704784000020083802406C420008EA
:101B60000448054900680968044AC1F34231515CE0
:101B7000C840704784000020083802406C420008CA
:101B8000154810B5006810F00C01144813D043102C
:101B900004290FD008290ED10F4C241F216801F011
:101BA0003F022168490207D52068C0F38810A0FBD6
:101BB000030106E0184610BD2168C1F38811A1FB9E
:101BC00000010023FEF75FFB2168C1F30141491CBE
:101BD0004900B0FBF1F010BD083802400024F400C9
:101BE0002DE9F84F040075D02078DFF838A3C0073E
:101BF000AAF1040548D00AF104000168C1F381018B
:101C0000012908D00068C0F3810002280AD1DAF85F
:101C10000000400206D52868800335D5606800289A
:101C2000E1D031E06068B0F5803F10D0B0F5A02F72
:101C3000286810D020F480302860286820F48020A4
:101C400028606068A0B1FFF7F5F806460CE0286848
:101C500040F48030F4E740F480202860F7E7FFF795
:101C6000E9F8801B642871D828688003F7D50BE059
:101C7000FFF7E0F8064604E0FFF7DCF8801B642875
:101C8000F1D828688003F7D42078DFF89C92800789
:101C90004FF0000B3DD5A348001D016811F00C0F5B
:101CA00008D00068C0F3810002280AD1DAF80000E9
:101CB000400206D42868800715D5E068012809D1BC
:101CC00011E0E068B8B10120C9F80000FFF7B2F8F0
:101CD000064605E022E1FFF7ADF8801B0228C2D8D6
:101CE00028688007F7D52868216920F0F80040EAC5
:101CF000C10028600DE0C9F800B0FFF79BF8064668
:101D000004E0FFF797F8801B02281FD82868800797
:101D1000F7D42078000722D5824F84486169703754
:101D200071B101210160FFF785F8064604E0FFF775
:101D300081F8801B022809D838688007F7D50EE0A3
:101D4000C0F800B0FFF776F8064605E082E0FFF73E
:101D500071F8801B02287DD838688007F7D4207876
:101D6000400765D56F484FF000083C300068C00060
:101D70000BD46C483C30016841F080510160006830
:101D80004FF0010800F080500090694F3868C0059E
:101D90000FD4386840F480703860FFF74BF806467F
:101DA00004E0FFF747F8801B022853D83868C005C5
:101DB000F7D55C4FA0686C3701280FD0052838682C
:101DC00010D020F001003860386820F0040038603E
:101DD000A068B0B1FFF72EF806460EE0386840F074
:101DE0000100F4E740F004003860F7E7FFF722F85D
:101DF000811B41F28830814263D838688007F5D56D
:101E00000DE0FFF717F8064606E0FFF713F8811B11
:101E100041F28830814254D838688007F5D4B8F14F
:101E2000000F05D03F483C30016821F0805101602F
:101E3000A069B8B33B49091D0968C1F381010229B2
:101E400046D00228584606D0C9F86000FEF7F2FFD7
:101E5000044639E035E04F46C9F86000FEF7EAFF76
:101E6000064604E0FEF7E6FF801B022829D8286812
:101E70008001F7D4D4E907010843A16A2D4A490833
:101E800002EB0141626A41EA8211084394F82C1086
:101E900040EA0161CAF8001001203866FEF7CAFF67
:101EA000044605E03CE0FEF7C5FF001B022808D809
:101EB00028688001F7D533E0FEF7BCFF001B02283D
:101EC00002D90320BDE8F88F28688001F4D427E008
:101ED0000128F7D0DAF80000E26900F480019142AD
:101EE0001CD1226A00F03F01914217D147F6C07120
:101EF000626A0140B1EB821F10D1A26A4FF0FF333A
:101F000000F4403103EB5202B1EB024F06D194F8DA
:101F10002C1000F07060B0EB016F01D00120D1E710
:101F20000020CFE70438024000004742800E4742BD
:101F3000007000400000FFFF10B5401EB0F1807F30
:101F400001D3012010BD4FF0E02460610F21601724
:101F500001F0FDFF0020A06107202061002010BDDE
:101F600070B5040004D094F84100002510B106E0DB
:101F7000012070BD84F84050204600F023F8242052
:101F800084F841002068C16821F40051C1602046F6
:101F900000F066FA2068016921F49041016120682F
:101FA000416921F02A0141612068C16841F4005172
:101FB000C1606564202084F8410084F842006563B4
:101FC000002070BD10B586B0044614216846FEF7A7
:101FD0000BFB14492068884221D113480021026874
:101FE00042F010020260006800F0100005900E48F8
:101FF0001438026842F001020260006800F001003B
:1020000005904FF4C06000900220CDE9010103204B
:1020100003900720049069460448FEF723FE06B0AB
:1020200010BD000000100140443802400000024092
:102030002DE9F843044690F841001F4615460E4628
:10204000202802D00220BDE8F8838EB185B100209F
:102050006064212084F84100FEF7ECFEA5848146EF
:10206000E584A0684FF02008B0F5805F02D003E05F
:102070000120E8E7206910B1354600260EE0002572
:102080000CE08021204600F071FAA0B9BDB115F82E
:10209000010B21684860E08C401EE084E08C4B46D8
:1020A0004FF0000200970028EBD14FF0400120468E
:1020B00000F05CFA40B184F841800320C3E736F8B1
:1020C000020BC0F30800E4E784F841800020BAE77F
:1020D000FEE7F0B500230A24302537261F4610E01E
:1020E000B4EB107F02D905EB107C01E006EB107C0D
:1020F00001F813C001EB430C00015B1C8CF801706C
:10210000DBB29342ECD3F0BD002070470020704753
:102110000020704700207047002070470020704763
:10212000094808B5016841F080010160016801F0CB
:1021300080010091016841F001010160006800F038
:102140000100009008BD0000303802400C4810B576
:102150000A4901604FF4E1314160002181600C22A5
:10216000C160C0E904128161C161FFF7F9FE002876
:1021700003D0BDE81040FEF7D0BC10BD00100140F8
:10218000EC00002010B500220F49104800F0ABFD14
:1021900008B1FEF7C2FC0E490C4800F0C5FF08B1BB
:1021A000FEF7BBFC0B49094800F07CFB08B1FEF7C9
:1021B000B4FC064801F03CF8002803D0BDE810400C
:1021C000FEF7ABBC10BD00000C0000203401002065
:1021D0008C0000205C000020FEE7FEE70148FFF7CE
:1021E00009B80000880800202DE9F041066805467E
:1021F0000C46306C06EB4411D1F8083B95F806C04C
:102200004FF400474FF0200E05F29C42BCF1010F45
:1022100008D0DFF898C0604538D1180431D5C1F82E
:10222000087B3FE0224E5FEA037C04D5B04239D9F7
:102230001804F4D436E05FEA836C02D5C1F808EBE9
:1022400030E013F0280F2DD1B04201D91804E6D4A4
:1022500004EBC40005EB8000D1F8101BD0F87432F9
:10226000C1F31201591AC0F8681200F51570ACB923
:1022700003691BB1C2681144C1600FE001212868E5
:102280000AE098060AD5C1F808EB07E034B9D5F89A
:10229000640218B90021304601F0E6FAE1B228469E
:1022A000FEF7ACFE0020BDE8F08100000A31544F7B
:1022B0000A30544F2DE9F84F0E4601EBC60100EBF2
:1022C00081048146D0F80080D4E909101434884292
:1022D00002D90120BDE8F88F081AA168814200D216
:1022E0000846C01C870808EB461A15E0451AA06886
:1022F000A84200D20546E81C870899F8060000901D
:10230000ABB2F2B24046E16801F00DFEE06828444D
:10231000E060606928446061DAF8180980B2B84268
:1023200005D3D4E90401814201D20028DED1D4E9E9
:102330000401884208D806F00F0101208840D8F82F
:1023400034188143C8F834180020C3E77047704739
:102350000178407841EA00207047FEF771BD000027
:1023600030B593B030216846FEF73EF914210CA831
:10237000FEF73AF91D480025016841F080510160DF
:10238000006800F0805011901948016841F48041C4
:1023900001600068022400F4804011900120009048
:1023A000000401908001CDE9064004200890A82097
:1023B000CDE9090407200B906846FFF711FC08B12E
:1023C00072B6FEE70CA90F2081E831004FF4A0504F
:1023D0000F904FF48050109005210CA8FFF710FBD0
:1023E000002801D072B6FEE713B030BD403802407D
:1023F000007000400548016841F470010160034924
:102400004FF00060803908607047000088ED00E000
:1024100001680C3151E8002F22F4907241E800234A
:10242000002BF5D10168143151E8002F22F0010290
:1024300041E80023002BF5D1016B012909D1016886
:102440000C3151E8002F22F0100241E80023002B4C
:10245000F5D1202180F8421000210163704700006F
:1024600070B5044600680169E26821F440511143E7
:102470000161A1682069E269014360691043014379
:102480002068C26849F20C639A430A43C26020681C
:102490004169A26921F440711143416131492068C9
:1024A000884202D03049884202D1FFF759FB01E04F
:1024B000FFF746FBE2690023192164253226B2F5B5
:1024C000004F626828D0A0FB0101930F9200FDF736
:1024D000DAFE0146B0FBF5F06FF01802504301EB55
:1024E000800006EB0010B0FBF5F000F0F002B1FB4D
:1024F000F5F002EB0012B1FBF5F06FF01803584352
:1025000001EB800006EB0010B0FBF5F000F00F00CF
:1025100021681044886070BDA0FB010192185B41E6
:10252000FDF7B1FE0146B0FBF5F00201B1FBF5F09D
:102530006FF01803584301EB800006EBC000B0FBBE
:10254000F5F000F0F80002EB4002B1FBF5F0584363
:1025500001EB800006EBC000B0FBF5F000F00700D7
:10256000D6E7000000100140001401402DE9F843B7
:102570001F4690460D460446089E23E0701C21D05D
:10258000FEF758FCC01BB0421AD8CEB12068C16813
:10259000490717D5802D15D0402D13D00168C943A8
:1025A00009070FD401680025406800902046FFF716
:1025B0002FFF0820606484F840500120BDE8F883B4
:1025C0000320FBE72068006835EA000004D0002003
:1025D0004045D3D00020F1E70120F9E710B5D0F84D
:1025E000B82200245268904700B10324204610BD51
:1025F0000020704700207047134610B50A4600219E
:1026000000F0BFFC002010BD134610B50A460021A3
:1026100000F069FD002010BD10B50446802100F0D7
:102620003AFD2046BDE81040002100F034BD10B551
:102630000323C0F89432C0F858211346C0F85C2137
:102640000A46002100F09DFC002010BD10B50521B8
:10265000C0F8941200231A46194600F092FC00209C
:1026600010BD10B50223C0F8943282611346C261D6
:102670000A46002100F037FD002010BD10B50421EE
:10268000C0F8941200231A46194600F02CFD0020D1
:1026900010BD70B50446D0F8D40204EB8000D0F829
:1026A000C00228B30025C0F800540221C0F8045429
:1026B00080F81C1480F8145480F81814D4F8D4024C
:1026C00004EB8000D0F8C40280688047D4F8D402BC
:1026D00004EB8000D0F8C00200F038FFD4F8D40238
:1026E00004EB8000C0F8C0520020C4F8BC5270BD9A
:1026F000022070BD002070472DE9FC41D0F8D412B3
:1027000000EB8101D1E9B04334B394F81C140429DF
:1027100002D0072963D036E00A260B27D4F800142C
:102720000025D1B101293DD98802D4F80814A0F5BB
:10273000006001441B69D4F804242046984788B3FC
:1027400084F81C6484F8147484F8155484F81654BE
:1027500084F8175484F8186415E0D4F80414012997
:1027600020D005290AD0C4F804540121ADF8061080
:102770008DF800506946FFF74FFF13E020782128BD
:1027800004D041281ED00320BDE8FC816078A178E8
:1027900000EB0120E17800EB0140217900EB0160C2
:1027A000C4F80804C4F804540320C4F8005484F89E
:1027B0001C0484F8155484F8165484F8175484F8CB
:1027C00018040EE06078A17800EB0120E17800EBBE
:1027D0000140217900EB0160D9688847AFE7FEF737
:1027E000DBF80020D0E700001B2101800048704783
:1027F000C40000200A21018000487047E00000204A
:1028000038B542880178002504468A420DD9ADF8D2
:10281000001005E0694600F02CFA4178212906D025
:102820006188BDF800209142F4D8284638BD05469D
:10283000FBE7000010B504464FF4846000F088FE0A
:10284000002128B3D4F8D42204EB8202C2F8C002DB
:10285000C4F8BC02C0F81014C0F80014104A00F507
:102860008060C0E90112417702220277017541754B
:102870008175C17502764176D4F8D40204EB8000EC
:10288000D0F8C40240688047002800D0032010BD63
:10289000D4F8D40204EB8000C0F8C012022010BDAE
:1028A0000080000839B1D0F8D42200EB8200C0F8D3
:1028B000C412002070470320704700207047F8B50D
:1028C0000446D0F8D4020E4604EB80000025D0F870
:1028D000C0122A46ADF8005031B1337813F06003CE
:1028E00073D0202B70D101E00320F8BD7178022352
:1028F000072969D2DFE801F06204090E12384000AE
:1029000031462046FDF7AAFF9DE031462046FEF7FE
:1029100087F898E02046FDF7DCFF94E0D0F8C0028D
:10292000002813D090F81C140A2910D00A2180F82E
:102930001C140E2380F8143480F8152480F8162413
:1029400080F8172480F8181480F819247BE080F8A8
:102950001C3480F8142480F8152480F8162480F89C
:10296000172480F81834EFE7D0F8C01229B30122F9
:10297000204601F21C413CE0D0F8C002E8B190F8DA
:102980001C14022907D0032905D0052903D00629E4
:1029900001D0092957D180F81C3480F8142480F81C
:1029A000152480F8162480F8172480F8183480F84D
:1029B0001924C0F80024C0F8042444E0314620461D
:1029C000FDF709FF3FE000E038E07078062813D0FB
:1029D00003DC38B1012831D135E00A281DD00B289D
:1029E0002CD123E094F89C02032827D102226946C7
:1029F00011E0FFF736FE26E070882121B1EB102FA1
:102A000021D1D4F8D002FFF7FBFE010016D0F288E6
:102A1000092A00D909222046EBE794F89C020328F2
:102A20000CD10122204601F58261E2E7708810F0A6
:102A3000FF0F03D194F89C22032A06D0314620468A
:102A4000FFF7EAFD03252846F8BDC0B2C1F810041F
:102A5000F9E710B5044600F030FB012084F89C0231
:102A6000D4F8B80218B14268217920469047002076
:102A7000C4F8C402C4F8B402C4F8D0022046BDE8C9
:102A8000104000F0F0B9000010B50A46024903A05A
:102A900000F0F6F8004810BD100400204446552010
:102AA000436F6E6669670000122008800048704717
:102AB0002C00002010B50A46024903A000F0E0F8FF
:102AC000004810BD1004002044465520496E74652E
:102AD000726661636500000004200880004870474A
:102AE0002800002010B50A46024903A000F0C8F8EB
:102AF000004810BD1004002053544D6963726F6587
:102B00006C656374726F6E696373000010B50A467A
:102B1000024903A000F0B4F8004810BD10040020E2
:102B200053544D333220446F776E4C6F61642046AE
:102B300069726D776172652055706461746500001B
:102B400010B51A2008800A480168001D0468001D9D
:102B50000068081809D008220649FFF7BAFA0549A3
:102B6000042210312046FFF7B4FA0248801E10BD3F
:102B7000107AFF1F42000020F8B504460020ADF88F
:102B8000000048880D46010A08295FD2DFE801F0FD
:102B90005E0409175E5E3D45D4F8B412207C0A68D5
:102BA00019E0207C02260028D4F8B80205D0C16ABA
:102BB000684688470146467039E0816AF8E7C0B246
:102BC000062843D2DFE800F0030B1115191DD4F8D5
:102BD000B402426806E069469047014627E0D4F80F
:102BE000B40282688AB3207CF5E7D4F8B402C268E4
:102BF000F8E7D4F8B4020269F4E7D4F8B402426901
:102C0000F0E7D4F8B4028269ECE7207CE8B9D4F8A4
:102C1000B802416B68468847DFE7207CA8B9D4F842
:102C2000B802016B68468847014607204870EA8869
:102C30008AB1BDF8000040B1824200D90246ADF829
:102C400000202046FFF70DFDF8BDFFE7294620468E
:102C5000FFF7E2FCF8E72046FFF710FDF4E700215C
:102C600002E0491CC9B2401C0278002AF9D108468A
:102C700070470A8803781A440A800178084470472C
:102C800070B516460D46002820D00446FFF7E7FF32
:102C9000022101EB40014FF40070814204D820462C
:102CA000FFF7DDFF4000801C308030782870032063
:102CB00068700220002206E02954401CC0B22A5449
:102CC000401CC0B2641C21780029F5D170BD010000
:102CD0004FF0000004D0012901D0022901D00320C7
:102CE00070470120704778B10023C0F8B832C0F8AF
:102CF000C432C0F8D03209B1C0F8B412012180F852
:102D00009C12027000F0CAB80320704710B5D0F8CA
:102D1000C802FEF7A3F9BDE81040FFF7D8BF70B5B1
:102D200016460446002521B194F89C02032842D09F
:102D30004CE0D4F8941204F11400022935D1D0E902
:102D40000232934206D99A1A826031462046FFF732
:102D50005BFC0FE09A4214D14068904211D3D4F842
:102D6000981288420DD2002211462046FFF74CFCF3
:102D7000C4F8985200231A461946204600F001F97B
:102D800013E094F89C02032808D1D4F8B802C16873
:102D900021B1C4F8D452C16820468847802120461A
:102DA00000F079F92046FFF751FC94F8A00268B1D1
:102DB00084F8A0520AE0D4F8B802426932B1C4F8EB
:102DC000D452426920469047002800D1002070BDAF
:102DD00070B5134604460A004FF0000004D094F882
:102DE0009C12032931D03CE0D4F8941204F5AA7265
:102DF000032936D1D2E90215A9420BD9481B9060AC
:102E00002A46904200D31046024619462046FFF754
:102E1000F3FB26E094F8AA1211F01F0103D0012958
:102E200002D0022900D0002094F89C12032908D176
:102E3000D4F8B8120A6922B1C4F8D402096920464C
:102E400088472046FFF71AFC0BE0D4F8B8128B69CC
:102E50003BB1C4F8D4028B6911462046984700283C
:102E600000D1002070BD10B5D0F8C802FEF7D0F830
:102E7000BDE81040FFF72BBF0020704710B50024BD
:102E8000012180F89C12D0F8B82222B15268017951
:102E9000904700B10324204610BD000010B5017812
:102EA00039BB15490222C1F8E004C0F8C8124FF03E
:102EB000A040086004200871CA71002088714A721D
:102EC0008872C87208738873C8730846FEF740FC9E
:102ED00008B1FDF722FE80210748FEF75CF840228A
:102EE00000210548FEF75BF8802201210248FEF729
:102EF00056F8002010BD0000880800200A0601F0E6
:102F00007F01D0F8C80201EBC10100EB810001D5BF
:102F1000807D704790F85602704710B5D0F8D422E3
:102F200000EB8202D2F8B82222B190F89C32032B37
:102F300002D004E0032010BD126A02B190470020C5
:102F400010BD10B5D0F8D42200EB8202D2F8B8221E
:102F500022B190F89C32032B02D004E0032010BD74
:102F6000526A02B19047002010BD10B51C461346AE
:102F7000D0F8C8022246FEF79EF8BDE81040FFF7E1
:102F8000A6BE10B5D0F8C802FEF7C6F8BDE81040DE
:102F9000FFF79DBE2DE9F04100250126044680F88B
:102FA0009C62C4F894526560C4F8A45280F8A052A0
:102FB000D0F8B80230B1426822B1002120469047D3
:102FC00000B103250022402311462046FFF7CDFF24
:102FD0004027A4F864613B46002280212046C4F8C3
:102FE0006071FFF7C2FFA68428462762BDE8F08122
:102FF00090F89C12042903D190F89D1280F89C123D
:103000000020704710B590F89C12032905D1D0F824
:10301000B81211B1C96901B18847002010BD01740F
:103020000020704710B5D0F8C802FEF771FCBDE86B
:103030001040FFF74CBE70B5044600F2AA200546CA
:1030400000F05AF80120C4F89402B4F8B002C4F8B1
:10305000980294F8AA2212F01F000AD001280ED07C
:10306000022812D02046BDE8704002F0800100F036
:1030700012B829462046BDE8704000F0DBB829466A
:103080002046BDE8704000F01BBA29462046BDE846
:10309000704000F065B910B5D0F8C802FEF758F8D6
:1030A000BDE81040FFF713BE10B5D0F8C802FEF718
:1030B00049FCBDE81040FFF70ABE10B5D0F8C802C1
:1030C000FEF761FCBDE81040FFF701BE90F89C12CE
:1030D000042903D090F89C1280F89D12042180F8F6
:1030E0009C120020704710B5D0F8C802FEF769F8AE
:1030F000BDE81040FFF7EBBD70B5044611F8010BB9
:10310000207011F8010B60700D460846FFF720F99A
:10311000A91C60800D460846FFF71AF9A080A81C7C
:10312000FFF716F9E08070BD38B504460020ADF811
:103130000000A1B1C4F8B812D4F8D40204EB8000A6
:10314000D0F8B802C16A19B168468847C4F8D002FD
:10315000D4F8D802401CC4F8D802002038BD03209F
:1031600038BD03460020D3F8B822002A02D01268E6
:1031700018461047704700002DE9F04188462B4E55
:103180008978002504463170012906D94146204638
:10319000FFF742FA0320BDE8F08194F89C02022771
:1031A00002280CD003281DD041462046FFF734FAF0
:1031B00031782046FFF712FA03252846EBE789B35A
:1031C00020466160FFF7CDFF050004D04146204650
:1031D000FFF722FA1DE02046FFF750FA032084F89B
:1031E0009C02EAE7C1B1606888421BD0C1B22046A8
:1031F000FFF7F4F9317820466160FFF7B2FF050070
:1032000010D041462046FFF707FA21792046FFF704
:10321000E5F984F89C72D0E784F89C7220466160DE
:10322000FFF7DCF92046FFF729FAC6E788000020FF
:10323000FFF73ABF2DE9F0410A78002612F060024C
:103240000CD0202A01D0402A7DD1D0F8D42200EB26
:103250008202D2F8B8229268904731E04A7800237F
:1032600001250A2A6FD2DFE802F041666E586E0827
:10327000056E2D29FFF780FC67E004468888D8B9E1
:10328000C888C8B94888802816D200F07F0794F80B
:103290009C02032810D084F89E7239462046FFF71E
:1032A000C1FE2046FFF7EAF91FB1022084F89C0214
:1032B0004BE084F89C5248E0204644E0FFF75CFF76
:1032C000064642E0CA88012A3DD190F89C22012A94
:1032D00004D0022A02D0032A35D104E0012200F1F1
:1032E0000801836016E00122011D13E090F89C2282
:1032F000012A03D0022A01D0032A24D1CA88022A33
:1033000021D1C560D0F8A41209B10321C160022205
:1033100000F10C01FFF7A5F917E04A88012A02D055
:10332000022A03D00FE0C0F8A45216E08988090AE7
:1033300080F8A01211E090F89C22012A08D0022AFD
:1033400006D0032A04D0FFF767F93046BDE8F081C4
:1033500049880129F9D1C0F8A432FFF78FF9F4E7C1
:103360002DE9F041054608780C790E464FF000082B
:1033700010F060000BD0202801D040286AD12146EF
:103380002846FFF735F9FF2800D0D8B395E07078CC
:10339000C8B3012824D003285CD195F89C020228E8
:1033A00002D0032856D10CE0002C53D0802C51D0F1
:1033B00021462846FFF76FFE80212846FFF76BFE67
:1033C0007BE0708840B93CB1802C05D0C88818B922
:1033D00021462846FFF75FFE2846FFF74FF96CE0CD
:1033E00095F89C020228DFD0032863D1708880BB47
:1033F000600603D021462846FFF788FC2846FFF7E1
:103400003DF9BCE700E00AE0C5F8D402D5F8B802FF
:103410008268F2B131462846904780464DE095F8E3
:103420009C020027022802D0032843D113E00CB1EC
:10343000802C3FD1200604F07F0000EB800005EBDC
:10344000800101D5143101E001F5AA7102220F605B
:103450002CE032E02EE0200604F00F0000EB8000AC
:1034600005EB800009D5808C20B304F07F0000EBD1
:10347000800005EB800614360AE0B0F86401C8B19C
:1034800004F07F0000EB800005EB800606F5AA76CD
:103490004CB1802C07D021462846FFF72FFD10B1F4
:1034A0000120306000E03760022231462846FFF7F5
:1034B000D8F802E02846FFF7AFF84046BDE8F081B3
:1034C00070B50546087800240E4610F0600003D061
:1034D000202801D0402827D195F89C02012803D04C
:1034E000022801D003281FD1B088C1B201291AD8FF
:1034F000C1B22846FFF77EF8FF280CD058B9D5F89E
:10350000B8128A683AB1C5F8D4028A6831462846AA
:103510009047044600E00324F088204307D1284662
:10352000FFF7ACF803E031462846FFF775F8204670
:1035300070BD10B50446FFF7C0FDD4F8B8221AB12B
:103540005268217920469047002010BD7047000046
:10355000004870471006002070B50A78012302F079
:103560000F054E78AB401B4CD0F81C58012E17D0DD
:1035700045EA0343C0F81C3800EB4210D0F8002B9A
:1035800012040BD4D0F8002B0B890979C3F30A037A
:103590001A4344EA81410A43C0F8002B002070BD61
:1035A0009BB21D43C0F81C5800EB4210D0F8003904
:1035B0001B04F3D4D0F800390D890979C5F30A0545
:1035C00089042B4341EA82510B432343C0F800395D
:1035D000E4E7000000800010D0F800196FF30A0142
:1035E000C0F80019D0F8041841F48071C0F804182C
:1035F0000020704770B50D460446C2F307200499B9
:103600001E4601281BD0E06840F04000E0602046E4
:1036100000F032F8C6F307210029A16B26D021F46F
:103620008031A163C5F30741012907D1A16841F0A9
:103630000601A160A16841F02001A16070BDA06BEE
:1036400020F48030A063E0680A4A1040E060E0683F
:1036500020F44010E060C8B2012803D1E06840F4D3
:103660008010E060204600F007F8DBE741F480318D
:10367000D7E70000BFFFBDFF08B500234FF0706221
:1036800000930099491C009191420CD801690029CE
:10369000F7DA0093016941F0010101610099491CC9
:1036A0000091914201D9032008BD0169C907F5D1F4
:1036B000002008BDD0F8001E21F00301C0F8001E54
:1036C000D0F8041821F00201C0F804180020704757
:1036D000D0F8001E21F00301C0F8001ED0F8041835
:1036E00041F00201C0F80418002070472DE9F04FA6
:1036F000002604460F4692463046354604EB8001CC
:10370000C1F80451401C0F28F8D3C3F307405FEA07
:10371000000B204613D0806B20F40011A163A06B36
:1037200040F40021A163C4F8005ECAF30720012819
:1037300017D0D4F80018204641F0030118E0D0F863
:10374000040840F00201C4F80418A06B40F4001112
:10375000A163A06B20F40021A163A06B20F4802161
:10376000E0E7380ED4F80018204601D041F00101FE
:10377000C0F80018102100F087FA00B10126204699
:1037800000F066FA00B10126C4F81058C4F81458C5
:10379000C4F81C5800204FF0006C4FF090434FF6D7
:1037A0007F39FAB214E004EB4011D1F80089B8F186
:1037B000000F06DA10B1C1F8003904E0C4F800C9FE
:1037C00001E0C1F80059C1F81059C1F80899401C2E
:1037D0008242E8D8002014E004EB4011D1F8008BBD
:1037E000B8F1000F06DA10B1C1F8003B04E0C4F8EC
:1037F00000CB01E0C1F8005BC1F8105BC1F8089B89
:10380000401C8242E8D8D4F8100820F48071C4F833
:103810001018A5616FF080406061C7F3074018B9C8
:10382000A06940F01000A061A0690A490843A061A6
:10383000CAF3074018B1A06940F00800A061BBF1CD
:10384000010F03D1A06904490843A0613046BDE8D7
:10385000F08F000000383C8004000040816821F0B7
:10386000010181600020704710B5036C134CA34226
:1038700003D9D0F8003B002B1EDB0023C0F8103B1F
:10388000D0F8103B43F40023C0F8103BD0F8103BB5
:1038900043F01803C0F8103BD0F8103B43F0C0438E
:1038A000C0F8103B012907D1C0F8142BD0F8001B39
:1038B00041F08021C0F8001B002010BD0A30544F99
:1038C0004A780B78012A00EB43100BD0D0F8002B7C
:1038D00022F40012C0F8002B0979032914D0022920
:1038E00012D017E0D0F8002922F40012C0F8002905
:1038F0000979032901D002290CD1D0F8001941F02F
:103900008051C0F8001905E0D0F8001B41F080514B
:10391000C0F8001B002070470A784B78D1B200EB4A
:103920004110012B12D0D0F8001B002906DB2AB170
:10393000D0F8001B21F08041C0F8001BD0F8001B1C
:1039400041F40011C0F8001B00207047D0F80019A6
:10395000002906DB2AB1D0F8001921F08041C0F817
:103960000019D0F8001941F40011C0F80019EBE774
:10397000F8B50C784F788B4DE3B26FF0604600EBF2
:103980004313012F29D0D3F8107B6FF31207C3F82C
:10399000107BD3F8107B2F40C3F8107B002C7DD018
:1039A0000D69002D7BD08C6825446D1EB5FBF4F5A8
:1039B000ADB26C430C62D3F8104B06EAC5452C43FC
:1039C000C3F8104BD3F8104B0D6AC5F312052C4306
:1039D000C3F8104B012A70D0CBE00F69EFB1D3F8D8
:1039E00010796FF31207C3F81079D3F810792F40CC
:1039F000C3F810790CB30F698D682F447F1EB7FB95
:103A0000F5F5D3F81079ADB206EAC5463743C3F8E9
:103A100010790E79012E1CD02AE0D3F810692E40BF
:103A2000C3F81069D3F8105945F40025C3F81059AC
:103A3000D3F810596FF3120520E00E698D68AE427D
:103A400000D90D61D0F8105945F40026C0F810696E
:103A50000EE0D3F8106926F0C046C3F81069D3F819
:103A600010694FF0C04707EA45752E43C3F8106947
:103A7000D3F810590E69C6F312063543C3F810592E
:103A8000012A1BD000EB4413D3F8004944F004444E
:103A9000C3F800490C79012C31D001E044E057E033
:103AA0000A695AB3D0F83428097801F00F030121CC
:103AB00099400A43C0F8342871E056E0CA691AB147
:103AC00000EB4413C3F81429097901290ED1D0F869
:103AD0000818C90500EB4411D1F8002902D442F0BE
:103AE000005201E042F08052C1F8002900EB44107E
:103AF000D0F8001941F00441C0F800194FE0D0F8A7
:103B00000848E405D3F8004902D444F0005401E029
:103B100044F08054C3F8004900920A8A93B20A78AC
:103B2000C96800F000FA3AE00C690CB18C680C61CD
:103B30008C680C62D0F8105BC4F312042543C0F803
:103B4000105BD0F8104B44F40024C0F8104B41E750
:103B5000D3F8104B8D68C5F312052C43C3F8104BF6
:103B6000D3F8104B44F4002432E7CA680AB1C3F812
:103B7000142B097901290CD1D0F80808C005D3F815
:103B8000000B02D440F0005001E040F08050C3F838
:103B9000000BD3F8000B40F00440C3F8000B0020EA
:103BA000F8BD0000FFFF07E038B5002200920B7857
:103BB0004D7800EB431442F21073012D19D0D4F864
:103BC000005B002D3CDAD4F8005B45F00065C4F8DA
:103BD000005B0C7800EB4414D4F8005B45F08045A2
:103BE000C4F8005B009C641C00949C4221D9012213
:103BF00026E0D4F80059002D22DAD4F8005945F017
:103C00000065C4F800590C7800EB4414D4F800594E
:103C100045F08045C4F80059009C641C00949C4207
:103C2000E5D80C7800EB4414D4F80049002CF3DB01
:103C300006E00C7800EB4414D4F8004B002CD1DBE8
:103C4000104638BD816841F0010181600020704755
:103C500008B500234FF0706200930099491C009151
:103C600091420AD801690029F7DA10210093016115
:103C70000099491C0091914201D9032008BD0169B6
:103C8000C906F5D4002008BD18B500244FF07063B4
:103C90000094009A521C00929A420CD80269002AA1
:103CA000F7DA202242EA8111009401610099491C4F
:103CB0000091994201D9032018BD01698906F5D404
:103CC000002018BDD0F8080810F0060004D0022823
:103CD00003D0062801D00F207047022070474069AA
:103CE00000F001007047D0F81818D0F81C08084000
:103CF00080B27047D0F81818D0F81C080840000CA3
:103D0000704710B5D0F81038D0F8342801F00F04FF
:103D100000EB4110E24002F00102D0F8080943EA4A
:103D2000C212104010BD00EB4111D1F8081BD0F8B1
:103D3000140808407047416980690840704730B5F1
:103D400003460846940802F00301002203F580535D
:103D500003E01D6840F8045B521CA242F9D300291D
:103D60000BD01C680022D50024FA05F3491E521C12
:103D7000090400F8013B090CF5D130BD70B50546CA
:103D8000C068002420F0C040E860012901D079B16A
:103D900020E0E86840F00050E8600A20FCF7C0FE30
:103DA00068690A3410F0010F10D1C82CF5D30DE06A
:103DB000E86840F08040E8600A20FCF7B1FE6869DE
:103DC0000A3410F0010F01D0C82CF5D3C82C01D053
:103DD000002070BD012070BDD0F8002822F4FE62E2
:103DE000C0F80028D0F800284FF4FE6303EA011160
:103DF0000A43C0F80028002070470000022A3ED184
:103E0000264A274B0A449A4201D20F2138E0254A1C
:103E1000254B0A449A4201D20E2131E0234A244B19
:103E20000A449A4201D20D212AE0224A224B0A4436
:103E30009A4201D20C2123E0204A214B0A449A42A3
:103E400001D20B211CE01F4A1F4B0A449A4201D2A7
:103E50000A2115E01D4A1E4B0A449A420FD31D4AFF
:103E60001D4B0A449A4201D2082109E01B4A114421
:103E70001B4A914201D2072102E0062100E00921FC
:103E8000C26822F47052C260C2684FF4705303EAF1
:103E900081210A43C260002070470000405327FF81
:103EA00000350C00401E1BFF40420F0000DC0BFFE2
:103EB000804F1200808CF9FE20D6130060B6E5FE1C
:103EC00060E3160000D3CEFE40771B00C05BB3FE5C
:103ED000C091210000CA91FE20753800E05459FEBF
:103EE000E09C410010B5044600214FF67F3004EB02
:103EF0004112C2F80809C2F8080B491C0F29F6D371
:103F00000020C4F81008C4F81408C4F81C0820469F
:103F1000FFF79EFE002805D12046BDE81040102185
:103F2000FFF7B2BE10BD10B5029C6CB9DB1C9C083B
:103F300000EB0230002300F5805003E051F8042B21
:103F400002605B1CA342F9D3002010BDFEE7090705
:103F5000090E002804DB00F1E02080F8001470470F
:103F600000F00F0000F1E02080F8141D7047303899
:103F70000A2801D20120704700207047FEE70000A8
:103F80004FF4FA752846FCF7CBFD422219491AA0D6
:103F9000FCF7F0F9492217491AA0FCF7EBF94A227D
:103FA000144925A0FCF7E6F94B22124915A0FCF7AD
:103FB000E1F92E4C2E4E2846FCF7B2FD2068002871
:103FC000F9D000F031F92846FCF7AAFD552209493D
:103FD0000CA0FCF7CFF95622064926A0FCF7CAF937
:103FE0005722044907A0FCF7C5F9304600F062F8F3
:103FF000E1E700004C4200085B25735D2025643A30
:10400000200D0A005B25735D2025643A203D3D3D6F
:104010003D3D3D3D3D3D3D3D3D3D3D3D3D3D3D3DD0
:104020003D3D3D3D3D3D3D3D3D3D3D3D3D3D3D3DC0
:104030003D3D0D0A000000005B25735D2025643ABC
:10404000203D3D3D3D3D3D3D3D2077616974696EBC
:104050006720666F722055706772616465203D3D10
:104060003D3D3D3D3D3D0D0A0000000004000020A7
:10407000000001085B25735D2025643A203D3D3D2D
:104080003D3D3D3D3D2055706772616465202020B7
:10409000436F6D706C65746520203D3D3D3D3D3D39
:1040A0003D3D0D0A000000004FF0FF30704700F06A
:1040B000AFB8000070B5044624221A491AA0FCF7D4
:1040C00059F920682021B1EB106F22D100F07F4315
:1040D0002822144917A0FCF74DF91A4960680840D6
:1040E000A0421DD16420FCF71BFD174D63682E22F2
:1040F0000C4916A06B60FCF73DF92068FCF79EF8B0
:104100003122084919A0FCF735F96868BDE870400C
:104110000047BDE87040372202491AA0FCF72AB9CF
:1041200070BD0000434200085B25735D2025643AA2
:10413000200D0A005B25735D2025643A2025780D4B
:104140000A0000000000FF0F040000205B25735DE3
:104150002025643A2072657365745F48616E646CF3
:104160006572203D20307825780D0A005B25735D4F
:104170002025643A207265736574212121200D0A7F
:10418000000000005B25735D2025643A6572722093
:104190000D0A0000FCF75CFEFEF7E2F8FDF7C0FF39
:1041A000FDF7D4FFFDF7EEFF79220B490BA0FCF7DA
:1041B000E1F8FFF7E5FE7D2207490CA0FCF7DAF8ED
:1041C0004FF47A742046FCF7ABFC852202490BA021
:1041D000FCF7D0F8F6E700003E4200085B25735D6F
:1041E0002025643A20626F6F740D0A005B25735DB1
:1041F0002025643A206170700D0A00005B25735D14
:104200002025643A206170703132330D0A000000BD
:1042100001B54FF0FF33012269460248FDF708FF60
:10422000009808BDEC0000200148FEF712BC000019
:10423000340100204FF04070E1EE100A70476D61CC
:10424000696E006961705F6A756D7000626F6F748E
:104250006C6F616465725F6D61696E0000000000E3
:104260000000000001020304060708090000000026
:1042700001020304303132333435363738394142A4
:1042800043444546403058003031323334353637B8
:104290003839616263646566403078000400000864
:1042A00000000000000000020001000010000000FB
:1042B00040496E7465726E616C20466C6173682053
:1042C00020202F307830383030303030302F3033BD
:1042D0002A3031364B612C30312A3031364B672C45
:1042E00030312A3036344B672C30372A3132384B54
:1042F000672C30342A3031364B672C30312A303637
:10430000344B672C30372A3132384B6700000000BD
:104310003043000800000020EC000000C401000849
:104320001C440008EC000020E4120000E00100083A
:10433000000000000000000000000000A92A0008A2
:10434000D92A0008E52A00080D2B0008412B000897
:10435000892A0008B52A0008040309041201000292
:1043600000000040830411DF00020102030100008D
:104370001A03000000000000000000000000000020
:10438000000000000000000000000000B042000833
:1043900015210008092100080D2100081D21000831
:1043A0001921000811210008010000001000000080
:1043B000000000000024F400000000003528000880
:1043C00093260008BF280008F9260008F5260008F3
:1043D0000000000000000000BB28000800000000F2
:1043E00000000000E9270008E9270008E927000885
:1043F000F527000809021B00010102C03209040070
:104400000000FE01020609210BFF0000041A010052
:0C4410000A06000200000040010000004D
:040000050800018965
:00000001FF
