:020000040800F2
:100000002014012085020008DF250008A121000836
:10001000DD25000801090008394E00080000000035
:10002000000000000000000000000000593200083D
:10003000030900080000000051270008653200088D
:100040009F0200089F0200089F0200089F0200080C
:100050009F0200089F0200089F0200089F020008FC
:100060009F0200089F0200089F0200089F020008EC
:100070009F0200089F0200089F0200089F020008DC
:100080009F0200089F0200089F0200089F020008CC
:100090009F0200089F0200089F0200089F020008BC
:1000A0009F0200089F0200089F0200089F020008AC
:1000B0009F0200089F0200089F0200089F0200089C
:1000C0009F0200089F0200089F0200089F0200088C
:1000D0009F0200089F0200089F0200089F0200087C
:1000E0009F0200089F0200089F0200089F0200086C
:1000F0009F0200089F0200089F0200089F0200085C
:100100009F0200089F0200089F0200089F0200084B
:100110009F0200089F0200089F0200089F0200083B
:100120009F0200089F0200089F0200089F0200082B
:100130009F0200089F0200089F0200089F0200081B
:100140009F0200089F0200089F020008E1250008A6
:100150009F0200089F0200089F0200089F020008FB
:100160009F0200089F0200089F0200089F020008EB
:100170009F0200089F0200089F0200080000000084
:100180009F0200089F02000800F002F800F067F8E4
:100190000AA090E8000C82448344AAF10107DA45E2
:1001A00001D100F05CF8AFF2090EBAE80F0013F0CD
:1001B000010F18BFFB1A43F0010318477C510000E0
:1001C0009C5100000A444FF0000C10F8013B13F062
:1001D000070408BF10F8014B1D1108BF10F8015BA0
:1001E000641E05D010F8016B641E01F8016BF9D193
:1001F00013F0080F1EBF10F8014BAD1C0C1B09D1EA
:100200006D1E58BF01F801CBFAD505E014F8016B5B
:1002100001F8016B6D1EF9D59142D6D370470000ED
:100220000023002400250026103A28BF78C1FBD8FF
:10023000520728BF30C148BF0B607047642900F0E7
:10024000EF80782900F02881732900F0C782002010
:1002500070471FB505F018F81FBD10B510BD00F0B0
:100260001DFB1146FFF7F5FF04F05AFF00F03BFBC2
:1002700003B4FFF7F2FF03BC04F0F6FD80F3088837
:10028000704700000948804709480047FEE7FEE73D
:10029000FEE7FEE7FEE7FEE7FEE7FEE7FEE7FEE736
:1002A00004480549054A064B70470000FD32000826
:1002B00089010008200E01202014012020100120B7
:1002C00020100120704753EA020C00F069802DE9EC
:1002D000F04B4FF00006002B1FBFB3FA83F503FA73
:1002E00005F424FA05F65E4012BF1643B2FA82F511
:1002F00002FA05F4C5F120051EBF22FA05FC44EA06
:100300000C04203556EA044C4FEA144418BF641C10
:100310004FF000084FF00009904271EB030C39D305
:10032000002919BFB1FA81F701FA07F6B0FA80F790
:1003300000FA07F6C7F120071EBF20FA07FC46EABD
:100340000C062037B6FBF4FCA7EB0507103F07F0BF
:100350001F0BCBF120060CFA0BFB2CFA06F644BF60
:10036000B3460026202FA4BF5E464FF0000B5BEA89
:10037000060C08BF4FF0010B19EB0B09ABFB027C1D
:1003800048EB0608C01B06FB02CC0BFB03CC71EB51
:100390000C01C1E70B46024641464846BDE8F08BDA
:1003A00013B54FF000004FF00001AFF30080BDE83F
:1003B0001C4070470FB4044910B503AA029800F01E
:1003C00011FA10BC5DF814FB0000002070B50C465B
:1003D0000546012A05D02878800600D5EA69002361
:1003E00002E0012305E05B1C934202D2E05C00289E
:1003F000F9D1A869E618C01AA861286A18442862C9
:100400002846AFF3008004E0D5E9012114F8010B80
:100410009047B442F8D32846AFF3008070BD000087
:100420002DE9F0410646002410687529314616A5CD
:1004300010D0AFF30080002802DA404213A507E095
:1004400031688A0701D512A502E0490704D511A534
:10045000012401E0AFF3008000210A2206F1240705
:1004600009E0B0FBF2FCB0FBF2F302FB1C00303001
:1004700078541846491C0028F3D123462A463046B2
:10048000BDE8F04100F03FB9000000002D00000081
:100490002B0000002000000070B504460D462146E8
:1004A0001068AFF300802188090502D50F4A7A440D
:1004B00002E00E4A7A440E32002104F1240305E0E2
:1004C00000F00F060009965D5E54491C0028F7D124
:1004D00020780023000704D5702D02D009B1022333
:1004E00011322046BDE8704000F00DB94B4E0000BF
:1004F0002DE9F05F894604464FF0000ADFF824B189
:10050000FB44C0F820A02046E168884700287DD041
:10051000252806D0D4E901219047206A401C20629A
:10052000F1E700255F462046E16888472028064617
:1005300007DB312E05D2B81910F8200C08B105439D
:10054000F1E7A80701D525F00405C4F81CA0002791
:10055000C4F818A02A2E09D0304604F07EFC38B327
:1005600004EB8708303EC8F8186019E059F8041BFE
:10057000204604EB87029161E1688847012F064617
:1005800018D1E069002820DA25F020051DE0D8F810
:10059000180000EB800006EB40003038C8F8180067
:1005A0002046E1688847064604F057FC0028EED153
:1005B000012F0AD02E2E08D12046E16888477F1CE3
:1005C0000646022F45F02005C4DBA069002803DAA7
:1005D000404245F00105A061E80701D025F0100573
:1005E000A6B1A6F14100192802D8203645F40065CD
:1005F0004A463146204625604D46FFF71FFE60B152
:10060000012807D0ED1D25F0070000E007E000F10C
:10061000080978E705F1040975E730467AE7206AAA
:10062000BDE8F09F214E0000032A40F2308010F018
:10063000030C00F0158011F8013BBCF1020F62447D
:1006400098BF11F801CB00F8013B38BF11F8013B0E
:10065000A2F1040298BF00F801CB38BF00F8013BBB
:1006600011F0030300F0D080083AC0F0088051F880
:10067000043B083A51F804CBA0E80810F5E7121D36
:100680005CBF51F8043B40F8043BAFF30080D20755
:1006900024BF11F8013B11F801CB48BF11F8012B21
:1006A00024BF00F8013B00F801CB48BF00F8012B44
:1006B00070474FF0000200B5134694469646203925
:1006C00022BFA0E80C50A0E80C50B1F12001BFF40B
:1006D000F7AF090728BFA0E80C5048BF0CC05DF871
:1006E00004EB890028BF40F8042B08BF704748BFBF
:1006F00020F8022B11F0804F18BF00F8012B704733
:100700007047704770472DE9F0470D46994692466D
:10071000044600F124080168880604D5E06921F048
:100720001001216000E00120A84201DD471B00E02C
:100730000027A1697A1902EB0900081AA061207844
:10074000C00602D42046AFF30080002608E0D4E9BA
:1007500001211AF806009047206A401C761C20628E
:100760004E45F4DB2078C0060AD52046AFF3008062
:1007700006E0D4E9012130209047206A401C206225
:10078000381EA7F10107F4DC07E0D4E9012118F8CD
:1007900005009047206A401C2062281EA5F1010533
:1007A000F3DC2046AFF300802078000602D502205B
:1007B000BDE8F0870120FBE710B5436913B1AFF343
:1007C000008001E0FFF702FE012010BD127800F169
:1007D00024010A7000224A700122EDE711684FF0EF
:1007E000FF32E9E7074B70B50D467B4400F043F854
:1007F0000446284604F0CEFB10B14FF0FF3070BD28
:10080000204670BD4F48000010B5203AC0F00B8064
:10081000B1E81850203AA0E81850B1E81850A0E804
:100820001850BFF4F5AF5FEA027C24BFB1E818505E
:10083000A0E8185044BF18C918C0BDE810405FEACE
:10084000827C24BF51F8043B40F8043B08BF70474A
:10085000D20728BF31F8023B48BF11F8012B28BF4F
:1008600020F8023B48BF00F8012B704701694A1C81
:1008700002610878704700B58FB0CDE901310021E1
:10088000059105497944CDE9031011466846FFF703
:100890002FFE0FB000BD0000E5FFFFFF754600F022
:1008A0002BF8AE4605006946534620F00700854602
:1008B00018B020B5FFF7F4FCBDE820404FF000066B
:1008C0004FF000074FF000084FF0000B21F0070138
:1008D000AC46ACE8C009ACE8C009ACE8C009ACE87B
:1008E000C0098D46704710B50446AFF3008020461E
:1008F000BDE81040FFF7BCBC00487047BC0D0120AC
:10090000FEE7704772B6FEE7002229B101291AD02E
:1009100002291BD04FF440720E490B6823F4407338
:100920000B600B6813430B600A6822F0F8020A6040
:100930000A68022303EBC00002430A60086840F41F
:100940008030086070474FF48072E5E74FF4007222
:10095000E2E70000103C0240064A136823F44073AB
:10096000136013681360136843F001031360017090
:1009700070470000103C0240094910B50C6824F48F
:1009800040740C600C6844F440740C600C6844F0D3
:1009900001040C600260BFF36F8F436010BD000064
:1009A000103C0240074A136823F440731360136835
:1009B00043F480731360136843F0010313600180F4
:1009C00070470000103C0240074A136823F440734C
:1009D0001360136843F400731360136843F001035A
:1009E0001360016070470000103C0240174908681E
:1009F000C206174805D5C26942F01002C261102232
:100A00000A600A68920605D5C26942F00802C2610E
:100A100020220A600A68520605D5C26942F0040223
:100A2000C26140220A600A68120605D5C26942F016
:100A30000202C26180220A600A68920705D5C26973
:100A400042F02002C2610220086070470C3C024064
:100A50009C0D012070B5114904460020C86100F0CA
:100A600009FA05460E4E09E0601C07D024B100F0DB
:100A700001FA401BA04201D9032070BD3068C003B9
:100A8000F2D43068C00701D001203060306810F027
:100A9000F200F2D0FFF7AAFF012070BD9C0D0120EB
:100AA0000C3C024070B5044600F0E4F90546601CB9
:100AB00002D004480078044400F0DCF9401BA04256
:100AC000FAD370BD880001200348016841F000415D
:100AD0000160002070470000103C02402DE9F04703
:100AE0001B4E05461446307E1F468946012808D015
:100AF000012030764CF250384046FFF7ABFF18B17A
:100B000014E00220BDE8F0879DB1012D16D0022D22
:100B100019D022463B464846FFF72EFF4046FFF7D6
:100B200099FF0C490A6822F001020A60002131761F
:100B3000E8E7E1B24846FFF70FFFEFE7A1B248460A
:100B4000FFF730FFEAE721464846FFF73DFFE5E7BC
:100B50009C0D0120103C0240074900200A68002A31
:100B600009DA054A054B0C3A1360054B1360096816
:100B7000002900DA01207047103C0240230167453C
:100B8000AB89EFCD2DE9F04FDFF8F0A089460022C8
:100B90004FF0010B4FF00F0C0BFA02F609EA0603B7
:100BA000B34265D122F003045444D4F808189507E1
:100BB0002F0F0CFA07F505EA01083149884201D1E7
:100BC000002123E02F49884201D101211EE02E4956
:100BD000884201D1022119E02C49884201D1032128
:100BE00014E02B49884201D104210FE029498842B1
:100BF00001D105210AE02849884201D1062105E0FA
:100C00002649884201D1072100E00821B940414529
:100C100015D1234F3968994339603F1D396899438D
:100C200039601F4F0C373968994339603F1F396865
:100C300099433960D4F80818A943C4F80818036820
:100C400054000321A1408B430360D30800EB8303CE
:100C50001D6A5407E70E0CFA07F4A5431D62C3682A
:100C60008B43C3604368B343436083688B438360B3
:100C7000521C102A90D3BDE8F08F000000300140D4
:100C8000000002400004024000080240000C024044
:100C9000001002400014024000180240001C0240F4
:100CA000003C01402DE9F84FDFF89C910022A9F1AA
:100CB000040B03274FF00F0C09F1040AABF1040EEB
:100CC00001250B6895402B40AB426ED10C7904F0A6
:100CD0000304012C01D0022C15D18668540007FAB8
:100CE00004F826EA0806D1F80C8008FA04F848EA65
:100CF0000608C0F808804468AC430D79C5F30015B8
:100D00009540254345600C79E443A40708D0C568A5
:100D1000540007FA04F6B5438E68A6402E43C66019
:100D20000C7904F00304022C11D1D40800EB8406E2
:100D3000356A5407E40E0CFA04F825EA0805D1F8E0
:100D4000108008FA04F848EA0508C6F8208005680B
:100D5000540007FA04F6B5430E7906F00306A640E0
:100D60002E4306604C6814F4403F66D0374C25682B
:100D700045F480452560246822F0030504F480448E
:100D80000094334C05EB0408D8F808589407260F54
:100D90000CFA06F4A5432F4CA04201D1002424E014
:100DA0002D4CA04202D101241FE046E02B4CA04272
:100DB00001D1022419E02A4CA04201D1032414E0FD
:100DC000284CA04201D104240FE0274CA04201D1BD
:100DD00005240AE0254CA04201D1062405E0244C5C
:100DE000A04201D1072400E00824B4402C43C8F8F5
:100DF0000848D9F800404D464E689C43F60200D59D
:100E00001C432C60DAF8004055464E689C43B602FD
:100E100000D51C432C60DBF800405D464E689C43C7
:100E2000B60300D51C432C60DEF8004075464E68C2
:100E30009C43F60300D51C432C60521C102AFFF47F
:100E40003FAFBDE8F88F0000083C01404438024045
:100E5000003001400000024000040240000802404F
:100E6000000C024000100240001402400018024032
:100E7000001C024001488068704700008800012083
:100E8000024881680278114481607047880001201F
:100E90000B4810B5016841F400710160016841F42C
:100EA00080610160016841F480710160032000F0FD
:100EB0007FF80F2000F006F800F024F8002010BDA5
:100EC000003C024070B50D4D04464FF47A7128780D
:100ED000B1FBF0F00A490968B1FBF0F001F094F8B9
:100EE00048B9102C07D200222146501E00F040F8CD
:100EF00000206C6070BD012070BD000088000120E2
:100F0000940001200A4808B5016841F4804101605D
:100F1000006800F4804000900548001F016841F01F
:100F200080510160006800F08050009008BD000012
:100F30004438024000280DDB00F01F0201219140DF
:100F40004009800000F1E020C0F88011BFF34F8F0E
:100F5000BFF36F8F7047002809DB00F01F020121EB
:100F600091404009800000F1E020C0F80011704776
:100F7000F0B40E4B1B68C3F30223C3F10704042C27
:100F800000D904241D1D072D01D2002300E0DB1E23
:100F9000012606FA04F56D1E0D409D409E40761E0A
:100FA000164045EA0601F0BC03F047BF0CED00E037
:100FB000064A00F0070110684FF6FF03184040EAA8
:100FC0000120034908431060704700000CED00E069
:100FD0000000FA0570470068416200207047F0B5D4
:100FE0000368586A39B19C6A4FF4827500EB144467
:100FF00000204E1E0AE040EA024098620FE005EB36
:101000008007DF59401C04EB1744C0B2B042F6D34E
:1010100044EA02404FF4807202EB810158500020F4
:10102000F0BDD0F8E00402F0DBBC01EBC10200EB44
:101030008202D0F8E004126A02F025BC01EBC10282
:1010400000EB8202D0F8E004D2F8602202F074BC17
:1010500010B5040006D0032084F89504206803F03E
:10106000B7FE08B1012010BD204600F03FFC002073
:1010700084F8950410BDD0F8E00402F0B3BC0A0671
:1010800001F00F0101EBC10100EB810101D5143129
:1010900001E001F51571006803F0FCBC70B5044671
:1010A0000B0601F00F0000EBC00104EB81014FF0D3
:1010B00001024FF0000502D54A75143103E081F8B2
:1010C000555201F51571087094F89404012808D060
:1010D00084F89424206803F0FBF984F894540020E9
:1010E00070BD022070BD70B5044601F00F0022797A
:1010F000904201D9012070BD0B0601F00F0101EBF8
:10110000C10104EB81014FF001024FF0000502D54F
:101110004A75143103E081F8555201F515718D704F
:10112000087094F89404012808D084F89424206866
:1011300003F03CFB84F89454002070BD022070BD85
:1011400010B5044690F8940401280AD0012084F8D0
:101150009404080607D501F00F01206803F00AFD8A
:1011600004E0022010BD206803F0E8FC002084F8B1
:10117000940410BD01F00F0101EBC10100EB8100EF
:10118000D0F8680270472DE9F04104460F0601F0DF
:101190000F0000EBC00104EB81014FF001064FF09E
:1011A000000502D54E75143103E081F8555201F562
:1011B0001571C2F30A0208708A600B714A7802B195
:1011C0004883022B00D14D7194F89404012809D072
:1011D00084F89464206803F0CDF8284684F8945489
:1011E000BDE8F0810220FBE710B501F00F0404EB2D
:1011F000C40100EB8101C1E998230023C1F86832E2
:1012000081F8553281F85442837901F51571012B2B
:1012100000D1CA618279006803F020FB002010BD74
:1012200070B504460D4601F00F002179884201D9BE
:10123000012070BD29064FF000064FF0010206D5CF
:1012400000EBC00104EB81014A75143107E005EBA6
:10125000C50104EB810181F8556201F515718A70B1
:10126000087094F89404012807D084F89424206826
:1012700003F0C8FA280702D007E0022070BDA17968
:1012800004F29C42206803F065FA84F8946400201C
:1012900070BD10B501F00F0404EBC40100EB810137
:1012A000C1E9082300238B6201234B7501F8144F19
:1012B0008379012B00D1CA618279006803F0CEFAEC
:1012C000002010BD2DE9F84F05680446284603F0BC
:1012D0007CFC00287DD1206803F0A3FC002878D096
:1012E000D5F80808C0F30D20C4F8D404206803F032
:1012F00098FC800704D52068416901F00201416132
:10130000206803F08EFCC10604F29C40009034D5A6
:101310002068816921F0100181612F6A07F00F00B8
:1013200000EBC00004EB8006C7F3434006F51576DA
:10133000022802D0062811D01AE047F6F0700742C2
:1013400016D0C7F30A1217462846F16803F06DFC61
:10135000F0683844F0607069384408E00822284694
:10136000009903F062FC7069C7F30A1108447061C8
:101370002068816941F010018161206803F051FC0F
:1013800000034FF0010B7AD50026206803F028FCFB
:101390008046DFF878A46FE05FEAC87069D0F1B2E8
:1013A000206803F036FC0746C00707D005EB46115E
:1013B000C1F808BB3146204601F018F9380722D59C
:1013C00005EB46110820C1F8080B2068D0F84090C2
:1013D00000E018E200EB4610D0F8082BD14505D903
:1013E000110403D54FF40041C0F8081B204600F05B
:1013F0000AFBD14507D9A079012804D12068012131
:10140000009A03F0A7F9F80604D505EB4611102061
:10141000C1F8080BB8071DD56869000605D5D5F8D1
:10142000040840F48061C5F8041806EBC60004EB1C
:10143000800090F8571200F51570012905D10021A0
:10144000C170F1B2204600F0E7F905EB4611022029
:10145000C1F8080BB80604D505EB46102021C0F8EA
:10146000081BB80405D505EB46104FF40051C0F831
:10147000081B4FEA5808761CB8F1000F8CD1206881
:1014800003F0CFFB40036DD5206803F0A2FB80463C
:10149000002664E05FEAC8705ED0F1B2206803F015
:1014A000A6FB0746C00723D006F00F010BFA01F098
:1014B000D5F834188143C5F8341805EB4610C0F848
:1014C00008B9A07901280FD106EBC60004EB800013
:1014D000D0E907211144016236B9606A20B9206859
:1014E0000121009A03F036F9F1B22046FFF79DFD85
:1014F000380704D505EB46110820C1F80809F8069D
:1015000004D505EB46111020C1F80809780604D56A
:1015100005EB46104021C0F80819B80716D531462A
:10152000284603F027FB06EBC60004EB8000C17DD4
:101530001430012905D10021C170F1B2204600F01C
:1015400067F905EB46110220C1F80809380603D5F2
:101550003146204601F0B0F84FEA5808761CB8F141
:10156000000F97D1206803F05CFB002811DAD5F852
:10157000040820F00101C5F8041894F8CC040128EF
:101580002BD0204600F024FA2068416901F0004188
:101590004161206803F045FB00050BD5D5F808082C
:1015A000C00702D0204600F07BFA2068416901F4B0
:1015B00000614161206803F034FBC00467D5D5F8B1
:1015C000040820F00101C5F804181021206803F078
:1015D000D1FA00214FF67F3220E0002084F8CC04BD
:1015E00001462046FFF7F6FCCEE705EB4110C0F8B8
:1015F0000829D0F8003923F40013C0F80039C0F8E6
:10160000082BD0F8003B23F40013C0F8003BD0F8BF
:10161000003B43F00063C0F8003B491C207988423E
:10162000E3D8D5F81C0840F00111C5F81C18E07B80
:10163000002828460DD0D0F8840840F00B01C5F8EA
:101640008418D5F8440840F00B012846C5F8441822
:101650000DE0D0F8140842F22B010843C5F8140835
:10166000D5F8100840F00B012846C5F81018D0F83E
:10167000000820F4FE61C5F80018A1792068009ADE
:1016800003F068F82068416901F4805141612068E5
:1016900003F0C7FA800415D5206802F0ABFE20687D
:1016A00003F086FAE07100F0ADFA0146E2792068B5
:1016B00003F01AFB204600F075F92068416901F437
:1016C00000514161206803F0ACFA000707D52046BD
:1016D00000F082F92068416901F008014161206849
:1016E00003F09FFA000615D5A86920F08001A961D2
:1016F00001260CE006EBC60004EB800090F85702D0
:10170000012803D1F1B22046FFF7B9FC761C2079FD
:10171000B042EFD8206803F084FAC0021FD501263A
:101720005F4614E005EB4610D0F8001906EBC60042
:1017300004EB8000027E012A08D1002906DAC77571
:10174000F0B240F080012046FFF799FC761C20792A
:10175000B042E7D82068416901F4801141612068F6
:1017600003F05FFA800231D501205B4626E005EBED
:101770004011D1F8001B00EBC00204EB820292F88A
:101780005862012E19D1002917DA94F8D46401F4B3
:10179000803106F00106B1420FD182F85732A969B3
:1017A00041F08002AA616969090606D4D5F80408E7
:1017B00040F40070C5F8040803E0401C2179814220
:1017C000D5D82068416901F400114161206803F017
:1017D00028FA400007D52046FFF723FC206841691E
:1017E00001F080414161206803F01BFA40070AD5EF
:1017F00020684568680702D52046FFF73CFC206852
:10180000416829434160BDE8F88F00000A30544F19
:10181000D0F8E00402F041B9D0F8E00402F051B988
:10182000F8B5040005D094F895042668002510B199
:1018300006E00120F8BD84F89454204600F070F8CA
:10184000032084F89504B6F1A04F00D1A57120685B
:1018500002F07AFF207C8DF8000094E80F0002F07F
:10186000D7FD0226B0BB0021206803F0FDF988BB3C
:10187000002101270CE001EBC10004EB800047755B
:101880000175C1850576C5610562491CC9B245620D
:1018900020798842EFD8002111E001EBC10004EB70
:1018A000800080F8555280F8541280F85852C0F8E1
:1018B0005C52C0F86052491CC9B2C0F86452207929
:1018C0008842EAD8207C8DF8000094E80F0002F0EE
:1018D00083FE10B184F89564ABE7657484F8957461
:1018E000206802F06BFE0020F8BD000010B5006813
:1018F000B0F1A04F0ED10848016821F080010160CD
:101900004FF4C0510548FFF73DF9BDE810404320B2
:10191000FFF710BB10BD0000343802400000024049
:1019200010B586B0044614216846FEF7C2FE206852
:10193000B0F1A04F2FD119480021026842F00102F6
:101940000260006800F0010005904FF4C050009064
:101950000220CDE90101032003900A20049069468A
:101960000F48FFF79FF90D48001D016841F0800105
:1019700001600A481430016841F480410160006848
:10198000002200F48040059011464320FFF7F0FA52
:101990004320FFF7E0FA06B010BD000030380240E7
:1019A0000000024070B50446C079012570B10228DC
:1019B00001D0FEF7A7FF2946D4F8E00402F0EFF8C3
:1019C000D4F8E004BDE8704002F0A4B80025F2E7C6
:1019D000D0F8E00402F0CCB8D0F8E00402F0D2B8BD
:1019E00010B5044690F8940401280AD0012084F828
:1019F00094046174206803F065F9002084F894046D
:101A000010BD022010BDD0F8E02400F29C41104629
:101A100002F0D1B810B50446006894F89414012976
:101A200009D0012184F89414C168490609D5617B65
:101A3000012902D005E0022010BD816B41F4803104
:101A40008163206803F074F8206802F0A9FD00208B
:101A500084F8940410BD70B50446056890F89404A9
:101A6000012813D0012084F89404284602F06CFE6B
:101A7000206802F0A3FD1021206803F07BF8E868DD
:101A8000400609D5607B012802D005E0022070BD28
:101A9000A86B20F48030A863002084F8940470BD03
:101AA00010B50446D0F8E00402F0D0F82068D0F871
:101AB000001E41F00101C0F8001EE07A002804D0A9
:101AC0000248016841F00601016010BD10ED00E020
:101AD0002DE9F0470D46040065D0DFF81491D9F8E0
:101AE0000000EFB200F00700A84207D289F80070AA
:101AF000D9F8000000F00700A84254D120683D4EFC
:101B0000810712D5400703D5306840F4E0503060BB
:101B10002078000703D5306840F4604030603068BA
:101B2000A16820F0F000084330602078C0072DD075
:101B3000304960680839012812D0022813D00328E0
:101B400011D00968890700292DDA316821F00301D5
:101B500001433160FFF78EF9804641F2883A0EE08A
:101B600009688903EFE709688901ECE7FFF782F963
:101B7000A0EB0801514502D90320BDE8F087306889
:101B8000616800F00C00B0EB810FEFD1D9F80010C4
:101B9000484601F00701A94207D90770006800F024
:101BA0000700A84201D00120E7E72078400705D5CB
:101BB0003068E16820F4E050084330602078000786
:101BC00006D53068216920F4604040EAC1003060E9
:101BD00000F03EF83168084AC1F30311515CC84077
:101BE0000649086006480068FFF76CF90020C4E762
:101BF000003C024008380240E552000894000120F1
:101C00008C0001200148006870470000940001200A
:101C10000448054900680968044AC1F38221515CFF
:101C2000C84070479400012008380240F55200086F
:101C30000448054900680968044AC1F34231515C0F
:101C4000C84070479400012008380240F55200084F
:101C5000154810B5006810F00C01144813D043105B
:101C600004290FD008290ED10F4C241F216801F040
:101C70003F022168490207D52068C0F38810A0FB05
:101C8000030106E0184610BD2168C1F38811A1FBCD
:101C900000010023FEF717FB2168C1F30141491C35
:101CA0004900B0FBF1F010BD083802400024F400F8
:101CB0002DE9F84F040075D02078DFF838A3C0076D
:101CC000AAF1040548D00AF104000168C1F38101BA
:101CD000012908D00068C0F3810002280AD1DAF88F
:101CE0000000400206D52868800335D560680028CA
:101CF000E1D031E06068B0F5803F10D0B0F5A02FA2
:101D0000286810D020F480302860286820F48020D3
:101D100028606068A0B1FFF7ADF806460CE02868BF
:101D200040F48030F4E740F480202860F7E7FFF7C4
:101D3000A1F8801B642871D828688003F7D50BE0D0
:101D4000FFF798F8064604E0FFF794F8801B642834
:101D5000F1D828688003F7D42078DFF89C928007B8
:101D60004FF0000B3DD5A348001D016811F00C0F8A
:101D700008D00068C0F3810002280AD1DAF8000018
:101D8000400206D42868800715D5E068012809D1EB
:101D900011E0E068B8B10120C9F80000FFF76AF867
:101DA000064605E022E1FFF765F8801B0228C2D84D
:101DB00028688007F7D52868216920F0F80040EAF4
:101DC000C10028600DE0C9F800B0FFF753F80646DF
:101DD00004E0FFF74FF8801B02281FD8286880070F
:101DE000F7D42078000722D5824F84486169703784
:101DF00071B101210160FFF73DF8064604E0FFF7ED
:101E000039F8801B022809D838688007F7D50EE01A
:101E1000C0F800B0FFF72EF8064605E082E0FFF7B5
:101E200029F8801B02287DD838688007F7D42078ED
:101E3000400765D56F484FF000083C300068C0008F
:101E40000BD46C483C30016841F08051016000685F
:101E50004FF0010800F080500090694F3868C005CD
:101E60000FD4386840F480703860FFF703F80646F6
:101E700004E0FEF7FFFF801B022853D83868C00536
:101E8000F7D55C4FA0686C3701280FD0052838685B
:101E900010D020F001003860386820F0040038606D
:101EA000A068B0B1FEF7E6FF06460EE0386840F0E5
:101EB0000100F4E740F004003860F7E7FEF7DAFFCE
:101EC000811B41F28830814263D838688007F5D59C
:101ED0000DE0FEF7CFFF064606E0FEF7CBFF811BC5
:101EE00041F28830814254D838688007F5D4B8F17F
:101EF000000F05D03F483C30016821F0805101605F
:101F0000A069B8B33B49091D0968C1F381010229E1
:101F100046D00228584606D0C9F86000FEF7AAFF4E
:101F2000044639E035E04F46C9F86000FEF7A2FFED
:101F3000064604E0FEF79EFF801B022829D8286889
:101F40008001F7D4D4E907010843A16A2D4A490862
:101F500002EB0141626A41EA8211084394F82C10B5
:101F600040EA0161CAF8001001203866FEF782FFDE
:101F7000044605E03CE0FEF77DFF001B022808D880
:101F800028688001F7D533E0FEF774FF001B0228B4
:101F900002D90320BDE8F88F28688001F4D427E037
:101FA0000128F7D0DAF80000E26900F480019142DC
:101FB0001CD1226A00F03F01914217D147F6C0714F
:101FC000626A0140B1EB821F10D1A26A4FF0FF3369
:101FD00000F4403103EB5202B1EB024F06D194F80A
:101FE0002C1000F07060B0EB016F01D00120D1E740
:101FF0000020CFE70438024000004742800E4742ED
:10200000007000400000FFFF10B5401EB0F1807F5F
:1020100001D3012010BD4FF0E02460610F21601753
:1020200002F00BFF0020A06107202061002010BDFE
:1020300070B5040004D094F84100002510B106E00A
:10204000012070BD84F84050204600F023F8242081
:1020500084F841002068C16821F40051C160204625
:1020600001F082F92068016921F490410161206842
:10207000416921F02A0141612068C16841F40051A1
:10208000C1606564202084F8410084F842006563E3
:10209000002070BD10B586B0044614216846FEF7D6
:1020A00008FB14492068884221D1134800210268A6
:1020B00042F010020260006800F0100005900E4827
:1020C0001438026842F001020260006800F001006A
:1020D00005904FF4C06000900220CDE9010103207B
:1020E00003900720049069460448FEF7DBFD06B024
:1020F00010BD0000001001404438024000000240C2
:102100002DE9F843044690F841001F4615460E4657
:10211000202802D00220BDE8F8838EB185B10020CE
:102120006064212084F84100FEF7A4FEA584814666
:10213000E584A0684FF02008B0F5805F02D003E08E
:102140000120E8E7206910B1354600260EE00025A1
:102150000CE08021204601F08DF9A0B9BDB115F841
:10216000010B21684860E08C401EE084E08C4B4607
:102170004FF0000200970028EBD14FF040012046BD
:1021800001F078F940B184F841800320C3E736F8C4
:10219000020BC0F30800E4E784F841800020BAE7AE
:1021A000FEE7F0B500230A24302537261F4610E04D
:1021B000B4EB107F02D905EB107C01E006EB107C3C
:1021C00001F813C001EB430C00015B1C8CF801709B
:1021D000DBB29342ECD3F0BD2DE9F0410546D0F8D7
:1021E000D40205EB8000D0F8C042002C1ED094F839
:1021F0001C020F4F40B9D4F8180228B1607A18B900
:102200003978284601F007FD0A4E2846317801F05A
:1022100002FD607A022809D13178284601F0FBFCE2
:1022200039782846BDE8F04101F0F5BCBDE8F08101
:10223000D5000120D400012070B50646D0F8D402A4
:1022400006EB8000D0F8C042002C65D0D4F8140210
:10225000C4F83402D4F81802C4F838022F480178C0
:10226000304601F0D7FB1F280DD12D49D4F81002BC
:10227000884208D194F81D12012904D894F81E024E
:1022800008B1102809D994F81D12202305223046E0
:1022900000F003FE0220607209E004F21F223046C3
:1022A00000F0ACFA0028207A08DA052804D030467D
:1022B000BDE87040FFF790BF012128E002282BD035
:1022C000012829D0032827D0E568FDB1D6F8D4121B
:1022D000304606EB810104F11002D1F8C01200294A
:1022E0001AD0D1F81832AB4200D32B46D1F838427D
:1022F000641BC1F83842002481F83C4204240C726B
:1023000008490978BDE8704001F0ADBC00213046B5
:10231000BDE8704000F0DCB870BD0000D5000120C1
:1023200055534243D400012010B50446D0F8D402DE
:1023300004EB8000D0F8C002002818D0407A0228B0
:1023400009D0090613D5012811D02046BDE8104058
:10235000012100F0BDB806480178204601F05BFC81
:10236000044801782046BDE8104001F054BC10BD7F
:10237000D4000120D500012010B50446D0F8D402C5
:1023800004EB8000D0F8C022002A17D0117A02296D
:1023900005D0032901D0042910D1002109E092F8C9
:1023A0001D12204602F21F2200F028FA002805DA4A
:1023B00001212046BDE8104000F08AB810BD10B5DC
:1023C0000446D0F8D40204EB8000D0F8C022002AE2
:1023D00017D0107A80B1012813D192F81D1220462F
:1023E00002F21F2200F00AFA00280ADA2046BDE8AD
:1023F0001040012100F06CB82046BDE81040FFF706
:102400001BBF10BDD0F8D41200EB8100D0F8C00281
:10241000002801D0002101727047000070B5054608
:10242000D0F8D40205EB8000D0F8C042002C24D0B4
:1024300000202072607284F8610284F8600284F8DF
:102440006202D5F8D40205EB8000D0F8C40201681E
:1024500000208847094E2846317801F0D2FA084812
:102460000178284601F0CDFA04F504723178284647
:10247000BDE870401F2301F044BB70BDD5000120B2
:10248000D400012070B50546D0F8D40205EB8000D9
:10249000D0F8C042002C16D00020207201206072BB
:1024A00009480178284601F0DCF9084E28463178C1
:1024B00001F0D7F904F5047231782846BDE8704080
:1024C0001F2301F01EBB70BDD4000120D5000120E8
:1024D00070B50546D0F8D40205EB8000D0F8C042B4
:1024E000002C18D00C48C4F8300284F83C120020AC
:1024F00020720A480D2304F50C720178284601F079
:10250000B2FB074804F504721F2301782846BDE892
:10251000704001F0F6BA70BD55534253D40001200B
:10252000D5000120094808B5016841F0800101602B
:10253000016801F080010091016841F00101016032
:10254000006800F00100009008BD00003038024033
:102550000C4810B50A4901604FF4E1314160002197
:1025600081600C22C160C0E904128161C161FFF782
:102570005FFD002803D0BDE81040FEF7C3B910BDD1
:10258000001001401C01012010B500220F49104825
:1025900001F054F908B1FEF7B5F90E490C4801F005
:1025A000E0FC08B1FEF7AEF90B49094801F048FC20
:1025B00008B1FEF7A7F9064801F056FD002803D040
:1025C000BDE81040FEF79EB910BD00000C000020D1
:1025D000640101209C00012068000120FEE7FEE765
:1025E0000148FEF76FBE0000B80801202DE9F04158
:1025F000066805460C46306C06EB4411D1F8083BE2
:1026000095F806C04FF400474FF0200E05F29C42AB
:10261000BCF1010F08D0DFF898C0604538D118042C
:1026200031D5C1F8087B3FE0224E5FEA037C04D538
:10263000B04239D91804F4D436E05FEA836C02D58D
:10264000C1F808EB30E013F0280F2DD1B04201D9CA
:102650001804E6D404EBC40005EB8000D1F8101B8D
:10266000D0F87432C1F31201591AC0F8681200F59B
:102670001570ACB903691BB1C2681144C1600FE0A9
:10268000012128680AE098060AD5C1F808EB07E09E
:1026900034B9D5F8640218B90021304602F05AF86E
:1026A000E1B22846FEF7CAFC0020BDE8F081000038
:1026B0000A31544F0A30544F2DE9F84F0E4601EBC2
:1026C000C60100EB81048146D0F80080D4E90910EE
:1026D0001434884202D90120BDE8F88F081AA16895
:1026E000814200D20846C01C870808EB461A15E054
:1026F000451AA068A84200D20546E81C870899F848
:1027000006000090ABB2F2B24046E16802F081FBF5
:10271000E0682844E060606928446061DAF81809DC
:1027200080B2B84205D3D4E90401814201D2002825
:10273000DED1D4E90401884208D806F00F01012057
:102740008840D8F834188143C8F834180020C3E70B
:10275000704730B5D0F8D4424FF0FF3500EB840419
:10276000D4F8C04244B11A44D4F868329A4205D928
:102770002123052200F091FB284630BD002030BD0A
:1027800070B50446D0F8D402134604EB80024FF033
:10279000FF35D2F8C00280B1D0F818627EB15E7801
:1027A000F60716D0997871B180290FD090F81D12D4
:1027B00024230522204600F070FB284670BD90F8C7
:1027C0001D122023F5E706220A490FE008220A49D4
:1027D0000CE0D2F8C42201EBC1011B79D26902EBF3
:1027E00081010A79521D934200D81A4600F0ABFBD2
:1027F000002070BD02010120080101202DE9F041F7
:102800001446D0F8D4224FF0FF3700EB8202D2F802
:10281000C06266B3237800254FF00208252B70D0E4
:102820000FDC1A2B59D005DC13B3032B25D0122B48
:1028300017D127E01B2B2AD01E2B45D0232B10D1DC
:102840007DE05A2B5ED006DC282B73D02A2B72D069
:102850002F2B06D196E09E2B7BD0A82B6DD0AA2BD8
:102860006CD02023052200F018FB86F8098022E0B6
:102870002246BDE8F04100F036BB2246BDE8F041FB
:1028800000F0C7BA2246BDE8F041FFF779BF96F8DD
:102890006222012A04D1227902F00302022A74D0B2
:1028A000217901F0030001280BD0022806D0C8438B
:1028B000800706D00EE03846BDE8F08186F86282D7
:1028C00008E086F8625205E020790028F9D001205E
:1028D00086F862022846F560EEE70846D2F8C41290
:1028E0000427C968884720B12E48817841F08001CB
:1028F00081702079042800D807463A462949304695
:1029000014E021E00846D2F8C412B0460826C9688F
:10291000884720B12448C17841F08001C170207AF5
:10292000082800D8064632461F49404600F00BFBF7
:102930002846C1E712E01BE00BE014E01DE0224650
:10294000BDE8F04100F022BA2246BDE8F04100F0B7
:102950008EB92246BDE8F04100F0C4B92246BDE878
:10296000F04100F0D1B82246BDE8F04100F023B9B3
:102970002246BDE8F04100F0F7BA2246BDE8F0413A
:1029800000F064BB6278920704D52423052200F08E
:1029900084FA90E7D6E99B23FFF7DBFE002899DA5B
:1029A00089E7000010010120140101202DE9F04702
:1029B0000646D0F8D402884606EB80004FF0FF3779
:1029C000D0F8C042FCB1B4F86412D4F870524FF49D
:1029D00000724D43954200D31546B5FBF1F1D0F896
:1029E000C4028BB204F11001D0F810C0D4F86C22EC
:1029F00089464046E047002808DA11230422414670
:102A0000304600F04AFA3846BDE8F08710482B46B9
:102A10004A460178304601F026F9B4F86402D4F849
:102A20006C22B5FBF0F1B5FBF0F01144C4F86C1268
:102A3000D4F87012081AC4F87002D4F83812A1EB56
:102A40000501C4F8381201D1032020720020DBE711
:102A5000D40001202DE9F0470746D0F8D40289467A
:102A600007EB80004FF0FF38D0F8C042FCB1B4F85B
:102A70006412D4F870524FF400764D43B54200D33F
:102A80003546B5FBF1F1D0F8C4028BB204F1100168
:102A9000D0F814C0D4F86C228A464846E047002893
:102AA00008DA032304224946384600F0F6F9404686
:102AB000BDE8F087B4F86402D4F86C22B5FBF0F1FD
:102AC0001144C4F86C12B5FBF0F1D4F87022531A1B
:102AD000C4F87032D4F83812A1EB0501C4F83812EA
:102AE0000BD04343B34200D33346064852460178E5
:102AF000384601F006F80020DAE700213846FFF7F3
:102B0000E7FCF8E7D50001202DE9F0410646D0F8B2
:102B1000D402154606EB80008846D0F8C0424FF03C
:102B2000FF375CB3217AD1BB94F81C12090631D56A
:102B300094F86212022905D0D0F8C4028168404698
:102B4000884730B13A2302224146304600F0A5F9C9
:102B500014E06888297940BA000440EA01226879C3
:102B600041460243C4F86C22B5F8070043BA304628
:102B7000C4F87032FFF7EDFD002802DA3846BDE8F0
:102B8000F081B4F86412D4F870024843D4F81812F3
:102B9000884205D0202394F81D120522D5E701E0D4
:102BA000022020724FF40070E06041463046BDE8DC
:102BB000F041FFF7FBBE2DE9F0410646D0F8D40204
:102BC000154606EB80008846D0F8C0424FF0FF372C
:102BD00084B3217A89BB94F81C12090637D594F87E
:102BE0006212022905D0D0F8C402816840468847A5
:102BF00030B13A2302224146304600F04EF919E046
:102C00006888297940BA000440EA012268790243C1
:102C1000C4F86C22E888297A40BA000440EA01230B
:102C2000687A414603433046C4F87032FFF791FD9D
:102C3000002803DA3846BDE8F0810FE0B4F86412EA
:102C4000D4F870024843D4F81812884204D02023E4
:102C500094F81D120522CFE7022020724FF4007075
:102C6000E06041463046BDE8F041FFF79FBE2DE9E8
:102C7000F0410546D0F8D4020F4605EB80004FF036
:102C8000FF36D0F8C0424CB1D0F8C40204F5197236
:102C9000111D436838469847E8B902E03046BDE860
:102CA000F08194F86202022815D0D4F86802401E20
:102CB000010E2174010C6174010AA174E0740020FA
:102CC00020756075B4F86402010AA175E0750820EA
:102CD000E0600020E3E73A2302223946284600F06C
:102CE000DCF8DBE72DE9F0410646D0F8D4021546C2
:102CF00006EB80008846D0F8C0424FF0FF374CB159
:102D0000D0F8C40204F51972111D43684046984773
:102D100098B902E03846BDE8F08194F862020228D2
:102D20000BD06889297B40BA000440EA0120697B06
:102D30000843E0600020014609E03A2302224146B0
:102D4000304600F0AAF8E5E72218401C1174E2684A
:102D50008242F9D8D4F86802401E020E2275020C95
:102D60006275020AA275E07521766176B4F8640294
:102D7000010AA176E0766889297B40BA000440EA1E
:102D80000120697B0843E0600020C4E72DE9FC4195
:102D90000546D0F8D4020F4605EB80004FF0FF3611
:102DA000D0F8C04244B1D0F8C4026A4601A94368D1
:102DB0003846984730BB02E03046BDE8FC8194F8C5
:102DC000620202281ED0002001462218401C80B258
:102DD00011740C28F9D30820E0740198401E020EEB
:102DE0002275020C6275020AA275E0750220207637
:102DF0006176BDF80000010AA176E0760C20E06063
:102E00000020DAE73A2302223946284600F045F846
:102E1000D2E730B5D0F8D4124FF0FF3400EB810187
:102E2000D1F8C01231B3D1F818322BB300200346C9
:102E30000C18401CC0B223741228F9D370200874F7
:102E40000C20C87591F8600291F86142A0421CD034
:102E500001EBC004401C94F840528D7494F8445225
:102E60000D7794F84542C0B24C7781F8600204288F
:102E700009D00AE0204630BD91F81D12202305221A
:102E800000F00BF8F6E781F860321220C860107984
:102E9000122800D8C860002030BDD0F8D41200EB52
:102EA0008100D0F8C00200281CD090F8611200EB1D
:102EB000C10181F8402290F86112002200EBC101AB
:102EC00081F8443290F8611200EBC10181F845228B
:102ED00090F86112491CC9B280F86112042901D12D
:102EE00080F8612270472DE9F0410546D0F8D40200
:102EF000884605EB80004FF0FF37D0F8C042E4B1C0
:102F0000D4F8181239B194F81D122023052228464E
:102F1000FFF7C3FF11E094F862120526022905D0DD
:102F2000D0F8C40281684046884748B13A2302225B
:102F300041462846FFF7B1FF26723846BDE8F081CA
:102F40000020E060FAE710B508B1C26007E04FF07A
:102F5000FF3010BD521E92B284188B5C2374002A7D
:102F6000F8D1002010BD00002DE9F0410546D0F851
:102F7000D402164605EB80008846D0F8C0424FF0D8
:102F8000FF37ECB3217A29B141462846BDE8F0412C
:102F9000FFF760BDD4F8181299B394F81C12090613
:102FA0003DD4D0F8C40281684046884728B13A230E
:102FB0000EE02846FFF771FF25E0D5F8D40205EBB7
:102FC0008000D0F8C402C1684046884718B1272362
:102FD00002224146EDE77088317940BA000440EAA8
:102FE0000122707941460243C4F86C22B6F807000A
:102FF00043BA2846C4F87032FFF7ABFB002801E063
:1030000001E00CE002DA3846BDE8F081B4F8640271
:10301000D4F870324343D4F81802984204D02023E5
:1030200094F81D120522C4E74FF40070834200D3C8
:10303000034601202072044804F11002017828465A
:1030400000F05FFD0020DFE7D50001202DE9F0470B
:103050000646D0F8D402154606EB80008946D0F823
:10306000C0424FF0FF3884B3217A29B14946304637
:10307000BDE8F047FFF7EEBCD4F8181219B194F888
:103080001C12090607D594F81D122023052230468C
:10309000FFF703FF34E0D0F8C40281684846884750
:1030A000052708B13A230AE0D6F8D40206EB8000DF
:1030B000D0F8C402C1684846884738B127230222A5
:1030C00049463046FFF7E9FE277219E068882979FA
:1030D00040BA000440EA012268790243C4F86C2235
:1030E000E888297A40BA000440EA0123687A494610
:1030F00003433046C4F87032FFF72BFB002802DA96
:103100004046BDE8F087B4F86402D4F87032434317
:10311000D4F818029842B6D14FF40070834200D31D
:10312000034601202072044804F110020178304661
:1031300000F0E7FC0020E4E7D500012080200860D3
:1031400080001080002070470020704700207047EA
:10315000002070470020704710B514465A02044BF7
:10316000084603EB4421FDF75FFA002010BD000084
:10317000680000202DE9F047204D5E0254022868C7
:10318000012789464FF4AC4884421FD92C6044453E
:103190001CD3686858B94FF4403119486F6001F08A
:1031A000FCFE40F22512174917A0FDF703F94FF472
:1031B000947214491AA0AB68FDF7FCF832464946F0
:1031C000A86801F01AFFA8683044A860B4F5F05F61
:1031D0000AD12868404507D9184840F231120949F8
:1031E000076017A0FDF7E6F8044832460C3020448B
:1031F0004946FDF719FA0020BDE8F0875C00002081
:1032000000000108D45200085B25735D2025643A54
:103210002065726173657220646F6E650D0A00002F
:103220005B25735D2025643A20777269746520619F
:103230006464723A307825780D0A0000040000209A
:103240005B25735D2025643A207570646174652088
:1032500075700D0A0000000070470178407841EA5F
:1032600000207047FDF70CBE30B593B030216846A2
:10327000FDF71FFA14210CA8FDF71BFA1D480025C5
:10328000016841F080510160006800F080501190A9
:103290001948016841F4804101600068022400F48B
:1032A0008040119001200090000401908001CDE940
:1032B000064004200890A820CDE9090407200B90BF
:1032C0006846FEF7F5FC08B172B6FEE70CA90F20C0
:1032D00081E831004FF4A0500F904FF480501090CF
:1032E00005210CA8FEF7F4FB002801D072B6FEE71A
:1032F00013B030BD403802400070004005480168FE
:1033000041F47001016003494FF0006080390860AA
:103310007047000088ED00E001680C3151E8002F93
:1033200022F4907241E80023002BF5D1016814319A
:1033300051E8002F22F0010241E80023002BF5D1D3
:10334000016B012909D101680C3151E8002F22F0ED
:10335000100241E80023002BF5D1202180F8421013
:10336000002101637047000070B5044600680169E0
:10337000E26821F4405111430161A1682069E269CA
:1033800001436069104301432068C26849F20C633D
:103390009A430A43C26020684169A26921F44071DE
:1033A0001143416131492068884202D03049884246
:1033B00002D1FEF73DFC01E0FEF72AFCE2690023A2
:1033C000192164253226B2F5004F626828D0A0FB8F
:1033D0000101930F9200FCF776FF0146B0FBF5F078
:1033E0006FF01802504301EB800006EB0010B0FBB9
:1033F000F5F000F0F002B1FBF5F002EB0012B1FBCA
:10340000F5F06FF01803584301EB800006EB001055
:10341000B0FBF5F000F00F0021681044886070BD2B
:10342000A0FB010192185B41FCF74DFF0146B0FB88
:10343000F5F00201B1FBF5F06FF01803584301EB12
:10344000800006EBC000B0FBF5F000F0F80002EBE6
:103450004002B1FBF5F0584301EB800006EBC000E1
:10346000B0FBF5F000F00700D6E7000000100140C7
:10347000001401402DE9F8431F4690460D460446CE
:10348000089E23E0701C21D0FDF7F4FCC01BB04265
:103490001AD8CEB12068C168490717D5802D15D03C
:1034A000402D13D00168C94309070FD401680025D6
:1034B000406800902046FFF72FFF0820606484F8E2
:1034C00040500120BDE8F8830320FBE72068006836
:1034D00035EA000004D000204045D3D00020F1E7B9
:1034E0000120F9E710B5D0F8B822002452689047BF
:1034F00000B10324204610BD002070470020704713
:10350000134610B50A46002100F0FBFA002010BD5A
:10351000134610B50A46002100F0A5FB002010BD9F
:1035200010B50446802100F076FB2046BDE810402F
:10353000002100F070BB10B50521C0F894120023E3
:103540001A46194600F0DDFA002010BD10B502231E
:10355000C0F8943282611346C2610A46002100F02D
:1035600082FB002010BD10B50421C0F89412002386
:103570001A46194600F077FB002010BD10B504462E
:1035800000F05BFB012084F89C02D4F8B80218B16B
:1035900042682179204690470020C4F8C402C4F84C
:1035A000B402C4F8D0022046BDE8104000F00FBAC3
:1035B00010B50A46024903A000F00DF9004810BDFD
:1035C000400401204D534320436F6E66696700003D
:1035D00012200880004870472C00002010B50A46D1
:1035E000024903A000F0F7F8004810BD4004012094
:1035F0004D534320496E7465726661636500000037
:1036000004200880004870472800002010B50A46B2
:10361000024903A000F0DFF8004810BD400401207B
:1036200053544D6963726F656C656374726F6E6934
:103630006373000010B50A46024903A000F0CBF8FE
:10364000004810BD4004012053544D3332204D61D9
:1036500073732053746F72616765000010B51A2090
:1036600008800A480168001D0468001D00680818E9
:1036700009D008220649FEF794FD054904221031BD
:103680002046FEF78EFD0248801E10BD107AFF1FF7
:1036900042000020F8B504460020ADF8000048883C
:1036A0000D46010A08295FD2DFE801F05E04091720
:1036B0005E5E3D45D4F8B412207C0A6819E0207C97
:1036C00002260028D4F8B80205D0C16A68468847A7
:1036D0000146467039E0816AF8E7C0B2062843D255
:1036E000DFE800F0030B1115191DD4F8B40242688D
:1036F00006E069469047014627E0D4F8B4028268A4
:103700008AB3207CF5E7D4F8B402C268F8E7D4F8AD
:10371000B4020269F4E7D4F8B4024269F0E7D4F8DD
:10372000B4028269ECE7207CE8B9D4F8B802416BB6
:1037300068468847DFE7207CA8B9D4F8B802016B57
:1037400068468847014607204870EA888AB1BDF874
:10375000000040B1824200D90246ADF80020204668
:10376000FFF7F4FEF8BDFFE729462046FFF7D8FE35
:10377000F8E72046FFF7F7FEF4E778B50E464288F3
:103780000178002405468A4212D9ADF800100AE0FB
:10379000694600F019F84178052904D1817804467A
:1037A000B14205D000246988BDF800209142EFD8CD
:1037B000204678BD002102E0491CC9B2401C0278B5
:1037C000002AF9D1084670470A8803781A440A800B
:1037D00001780844704770B516460D46002820D081
:1037E0000446FFF7E7FF022101EB40014FF40070B0
:1037F000814204D82046FFF7DDFF4000801C308066
:1038000030782870032068700220002206E02954D6
:10381000401CC0B22A54401CC0B2641C217800294C
:10382000F5D170BD01004FF0000004D0012901D096
:10383000022901D0032070470120704778B100238E
:10384000C0F8B832C0F8C432C0F8D03209B1C0F8FC
:10385000B412012180F89C12027000F0DFB803203E
:10386000704710B5D0F8C802FDF73DFCBDE8104028
:10387000FFF7D8BF10B5D0F8C802FDF70FFCBDE8C0
:103880001040FFF7CFBF70B516460446002521B1A2
:1038900094F89C02032842D04CE0D4F8941204F12E
:1038A0001400022935D1D0E90232934206D99A1A7E
:1038B000826031462046FFF72BFE0FE09A4214D17A
:1038C0004068904211D3D4F8981288420DD2002259
:1038D00011462046FFF71CFEC4F8985200231A46F2
:1038E0001946204600F00DF913E094F89C020328D5
:1038F00008D1D4F8B802C16821B1C4F8D452C16863
:10390000204688478021204600F085F92046FFF7B1
:1039100012FE94F8A00268B184F8A0520AE0D4F82C
:10392000B802426932B1C4F8D45242692046904785
:10393000002800D1002070BD70B5134604460A006F
:103940004FF0000004D094F89C12032931D03CE0E1
:10395000D4F8941204F5AA72032936D1D2E90215DB
:10396000A9420BD9481B90602A46904200D31046CA
:10397000024619462046FFF7C3FD26E094F8AA1236
:1039800011F01F0103D0012902D0022900D000202C
:1039900094F89C12032908D1D4F8B8120A6922B10C
:1039A000C4F8D4020969204688472046FFF7DBFDAA
:1039B0000BE0D4F8B8128B693BB1C4F8D4028B6920
:1039C000114620469847002800D1002070BD10B550
:1039D000D0F8C802FDF73CFBBDE81040FFF722BF5E
:1039E0000020704710B50024012180F89C12D0F807
:1039F000B82222B152680179904700B103242046D1
:103A000010BD10B5D0F8C802FDF79AFBBDE8104014
:103A1000FFF708BFD0F8C802FDF7ACBB10B50178BE
:103A200039BB15490222C1F8E004C0F8C8124FF0B2
:103A3000A040086004200871CA71002088714A7291
:103A40008872C87208738873C8730846FDF7E8FE69
:103A500008B1FCF757FF80210748FDF7BCFA402268
:103A600000210548FDF7BBFA802201210248FDF73D
:103A7000B6FA002010BD0000B80801200A0601F0C7
:103A80007F01D0F8C80201EBC10100EB810001D534
:103A9000807D704790F85602704710B5D0F8D42258
:103AA00000EB8202D2F8B82222B190F89C32032BAC
:103AB00002D004E0032010BD126A02B1904700203A
:103AC00010BD10B5D0F8D42200EB8202D2F8B82293
:103AD00022B190F89C32032B02D004E0032010BDE9
:103AE000526A02B19047002010BD10B51C46134623
:103AF000D0F8C8022246FDF746FBBDE81040FFF7AC
:103B000091BE10B5D0F8C802FDF76EFBBDE81040BD
:103B1000FFF788BE2DE9F04100250126044680F814
:103B20009C62C4F894526560C4F8A45280F8A05214
:103B3000D0F8B80230B1426822B100212046904747
:103B400000B103250022402311462046FFF7CDFF98
:103B50004027A4F864613B46002280212046C4F837
:103B60006071FFF7C2FFA68428462762BDE8F08196
:103B700090F89C12042903D190F89D1280F89C12B1
:103B80000020704710B590F89C12032905D1D0F899
:103B9000B81211B1C96901B18847002010BD017484
:103BA0000020704710B5D0F8C802FDF719FFBDE836
:103BB0001040FFF737BE70B5044600F2AA20054654
:103BC00000F0B7F90120C4F89402B4F8B002C4F8C8
:103BD000980294F8AA2212F01F000AD001280ED0F1
:103BE000022812D02046BDE8704002F0800100F0AB
:103BF00012B829462046BDE8704000F037BA294681
:103C00002046BDE8704000F077BB29462046BDE85D
:103C1000704000F0C1BA10B5D0F8C802FDF700FB43
:103C2000BDE81040FFF7FEBD10B5D0F8C802FDF7A3
:103C3000F1FEBDE81040FFF7F5BD10B5D0F8C802A1
:103C4000FDF709FFBDE81040FFF7ECBD90F89C12AE
:103C5000042903D090F89C1280F89D12042180F86A
:103C60009C120020704710B5D0F8C802FDF711FB78
:103C7000BDE81040FFF7D6BD10B5FEF77DFB002074
:103C800010BD10B5FEF79BFB002010BD70B51B4D9D
:103C900004466978FFF7EEFD6878002600F00F0013
:103CA00000EB800004EB8000A0F8646129782046D6
:103CB000FFF7E0FD287800F00F0000EB800004EB38
:103CC00080008684D4F8D40204EB8000D0F8C002CF
:103CD00090B12046FEF796FBD4F8D40204EB8000A6
:103CE000D0F8C00200F041FBD4F8D40204EB80000D
:103CF000C0F8C062C4F8BC62002070BDD4000120CE
:103D00000A21018000487047F800012070B505467F
:103D100081210848FFF731FD044601210548FFF7DE
:103D20002CFD402104B1A18000B181802020288099
:103D3000004870BDD800012070B5054681210948B2
:103D4000FFF71BFD044601210648FFF716FD4FF45F
:103D5000007104B1A18000B1818020202880014839
:103D600070BD0000D800012070B5054681210848CB
:103D7000FFF703FD044601210548FFF7FEFC402143
:103D800004B1A18000B1818020202880004870BD4E
:103D9000D80001202DE9F04104464FF41D7000F0D9
:103DA000E5FA70B3D4F8D412244D04EB8101012656
:103DB000C1F8C002C4F8BC02207C60B340230222D8
:103DC00069782046FFF791FE6878402300F00F00E5
:103DD00000EB800004EB8000A0F8646102222978E7
:103DE0002046FFF782FE287800F00F0000EB8000ED
:103DF00004EB800086842046FEF710FB0020BDE81F
:103E0000F081FFE7D4F8D412002004EB8101C1F85F
:103E1000C0020220F3E74FF400773B4602226978A4
:103E20002046FFF762FE68783B4600F00F0000EB8B
:103E3000800004EB8000A0F86461CFE7D40001208B
:103E400039B1D0F8D42200EB8200C0F8C4120020AF
:103E5000704703207047F8B50646D0F8D4020C46E8
:103E600006EB80010025D1F8C072ADF8005037B1E3
:103E7000207810F0600223D0202A40D101E00320F6
:103E8000F8BD6278FE2A02D0FF2A38D10EE062889F
:103E900082BBE288012A32D1000630D5D1F8C402B3
:103EA000806980470122394638601FE0618809BB7C
:103EB000E188F9B9000622D43046FEF7E3FA23E0A0
:103EC000607830B1012824D00A2809D00B2816D1F7
:103ED00011E096F89C02032811D10222694605E000
:103EE00096F89C0203280AD10122391D3046FFF7BB
:103EF0002DFB09E003E096F89C02032806D021463A
:103F00003046FFF70DFB03252846F8BDA078786002
:103F1000FAE796F89C020328F6D160880028F3D1CE
:103F200021793046FFF76DFD21793046FEF7FCF927
:103F3000EAE770B5044611F8010B207011F8010B87
:103F400060700D460846FFF788F9A91C60800D4691
:103F50000846FFF782F9A080A81CFFF77EF9E080F1
:103F600070BD38B504460020ADF80000A1B1C4F81A
:103F7000B812D4F8D40204EB8000D0F8B802C16AB9
:103F800019B168468847C4F8D002D4F8D802401C5A
:103F9000C4F8D802002038BD032038BD03460020F5
:103FA000D3F8B822002A02D012681846104770478A
:103FB0002DE9F04188462B4E897800250446317062
:103FC000012906D941462046FFF7AAFA0320BDE899
:103FD000F08194F89C02022702280CD003281DD0FF
:103FE00041462046FFF79CFA31782046FFF77AFADF
:103FF00003252846EBE789B320466160FFF7CEFF33
:10400000050004D041462046FFF78AFA1DE020460D
:10401000FFF7A9FA032084F89C02EAE7C1B16068BF
:1040200088421BD0C1B22046FFF75CFA31782046A7
:104030006160FFF7B3FF050010D041462046FFF74F
:104040006FFA21792046FFF74DFA84F89C72D0E789
:1040500084F89C7220466160FFF744FA2046FFF71F
:1040600082FAC6E798000120FFF7DEBD2DE9F04196
:104070000A78002612F060020CD0202A01D0402AD3
:104080007DD1D0F8D42200EB8202D2F8B822926817
:10409000904731E04A78002301250A2A6FD2DFE8F1
:1040A00002F041666E586E08056E2D29FFF7F2FA90
:1040B00067E004468888D8B9C888C8B94888802885
:1040C00016D200F07F0794F89C02032810D084F8E1
:1040D0009E7239462046FFF765FD2046FFF743FAFA
:1040E0001FB1022084F89C024BE084F89C5248E007
:1040F000204644E0FFF75CFF064642E0CA88012AFA
:104100003DD190F89C22012A04D0022A02D0032A31
:1041100035D104E0012200F10801836016E001229C
:10412000011D13E090F89C22012A03D0022A01D03D
:10413000032A24D1CA88022A21D1C560D0F8A4124A
:1041400009B10321C160022200F10C01FFF7FEF961
:1041500017E04A88012A02D0022A03D00FE0C0F8F3
:10416000A45216E08988090A80F8A01211E090F89C
:104170009C22012A08D0022A06D0032A04D0FFF785
:10418000CFF93046BDE8F08149880129F9D1C0F85E
:10419000A432FFF7E8F9F4E72DE9F0410546087885
:1041A0000C790E464FF0000810F060000BD020286C
:1041B00001D040286AD121462846FFF79DF9FF2803
:1041C00000D0D8B395E07078C8B3012824D0032874
:1041D0005CD195F89C02022802D0032856D10CE04D
:1041E000002C53D0802C51D021462846FFF713FDD8
:1041F00080212846FFF70FFD7BE0708840B93CB175
:10420000802C05D0C88818B921462846FFF703FD41
:104210002846FFF7A8F96CE095F89C020228DFD049
:10422000032863D1708880BB600603D021462846EE
:10423000FFF717FB2846FFF796F9BCE700E00AE016
:10424000C5F8D402D5F8B8028268F2B131462846E2
:10425000904780464DE095F89C020027022802D046
:10426000032843D113E00CB1802C3FD1200604F089
:104270007F0000EB800005EB800101D5143101E0E7
:1042800001F5AA7102220F602CE032E02EE0200638
:1042900004F00F0000EB800005EB800009D5808C56
:1042A00020B304F07F0000EB800005EB800614369D
:1042B0000AE0B0F86401C8B104F07F0000EB8000B0
:1042C00005EB800606F5AA764CB1802C07D0214676
:1042D0002846FFF7D3FB10B10120306000E03760C3
:1042E000022231462846FFF731F902E02846FFF75F
:1042F00017F94046BDE8F08170B5054608780024FE
:104300000E4610F0600003D0202801D0402827D1AD
:1043100095F89C02012803D0022801D003281FD160
:10432000B088C1B201291AD8C1B22846FFF7E6F811
:10433000FF280CD058B9D5F8B8128A683AB1C5F838
:10434000D4028A68314628469047044600E0032498
:10435000F088204307D12846FFF705F903E03146EE
:104360002846FFF7DDF8204670BD704700487047CB
:104370004006012070B50A78012302F00F054E783F
:10438000AB401B4CD0F81C58012E17D045EA034314
:10439000C0F81C3800EB4210D0F8002B12040BD4EC
:1043A000D0F8002B0B890979C3F30A031A4344EAB6
:1043B00081410A43C0F8002B002070BD9BB21D4311
:1043C000C0F81C5800EB4210D0F800391B04F3D49D
:1043D000D0F800390D890979C5F30A0589042B4302
:1043E00041EA82510B432343C0F80039E4E700005F
:1043F00000800010D0F800196FF30A01C0F800190E
:10440000D0F8041841F48071C0F8041800207047F7
:1044100070B50D460446C2F3072004991E460128D4
:104420001BD0E06840F04000E060204600F032F829
:10443000C6F307210029A16B26D021F48031A163A6
:10444000C5F30741012907D1A16841F00601A16028
:10445000A16841F02001A16070BDA06B20F4803004
:10446000A063E0680A4A1040E060E06820F4401071
:10447000E060C8B2012803D1E06840F48010E06039
:10448000204600F007F8DBE741F48031D7E7000071
:10449000BFFFBDFF08B500234FF070620093009985
:1044A000491C009191420CD801690029F7DA009368
:1044B000016941F0010101610099491C009191429B
:1044C00001D9032008BD0169C907F5D1002008BD45
:1044D00070B54C780A78012300EB4212012C2DD0E4
:1044E000D2F8004B002C0BDAD2F8004B44F00064F9
:1044F000C2F8004BD2F8004B44F08044C2F8004BA5
:10450000D0F83C480D781E4605F00F05AB4024EA74
:104510000343C0F83C38D0F81C48097801F00F017B
:1045200006FA01F324EA0341C0F81C18D2F8000B84
:1045300019490840C2F8000B002070BDD2F80049AC
:10454000002C0BDAD2F8004944F00064C2F80049AC
:10455000D2F8004944F08044C2F80049D0F83C4801
:104560000D7805F00F061D46B3409BB29C43C0F882
:104570003C48D0F81C48097801F00F0105FA01F316
:1045800099B28C43C0F81C48D2F80009034908408E
:10459000C2F80009D0E700000078F3EF007833ECB0
:1045A000D0F8001E21F00301C0F8001ED0F8041856
:1045B00021F00201C0F8041800207047D0F8001E56
:1045C00021F00301C0F8001ED0F8041841F00201E8
:1045D000C0F80418002070472DE9F04F002604466B
:1045E0000F4692463046354604EB8001C1F804512F
:1045F000401C0F28F8D3C3F307405FEA000B2046A6
:1046000013D0806B20F40011A163A06B40F4002153
:10461000A163C4F8005ECAF30720012817D0D4F8BC
:104620000018204641F0030118E0D0F8040840F0DB
:104630000201C4F80418A06B40F40011A163A06B40
:1046400020F40021A163A06B20F48021E0E7380E64
:10465000D4F80018204601D041F00101C0F800183C
:10466000102100F087FA00B10126204600F066FA1A
:1046700000B10126C4F81058C4F81458C4F81C58E6
:1046800000204FF0006C4FF090434FF67F39FAB2A4
:1046900014E004EB4011D1F80089B8F1000F06DAFC
:1046A00010B1C1F8003904E0C4F800C901E0C1F854
:1046B0000059C1F81059C1F80899401C8242E8D845
:1046C000002014E004EB4011D1F8008BB8F1000F8A
:1046D00006DA10B1C1F8003B04E0C4F800CB01E0F9
:1046E000C1F8005BC1F8105BC1F8089B401C824216
:1046F000E8D8D4F8100820F48071C4F81018A56127
:104700006FF080406061C7F3074018B9A06940F0BE
:104710001000A061A0690A490843A061CAF30740DC
:1047200018B1A06940F00800A061BBF1010F03D1EE
:10473000A06904490843A0613046BDE8F08F00003D
:1047400000383C8004000040816821F00101816054
:104750000020704710B5036C134CA34203D9D0F866
:10476000003B002B1EDB0023C0F8103BD0F8103BB1
:1047700043F40023C0F8103BD0F8103B43F018037B
:10478000C0F8103BD0F8103B43F0C043C0F8103BDA
:10479000012907D1C0F8142BD0F8001B41F080216B
:1047A000C0F8001B002010BD0A30544F4A780B7827
:1047B000012A00EB43100BD0D0F8002B22F400129A
:1047C000C0F8002B0979032914D0022912D017E070
:1047D000D0F8002922F40012C0F800290979032931
:1047E00001D002290CD1D0F8001941F08051C0F855
:1047F000001905E0D0F8001B41F08051C0F8001B03
:10480000002070470A784B78D1B200EB4110012BA1
:1048100012D0D0F8001B002906DB2AB1D0F8001B0B
:1048200021F08041C0F8001BD0F8001B41F40011BA
:10483000C0F8001B00207047D0F80019002906DBE3
:104840002AB1D0F8001921F08041C0F80019D0F841
:10485000001941F40011C0F80019EBE7F8B50C7825
:104860004F788B4DE3B26FF0604600EB4313012F9E
:1048700029D0D3F8107B6FF31207C3F8107BD3F85D
:10488000107B2F40C3F8107B002C7DD00D69002DCC
:104890007BD08C6825446D1EB5FBF4F5ADB26C433E
:1048A0000C62D3F8104B06EAC5452C43C3F8104BF5
:1048B000D3F8104B0D6AC5F312052C43C3F8104B07
:1048C000012A70D0CBE00F69EFB1D3F810796FF304
:1048D0001207C3F81079D3F810792F40C3F8107974
:1048E0000CB30F698D682F447F1EB7FBF5F5D3F825
:1048F0001079ADB206EAC5463743C3F810790E7990
:10490000012E1CD02AE0D3F810692E40C3F810699C
:10491000D3F8105945F40025C3F81059D3F81059AD
:104920006FF3120520E00E698D68AE4200D90D616B
:10493000D0F8105945F40026C0F810690EE0D3F8FD
:10494000106926F0C046C3F81069D3F810694FF01B
:10495000C04707EA45752E43C3F81069D3F81059CC
:104960000E69C6F312063543C3F81059012A1BD04D
:1049700000EB4413D3F8004944F00444C3F8004961
:104980000C79012C31D001E044E057E00A695AB3B8
:10499000D0F83428097801F00F03012199400A4327
:1049A000C0F8342871E056E0CA691AB100EB44132C
:1049B000C3F81429097901290ED1D0F80818C905BE
:1049C00000EB4411D1F8002902D442F0005201E07A
:1049D00042F08052C1F8002900EB4410D0F80019D1
:1049E00041F00441C0F800194FE0D0F80848E40550
:1049F000D3F8004902D444F0005401E044F080545C
:104A0000C3F8004900920A8A93B20A78C96800F094
:104A100000FA3AE00C690CB18C680C618C680C628D
:104A2000D0F8105BC4F312042543C0F8105BD0F833
:104A3000104B44F40024C0F8104B41E7D3F8104B5E
:104A40008D68C5F312052C43C3F8104BD3F8104BF7
:104A500044F4002432E7CA680AB1C3F8142B097978
:104A600001290CD1D0F80808C005D3F8000B02D4F6
:104A700040F0005001E040F08050C3F8000BD3F844
:104A8000000B40F00440C3F8000B0020F8BD00000C
:104A9000FFFF07E038B5002200920B784D7800EB5D
:104AA000431442F21073012D19D0D4F8005B002D8D
:104AB0003CDAD4F8005B45F00065C4F8005B0C7884
:104AC00000EB4414D4F8005B45F08045C4F8005B6B
:104AD000009C641C00949C4221D9012226E0D4F859
:104AE0000059002D22DAD4F8005945F00065C4F8C9
:104AF00000590C7800EB4414D4F8005945F0804577
:104B0000C4F80059009C641C00949C42E5D80C78C1
:104B100000EB4414D4F80049002CF3DB06E00C78D9
:104B200000EB4414D4F8004B002CD1DB104638BD08
:104B3000816841F0010181600020704708B50023C1
:104B40004FF0706200930099491C009191420AD87D
:104B500001690029F7DA1021009301610099491CCD
:104B60000091914201D9032008BD0169C906F5D41D
:104B7000002008BD18B500244FF070630094009A1F
:104B8000521C00929A420CD80269002AF7DA2022BD
:104B900042EA8111009401610099491C00919942F7
:104BA00001D9032018BD01698906F5D4002018BD7C
:104BB000D0F8080810F0060004D0022803D0062818
:104BC00001D00F20704702207047406900F00100BB
:104BD0007047D0F81818D0F81C08084080B2704709
:104BE000D0F81818D0F81C080840000C704710B511
:104BF000D0F81038D0F8342801F00F0400EB411041
:104C0000E24002F00102D0F8080943EAC212104063
:104C100010BD00EB4111D1F8081BD0F81408084072
:104C20007047416980690840704730B503460846BF
:104C3000940802F00301002203F5805303E01D688D
:104C400040F8045B521CA242F9D300290BD01C6827
:104C50000022D50024FA05F3491E521C090400F86D
:104C6000013B090CF5D130BD70B50546C068002484
:104C700020F0C040E860012901D079B120E0E86867
:104C800040F00050E8600A20FBF70CFF68690A3426
:104C900010F0010F10D1C82CF5D30DE0E86840F0FA
:104CA0008040E8600A20FBF7FDFE68690A3410F0D6
:104CB000010F01D0C82CF5D3C82C01D0002070BD45
:104CC000012070BDD0F8002822F4FE62C0F8002850
:104CD000D0F800284FF4FE6303EA01110A43C0F83C
:104CE0000028002070470000022A3ED1264A274BA8
:104CF0000A449A4201D20F2138E0254A254B0A4442
:104D00009A4201D20E2131E0234A244B0A449A42AE
:104D100001D20D212AE0224A224B0A449A4201D2B2
:104D20000C2123E0204A214B0A449A4201D20B2154
:104D30001CE01F4A1F4B0A449A4201D20A2115E087
:104D40001D4A1E4B0A449A420FD31D4A1D4B0A446A
:104D50009A4201D2082109E01B4A11441B4A9142A0
:104D600001D2072102E0062100E00921C26822F4F5
:104D70007052C260C2684FF4705303EA81210A4343
:104D8000C260002070470000405327FF00350C0030
:104D9000401E1BFF40420F0000DC0BFF804F120043
:104DA000808CF9FE20D6130060B6E5FE60E31600A5
:104DB00000D3CEFE40771B00C05BB3FEC091210044
:104DC00000CA91FE20753800E05459FEE09C410075
:104DD00010B5044600214FF67F3004EB4112C2F8B3
:104DE0000809C2F8080B491C0F29F6D30020C4F8A3
:104DF0001008C4F81408C4F81C082046FFF79EFEEB
:104E0000002805D12046BDE810401021FFF7B2BEB2
:104E100010BD10B5029C6CB9DB1C9C0800EB023085
:104E2000002300F5805003E051F8042B02605B1C66
:104E3000A342F9D3002010BDFEE70907090E0028A0
:104E400004DB00F1E02080F80014704700F00F0050
:104E500000F1E02080F8141D704730380A2801D294
:104E60000120704700207047FEE700004FF4FA75FC
:104E70002846FBF717FE422219491AA0FBF79AFAB7
:104E8000492217491AA0FBF795FA4A22144925A08E
:104E9000FBF790FA4B22124915A0FBF78BFA2E4C28
:104EA0002E4E2846FBF7FEFD20680028F9D000F0C2
:104EB000E5F92846FBF7F6FD552209490CA0FBF75A
:104EC00079FA5622064926A0FBF774FA57220449BC
:104ED00007A0FBF76FFA304600F0B2F8E1E70000F8
:104EE000A05200085B25735D2025643A200D0A005E
:104EF0005B25735D2025643A203D3D3D3D3D3D3DB4
:104F00003D3D3D3D3D3D3D3D3D3D3D3D3D3D3D3DD1
:104F10003D3D3D3D3D3D3D3D3D3D3D3D3D3D0D0A24
:104F2000000000005B25735D2025643A203D3D3D77
:104F30003D3D3D3D3D2077616974696E6720666F38
:104F4000722055706772616465203D3D3D3D3D3D79
:104F50003D3D0D0A00000000040000200000010893
:104F60005B25735D2025643A203D3D3D3D3D3D3D43
:104F70003D2055706772616465202020436F6D701D
:104F80006C65746520203D3D3D3D3D3D3D3D0D0A38
:104F9000000000004FF0FF3070472DE9F05F4FF048
:104FA00000098A4683464F464C46FBF7D5FD4FF431
:104FB0008046F5001AE00BEB040000F0FBF8804699
:104FC0000221FBF7A1FC17B14FF0FF3910E0B8F157
:104FD000050F09D2DFE808F003030303050030469C
:104FE00003E04FF4803000E0284604445445E2D307
:104FF000FBF76AFD4846BDE8F09F2DE9F041904679
:105000000C4606460027FBF7A7FD00250FE000230E
:10501000227831461846FBF761FD307821788142CD
:1050200002D04FF0FF3704E0641C6D1C761C454530
:10503000EDD3FBF749FD3846BDE8F08100F0AEB88E
:1050400070B5044624221A491AA0FBF7B3F9206868
:105050002021B1EB106F22D100F07F4328221449A8
:1050600017A0FBF7A7F91A4960680840A0421DD1B4
:105070006420FBF717FD174D63682E220C4916A01C
:105080006B60FBF797F92068FBF7F8F831220849C5
:1050900019A0FBF78FF96868BDE870400047BDE8CC
:1050A0007040372202491AA0FBF784B970BD000096
:1050B000975200085B25735D2025643A200D0A0095
:1050C0005B25735D2025643A2025780D0A000000D9
:1050D0000000FF0F040000205B25735D2025643A6B
:1050E0002072657365745F48616E646C6572203D03
:1050F00020307825780D0A005B25735D2025643A01
:10510000207265736574212121200D0A00000000C2
:105110005B25735D2025643A657272200D0A0000DC
:10512000FBF7B6FEFEF7A0F8FDF7FCF9FDF710FA65
:10513000FDF72AFA79220B490BA0FBF73BF9FFF7A1
:1051400095FE7D2207490CA0FBF734F94FF47A74E1
:105150002046FBF7A7FC852202490BA0FBF72AF9A2
:10516000F6E70000925200085B25735D2025643A43
:1051700020626F6F740D0A005B25735D2025643A11
:10518000206170700D0A00005B25735D2025643A74
:10519000206170703333360D0A00000001B54FF006
:1051A000FF33012269460248FCF7AAFF009808BDB8
:1051B0001C01012001466FF000628B18002043F6AD
:1051C000FF72934204D321480844904201D2012047
:1051D00070471F480844904201D2022070471D4882
:1051E0000844904201D2032070471B480A184FF62A
:1051F000FF70824201D20420704718480A181848EC
:10520000824201D205207047164A0A44824201D2E6
:1052100006207047144A0A44824201D20720704790
:10522000124A0A44824201D208207047104A0A44B6
:10523000824201D2092070470E4A0A44824201D2BA
:105240000A2070470C4A0B2011447047FFBFFFF73C
:10525000FF7FFFF7FF3FFFF7FFFFFEF7FFFFFDF7C1
:10526000FFFF0100FFFFFBF7FFFFF9F7FFFFF7F775
:10527000FFFFF5F7FFFFF3F7FFFFF1F70148FEF738
:105280007DB90000640101204FF04070E1EE100A8A
:1052900070476D61696E006961705F6A756D70005D
:1052A000626F6F746C6F616465725F6D61696E00CF
:1052B000008002021F00000053544D2020202020B7
:1052C00050726F64756374202020202020202020DD
:1052D000302E303153544F524147455F57726974F5
:1052E000655F46530000000000000000000102035B
:1052F00004060708090000000001020304303132EF
:1053000033343536373839414243444546403058C6
:105310000030313233343536373839616263646591
:105320006640307800040000080000000000000023
:105330000200010000100000585300080000002087
:105340001C010100C4010008F45700081C010120E1
:105350000413000020020008C113D13514080136DF
:105360001B080D041A35041A5D041AB1141ADD0461
:10537000170403090412013202164083042A572637
:10538000020102030103241A03180E0108EB3C90EA
:105390004D53444F53352E303B1A064913028013A8
:1053A000F8012902811280180E29699DAD364E4FF1
:1053B000204E414D4520011E464154313208100B0C
:1053C00033C98ED1BCF07B8ED9B816208EC0FCBDFF
:1053D000104B7C384E247D248BC199E83C01721C13
:1053E00083EB3A66A11C7C26663B07268A57FC7530
:1053F0000680CA0288560280C31073EB33C98A46FE
:105400001098F7661603461C13561E03460E13D15A
:105410008B7611608946FC8956FEB8202013F7E68A
:105420008B5E0B03C348F7F30146FC114EFE61BFD0
:1054300013E8E61032723926382D741760B10BBEAE
:10544000A17DF3A66174324E740983C7203BFB72C1
:10545000E6EBDCA0FB7DB47D8BF0AC9840740C488F
:105460007413B40EBB07181BCD10EBEFA0FD7DEB42
:10547000E6A0FC7DEBE1CD16CD19268B551A52B076
:1054800001BB51123B202572E85B8A5624BE0B7C7F
:105490008BFCC746F03D7DC746F4297D8CD9894EEB
:1054A000F2894EF6C606967DCBEA03180A200FB69F
:1054B000C8668B46F866AF180A668BD066C1EA10DC
:1054C000EB5E1418434A4A8A460D32E4F7E203467B
:1054D000FC1356FEEB4A525006536A016A10918B38
:1054E0004618969233D2F7F691F7F64287CAF776C6
:1054F0001A8AF28AE8C0CC020ACCB80102807E0285
:105500000E7504B4428BF47D1814CD136161720BD7
:1055100040750142035E0B497506F8C3419C146057
:10552000666A180BEBB0424F4F544D47522001189A
:10553000230D0A52656D6F7665206469736B732065
:105540006F72206F74686572206D656469612EFFEB
:105550000D0A44181F206572726F720D1812507276
:1055600065737320616E79206B657920746F2010EC
:1055700077746172740D0A06FFACCBD855AA01FF8F
:1055800001FF01FF01FF01FF01FF01FF01FF01FF1B
:1055900001FF01FF01FF01FF01FF01FF01FF01FF0B
:1055A00001FF01FF01FF01FF01FF01FF01FF01FFFB
:1055B00001FF01FF01FF01FF01FF01FF01FF01FFEB
:1055C00001FF01FF01FF01FF01FF01FF01FF01FFDB
:1055D00001FF01FF01FF01FF01FF01FF01FF01FFCB
:1055E00001FF01FF01FF01FF01FF01FF01FF01FFBB
:1055F00001FF01FF01FF01FF01FF01FF01FF01FFAB
:1056000001FF01FF01FF01FF01FF01FF01FF01FF9A
:1056100001FF01FF01FF01FF01FF01FF01FF01FF8A
:1056200001FF01FF01FF01FF01FF01FF01FF01FF7A
:1056300001FF01FF01FF01FF01FF01FF01FF01FF6A
:1056400001FF01FF01FF01FF01FF01FF01FF01FF5A
:1056500001FF01FF01FF01FF01FF01FF01FF01FF4A
:1056600001FF01FF01FF01FF01FF01FF01FF01FF3A
:1056700001FF01FF01FF01FF01FF01FF01FF01FF2A
:1056800001FF01FF01FF01FF01FF01FF01FF01FF1A
:1056900001FF01FF01FF01FF01FF01FF01FF01FF0A
:1056A00001FF01FF01FF01FF01FF01FF01FF01FFFA
:1056B00001FF01FF01FF01FF01FF01FF01FF01FFEA
:1056C00001FF01FF01FF01FF01FF01FF01FF01FFDA
:1056D00001FF01FF01FF01FF01FF01FF01FF01FFCA
:1056E00001FF01FF01FF01FF01FF01FF01FF01FFBA
:1056F00001FF01FF01FF01FF01FF01FF01FF01FFAA
:1057000001FF01FF01FF01FF01FF01FF01FF01FF99
:1057100001FF01FF01FF01FF01FF01FF01FF01FF89
:1057200001FF01FF01FF01FF01FF01FF01FF01FF79
:1057300001FF01FF01FF01FF01FF01FF01FF01FF69
:1057400001FF01FF01FF01FF01FF01FF01FF01FF59
:1057500001FF01FF01FF01FF01FF01FF01FF01FF49
:1057600001FF01FF01FF01FF01FF01FF01FF01FF39
:1057700001FF01FF01FF01FF01FE134D311B083D39
:10578000041A51041A55041A59041A75041A4904C2
:1057900013B05233080182105324F413953D1408BA
:1057A0008D3C1408573E82081A79101A8304C11AD6
:1057B00039281A0D041A69041A01041A814D1409B2
:1057C00002202008010104C0320904200B0208064F
:1057D000500507058102402C07050107130A063210
:1057E000022A4078190A1A80021B0820014203622B
:0457F00006000000AF
:040000050800018965
:00000001FF
